:020000022000DC
:1070000000000220757302005D7302005F730200CE
:1070100061730200637302006573020000000000E8
:107020000000000000000000000000006773020084
:1070300069730200000000006B7302006D730200B0
:10704000A9A502006F73020041AA020095B40200D4
:107050006F7302006F730200C1A802006F73020019
:107060006F7302006F7302006F7302006F73020090
:107070006F7302006F7302006F7302006F73020080
:107080006F730200E98802006F7302006F730200E1
:107090006F7302006F7302005DD002006F73020015
:1070A0006F7302006F7302006F7302006F73020050
:1070B0006F7302006F730200000000000000000008
:1070C0006F7302006F7302006F7302006F73020030
:1070D0006F7302006F7302006F7302006F73020020
:1070E0006F730200000000000000000000000000BC
:1070F000000000006F730200000000006F730200C8
:10710000000000000000000000000000000000007F
:10711000000000000000000000000000000000006F
:10712000000000000000000000000000000000005F
:10713000000000000000000000000000000000004F
:10714000000000000000000000000000000000003F
:10715000000000000000000000000000000000002F
:10716000000000000000000000000000000000001F
:10717000000000000000000000000000000000000F
:1071800000000000000000000000000000000000FF
:1071900000000000000000000000000000000000EF
:1071A00000000000000000000000000000000000DF
:1071B00000000000000000000000000000000000CF
:1071C00000000000000000000000000000000000BF
:1071D00000000000000000000000000000000000AF
:1071E000000000000000000000000000000000009F
:1071F000000000000000000000000000000000008F
:10720000354936480A1A02D0072291438D4634493F
:1072100034480A1A06D00722914381F309880222D2
:1072200082F3148830483149314A00F044F831483B
:107230003149324A00F03FF831483249324A00F0D1
:107240003AF832483249334A00F035F83248334987
:10725000334A00F030F833483349344A00F02BF811
:1072600033483449344A00F026F83448344900227F
:1072700000F02CF833483449002200F027F8334856
:107280003349091A082902DB002202604160314AB1
:1072900090471F481F49884205D00268043003B454
:1072A000904703BCF7E700208646EC46002000210B
:1072B000294A9047FEE7884207D0521A05D0037842
:1072C00001300B700131013AF9D17047884202D088
:1072D00002700130FAE770470000022000F8012038
:1072E0000000022000000220E4E70200005000201D
:1072F000EC500020D0730200D0730200E6D50200EB
:10730000E4E70200005000200050002014D70200E3
:1073100014D7020014D7020014D7020014D70200B9
:1073200014D7020014D7020014D70200E2E70200CB
:10733000D0E80200EC500020EC500020EC5000207F
:10734000A85C0020A85C0020A85C0020A85C0020AD
:10735000A86400209D73020019BF0200FEE7FEE74B
:10736000FEE7FEE7FEE7FEE7FEE7FEE7FEE7FEE7F5
:1073700000F002B8FFF7FCBF0F484FF00701884349
:1073800085460E4880470E48016841F4700101604F
:10739000BFF34F8FBFF36F8FFFF732BF09480A4922
:1073A0000A4A884207D0521A05D0037801300B7080
:1073B0000131013AF9D1704700000220B5A0020066
:1073C00088ED00E014D7020000500020005000209B
:1073D000F0B595B01D46164608460C4601F02EFE47
:1073E0001A9B0D93CDE9086500252B46082205A9B7
:1073F00020460A958DF82C500C9501F03CFE079B19
:107400000293069B03939DF814308DF8115003F0FE
:107410000302012A1DD1BDF81420059DC3F3C20348
:10742000C2F383168DF81030B20008230EA920464F
:1074300001F021FEC5F3952508AB0093324602AB5F
:107440000EA9284600F090FB204601F0FBFD15B088
:10745000F0BD022AF8D1BDF81650C3F3C203C5F33C
:1074600089158DF810300827082D2E4628BF0826CC
:107470003B4632460EA9204601F0FDFDAD1B08AB90
:1074800002AA31460EA8374400F0D2FB002DEBD102
:10749000DAE7000008B500F0A5FC0448042100F07C
:1074A000CDFA034B01225A7108BD00BF04D7020078
:1074B00000500020037813F0040216D003F00303F9
:1074C000012B03D0022B09D0012070470A680088E5
:1074D0000232C0F3831002440A60F5E70B68428869
:1074E000023303EB92130B60EEE710467047000087
:1074F0002DE9F04F87B000230446861C0DF10700EC
:107500000F4615468DF8073001F080F8404A516863
:107510003960936803F580735B1A924602F21C4748
:1075200002F5836902F21448B3421AD30020002DF9
:1075300069D004F00F039B0143F0050363F30F00D0
:10754000DAF80430DAB203321E444AF822009DF819
:107550000700CAF8046001F07DF8012007B0BDE81B
:10756000F08F0121384601F09CFA484601F0B1FA4B
:10757000404601F0AEFADAF808000290C0B20330DB
:107580000AEB800002A9FFF795FF029B30BBDAB23D
:107590000AEB8202D16803919A1C0133DBB20AEB39
:1075A00083030292D3F80CB001F00303012B22D025
:1075B000022B15D08346404601F08EFA10B1029B93
:1075C000CAF808305946384601F06BFADAF8083044
:1075D000DAF8042003F580739B1AA5E7D8B2CEE74A
:1075E000BDF80E30C3F3891303334FEA1B4B02EB94
:1075F00093030293DFE7BDF80C30C3F383134FEA24
:107600001B4B1344F5E7A40544F0060098E700BFC0
:10761000BC510020064B074810B500221A7001F03B
:10762000C6FC044610B9044801F06EFD204610BDAA
:10763000BC51002050D602003CD7020030B50A4CA5
:1076400071B10A4A0A49121BD20800239A4201D199
:10765000002030BD31F82350854202D00133F5E7D8
:10766000034654F83300F4E764D6020004D702005E
:1076700000500020094B013903EBC000032909D851
:10768000DFE801F00A020406042070470079704721
:1076900040797047002070470220704764D602008E
:1076A000034BD3E90130C31A58425841704700BF19
:1076B000BC5100202DE9F04186B0FFF7F1FF0546EF
:1076C000002840F0E680744CC4F81804BFF34F8FD4
:1076D000A3680293DBB2033304EB830002A9FFF734
:1076E000E9FE029B18B1D4F81824002A55D0DAB26A
:1076F000991C013304EB8202DBB204EB8303D268F2
:10770000DB68049302F00303022B039202914FD132
:10771000BDF80E306148C3F38917502F3E4628BF8D
:10772000502666F38F1306F10801ADF80E3001F014
:1077300056FC0546002800F0978001F07FFC0023EE
:1077400003A90822284601F08CFC0299CB43DBB246
:107750000133C9B20331B6EB830F4FEA830804EB60
:10776000810122D908234246A6EB0806284601F0EB
:1077700078FCF6B24A4908F108033246284601F07F
:1077800070FC029B033703EB97070297D4F8183479
:10779000002B41D1D4F8106451E062689A4299D824
:1077A000A260284606B0BDE8F08108233246E5E72E
:1077B000012B59D1BDF80C303848C3F38311062989
:1077C00028BF062161F3891302318900ADF80C301E
:1077D00001F005FC0546002846D001F02FFC0023EF
:1077E000082203A9284601F03CFC0026BDF80C2025
:1077F000C2F38312B300964203F10803C6D2029982
:107800004A1CC9B20331029204EB810104222846CA
:1078100001F027FC0136E9E7284601F013FCFFF7E9
:107820003FFF80F00100C5B2BBE7F3685B7923B18D
:10783000336829461B6830469847F3681E68002E57
:10784000F3D1284601F0FEFB0DF107008DF807602B
:1078500000F0DCFED4F818340BB9029BA3609DF84D
:10786000070000F0F7FEDAE7D4F8104454B90D4BE6
:107870000D480E49C01AC008000440F0020000F094
:107880005DF8CCE7236820469B689847E3681C684E
:10789000ECE7002585E700BFBC51002050D6020070
:1078A000C851002064D6020094D6020025D70200F9
:1078B0002DE9F34704460E46924601A901221846D7
:1078C0009946FFF715FE1B4F10B3019D4FF00008BE
:1078D000AA1CC84508EB020123D11748002101F07A
:1078E000B1F880F31000000440EA1440E4006B1C7F
:1078F00004F03804DBB2EDB244F0010407EB83037B
:10790000033544EA881444EA8624D86047F82540C1
:107910003B781BB1FFF7CEFE0028FBD102B0BDE8DB
:10792000F087C9B207EB81015AF82830CB6008F123
:107930000108CEE7BC510020D855002000231A468C
:10794000FFF7B6BF07B50123019201AAFFF7B0FF09
:1079500003B05DF804FB07B5CDE9002302236A46B6
:10796000FFF7A6FF03B05DF804FB7FB5CDE9002368
:10797000089B0293099B03930A9B04930B9B05931B
:107980006A460623FFF794FF07B05DF804FB00008A
:107990002DE9F7430446D01C8846164601A900226B
:1079A0008008FFF7A5FD234D80B3019FB81C01900F
:1079B000C0B2C0F58073B6EB830F00F103004FEA4D
:1079C000830905EB80002AD83246414605F07FFD49
:1079D0001948002101F036F880F310007B1CDBB25F
:1079E000FFB2220C05EB8303033742EA0040E400B8
:1079F000D86004F0380455F8273044F0020444EA13
:107A0000865203F47C131A4345F827202B781BB1C8
:107A1000FFF750FE0028FBD103B0BDE8F0834A46D3
:107A2000414605F054FDA6EB090208EB090105F1FA
:107A30000C00CBE7BC510020D855002030B50F49D1
:107A4000D1F8102403460020144634B9DC682071B4
:107A50004AB9C1F81034226030BDE4682579854206
:107A600006D02468F1E7D268116821601360F3E75B
:107A700001300A28E8D14FF0FF30EDE7BC5100207B
:107A8000084A38B50123D2F8104413701D4604B9D2
:107A900038BDE3685D71236820465B689847E368FA
:107AA0001C68F4E7BC51002007B503460846197A64
:107AB000052911D05B7A2BB1094A0A49019001F0DE
:107AC0006EF801980849019001F069F8019803B037
:107AD0005DF804EB01F058B8002AF8D0F2E700BFD7
:107AE00048D702007AE102006AD7020030B5C388A5
:107AF00085B004460D4633B1144A00921449154A24
:107B0000284601F04CF8217A05291DD0637A4BB143
:107B1000A088FFF7AFFD104B104953F820202846EE
:107B200001F03DF8227A0E4BA08853F822200392F0
:107B30000021FFF783FD039A0A490346284605B052
:107B4000BDE8304001F02BB805B030BD48D7020089
:107B500055D702004DD70200D4D702007AE10200C7
:107B6000F8D702006DD702002DE9F04385B01F461B
:107B70000C9D002395F80C902B7306460C469046FE
:107B800029463846FFF7B2FFB8F1060F09D8DFE8FB
:107B900008F00412181F283340003146284600F030
:107BA000FEFF002229463846FFF77EFF85F80C903D
:107BB00005B0BDE8F08322683146284600F0EFFFAB
:107BC000EFE7D4E900233146284600F0E8FFE8E774
:107BD000A36800933146D4E90023284600F0DFFF74
:107BE000DFE7E3680193A36800933146D4E90023FB
:107BF000284600F0D4FFD4E723690293E368019399
:107C0000A36800933146D4E90023284600F0C7FF5B
:107C1000C7E76369039323690293E3680193A36849
:107C200000933146D4E90023284600F0B8FFB8E7B6
:107C300008292DE9F74F80460E4617461C463CD8CA
:107C4000002593F80C901D7319461046FFF74EFF60
:107C5000DFF888A0DFF888B0AE4231D918F80520E7
:107C60005946204600F09BFF0135082DF4D11949F3
:107C7000194DDFF870A0204600F091FF4FF0000B87
:107C80005E4522D918F80B207E2A05D810460192AD
:107C900005F018FC019A00B92E225146204600F04A
:107CA0007EFF0BF1010BBBF1080FE9D10122214648
:107CB0003846FFF7F9FE84F80C9003B0BDE8F08F6A
:107CC0005146204600F06BFFCEE72946204600F0E3
:107CD00066FFE6E781D702007FD702007DD702006A
:107CE00077D7020083D70200014B01221A70704738
:107CF000B55600207047000070B5124D06460FCDF6
:107D000088B06C460FC495E80F00002E84E80F0081
:107D10004FF0FF334FF00602CDE90023CDE90233E7
:107D2000094A0A484FF0EB7308BF002269460693E0
:107D300002F0C0FB08B100F0C5F9054B1E7008B099
:107D400070BD00BF0CD80200E97C02000850002082
:107D50007456002007B5044B0093044A4023FFF7F4
:107D600037FB03B05DF804FB717D020075560020FF
:107D700038B50D4B0D4D002018700D4804782D5D61
:107D8000D2B21C4665B1043003F010FB08B100F01C
:107D900099F9084B1A7812B12378002BFBD038BD23
:107DA0000C3003F09BF8F1E7B55600205458002042
:107DB000085000207456002008B50848084A037887
:107DC000D35C3BB1043003F06DFABDE808400020FD
:107DD000FFF792BF0C3003F025F8F6E708500020BB
:107DE000545800200120FFF787BF0000C30710B5DB
:107DF00007D4F023054A4008145C2340194311546A
:107E000010BD0901C9B20F23F4E700BFE8560020F6
:107E100030B5094B1C78094B196800239C4202DCE1
:107E20000022104630BD11F83350854201EBC302E9
:107E3000F7D00133F2E700BFB65600200857002004
:107E400013B504460191FFF7E3FF38B143682BB146
:107E50000199204602B0BDE81040184702B010BD9D
:107E6000034B044819680022490800F0A2BA00BF79
:107E7000B8560020C056002010B5C0B2FFF7C8FFAA
:107E80000446007802F00EFD63785A1E53425341B7
:107E9000834208D1044BD3E90023134303D1BDE847
:107EA0001040FFF7DDBF10BDE056002037B5430896
:107EB000354AD35CC2074CBF1B0903F00F030446CD
:107EC0000D46042B35D8DFE803F003252C383C00A1
:107ED00079B30121FFF78AFF00230DF107008DF828
:107EE000073000F093FB0120A4F12003C4F120012E
:107EF000264A20FA01F100FA03F30B43A040D2E92D
:107F0000004120430B43C2E900039DF8070000F045
:107F1000A1FB0EE0002918BF02212046FFF766FFF3
:107F200007E041B10321FFF761FF01212046FFF780
:107F300087FF03B030BD0121EFE70029F9D104210B
:107F4000EBE709B10321E8E7FFF750FF2946204698
:107F5000FFF776FF0DF107008DF8075000F056FB94
:107F60000120A4F12003C4F12001084A20FA01F104
:107F700000FA03F30B43A040D2E9004124EA0000D9
:107F800021EA0303BFE700BFE8560020E0560020C7
:107F90002DE9F041124E134F00243378A34208DC40
:107FA000114BD3E90023134318D0BDE8F041FFF78C
:107FB00057BF3D6805EBC40815F8340002F072FCA9
:107FC00098F801305A1E53425341181A4142414118
:107FD00015F83400FFF76AFF0134DEE7BDE8F081F1
:107FE000B656002008570020E0560020092AF7B5B1
:107FF00005460C4616463CD902F084FBD8B11E4B10
:108000001E481D601E4B1F4F1C701F4B002120225D
:108010001E6005F085FA1D4B00200021C3E9000118
:10802000013CE4B20326FF2C0BD1194A1948002168
:1080300000F0B4F903E002F01FFB0028DFD003B02A
:10804000F0BD9DF8063015F834008DF8046005EB9E
:10805000C40223F007038DF8063001A993788DF848
:1080600005303A4602F058FB013CE4B20028DAD071
:10807000E5E70720E3E700BF08570020E8560020A7
:10808000B6560020797E0200B8560020E056002047
:10809000917F020044D8020070B5084D084E0024BC
:1080A0002B789C4201D3002070BD3368012113F866
:1080B000340002F0ADFB0134F2E700BFB6560020F9
:1080C000085700201FB50021039001AA44F20100C7
:1080D000CDE9011100F004F805B05DF804FB0000E3
:1080E00010B572B6FFF7CCFCFFF7E4FA0028FBD11D
:1080F000104B114C1149E41AE408240444F0010027
:10810000FFF71CFC0E4B1B68DB0700D500BE0D49BA
:1081100044F00200FFF712FCBFF34F8F0A490B4BEC
:10812000CA6802F4E0621343CB60BFF34F8F00BF15
:10813000FDE700BF64D6020094D6020048D80200D2
:10814000F0ED00E054D8020000ED00E00400FA0574
:1081500010B58468C2688388121B934208D3C26832
:1081600013400268D154C3680133C360002010BDBE
:108170000420FCE78268C3689A420AD08268838838
:1081800013400268D35C0B70836801338360002066
:1081900070470520704700004B1C30B5DB000446DB
:1081A00012F003009BB20DD1074D2A601A44074B11
:1081B0001A60074B1870074B1870074B1C80074B51
:1081C000198030BD0720FCE714570020105700200D
:1081D0000C5700201C570020185700201A57002069
:1081E000F8B5114C114D264622782B789A4200D1D1
:1081F000F8BD0F480F4A2378126807880E4802EB33
:10820000C301006852F83320898803FB07009047B8
:108210000A4922780988D3B2914286BF0133DBB282
:1082200000233370E0E700BF1C5700200C570020EC
:108230001857002014570020105700201A5700200C
:10824000D0E90223D1E90201994208BF90422CBF34
:10825000012000207047000008B50B4800F02DFBFE
:108260000A4B0B49D3E900231218D1E9000143F16D
:1082700000038B4208BF824203D212F1807243F1A5
:1082800000031046194608BD1C5000202857002046
:10829000A057002037B505460C460A4801A900F052
:1082A00040FB60B10570446001A9064800F063FB23
:1082B00018B1054800F006FB002003B030BD0420D3
:1082C000FBE700BF8C5700201C50002038B5184B2E
:1082D0001B78044613B90025284638BD0028FAD07B
:1082E000037F03F0FF05002BF5D0FFF7B5FFD4E9BE
:1082F0000223994208BF904214D3236903B923771C
:10830000D4E90530984721690029E4D0237F03F0A0
:10831000FF05002BDFD0D4E90223521843F10003FC
:10832000C4E902230348214600F00DFFD4E700BF53
:108330003057002070D8020013B5114B114918684E
:10834000019008231048582200F0D8FA044698B942
:108350000E4A0F4801A900F0A1F9044660B90C4883
:10836000012100F08DFA01230A4A0948194600F05C
:10837000EFF9094B01221A70204602B010BD00BF70
:108380006CD80200345700208C570020FD83020077
:108390001C500020FFFF7F00305700203AB10368D7
:1083A0005A614A1E5142514119610020704707200D
:1083B000704738B5037F04460D4683B98261FFF7E5
:1083C0004BFF2369401941F10001C4E9020103B1E7
:1083D000256121460020BDE83840FFF75BBF002043
:1083E00038BD0023014603770120FFF753BF00008B
:1083F000014800F062BA00BF1C5000202DE9F04F88
:1084000085B0804600F044FA40B15A4AD2E90031C2
:1084100013F1807341F10001C2E9003100214046AF
:1084200000F045FA38B1544E336823B13068FFF795
:108430004DFF002333600121404600F038FA20B19F
:10844000FFF70AFF4D4BC3E900014D484A4F4D4E1F
:10845000DFF8389103A900F09EFA002845D1DFF833
:108460002491454EDFF828A1484600F082FE33688B
:10847000002875D07BB13368D0E90201D3E902232B
:10848000994208BF90422DD233681B7F1BB13168DF
:10849000484600F058FE484600F065FED0E902B3B9
:1084A00007460193FFF7D8FE019BBBEB000463EB8B
:1084B0000105012C75F1000345DBB4F5350F40D300
:1084C000FFF796FF304A02444FF4960300215046CE
:1084D00000F05EF900283ED1336813B9404600F041
:1084E0002FF9376005B0BDE8F08F0378012B1DD060
:1084F000022B09D14FF0000A304600F034FE00286C
:1085000034D080F81CA0F7E73BB941680B7F23B952
:1085100001230B77304600F016FE03A9184800F03F
:1085200065FA03A9164800F036FA96E741683B68F9
:10853000994202D100233B60EFE7304600F01CFE79
:10854000EBE7BA68C0E70021504600F0A6F93846CC
:10855000FFF7BCFE01E00D28F9D00023336083E76C
:10856000002BBFD1404600F0EFF8BBE7012389F8AC
:108570000030D2E728570020A8570020A05700203D
:108580008C57002070D80200FFFFB4003057002045
:108590001C5000200648074A03780749D35C012293
:1085A00013B1043002F002BF0C3002F097BC00BFE0
:1085B0002450002054580020BC57002010B501461C
:1085C0000E48FFF7C5FD0446A8B90D480D4A0378CB
:1085D000D35C63B1043002F031FF60B90A49074847
:1085E000FFF7C8FD38B9BDE81040FFF7D3BF0C3026
:1085F00002F0BAFCF1E7204610BD00BFAC570020E6
:108600002450002054580020BC57002070B5EFF3D0
:10861000108672B60C4A946801239CB993600B4B88
:108620000B4DD3F8801029401160C3F88050D3F867
:10863000841051604FF0FF32C3F88420047006B9F3
:1086400062B670BD0370FAE7C057002000E100E099
:10865000FC06FFBD084B9A6810B55AB150B9EFF34C
:10866000108172B6054A1C6814605C68546098609A
:1086700001B962B610BD00BFC057002000E100E0A4
:10868000435882B03BB10023435043580193019BB0
:10869000012002B070471846FBE70000F8B5204BF8
:1086A0004479204D43F824201F4A204B05EBC40495
:1086B0009B1A2279DB081B0432B143F002001C49EB
:1086C000FFF73CF90820F8BD02680C88C2F808459D
:1086D00090F904608A7804795201002ED2B219DB35
:1086E00014498F1987F800230122760904F01F042A
:1086F00002FA04F441F82640427905EBC201012454
:1087000045F832000C7143F003000B49FFF716F9EE
:108710000020D8E7094904F00F040A55ECE700BF30
:10872000D4570020CC57002064D60200A4D6020003
:108730007CD8020000E100E09ED8020014ED00E0C9
:10874000036801221A607047036801225A6070476B
:1087500073B501F15005AD000068ADB24FF480343F
:108760008C400026C0F80843C0F84843465101F544
:10877000A8714559019522F07F42019D40F82120C2
:10878000C0F844430BB1C0F8044302B070BD000010
:108790002DE9F74F0D4622F07F4402684FF48037F1
:1087A00005F150068F408046B60002EB8500C2F806
:1087B0004873B6B2C2F80873D2F8041599464FF060
:1087C000000BD0F84035C0F8401542F806B05B1AEF
:1087D0009259009223F07F43012B009A4FEA850AB9
:1087E0000CD1264B4FF4806043F001039847D8F832
:1087F000003043F806B09B590193019BD8F8001054
:10880000D1F80465C1F84473A31B23F07F43012B07
:108810001CD11A4B05F5A875013443F0010341F84A
:1088200025404FF480609847D8F80030D3F80435DD
:108830009E4209D1D8F800300020C3F84473C3F831
:10884000047303B0BDE8F08F0D20FAE78A44C9F144
:10885000FF13CAF84045D1F80405221A013A22F064
:108860007F4203F57F439342EED3002AE2D10134E5
:10887000CAF84045D1F804359842DAE7B0D802008A
:1088800003680222C3F8442309B1C3F804237047E4
:1088900000684FF48271FFF7F3BE4FF4803303FAA0
:1088A00001F10368C3F84813C3F808137047503147
:1088B0008900006889B2FFF7E3BE0368D3F80405B6
:1088C0007047000090F90430002B09DB5A090121A0
:1088D00003F01F0301FA03F34032024941F822304A
:1088E000704700BF00E100E0024B034A1B681068BC
:1088F000184700BFD4570020CC57002010B561B1F5
:10890000B2FBF3F403FB1424A4B244B9C0E900148D
:1089100084608281C381204610BD0E20FCE70920BF
:10892000FAE737B550E8013F9DB2C48925448489F0
:10893000A54228BF2D1B0489A54202BFBFF32F8F7C
:10894000002207E0C5EA030540E80154002CE9D104
:108950004FF001028DF803200193019B9DF8032045
:108960000B6002F0FF0322B10B880068184403B0CB
:1089700030BD1846FBE70A884B889A4209D150E877
:10898000012FC2EA024240E80123002BF7D1012067
:1089900070470020704737B550E8023F1FFAA3F533
:1089A000C488A54202BFBFF32F8F00220DE0C48907
:1089B00025448489A54228BF2D1BC3EA054540E80C
:1089C0000254002CE8D14FF001028DF803200193EE
:1089D000019B9DF803200B6002F0FF0322B14B883E
:1089E0000068184403B030BD1846FBE70A884B887E
:1089F0009A4209D150E8022FC2EA224240E80223FB
:108A0000002BF7D1012070470020704701F01F02B2
:108A10004B090121914000EB830000F01EB801F0EA
:108A20001F0301229A404B0900EB8300D14300F061
:108A30002CB84B0901F01F0150F82300C84000F08A
:108A40000100704710B5034653E8000F0A4643E89B
:108A5000002494F0000FF7D110BD10B5034653E881
:108A6000002F42EA010043E8000494F0000FF6D121
:108A700010BD10B5034653E8000F00EA010243E8B9
:108A8000002494F0000FF6D110BD10B5034653E852
:108A9000002F02EA010043E8000494F0000FF6D131
:108AA00010BD10B5034653E8002F02EB010043E868
:108AB000000494F0000FF6D110BD10B5034653E842
:108AC000002FA2EB010043E8000494F0000FF6D160
:108AD00010BD0121FFF7C1BF0021FFF7CABF10B5CC
:108AE00090B1D0E9012301689B1ADBB20A60013B17
:108AF000DBB2FF2B026802D10020107110BD11689B
:108B00004C1C14600B70F2E70E20F7E737B50546F2
:108B100000240DF107008DF80740FFF777FD2A6864
:108B20006B68116899420ED9481E106011F8014C0B
:108B3000EB68298A01FB0434AB6811791B1ADBB29C
:108B4000994238BF13719DF80700FFF783FD204657
:108B500003B030BD37B5054600230DF107000C46C4
:108B60008DF80730FFF752FD2A681368591C116011
:108B7000E968641A298AB4FBF1F41C709DF80700B7
:108B8000FFF768FD03B030BD826810B504462AB116
:108B900043690168006998470023A36010BD0EB4C3
:108BA00003B5039921B104AB01AA019300F06EF85B
:108BB00002B05DF804EB03B07047826830B404681B
:108BC000551C8560A154D0E901329A4202D330BCD1
:108BD000FFF7DABF30BC70472DE9F84F9846DDE962
:108BE0000A43154682460F460A464FF00109AA423B
:108BF0000FD2C14538BFC14613F0010B01D16CB98A
:108C000000240126B8F1010F1BD908F1FF386E438B
:108C1000F8E709F10109B2FBF5F2E8E79B070ED589
:108C2000B8F1000F0CBF30262026A145E9D2013C47
:108C300031465046FFF7C1FF002CF6D1E0E7202671
:108C4000F3E7B7FBF6F39D42E1D9DFF83C80B7FBD1
:108C5000F6F3504618F8031006FB1377FFF7ADFF45
:108C60003346AB42B6FBF5F6F1D2BBF1000F02D0B2
:108C70000CB1A14501D3BDE8F88F20215046013C3D
:108C8000FFF79BFFF4E700BFB6D802002DE9F74FCE
:108C9000054617468846002900F0428118F8011B56
:108CA00049B92B7B002B00F03B81284603B0BDE87F
:108CB000F04FFFF769BF252940F0B780002698F8EC
:108CC00000302D2B424608F1010823D0302B24D050
:108CD0002B2B25D000242A2B02F1010123D13B6844
:108CE0001A1D1B683A601C440A4613782E2B26D1A5
:108CF00001324FF0000A104610F8011BA1F1300CB0
:108D0000BCF1090F1DD80A2303FB0A13A3F1300A93
:108D10000246F0E746F00106D1E746F00206CEE74C
:108D200046F00406CBE711F8013CA3F13000092816
:108D3000DBD80A2202FB0434303C0A46CBE74FF072
:108D4000000A12F8011B01F0FB0068289046F8D0D9
:108D5000782909D86F290CD8632962D022D825290F
:108D600063D0582900F0888098F80030002B95D106
:108D700097E770390829F7D801A353F821F000BF0D
:108D8000FB8E0200698D0200698D0200898E02004F
:108D9000698D0200678E0200698D0200698D0200F4
:108DA000798E0200642901D06929DDD13A68D2F8B0
:108DB0000090111D89EAE9723960A2EBE9724FF067
:108DC000010B092A35DCD34538BFD3462CB1B9F1A4
:108DD000000F01DB720700D5013CB30702D5BAF1E1
:108DE000000F03D0F00701D44CBB0024B9F1000FF1
:108DF0002DDAC9F100092D212846FFF7DEFE06F025
:108E00000302022A04D1BAF1000F01D11CBB0024D5
:108E1000CDE9004653460A2249462846FFF7DCFEC4
:108E2000A2E73B681A1D19783A602846FFF7C5FE8D
:108E30009AE70A230BF1010BB2FBF3F2C1E7A3455A
:108E4000D4D220212846013CFFF7B7FECCE77107BA
:108E5000D5D52B21D0E7A345DAD230212846013CD5
:108E6000FFF7ABFED2E73968CDE900460A1D3A604C
:108E700053460A220968D0E739680A1D3A60CDE9ED
:108E8000004653461022F5E73B681A1D3A6016F07B
:108E90000106D3F8009028D1B9F1000F03D048465D
:108EA00004F071FB0646B44200D904BB09F1FF3956
:108EB00019F8011F00293FF457AF2846FFF77DFE40
:108EC000F6E728460136FFF778FE19F80610002964
:108ED000F7D1A642BFF448AF002C3FF445AF2021A4
:108EE0002846013CFFF769FEF3E70026EDE7202165
:108EF0002846013CFFF761FED5E73B681A1D3A6042
:108F0000302128461C68FFF758FE78212846FFF7D5
:108F100054FE00220823CDE90032214610227CE7CE
:108F200003B0BDE8F08F00BF2DE9F84FB0F806A000
:108F30004579D2F800B09DF828900AFB05F5043D6C
:108F400088460BEB0301A94203F1040488BFA5EB9B
:108F5000030BB4FBFAF607460AFB1644C2F800B04E
:108F60004EB9AAEB04055D4528BF5D46BBF1000F75
:108F700004D1BDE8F88F3F68013EF1E7043408EB07
:108F800006003C442A46B9F1000F0DD02146ABEB58
:108F9000050B04F09CFADA452E443F6855464FF025
:108FA000000428BF5D46E1E701462046EFE7FFF7F2
:108FB00096BDF8B546790146721E054600239342D8
:108FC0002D6803D30024A64202D8F8BD0133F6E78A
:108FD0000F682846FFF7BEFD01343946F3E72DE957
:108FE000F843068ACD1C0746FFF790FD043E354442
:108FF0000446B5FBF6F5F0B14FF48073EDB2838013
:10900000C680013D076081464FF00008A84512D296
:109010003846FFF77BFD064648B16379013363713B
:1090200008F10108C9F8000007608146EEE7204614
:10903000FFF7BFFF34462046BDE8F8830121043026
:10904000FFF72FBD10B5012104460430FFF735FDB1
:1090500010F0FF0F04D12046BDE81040FFF7A9BF74
:1090600010BD1FB503920022009203AAFFF75CFF18
:1090700005B05DF804FB1FB503920122009203AA1C
:10908000FFF752FF05B05DF804FB41DF70470000B9
:10909000064B10B500241C70054B1C60BFF35F8F9E
:1090A0000449054800F039F8204610BDE05700207B
:1090B000E4570020D0D80200D857002007B500237D
:1090C0000DF107008DF80730FFF7A0FAF1EE103A26
:1090D00023F09F03E1EE103ABFF35F8F094B40226C
:1090E000C3F884219DF80700FFF7B4FA03F09CFF52
:1090F00020B1FFF7CAFF03B05DF804FB20BF40BFFB
:1091000020BFF8E700E100E0836800225A60C3E96D
:1091100004229A60DA601A6070470B684A684360FC
:10912000934208BF0023016008BF43607047436853
:1091300043B10268916852680B449342436004BF94
:1091400000234360704770B5446806460D462068AA
:1091500018B1B3682946984718B923682B60256071
:1091600070BD2468F3E74368186808B102681A60A4
:1091700070474368186870474368186800B97047BB
:10918000884203D102681A600120704703460068D4
:10919000F4E7000010B50D49A1F59472914201D891
:1091A00000200FE08C1AE30F03EBE4035B1002EBEB
:1091B000C30452F83330834205D802D204F10802C6
:1091C000ECE7606810BD2146E8E700BFDCDD020087
:1091D00008B5FFF7DFFF024B002808BF184608BD9F
:1091E0009FDC0200094B01220321DA60C3F8081555
:1091F0000421C3F810150221C3F80022C3F8041596
:109200000021C3F840151A60704700BF009000406D
:10921000094B01220321DA60C3F808150421C3F8C1
:1092200010150221C3F80022C3F804150021C3F869
:1092300040151A60704700BF00A0004008B50C221E
:109240000348002104F06CF9024B00221A6008BDAB
:10925000E8570020F457002008B5FFF7C3FFFFF7D9
:10926000D7FF4FF0A0434FF04052C3F81825C3F882
:109270000C25C3F80825C3F80C25144B144AC3F871
:10928000242502F58072C3F8282503F5C833114A56
:10929000C3F83C251049C3F838150432C3F84425F7
:1092A000A2F59D42683A0D48C3F84025C3F84C0525
:1092B000C3F8481501F50F410831C3F85415C3F838
:1092C00050254FF4F072C3F8042508BD006000403B
:1092D000031C03001460004000110040089000408F
:1092E000084B09494FF4F072C3F80825074A0123D7
:1092F000CB60D3604B605360054A00231360054A7E
:109300001360704700F001400090004000A0004052
:10931000FC570020F85700201C481D4ADFF880C089
:10932000F8B501231B4F03641364D0F840353C6843
:10933000194ED2F84015C4EB53043368C91A64239C
:1093400003FB01F5B5FBF4F5CCF80050D0F840056F
:1093500040083860D2F840253260104A90680144D5
:1093600050689160204414F5803F03FB01F3506086
:10937000B3FBF0F3136006D900233B603360FFF7C3
:10938000AFFFFFF769FF2846F8BD00BF009000401F
:1093900000A00040FC570020F8570020E8570020AC
:1093A000F4570020014B1868704700BFF4570020A5
:1093B000A8DF7047ADDF704762DF704770B50546C4
:1093C0008AB00C46002962D0002860D00388502B58
:1093D00037D0572B72D0102B59D181886069002665
:1093E00001AA019603F0DDFA082231460DEB0200D6
:1093F00004F096F80223218AA888CDF80CD002AA9E
:109400000293FFF7D7FF002841D1A369002B3ED07C
:10941000039803F004FB002839D0019B0BB1012213
:109420001A701822002104A804F07AF802238DF89B
:109430001030AB88ADF81830019B05940793A369F1
:1094400023E08188606902AA03F0ABFA18220021A8
:1094500004A804F065F8AB882189ADF81830EB88D2
:10946000029A05949942079218D12E8A022E15D19C
:109470006AB105F1120003F0D2FA029B48B1012251
:109480001A708DF81060A3690BB104A898470AB050
:1094900070BD187003238DF81030F4E7A2899A424A
:1094A000F5D1A369002BF2D000228DF8102005F130
:1094B000120208922A8AADF82420E6E781886069C2
:1094C00002AA03F06EFA01460028E0D1029B1B7845
:1094D000002BDCD0182204A804F022F801238DF818
:1094E0001030AB88ADF818300594029BA6E7000059
:1094F000F0B53A4B8FB002AD04460A4603F1100CAA
:109500002F46186859682E4603C60833634535460A
:10951000F7D1002C5FD0002A5DD01368A3612146EB
:109520003846FFF749FF002853D12246012512F89B
:10953000023B8DF8063001A92846ADF80450FFF72C
:1095400037FF002845D10146202206A803F0E8FF96
:1095500022460223ADF8183012F80C3B8DF81A3071
:10956000BDF824301E4E6088079623F44F6323F025
:109570000F0343F440632B4306A9ADF824308DF864
:1095800029508DF82A5003F04EFA10BB01462022D4
:1095900006A803F0C5FF22460323ADF8183012F8E1
:1095A000043B8DF81A30BDF824306088079623F408
:1095B000875323F01F0343F480532B43ADF824302B
:1095C00006A940F201138DF82950ADF82A3003F0B6
:1095D0002AFA0FB0F0BD0E20FBE700BFE8DD020065
:1095E000F4000100A8DF7047AADF7047AEDF7047C4
:1095F00062DF70472DE9F04FAB4B97B006AC0546E4
:109600000A4603F1100C274618685968264603C617
:10961000083363453446F7D1002D00F04281002A1B
:1096200000F03F814FF0FF3385F8233085F8243078
:109630001368C5F82B30002385F8253029463846B5
:10964000FFF7D6FF0446002840F027812A4601276D
:1096500012F8013B8DF8123004A93846ADF81070AD
:10966000FFF7C0FF0446002840F0178101461C2286
:109670000FA803F055FF9DF83C301094AB4623F043
:109680000C0343F00C038DF83C3003AE1BF8133B86
:109690008DF816302146022303223046ADF81430EF
:1096A000CDE91244CDE9144403F03AFF9DF80E20B1
:1096B00022F01F0242F0030221468DF80E2041F2F3
:1096C000111814220AA8ADF80C800DF1140A03F049
:1096D00027FF4FF0F409B5F801000C975B460AAA82
:1096E0000FA9CDE90AA6ADF83490FFF77DFF044637
:1096F000002840F0D28001461C220FA803F010FF82
:109700009DF83C301094AB4623F00C0343F00C035F
:109710008DF83C301BF81B3B8DF816302146052395
:1097200003223046ADF81430CDE91244CDE914449B
:1097300003F0F6FE9DF80E20ADF80C8022F01F021B
:1097400042F0030221468DF80E200AA8142203F0ED
:10975000E7FEB5F801000C975B460AAA0FA9CDE910
:109760000AA6ADF83490FFF73FFF0446002840F00A
:1097700094800146032202A803F0D2FE9DF80A302D
:10978000ADF8088067F3420321461C220FA88DF82C
:109790000A3003F0C5FE9DF83C30109443F01003EE
:1097A0008DF83C3002ABCDE914342B464FF0030B5F
:1097B00013F8032B8DF8162021465A463046CDE982
:1097C0000033CDE91244ADF814B003F0A9FE9DF8C2
:1097D0000E20ADF80C8022F01F0242EA0B02214657
:1097E0008DF80E200AA8142203F09AFE009BB5F80B
:1097F00001000C970AAA0FA9CDE90AA6ADF834908A
:10980000FFF7F2FE0446002847D101465A4602A857
:1098100003F086FE9DF80A30ADF8088067F3420336
:1098200021461C220FA88DF80A3003F079FE9DF81E
:109830003C30109443F010032F468DF83C3002ABBF
:10984000CDE9143417F80B3B8DF81630214604236C
:109850005A463046ADF81430CDE9124403F060FEAC
:109860009DF80E20ADF80C8022F01F0242EA0B0298
:1098700021468DF80E200AA8142203F051FE1E2363
:109880000C93B5F80100ADF834903B460AAA0FA935
:10989000CDE90AA6FFF7A8FE0446204617B0BDE8AA
:1098A000F08F0E24F9E700BF13DE020070B51D4EE5
:1098B00086B03378ADF806200D46044603F0FF016C
:1098C00043BB48B3B0F823204FF6FF739A4225D02C
:1098D00090F8253013B3BDF80630F42B20D81022B1
:1098E00002A803F01DFEE3782279059543EA0223DE
:1098F000ADF80830B4F823000DF10603012502A9E4
:1099000004938DF80A50FFF771FE132800D13570CB
:1099100006B070BD1320FBE70E20F9E70820F7E73B
:109920000720F5E714580020184B2DE9F041184E98
:10993000D3F80080174D0024374632682B689A42CE
:1099400021D82B6832689B1A984519D32A68336846
:109950009A4202D02C683368E41A9CB10E4A3B68E4
:10996000116819440D4BA2B21868FFF79FFF58B950
:109970003B680B4A23443B60136823441360DCE7D5
:109980004446EAE72C600020BDE8F0813850002012
:1099900004580020085800200058002010580020CB
:1099A0000C5800207FB505460C4641B138B10388FC
:1099B000502B2DD005D8102B0FD0112B19D004B05F
:1099C00070BD572BFBD1434B1B68002B79D0FFF7A1
:1099D000ABFF414B00221A70F1E78388A1F82330D6
:1099E00006238DF80430D4F82B3001A9204698477F
:1099F000E5E707238DF80430D1F82B30204601A984
:109A000098474FF0FF3384F8233084F82430D6E7AA
:109A1000C388B1F807209A4216D1028A022A13D1CC
:109A200000F11206304602F0FAFF50B1012384F82B
:109A300025308DF804302B8ACDF80960ADF80D3053
:109A4000D1E784F82500BAE7B4F80F209A4210D184
:109A50002A8A022A0DD105F11206304602F0DFFFF4
:109A600020B1012384F826300023E2E784F82600A1
:109A7000A5E7B4F813209A4210D1D4F82B206AB18C
:109A800003238DF8043005F11203CDF809302B8A39
:109A9000ADF80D3001A92046904790E7B4F81B209F
:109AA0009A428CD1D4F82B30002B88D004228DF828
:109AB000042005F11202CDF809202A8AADF80D2004
:109AC00093E702238DF80430D1F82B30204601A90A
:109AD00098477EE70858002014580020A8DF7047F8
:109AE000AADF7047AEDF704762DF70472DE9F04FA5
:109AF000AF4B97B006AC05460A4603F1100C27465B
:109B000018685968264603C6083363453446F7D1BA
:109B1000002D00F04B81002A00F048814FF0FF3308
:109B200085F8233085F824301368C5F827300023E2
:109B300085F8253085F8263029463846FFF7D4FFCA
:109B40000446002840F02E812A46012612F8013BE7
:109B50008DF8123004A93046ADF81060FFF7BEFF53
:109B60000446002840F01E8101461C220FA803F085
:109B7000D7FC9DF83C30109423F00C0343F00C0309
:109B80008DF83C302B464FF0030813F80B2B8DF863
:109B9000162003AF214642463846CDE90033CDE9D1
:109BA0001244CDE91444ADF8148003F0B9FC9DF8DB
:109BB0000E2022F01F0242EA080221468DF80E20F4
:109BC00041F2111914220AA8ADF80C900DF1140AF3
:109BD00003F0A6FC4FF0F40B009BB5F801000C96C7
:109BE0000AAA0FA9CDE90AA7ADF834B0FFF778FFAC
:109BF0000446002840F0D6800146424602A803F001
:109C00008FFC9DF80A30ADF8089066F342032146B8
:109C10001C220FA88DF80A3003F082FC9DF83C301E
:109C2000109443F010038DF83C3002ABCDE91434AE
:109C30002B46214613F8032B8DF816200222ADF88F
:109C4000142038464246CDE90033CDE9124403F0F2
:109C500067FC9DF80E20ADF80C9022F01F0242EA3E
:109C6000080221468DF80E200AA8142203F058FCA1
:109C7000009BB5F801000C960AAA0FA9CDE90AA726
:109C8000ADF834B0FFF72CFF0446002840F08A807E
:109C900001461C220FA803F043FC9DF83C301094B1
:109CA00023F00C0343F00C038DF83C302B46214687
:109CB00013F81B2B8DF816200522ADF8142038461A
:109CC0004246CDE90033CDE91244CDE9144403F016
:109CD00027FC9DF80E20ADF80C9022F01F0242EAFE
:109CE000080221468DF80E200AA8142203F018FC61
:109CF0004FF0140B009BB5F801000C960AAA0FA9AF
:109D0000CDE90AA7ADF834B0FFF7EAFE0446002813
:109D100048D10146424602A803F002FC9DF80A30F1
:109D2000ADF8089066F3420321461C220FA88DF877
:109D30000A3003F0F5FB9DF83C30109443F010031B
:109D40008DF83C3002ABCDE914342B46214613F894
:109D5000132B8DF816200422ADF814203846424605
:109D6000CDE90033CDE9124403F0DAFB9DF80E2073
:109D7000ADF80C9022F01F0242EA080221468DF84D
:109D80000E200AA85A4603F0CBFB009BB5F8010051
:109D90000C960AAA0FA9CDE90AA7ADF834B0FFF7CF
:109DA0009FFE0446204617B0BDE8F08F0E24F9E769
:109DB0009BDE020070B51D4E86B03378ADF80620EC
:109DC0000D46044603F0FF0143BB48B3B0F823201F
:109DD0004FF6FF739A4225D090F8253013B3BDF8A3
:109DE0000630F42B20D8102202A803F099FBE37868
:109DF0002279059543EA0223ADF80830B4F8230030
:109E00000DF10603012502A904938DF80A50FFF70E
:109E100069FE132800D1357006B070BD1320FBE732
:109E20000E20F9E70820F7E70720F5E72C58002077
:109E300021492248224B401A2DE9F047C008214E03
:109E4000214D1F68214932682B68DFF88490DFF8C4
:109E500084A0DFF88480000440F00300FDF77BFD60
:109E600000242A6833689A4222D833682A689B1AE9
:109E7000BB421AD832682B689A4202D034682B68E9
:109E8000E41AA4B12B68D9F80010DAF80000A2B2E5
:109E90001944FFF78FFF60B92B6823442B60D8F873
:109EA00000302344C8F80030DBE73C46E9E7346083
:109EB0000020BDE8F08700BF64D60200ACD60200E7
:109EC0003C500020205800201C58002023DE0200B7
:109ED000185800202858002024580020F0B50546C6
:109EE00085B00C4641B138B10388502B3CD005D821
:109EF000102B10D0112B28D005B0F0BD572BFBD163
:109F0000564B1B68002B00F0A080FFF791FF544BCD
:109F100000221A70F0E78388A1F82330D1F82730A7
:109F2000002BE9D04F4B50485049C01AC0080004DC
:109F300040F00300FDF702FD06238DF80430D4F84D
:109F4000273001A920469847D6E707238DF804302B
:109F5000D1F82730204601A998474FF0FF3384F805
:109F6000233084F82430C7E7C388B1F807209A4229
:109F700020D1028A022A1DD100F11206304602F0D9
:109F80004EFDA0B1374B38483949C01AC0080127E7
:109F9000000484F8257040F00300FDF7CFFC8DF835
:109FA00004702B8ACDF80960ADF80D30C7E784F84E
:109FB0002500A1E7B4F817209A421CD12A8A022A68
:109FC00019D105F11206304602F029FD80B10123B6
:109FD00084F826302448234B2649C01AC0080004C0
:109FE00040F00300FDF7AAFC00238DF80430D8E709
:109FF00084F8260080E7B4F81B209A4210D1D4F8E8
:10A0000027206AB103238DF8043005F11203CDF83F
:10A0100009302B8AADF80D3001A9204690476BE737
:10A02000B4F80B209A427FF467AFD4F82730002BA6
:10A030003FF462AF04228DF8042005F11202CDF83E
:10A0400009202A8AADF80D207BE702238DF8043021
:10A05000D1F82730204601A9984758E7205800201A
:10A060002C58002064D60200ACD602003DDE02006F
:10A0700048DE020063DE02000A4B1B685A1C05BF63
:10A08000094B0A4A0A4A10680ABF1B781068C0F3D5
:10A0900003100D2B04D101288CBF00200120704734
:10A0A0000020704730010010E00F00F0E80F00F0D2
:10A0B0003401001008B5FFF7DFFF40B14FF08043D7
:10A0C0000022C3F80C21C3F81021C3F83825FFF78C
:10A0D000D3FF002846D04FF080524D4BD2F80414E5
:10A0E000C3F82015D2F80814C3F82415D2F80C14BC
:10A0F000C3F82815D2F81014C3F82C15D2F814148C
:10A10000C3F83015D2F81814C3F83415D2F81C145B
:10A11000C3F84015D2F82014C3F84415D2F824141B
:10A12000C3F84815D2F82814C3F84C15D2F82C14EB
:10A13000C3F85015D2F83014C3F85415D2F83414BB
:10A14000C3F86015D2F83814C3F86415D2F83C147B
:10A15000C3F86815D2F84014C3F86C15D2F844243B
:10A16000C3F87025FFF788FF48B14FF08043D3F85C
:10A170000024D20744BF6FF00102C3F80024254A2F
:10A18000D2F8883043F47003C2F88830BFF34F8FA1
:10A19000BFF36F8F4FF01023D3F80022002A03DBA8
:10A1A000D3F80432002B2FDA1B4B0122C3F804250D
:10A1B000D3F80024002AFBD04FF010221221C2F85D
:10A1C0000012D3F80024002AFBD04FF010231222F3
:10A1D000C3F80422104B1A46D3F800140029FBD010
:10A1E0000021C3F80415D2F80034002BFBD0BFF3D4
:10A1F0004F8F0849094BCA6802F4E0621343CB60F1
:10A20000BFF34F8F00BFFDE7054B064A1A6008BD3C
:10A2100000C0004000ED00E000E001400400FA054D
:10A22000405000200090D003074B1B5C1F2B8ABFBF
:10A23000064A4FF0A04203F01F03D2F80405D840AD
:10A24000C04300F001007047ABDE02000003005085
:10A25000074B1B5C1F2B86BF064903F01F034FF003
:10A26000A041012202FA03F3C1F80C35704700BF88
:10A27000ABDE020000030050074B1B5C1F2B86BFA8
:10A28000064903F01F034FF0A041012202FA03F335
:10A29000C1F80835704700BFABDE02000003005074
:10A2A00008B50020FFF7E8FF0120FFF7E5FF0220D7
:10A2B000FFF7E2FFBDE808400320FFF7DDBF08B568
:10A2C0000020FFF7C5FF0120FFF7C2FF0220FFF7C4
:10A2D000BFFFBDE808400320FFF7BABF0A4B185C78
:10A2E0001F288ABF094B4FF0A04300F01F00D3F88E
:10A2F00004250121814021EA02000A40C3F8080533
:10A30000C3F80C25704700BFABDE0200000300500D
:10A3100038B5074C051E04F1080318BF1C46236816
:10A320002BB11A6822605B6828469847F7E738BD6A
:10A330003858002020B9054B01225A70FFF7E8BFBA
:10A34000012802D1014A9070F8E770473058002088
:10A3500020B9034B01225A70FFF7DABF704700BFE4
:10A360003058002038B50E4C2378B3B90D486360DF
:10A37000A3602361E36000F0E5F8054602F054FEB7
:10A3800008B900F0EBF801232370074BD3F8003431
:10A390000BB10123A370284638BD8525F5E700BF22
:10A3A0003058002035A302000000014037B50D4CA5
:10A3B00000230DF107008DF80730FEF727F9E36859
:10A3C000013BE360E36833B9074BD3F8005415B998
:10A3D00000F0D6F8A5709DF80700FEF73BF903B032
:10A3E00030BD00BF3058002000000140012813B5E7
:10A3F0000CD0032820D038B9124B0122C3F880209A
:10A40000BFF34F8FBFF36F8F02B010BD0E4C002310
:10A410000DF107008DF80730FEF7F8F823780BB937
:10A42000FFF7A0FFE3689DF807000133E360012315
:10A43000A370FEF70FF9E7E700F090F8FFF7B6FF1B
:10A44000E2E700BF00E100E0305800201FB50378CC
:10A450008DF800304368019383688DF80830C36835
:10A46000054A0393054B684653F8213052F82110F2
:10A47000984705B05DF804FB445800204C58002074
:10A480001FB503788DF800304368019383688DF819
:10A490000830C368054A0393054B684653F82130DA
:10A4A00052F82110984705B05DF804FB445800208D
:10A4B0004C580020F0B5194B90F800C0DFF86CE064
:10A4C00043F82C20164B16460A6943F82C204B7F84
:10A4D0000EF80C300C4607460FCC89B06D460FC500
:10A4E00094E80F0085E80F001EF80C30CDF810C07E
:10A4F0004BB1002E0B4A694608BF3246381D00F0AA
:10A50000F3FD09B0F0BD002E074A694608BF324688
:10A5100007F10C0000F0B4FBF3E700BF4C5800203B
:10A52000445800204DA4020081A402005458002089
:10A5300000F18040002382B0036003680193019B17
:10A5400002B07047044A137923B9012110601171D8
:10A55000184670478520704758580020074B1A68E6
:10A56000D20704D4C02283F8002301221A604FF0DE
:10A5700080430122C3F81825704700BF00E100E0C6
:10A580004FF0804208B50223C2F808334FF48270BE
:10A59000FFF7CEFF034B01211960D2F81834DB031B
:10A5A000FBD408BD0C000040114B1B6810B563B113
:10A5B0004FF48070FFF7BCFF4FF080430122C3F8D7
:10A5C00008230C4B00201B6898470B4B1B6873B18A
:10A5D0004FF48270FFF7ACFF4FF080430222C3F8C4
:10A5E0000823044BBDE810401B680120184710BD2C
:10A5F00000010040585800200401004000F1804054
:10A6000000F5C040002382B0036003680193019B02
:10A6100002B0704703681F2B83BF03F01F03036062
:10A6200001484FF0A04070470003005007B501906B
:10A6300001A8FFF7EFFF019B00EB8300D0F8003784
:10A6400023F44033C0F80037D0F8003743EA014123
:10A65000C0F8001703B05DF804FB0000054B4FF095
:10A66000FF32072843F8202084BFC01880F852200A
:10A67000704700BF6058002038B51E4C94F8643015
:10A68000ABBB40F2FF31FF205A09012A14BF4FF043
:10A69000FF320A4603F01F05EA40D20748BFE2181E
:10A6A00003F1010348BF82F830002A2BECD10021CE
:10A6B000C8B2FFF7D3FF01310C29F9D106220021DE
:10A6C0000D4802F02DFF0D4BC02283F806234022D7
:10A6D0001A604FF4BE70FFF791FF094B4FF0004234
:10A6E000C3F80423012384F86430002038BD082017
:10A6F000FCE700BF60580020BE58002000E100E0E9
:10A7000000600040034B93F86400003818BF01203C
:10A71000704700BF60580020F7B53B4E3318054620
:10A7200093F93030002B6CDA8B78C3F34003002BA5
:10A730000BBF082400240C200820844202D10420EE
:10A7400003B0F0BD56F82470013743D1701946F8B4
:10A75000242080F8304013B9331983F852508B7895
:10A760005A0717D4D80737D501A80195FFF752FF2C
:10A77000019B00EB8300D0F8003723F00203C0F800
:10A7800000372248EA0805F007070123BB40875C31
:10A790003B4383548B780A7813F0020328D0A4003B
:10A7A00004F1804404F5C0442D02D4F8103523F49C
:10A7B0004F3323F44073C4F810351204D4F8103525
:10A7C00005F47C5502F4403215431D43C4F810557E
:10A7D0000020B5E70134B0E701A84A780195FFF7FA
:10A7E00019FF019B03F5E073920040F82320C8E7AE
:10A7F000083C344494F85A5045EA821284F85A20AE
:10A80000E6E708209CE700BF60580020BE58002003
:10A8100073B5224C2618054696F93020072A1ADD12
:10A82000224492F852309B09032B0FD1019001A8CA
:10A83000FFF7F0FE019BD0F81015D94001F001019F
:10A8400002312846FFF7F2FE02B070BD012B0CBFAB
:10A8500002210321F5E7D3B2072BF5D8930003F1CA
:10A86000804303F5C043D3F8100540F00100C3F85E
:10A87000100502F14000800080B2FFF7BFFE002902
:10A88000E2D096F9303054F82330002BDCD001238D
:10A8900003FA02F2024BC3F80423D5E76058002004
:10A8A0000060004007B5019001A8FFF7B3FE019BCF
:10A8B000D0F81005D84000F0010003B05DF804FBAB
:10A8C0002DE9FF470024CDE90244584D4FF4807232
:10A8D000012102F1804303F5C04390B21B68012BB4
:10A8E00006D1D5F804330B4202D0FFF787FE0C43A4
:10A8F0000432B2F5907F4FEA4101EAD14C4B1B681C
:10A90000012B11D14FF4BE70FFF778FE4FF0A0433A
:10A9100044F00044D3F820250292C3F82025D3F850
:10A9200020280392C3F8202814F0FF0F1AD0414FBB
:10A9300000250126344210D0AB0003F1804303F51B
:10A94000C043D3F81005D3F8101557F8253023B1BC
:10A95000C1F30141C0F3052098470135082D4FEAA6
:10A960004606E7D1002C59DA324D334C334E4FF0C6
:10A970000008012716F9013B5A1C3CD0C3F3C20161
:10A9800004A801445FFA83F911F8081C03F03F02A0
:10A9900003F0070307FA03F319422CD001A8019230
:10A9A000FFF738FE019B03F5E07350F82330C3F343
:10A9B000014ABAF1020F10460CBF03210221FFF732
:10A9C00035FE01A80192FFF725FE019B07FA03F36C
:10A9D000C0F82035AB1893F9303055F8233053B117
:10A9E0004FEA9911032904D0BAF1020F19D10129B4
:10A9F00001D11046984708F10108B8F1040FB9D108
:10AA00004FF0A043D3F820250292C3F82025D4F8B4
:10AA100020350393C4F820351343A7D104B0BDE813
:10AA2000F087BAF1030FE6D10229E1E700600040A8
:10AA30007C6100406058002000030050BA5800209C
:10AA4000014B1B68184700BFC85800200E4B9842A6
:10AA500037B50C4602D0002003B030BD00230DF105
:10AA600007008DF80730FDF7D1FD084B1D7915B9AA
:10AA700001221C601A719DF80700FDF7EBFD002D07
:10AA8000E9D01120E8E700BF00200040C8580020AE
:10AA9000034B984201BF034B00221A601A717047A2
:10AAA00000200040C85800200023435082B0435883
:10AAB0000193019B02B070470A4610B54FF48E71A6
:10AAC000FFF7F2FF136A9168C95C136A01331362DE
:10AAD000C0F81C1510BD8B690A4610B54FF484717F
:10AAE00023B9FFF7E1FFD0F8183510BDFFF7DCFF01
:10AAF000536AD168D0F81805C854536A01335362B9
:10AB0000F3E700001FB501238DF80030044BCDE9B9
:10AB10000110D3E900126846904705B05DF804FBC8
:10AB2000D058002030B54C48D0F8043313F4007FDF
:10AB300085B005464DD0D0F82431002B49D04FF4D4
:10AB40009271FFF7B1FF4FF40173C0F80833434B24
:10AB500093F829200AB9012242603F4902228DF868
:10AB60000020D1F88024C1F8802403929A690292CF
:10AB7000DA6801920022C3E906226846D3E900128E
:10AB800090473548D0F81C315BB134494A690B6AAB
:10AB90009A420A464AD991F82830002B46D1FFF74D
:10ABA0008BFF2D48D0F844318BB14FF4A271FFF7E1
:10ABB0007BFF2A4B93F829200AB1012202609A698F
:10ABC0002AB10022586AD9689A61FFF79BFF05B045
:10ABD00030BDD5F804335B07D3D5D5F80831002B49
:10ABE000CFD01E4C1C482146FFF775FF636AA2694F
:10ABF0009A422346C5D1E269E1684AB12369E3601C
:10AC00000023606AA261E3616362FFF77BFFB8E73C
:10AC100094F829200AB901226A600F4A4FF40170A2
:10AC2000C2F808030022586A9A61EEE70A484FF416
:10AC30008E71FFF739FF5369002BB2D05169029131
:10AC4000002391688DF80030019153616846D2E984
:10AC500000139847A5E700BF00200040D05800200F
:10AC60001F2886BF00F01F00044B4FF0A04300F5E3
:10AC7000E070022243F82020704700BF000300501C
:10AC80002DE9F843614B057991462C2202FB0532F0
:10AC9000064692F82A200C469846002A40F0B180D9
:10ACA0005B490068FFF7D2FE0746002840F0AB8002
:10ACB00021684A1C10D01F2987BF564A01F01F0384
:10ACC0000B464FF0A0420120984003F5E073C2F814
:10ACD0000805032042F823006068431C0DD01F289C
:10ACE0008BBF00F01F0303464A4A4FF0A04203F512
:10ACF000E0734FF0000C42F823C03368A269C3F838
:10AD0000242594F814C0627DBCF1010F4CEA0202C4
:10AD1000C3F86C25C3F81405C3F80C152BD1A16832
:10AD2000481C0DD01F298BBF01F01F020A4639486D
:10AD30004FF0A04002F5E0724FF0000C40F822C046
:10AD4000E068421C13D01F2887BF324A00F01F0C56
:10AD500084464FF0A0424FF0010E0EFA0CFE0CF5A7
:10AD6000E07CC2F808E54FF0030E42F82CE0C3F88F
:10AD70000805C3F810152C236B4308EB0302C2F837
:10AD80000490226948F80320B9F1000F21D03068FF
:10AD9000247F4FF48E71FFF787FE4FF4A271306865
:10ADA000FFF782FE32681C4BC2F80433110B42F3EA
:10ADB00007326301002ADBB21EDB1848841884F8CE
:10ADC00000330123520901F01F0103FA01F140F899
:10ADD000221033680422C3F800252C2303FB0583CB
:10ADE0000022C3E9062283F829205A61012283F850
:10ADF0002A203846BDE8F883094A01F00F01535470
:10AE0000E7E70827F5E71127F3E700BFD058002050
:10AE100025AB0200000300508000020000E100E0CA
:10AE200014ED00E02DE9F04103680479284D00227B
:10AE3000C3F800252C2202FB045201465268A2B13D
:10AE4000244AC3F808231A0B43F30733002B0CDB07
:10AE500002F01F005B090122824020331E4840F8A7
:10AE60002320BFF34F8FBFF36F8F0B68D3F80C0510
:10AE7000D3F81485D3F80865D3F810754FF0FF3276
:10AE80009042C3F81425C3F80C25C3F80825C3F86D
:10AE9000102501D0FFF7E4FEB8F1FF3F02D0404695
:10AEA000FFF7DEFE7A1C02D03846FFF7D9FE731C8E
:10AEB00002D03046FFF7D4FE0868FFF7E9FD2C23E7
:10AEC00003FB0454002384F82A306360BDE8F0815A
:10AED000D05800208402020000E100E02DE9F04794
:10AEE000204F90F804904FF02C0808FB0974054699
:10AEF0006669002E34D162610068A16026624FF459
:10AF00008E7184F82860FFF7CFFD286801238360E5
:10AF10002146FFF7D1FD6368A0468BB92868D4F8B5
:10AF200014A0236A9A4511D82A68D2F81C31002B44
:10AF3000FBD00123D3602C2303FB097300225A6149
:10AF40003046BDE8F08794F828303BB9D0F81C3182
:10AF5000002BF8D04146FFF7AFFDE2E70F26EAE706
:10AF60001126EDE7D05800200379044A2C2101FB7B
:10AF700003235869003818BF01207047D0580020BB
:10AF80000023435082B043580193019B02B07047A5
:10AF90001FB501238DF80030044BCDE90110D3E932
:10AFA00000126846904705B05DF804FBFC5800208D
:10AFB0001F2886BF00F01F00044B4FF0A04300F590
:10AFC000E070022243F82020704700BF00030050C9
:10AFD0007FB5434AD2F82461002E60D010464FF46A
:10AFE0009271FFF7CDFF02238DF80030D2F8803444
:10AFF000C2F880340393D2F83C350293394BDA68B7
:10B0000001920022C3E906226846D3E90012904764
:10B010003348D0F8443173B14FF4A271FFF7B0FF59
:10B02000304B9A693AB10022C3E90622D968D0F8B8
:10B030003C05FFF7ADFF2A48D0F82031ABB14FF403
:10B040009071FFF79DFF0123C360264B5A6962B1DF
:10B05000D0F84C150291002299688DF800200191DA
:10B060005A616846D3E9001290471D48D0F858311C
:10B070009BB14FF4AC71FFF783FF1A4B5A6962B171
:10B08000D0F84C150291002299688DF800200191AA
:10B090005A616846D3E90012904704B070BDD2F8F7
:10B0A0001031002BB4D04FF488711046FFF768FFC1
:10B0B0000C4BD2F83C0599698842A9D1DC69D96862
:10B0C00064B1D2F8005225F02005C2F800521A6986
:10B0D0009C61DA60DE61FFF75BFF99E79C61FAE74C
:10B0E00000200040FC5800202DE9F843674B06790A
:10B0F0009146242202FB0632044692F820200D4697
:10B100009846002A40F0BE8061490068FFF79EFC27
:10B110000746002840F0B8802868421C10D01F283D
:10B1200087BF5C4A00F01F0303464FF0A042012195
:10B13000994003F5E073C2F80815032142F8231083
:10B1400069684B1C0DD01F298BBF01F01F030B46F4
:10B15000504A4FF0A04203F5E0734FF0000C42F864
:10B1600023C02368AA69C3F8242595F814C06A7D12
:10B17000BCF1010F4CEA0202C3F86C25C3F80C05C0
:10B18000C3F814152BD1A968481C0DD01F298BBFFB
:10B1900001F01F020A463F484FF0A04002F5E0725E
:10B1A0004FF0000C40F822C0E868421C13D01F2862
:10B1B00087BF384A00F01F0C84464FF0A0424FF082
:10B1C000010E0EFA0CFE0CF5E07CC2F808E54FF01B
:10B1D000030E42F82CE0C3F80805C3F81015242329
:10B1E000734308EB0302C2F804902A6948F803206D
:10B1F000B9F1000F30D020682A7F4FF48871FFF733
:10B20000BFFE20684FF49071FFF7BAFE20684FF43C
:10B210009271FFF7B5FE20684FF4A271FFF7B0FE00
:10B220004FF4AC712068FFF7ABFE23681A49C3F8EE
:10B230000413190B43F307335201002BD2B21CDB6A
:10B240001648C51885F8002301225B0901F01F018B
:10B2500002FA01F140F8231023680822C3F8002500
:10B26000242303FB06830022C3E906225A6101223C
:10B2700083F820203846BDE8F883094B01F00F0120
:10B280005A54E9E70827F5E71127F3E7FC580020AF
:10B29000D1AF0200000300501003420000E100E0C3
:10B2A00014ED00E02DE9F0413D4E057904682423BA
:10B2B00003FB056302465B68ABB13A4BC4F8083345
:10B2C00044F30733002B4FEA14310CDB01F01F006D
:10B2D0005B09012181402033334840F82310BFF33C
:10B2E0004F8FBFF36F8FD4F8003223F02003C4F8E0
:10B2F0000032242303FB05639B6933B14FF4A27131
:10B300002046FFF73DFE012363604FF4AC712046F9
:10B31000FFF736FE0123E360242303FB0563D4F823
:10B3200058110029FBD0996919B1D4F844110029AA
:10B33000F5D00023C4F800351368D3F80C05D3F812
:10B340001485D3F80815D3F810754FF0FF329042EA
:10B35000C3F80C25C3F81425C3F80825C3F8102535
:10B3600001D0FFF725FEB8F1FF3F02D04046FFF7BE
:10B370001FFE7A1C02D03846FFF71AFE4B1C02D083
:10B380000846FFF715FE2046FFF782FB242303FB48
:10B390000565002385F820306B60BDE8F08100BFB3
:10B3A000FC5800201003420000E100E001F060437F
:10B3B000B3F1005F2DE9F041064638D11E4B077905
:10B3C000242505FB073598466C69002C31D16A614C
:10B3D0000068A9604FF49071FFF7D2FD4FF4AC7193
:10B3E0003068FFF7CDFD33686A69A968C3F8441572
:10B3F000C3F8482501229A606A68AAB9D3F82021C7
:10B40000D3F858411AB9002CF8D00F2407E0002CCB
:10B41000FBD10122DA60D3F85821002AFBD0242383
:10B4200003FB078700237B612046BDE8F0811024E1
:10B43000FAE71124F8E700BFFC5800200379044A1A
:10B44000242101FB03235869003818BF01207047ED
:10B45000FC5800201F2886BF054A00F01F004FF04F
:10B46000A042012303FA00F0C2F80805704700BFAC
:10B47000000300501F2886BF054A00F01F004FF050
:10B48000A042012303FA00F0C2F80C05704700BF88
:10B4900000030050114BD3F8183107B5D3B1104B4E
:10B4A000104900221A60C87F1B680193FF28019B86
:10B4B00003D08B7F5BB1FFF7DDFF00234B770B726F
:10B4C000D1E90031084803B05DF804EB1847FFF7F5
:10B4D000C1FFF2E703B05DF804FB00BF003000409D
:10B4E00018310040205900202859002008B5094B88
:10B4F0001B7853B10020FEF7BFFE0120FEF7BCFE13
:10B50000BDE808400320FEF7B7BEBDE80840FEF7DF
:10B51000C7BE00BF44590020F8B57B4C23780546D0
:10B520001BB100232370FFF7E1FF172D00F2888085
:10B53000DFE805F00C17174354657680888D888DF9
:10B54000959A9A9A9A9AC4C9D1D9E4E4FFF7CEFFA2
:10B550006E48FCF746FF6E4B002204461A702046E8
:10B56000F8BD0020FEF760FEF8B10020FEF784FE73
:10B57000022D0CBF4FF4E1614FF47A61644B1D70F2
:10B580004FF400404FF47A740025E0FB01454FF47E
:10B59000FA6200232046294601F0D4FE002201462B
:10B5A000BDE8F8405948FCF704BFFEF751FE022DF4
:10B5B0000CBFC8214FF4C871E0E70020FEF734FE4D
:10B5C00040B10020FEF758FE4FF44871504B032263
:10B5D0001A70D5E7FEF73CFEC821F7E70020FEF71A
:10B5E00023FE38B10020FEF747FE4FF47A61484B46
:10B5F0000422EDE7FEF72CFE4FF4C871F7E70020B8
:10B60000FEF712FE48B10020FEF736FE404B052241
:10B610001A7040F6CD410022C2E7FEF719FEF5E7A9
:10B620000020FEF75BFE3A4B06221A70002240F221
:10B630006661B5E70020FEF70BFE354B07221A7056
:10B6400000248CE701202070FEF748FEEEE7012081
:10B650002070FEF743FE00224FF40051A0E7FEF7F2
:10B660002EFE2B4B0C22EAE72A482B4EFCF7B9FEA4
:10B67000D5F1110504461CD0D8B9012D13D0C8232B
:10B680005D434FF400474FF47A7000214FF4FA62A3
:10B690000023C7FB050101F055FE224601461D4867
:10B6A000FCF787FE04460220FEF7D2FD012333702B
:10B6B00055E70220FEF7E0FD0023F8E7FFF716FF4D
:10B6C000134B1222BBE7FFF711FF0020FEF7C0FD6E
:10B6D0000F4B1322B3E7FFF709FF0120FEF7B8FD78
:10B6E0000B4B1422ABE7FFF701FF0020FEF7B0FD84
:10B6F0000120FEF7ADFD064B1522A0E7FEF7DFFDAA
:10B70000034B1D709CE700BF98590020685900202A
:10B71000995900204859002044590020044B1B68C7
:10B7200013F0010301D0FFF7F7BE1846704700BFC2
:10B7300094590020032811D8012A0AD101290FD1D8
:10B7400000F10E02D2B20D4B00EB40001A54002063
:10B7500070470129F7D0022904D049B1072070476A
:10B760000022F8E7054B00EB400018444270EEE77A
:10B77000024B00EB400018448270E8E78859002033
:10B7800008B5012202210020FFF7D4FF08B10728E5
:10B7900010D1072202210120FFF7CCFF08B10728B2
:10B7A00008D100210A220846FFF7C4FF10B107287C
:10B7B00008BF002008BD00000388102B10B502D080
:10B7C000112B1ED010BD1A4C2168B1B901220846B8
:10B7D000FFF7B0FF08B1072824D10722022101207A
:10B7E000FFF7A8FF08B107281CD10422022100207E
:10B7F000FFF7A0FF08B1072814D1236801332360A5
:10B80000E0E70B4A1368013B1360002BDAD1FFF726
:10B81000B7FF0028D6D0074B1B68002BD2D0BDE85D
:10B8200010401847034B1B68002BE6D09847E4E70D
:10B83000A05900209C5900206CDF704772DF7047D0
:10B8400073DF704774DF704776DF704777DF7047CC
:10B850007ADF70477CDF70477FDF704788DF704793
:10B860008FDF7047B1DF704732DF70473FDF7047CF
:10B870007047FCF727BC0000F0B50388212B89B086
:10B88000044600F0C68032D8132B00F0CA8006D8D8
:10B89000102B38D0112B00F0938009B0F0BD1C2B79
:10B8A000FBD1684E31780A22B1FBF2F302FB13138D
:10B8B00013F0FF0F17D1FDF72FFD94F90820059223
:10B8C000FDF770FD604D059A6049034660482D1AEA
:10B8D000ED082D0445F00300FCF73DF8A2885D4B10
:10B8E0001344227A1A75337801333370D5E7522B1B
:10B8F00000F09F80562B01D03B2BCED1A088132186
:10B90000FFF7A2FF7FE0524B4F4D82885249ED1A5C
:10B91000ED082D0445F003052846FCF713F8072031
:10B92000FFF7FCFE08B1FCF7CDFB4C4EA1884C485C
:10B93000318001F095FA08B1FCF7C4FB454FA188AE
:10B94000BA6831809200474EE37B337052B20320D5
:10B950000592FFF77BFF059A10B1FCF7B3FB059A40
:10B9600041492846FBF7EEFF3378012B24D13F49AC
:10B970002846FBF7E3FF3E4B1878FFF763FFA088EC
:10B9800002220121FFF76AFF08B1FCF79BFB637AF3
:10B990000393A37A0293E37A0193237B0093637B5F
:10B9A000A27B34492846FBF7E0FFFDF747FCFDF793
:10B9B00053FC0323FB6070E7022BDCD12E49D7E751
:10B9C000234B2148A2882D49224DC01AC0080004EB
:10B9D000237A40F00300FBF7BEFF204B4FF6FF72C7
:10B9E0001A80A3882B4400241C75FDF779FCEB68B2
:10B9F000032B7FF452AF04232148EB60224640F230
:10BA00006661FCF7D6FC00283FF447AFFCF75AFB11
:10BA100043E7002307A98088ADF81C30FFF720FF1B
:10BA2000F1E70E4800231A4685210088FFF714FF2E
:10BA3000E9E70A4800231A4619460088FFF712FF73
:10BA4000E1E700BFC85B002094D60200BADF020025
:10BA500064D60200F45A0020D6DE0200785000209E
:10BA60009C5B00207D5B0020E4DE02000BDF020017
:10BA70007450002051DF020026DF02008CDF02003C
:10BA8000A85B002013B50B780C46062B3FD8DFE8E7
:10BA900003F004113E18223E37001E481E4B1F497A
:10BAA000C01AC008000440F0030002B0BDE8104016
:10BAB000FBF744BF1748184B1949C01AC0080004C7
:10BAC000F1E7B1F809201748D1F8051002B0BDE838
:10BAD000104001F0FCBC104B0E481349C01AC008BE
:10BAE000000440F003000190FBF728FFB4F80920A0
:10BAF000D4F80510019802B0BDE81040FBF748BF2C
:10BB00000448054B0949C01AC0080004CBE702B03D
:10BB100010BD00BF94D6020064D60200D8DF020038
:10BB2000F1DF0200045B00200BE0020028E00200CD
:10BB300030B5364B364C3749374DE41AE408240407
:10BB400044F00304A5B02046FBF7F8FE3C22002198
:10BB500006A801F0E5FC02238DF818303C224FF4D2
:10BB6000C063002115A8ADF81A3001F0D9FC2A46AF
:10BB700006A852F8041B00F061FB08B1FCF7A2FA1A
:10BB8000264AA96815A800F059FB08B1FCF79AFAF3
:10BB9000234D18220021684601F0C2FC6A6852BB9E
:10BBA00020492046FBF7CAFE04238DF815308DF896
:10BBB000163006238DF8003044F25063ADF80C3097
:10BBC000002301938DF814301349174840236A4627
:10BBD0000293FFF733FE08B1FCF774FAAA68124B20
:10BBE0009200197852B20120FFF730FE08B1FCF73D
:10BBF00069FA25B030BD0D492046FBF79FFE0123B1
:10BC00008DF815308DF81630D4E700BF64D60200E9
:10BC100094D602003EE002006450002070500020E4
:10BC2000F45A00204FE002007450002060E002004F
:10BC3000184B4A881B889A4210B529D10B8840F6C8
:10BC40007722934210D18B88134A14481449073B3A
:10BC50001380144A801AC0080004BDE810401A4638
:10BC600040F00300FBF777BE4DF67A2293420FD1E6
:10BC70000C4B0A488C880C49C01AC008073C0004C9
:10BC80002346224640F00300FBF765FE024B1C8072
:10BC900010BD00BF785000207650002094D60200DE
:10BCA0006EE0020064D602008AE0020008B5037864
:10BCB0004BB9054B3B211888FFF7C6FD18B1BDE80D
:10BCC0000840FCF7FFB908BD7850002010B50B4CB8
:10BCD000E2685AB90A4B01211878FFF7B1FD40B963
:10BCE0000220FEF7B5FA0123E36010BD042AFCD15F
:10BCF000F0E7BDE81040FCF7E5B900BFF45A0020BA
:10BD000074500020FFF7E2BF182873B50B4656D0D9
:10BD100008D80B280ED00C281CD002B0BDE870400B
:10BD2000FCF7D0B91928F8D10B1E444A18BF0123DB
:10BD3000D37473E0012971D1404AD368002B6DD1CF
:10BD40005368013303F00103536002B0BDE8704053
:10BD5000FFF7EEBE012961D13848394C8268394E6F
:10BD600001320321B2FBF1F101EB4101521A826071
:10BD7000C06892000328D5B252B212D1324B198852
:10BD8000FFF764FD08B1FCF79DF9A01BC0082F491F
:10BD900000042A4640F0030002B0BDE87040FBF703
:10BDA000D1BD2B4918460978FFF750FD08B1FCF7C3
:10BDB00089F9A01BC008274900042A46EAE701299F
:10BDC0002CD1204B1E481D4C2349E268C01AC008E4
:10BDD000000440F003000190FBF7B4FDE268019815
:10BDE00022B902B0BDE87040FFF770BF1B49019057
:10BDF000FBF7A8FDE368032B12D0042B1AD0012B0C
:10BE0000019809D11649FBF799FD114B1878FFF7F6
:10BE100019FD08B1FCF756F90023E36002B070BDCC
:10BE2000094B18884FF6FF739842F5D01321FFF79E
:10BE30000BFDEEE70B48FCF7D4FAEAE7F45A0020D2
:10BE400094D6020064D6020078500020B3E00200CD
:10BE500074500020CFE00200ECE002000AE1020092
:10BE60001CE10200A85B00202DE9F04105780646A0
:10BE700045BB154C154BDFF85880E41AE408240440
:10BE800044F00104B28A95420AD33369134413F88B
:10BE9000013C0D2B16D10A20FCF790FB1128F9E785
:10BEA0003369585DFCF78AFB074648B11128F7D083
:10BEB000024641462046FBF745FD3846FCF702F9AD
:10BEC0000135DFE7BDE8F08194D6020064D60200B8
:10BED0002DE10200FCF7F6B808B50D490D4800F059
:10BEE00093FE08B1FCF7EEF80A48F72100F0A0FE37
:10BEF00008B1FCF7E7F80748FB224FF6FF7100F0A6
:10BF0000A3FE18B1BDE80840FCF7DCB808BD00BFCF
:10BF100031BC0200805B002000B54FF480418DB041
:10BF20000020FBF777FB08B1FCF7CCF8FBF7B2FA7F
:10BF3000FCF702FA08B1FCF7C5F86F4A6F48002118
:10BF4000FCF72CFA08B1FCF7BDF86D4840F233322B
:10BF50000421FCF74BF808B1FCF7B4F8FCF79CF8A7
:10BF600008B1FCF7AFF8FDF793F808B1FCF7AAF8B1
:10BF700001F01CF808B1FCF7A5F8002305A9012081
:10BF8000059301F0A1F808B1FCF79CF805A801F0B1
:10BF90006DF908B1FCF796F80020FFF765FC08B1D1
:10BFA000FCF790F80020FFF761FC08B1FCF78AF875
:10BFB000544A14210820FCF7EFF808B1FCF782F886
:10BFC000112351488DF8083001F0DDFA4E4982B254
:10BFD00002A8FFF73FFC08B1FCF774F80822002123
:10BFE00005A801F09DFA4FF006124FF0167305A850
:10BFF000CDE90523FFF72CFC08B1FCF763F8434BB0
:10C0000018689A8803909B79ADF8102003A88DF8E2
:10C010001230FFF711FC08B1FCF754F8FFF75CFF92
:10C020003B4B3C48039303A900F008FF08B1FCF721
:10C0300049F80021042205A801F072FA364B37486E
:10C04000059305A9FDF7D6FA08B1FCF73BF80021E6
:10C05000042205A801F064FA314B3248059305A982
:10C06000FDF746FA08B1FCF72DF80021042205A8D7
:10C0700001F056FA2C4B2D48059305A9FDF736FD26
:10C0800008B1FCF71FF8FFF753FD1C22002105A89B
:10C0900001F046FA00234FF4A032CDE90532ADF8A5
:10C0A00022304FF4F0228DF82430214B07920A936E
:10C0B0000322204B8DF8202005A80B9300F086FB6F
:10C0C00008B1FBF7FFFF1C4B1C481D49C01AC008F4
:10C0D000000440F003000190FBF730FC0A4A1949C4
:10C0E0000198FBF72FFCFCF77BF8FBF7E3FA00283D
:10C0F000F9D1FCF7E3FFF6E705BD020084E1020099
:10C1000044500020A459002058E102007DE10200C3
:10C1100073B802009C5B002071B802007A500020C6
:10C1200069BE0200B450002085BA0200525B0020B4
:10C13000ADBC0200D5BE020064D6020094D6020057
:10C1400062E1020067E102006DDF704779DF70474E
:10C150007DDF704764DF70472DE9F04F85B0002523
:10C160000E9CBDF83CB0B4F800A001910746904683
:10C170001E46A9463A884A450DDC45B12388013B55
:10C18000A3EB0A039BB2FF2B3AD806F80A30002033
:10C1900005B0BDE8F08F7A6852F8290003900022BC
:10C1A0000DF10B0103A8FFF7D5FF0028F0D19DF892
:10C1B0000B20424521D12288002D14BF00200220EF
:10C1C00002EB0801014459451ADC3DB9013292B233
:10C1D000019B2280B35422880132228022880DF1F3
:10C1E0000B01324403A8FFF7B5FF0028D0D1218806
:10C1F0009DF80B200A442280012509F10109B9E7C5
:10C200000C20C5E72DE9F341089FBDF824801546B1
:10C21000CDE90078022204461E46FFF79DFF50B983
:10C220003346102229462046CDE9087802B0BDE801
:10C23000F041FFF791BF02B0BDE8F0812DE9F04F6A
:10C2400000231788138090F82D3085B006460D46E0
:10C25000144653B3082F01D80C2027E102A8FFF79A
:10C2600073FF002840F0228123880822EA542388A3
:10C2700001339BB21B222380EA542088013080B214
:10C28000208006220DF10901284401F020F92388BD
:10C290009DF8082006339BB212F0FE0218BF01225F
:10C2A0002380EA54238801332380B378FBB12388A9
:10C2B0000433BB42D0D802A8FFF748FF002840F063
:10C2C000F58023880322EA54238801339BB2192284
:10C2D0002380EA542388BDF8082001339BB2E91873
:10C2E0002380EA54120A4A70238802332380F278AA
:10C2F0009AB12388D91CB942AED80221E9542388C7
:10C3000001339BB201212380E95423880B449BB263
:10C310002380EA5423880B4423807268AAB12388BF
:10C32000D91CB94298D8022192F90020E9542388F7
:10C3300001339BB20A212380E954238801339BB245
:10C340002380EA542388013323803389002B40F073
:10C35000A180338A5BB1CDE900472B460722032138
:10C3600006F11000FFF74EFF002840F09F80338B4E
:10C370005BB1CDE900472B461522142106F11800C8
:10C38000FFF740FF002840F09180326A002A40F019
:10C390009080D6F82480B8F1000F30D0B8F804307F
:10C3A0002188981C8A1C0244BA423FF655AFFE28E9
:10C3B0003FF652AF03336B54238801339BB2FF2205
:10C3C0002380EA54238801339BB22380B8F80020ED
:10C3D000EA54E918120A4A702088023080B220809C
:10C3E000B8F804205AB1D8F8081000296BD02844B6
:10C3F00001F06DF82388B8F804201344238096F8E0
:10C400002C30002B40F09A80307800284ED03388B2
:10C41000012B58D0228802F1020CBC453FF61CAF1C
:10C42000012805D17378023313449F42FFF414AFFF
:10C43000023FBF1ABFB202A905EB0C00ADF80870AD
:10C44000FFF786FE90BB3178BDF80830022900F076
:10C45000BA8072789A4202D3BB4240F2B28001297C
:10C4600040F0B380974293B2C0F0AF80ADF808308F
:10C470000821BDF80830FE2B3FF6EEAE22880133CE
:10C48000AB542288013292B22280A95422881344EC
:10C4900023800BE0CDE900472B460622022106F15E
:10C4A0000800FFF7AFFE00283FF453AF05B0BDE82A
:10C4B000F08FB4F800C00CF10603BB423FF6CCAEDF
:10C4C0001188052901D80720F0E76FF4486E01EBC9
:10C4D0000E039BB24FF27D3E7345F4D95388052B72
:10C4E000F1D96FF44860181880B27045EBD94FF657
:10C4F000FF70814203D0834201D09942E3D80523E3
:10C5000005F80C30238801339BB212212380E954B3
:10C51000238801339BB223801188E954E818090A63
:10C520004170238802339BB223805288EA54E91871
:10C53000120A4A702388023323802AE7B36A002B49
:10C54000C1D04FF000094FF00C0A4FF0160B96F8CF
:10C550002C305FFA89F293427FF656AFB16A0AFB3C
:10C5600002F201EB0208B8F80430981CFE283FF6EE
:10C5700073AE208803332B54238801339BB223806E
:10C5800005F803B0238801339BB223808A5AEA540A
:10C59000E918120A4A702088023080B22080B8F868
:10C5A00004205AB1D8F8081000298CD0284400F093
:10C5B0008EFF2388B8F804201344238009F1010971
:10C5C000C5E7092155E7BB42FBD9ADF808704FE735
:10C5D00075DF704776DF70477ADF70477BDF704723
:10C5E000034B1A8882420CBF18460020704700BFD8
:10C5F000E85B0020024B9B6903B11847704700BFFE
:10C60000CC5B002073B585B22846FFF7E9FF0446EE
:10C6100070B1164E027A337B9A420BD200F10A01B6
:10C620002846FFF7D5FFE8B1112801D0FFF7E2FF58
:10C6300002B070BD00230372337C43B13B21284616
:10C64000FFF7C8FF30F0080301D0FFF7D3FF73698D
:10C65000002BEDD000228DF80420ADF8065001A883
:10C660009847E5E7237A01332372E1E7CC5B0020AA
:10C6700037B50B46497A0F4A71B9D2E901141D7AD0
:10C680000246002D18BF21465868FBF792FE08B1FC
:10C69000FFF7B0FF03B030BD002119725369002BC2
:10C6A000F8D00122ADF806008DF8042001A89847C3
:10C6B000F0E700BFCC5B00204B8802889A4213D879
:10C6C00042889A4210D380888A8840F2F3139842B5
:10C6D00094BF031AC31A934206D800F2F310904293
:10C6E00034BF002001207047002070470388122BC0
:10C6F00070B5014659D004D8102B1ED0112B44D050
:10C7000070BD502BFCD12F4BC288DB899A42F7D1E8
:10C71000038A022BF4D186883046FFF761FF054675
:10C720000028EDD001F1120000F079F938BB6868FB
:10C73000FBF757FE0028E3D009E0C37B012BDFD1D4
:10C740004FF6FF70FFF74CFF054620B90420BDE807
:10C750007040FFF74FBF1C4A8E880680002303728B
:10C760001368C0F80A305368C0F80E3010310A3030
:10C77000FFF7A2FF134B6872DB89002BC0D129465B
:10C780003046BDE87040FFF773BF8088FFF728FF91
:10C7900004460028B4D04068FBF723FE08B1FFF739
:10C7A00029FF4FF6FF732380AAE786883046FFF7FC
:10C7B00017FF05460028A3D008310A30FFF77CFF99
:10C7C0006872DCE7CC5B0020FC5B0020F8B5064615
:10C7D00048B305460FCD154F3C460FC495E80700FA
:10C7E00084E807003068124C3C60B0B1FFF7F4FEFB
:10C7F000C0B9326813682360536863600D480E4AFD
:10C800004FF6FF7303800D4B40F8043F0021FBF708
:10C81000C5FD002818BF032004E02046FFF7DEFE18
:10C820000028EBD0F8BD0E20FCE700BFCC5B002059
:10C83000FC5B0020E85B002005C60200085C0020CD
:10C840000AB1FCF7E3B8FCF7EAB873B50191019CB3
:10C8500006466CB100252C46294601A8FCF7E9F8EC
:10C8600018B106EB440301349D800135142DF3D13A
:10C870003046346002B070BD2DE9F04703888488EB
:10C88000103B8CB005460A2B1FD8DFE803F0063FAB
:10C890001E1E1E1E1E1E1E604400314EB368DB436A
:10C8A000009371686846FCF7F0F8009901A8FFF75B
:10C8B000CCFF0DF108094FF00008019B984507D304
:10C8C000132C13D90420FBF7FDFB0CB0BDE8F08757
:10C8D00039F802AB00270137514606EB8700FCF719
:10C8E0009EF81E2FF7D108F10108E6E71D48214602
:10C8F000FCF78CF81C482146FCF788F8EB7B022BF0
:10C90000E3D11A482146FCF781F8DEE715482146B5
:10C91000FCF785F8D9E7027A15483F2A4FEA121545
:10C92000214694BF00220122FFF78AFF022D94BF07
:10C93000002201220F482146FFF782FF012D0E48F9
:10C9400094BF002201222146FFF77AFFBDE7037A58
:10C95000002BBAD1427A0648C2F3C0022146F3E75F
:10C96000285C0020305C00202C5C0020345C00201F
:10C97000405C00203C5C0020385C0020132801460D
:10C9800002D80248FCF755B8002070472C5C002004
:10C9900010B50446FFF7F2FF002814BF204614200C
:10C9A00010BD70B50546164608460AB90E2070BD82
:10C9B00000231360002DF9D02B68002BF6D0EB88F4
:10C9C00013F003040ED1FFF7E3FFC0B214280BD01D
:10C9D0002B7983420AD9EB882A6800FB0320306058
:10C9E0002046E4E70720E2E70520E0E70420DEE751
:10C9F000AADF7047002301380B70042806D8DFE84F
:10CA000000F00306080A0C0011230B707047212365
:10CA1000FBE73123F9E71223F7E72223F5E7007854
:10CA200000F001007047F0B58B7891B0012B0C46F7
:10CA300038BF01238DF80E3005460B88ADF80C3059
:10CA4000002116466846032200F06AFD607C6946B4
:10CA5000FFF7D0FFA07C0DF10101FFF7CBFFE27BD8
:10CA6000237B217D43EAC203227C43EA02139DF823
:10CA70000220002922F0190203F0190314BF022139
:10CA80000121134361F342031C22002109A88DF800
:10CA9000023000F045FD637B13F0300F15D002AF7C
:10CAA00003220021384600F03BFDE07C0DF1090136
:10CAB000FFF7A0FF11238DF808309DF80A300E977C
:10CAC000012262F342038DF80A30637B8DF8243033
:10CAD0001422A37B8DF82530002104A800F020FD4E
