:020000022000DC
:1070000000000220757302005D7302005F730200CE
:1070100061730200637302006573020000000000E8
:107020000000000000000000000000006773020084
:1070300069730200000000006B7302006D730200B0
:10704000319602006F730200C99A0200FD9C020093
:107050006F7302006F730200499902006F730200A0
:107060006F7302006F7302006F7302006F73020090
:107070006F7302006F7302006F7302006F73020080
:107080006F730200C58702006F7302006F73020006
:107090006F7302006F730200B1DC02006F730200B5
:1070A0006F7302006F7302006F7302006F73020050
:1070B0006F7302006F730200000000000000000008
:1070C0006F7302006F7302006F7302006F73020030
:1070D0006F7302006F7302006F7302006F73020020
:1070E0006F730200000000000000000000000000BC
:1070F000000000006F730200000000006F730200C8
:10710000000000000000000000000000000000007F
:10711000000000000000000000000000000000006F
:10712000000000000000000000000000000000005F
:10713000000000000000000000000000000000004F
:10714000000000000000000000000000000000003F
:10715000000000000000000000000000000000002F
:10716000000000000000000000000000000000001F
:10717000000000000000000000000000000000000F
:1071800000000000000000000000000000000000FF
:1071900000000000000000000000000000000000EF
:1071A00000000000000000000000000000000000DF
:1071B00000000000000000000000000000000000CF
:1071C00000000000000000000000000000000000BF
:1071D00000000000000000000000000000000000AF
:1071E000000000000000000000000000000000009F
:1071F000000000000000000000000000000000008F
:10720000354936480A1A02D0072291438D4634493F
:1072100034480A1A06D00722914381F309880222D2
:1072200082F3148830483149314A00F044F831483B
:107230003149324A00F03FF831483249324A00F0D1
:107240003AF832483249334A00F035F83248334987
:10725000334A00F030F833483349344A00F02BF811
:1072600033483449344A00F026F83448344900227F
:1072700000F02CF833483449002200F027F8334856
:107280003349091A082902DB002202604160314AB1
:1072900090471F481F49884205D00268043003B454
:1072A000904703BCF7E700208646EC46002000210B
:1072B000294A9047FEE7884207D0521A05D0037842
:1072C00001300B700131013AF9D17047884202D088
:1072D00002700130FAE770470000022000F8012038
:1072E00000000220000002208CF802000040002074
:1072F00058460020D0730200D07302003AE3020027
:107300008CF802000040002000400020A8E40200A9
:10731000A8E40200A8E40200A8E40200A8E4020035
:10732000A8E40200A8E40200A8E402008AF802002F
:10733000E4FE02005846002058460020584600202F
:10734000AC580020AC580020AC580020AC580020AD
:10735000AC6000209D73020051C30200FEE7FEE70F
:10736000FEE7FEE7FEE7FEE7FEE7FEE7FEE7FEE7F5
:1073700000F002B8FFF7FCBF0F484FF00701884349
:1073800085460E4880470E48016841F4700101604F
:10739000BFF34F8FBFF36F8FFFF732BF09480A4922
:1073A0000A4A884207D0521A05D0037801300B7080
:1073B0000131013AF9D17047000002202192020008
:1073C00088ED00E0A8E4020000400020004000201A
:1073D0007047000007B5044B0093044A402300F0B7
:1073E00032F803B05DF804FBF17302005946002047
:1073F0002DE9F84388461446B2B10F4B0F4E0325D2
:10740000002743F00109224608EB0701002005F0A0
:107410006BF90744241A48B933782BB14FF47A40FA
:10742000C847013D02D13570BDE8F88301233370B0
:10743000002CE8D1F8E700BFB0E402005846002075
:10744000704705F085B9F0B595B01D46164608465B
:107450000C4601F039FD1A9B0D93CDE90865002516
:107460002B46082205A920460A958DF82C500C952C
:1074700001F047FD079B0293069B03939DF8143090
:107480008DF8115003F00302012A1DD1BDF814201C
:10749000059DC3F3C203C2F383168DF81030B2000A
:1074A00008230EA9204601F02CFDC5F3952508AB55
:1074B0000093324602AB0EA9284600F045FB204659
:1074C00001F006FD15B0F0BD022AF8D1BDF8165046
:1074D000C3F3C203C5F389158DF810300827082DB2
:1074E0002E4628BF08263B4632460EA9204601F00C
:1074F00008FDAD1B08AB02AA31460EA8374400F0C8
:1075000087FB002DEBD1DAE708B5FFF79AFF0448B7
:10751000042100F083FA034B01225A7108BD00BF19
:1075200098E4020000400020037813F0040216D013
:1075300003F00303012B03D0022B09D00120704775
:107540000A6800880232C0F3831002440A60F5E73B
:107550000B684288023303EB92130B60EEE7104690
:10756000704700002DE9F04F87B000230446861CC9
:107570000DF107000F4615468DF8073000F0B4FFF7
:10758000404A51683960936803F580735B1A9246EC
:1075900002F21C4702F5836902F21448B3421AD37F
:1075A0000020002D69D004F00F039B0143F0050378
:1075B00063F30F00DAF80430DAB203321E444AF8FB
:1075C00022009DF80700CAF8046000F0B1FF012016
:1075D00007B0BDE8F08F0121384601F0A8F9484610
:1075E00001F0BDF9404601F0BAF9DAF8080002905E
:1075F000C0B203300AEB800002A9FFF795FF029B9F
:1076000030BBDAB20AEB8202D16803919A1C0133D3
:10761000DBB20AEB83030292D3F80CB001F0030350
:10762000012B22D0022B15D08346404601F09AF957
:1076300010B1029BCAF808305946384601F077F974
:10764000DAF80830DAF8042003F580739B1AA5E70E
:10765000D8B2CEE7BDF80E30C3F3891303334FEA37
:107660001B4B02EB93030293DFE7BDF80C30C3F32F
:1076700083134FEA1B4B1344F5E7A40544F00600BF
:1076800098E700BF6C470020064B074810B5002262
:107690001A7001F0D2FB044610B9044801F034FD21
:1076A000204610BD6C470020FCE30200ECE4020021
:1076B00030B50A4C71B10A4A0A49121BD20800239C
:1076C0009A4201D1002030BD31F82350854202D0CA
:1076D0000133F5E7034654F83300F4E744E30200CE
:1076E000FCE3020000400020094B013903EBC0001D
:1076F000032909D8DFE801F00A02040604207047D4
:107700000079704740797047002070470220704729
:1077100044E30200034BD3E90130C31A58425841F5
:10772000704700BF6C4700202DE9F04186B0FFF79D
:10773000F1FF0546002840F0E680744CC4F81804B8
:10774000BFF34F8FA3680293DBB2033304EB8300D4
:1077500002A9FFF7E9FE029B18B1D4F81824002A09
:1077600055D0DAB2991C013304EB8202DBB204EB90
:107770008303D268DB68049302F00303022B0392B5
:1077800002914FD1BDF80E306148C3F38917502FD5
:107790003E4628BF502666F38F1306F10801ADF868
:1077A0000E3001F062FB0546002800F0978001F0E2
:1077B0008BFB002303A90822284601F098FB0299BD
:1077C000CB43DBB20133C9B20331B6EB830F4FEACF
:1077D000830804EB810122D908234246A6EB080660
:1077E000284601F084FBF6B24A4908F10803324604
:1077F000284601F07CFB029B033703EB97070297B7
:10780000D4F81834002B41D1D4F8106451E06268E8
:107810009A4299D8A260284606B0BDE8F0810823B4
:107820003246E5E7012B59D1BDF80C303848C3F397
:107830008311062928BF062161F3891302318900CB
:10784000ADF80C3001F011FB0546002846D001F0E0
:107850003BFB0023082203A9284601F048FB002631
:10786000BDF80C20C2F38312B300964203F1080363
:10787000C6D202994A1CC9B20331029204EB8101BB
:107880000422284601F033FB0136E9E7284601F0DF
:107890001FFBFFF73FFF80F00100C5B2BBE7F368B5
:1078A0005B7923B1336829461B6830469847F368F3
:1078B0001E68002EF3D1284601F00AFB0DF10700E7
:1078C0008DF8076000F010FED4F818340BB9029B55
:1078D000A3609DF8070000F02BFEDAE7D4F810440F
:1078E00054B90D4B0D480E49C01AC008000440F0B1
:1078F000020000F05DF8CCE7236820469B689847BB
:10790000E3681C68ECE7002585E700BF6C470020B2
:10791000FCE302007847002044E3020074E3020025
:10792000D4E402002DE9F34704460E46924601A92D
:10793000012218469946FFF715FE1B4F10B3019D13
:107940004FF00008AA1CC84508EB020123D11748D4
:10795000002100F0C9FF80F31000000440EA144049
:10796000E4006B1C04F03804DBB2EDB244F0010417
:1079700007EB8303033544EA881444EA8624D8607D
:1079800047F825403B781BB1FFF7CEFE0028FBD11E
:1079900002B0BDE8F087C9B207EB81015AF8283080
:1079A000CB6008F10108CEE76C470020884B00202F
:1079B00000231A46FFF7B6BF07B50123019201AABB
:1079C000FFF7B0FF03B05DF804FB07B5CDE9002376
:1079D00002236A46FFF7A6FF03B05DF804FB1FB55C
:1079E000CDE90123069B039301AA0323FFF79AFF26
:1079F00005B05DF804FB7FB5CDE90023089B029339
:107A0000099B03930A9B04930B9B05936A460623E9
:107A1000FFF788FF07B05DF804FB000030B50F49A1
:107A2000D1F8102403460020144634B9DC682071D4
:107A30004AB9C1F81034226030BDE4682579854226
:107A400006D02468F1E7D268116821601360F3E77B
:107A500001300A28E8D14FF0FF30EDE76C470020F5
:107A6000084A38B50123D2F8104413701D4604B9F2
:107A700038BDE3685D71236820465B689847E3681A
:107A80001C68F4E76C47002007B503460846197ADE
:107A9000052911D05B7A2BB1094A0A49019000F0FF
:107AA000C4FF01980849019000F0BFFF019803B09E
:107AB0005DF804EB00F0AEBF002AF8D0F2E700BF9B
:107AC000F8E40200FDE402001DE5020030B5C388C1
:107AD00085B004460D4633B1144A00921449154A44
:107AE000284600F0A2FF217A05291DD0637A4BB108
:107AF000A088FFF7F9FD104B104953F820202846C5
:107B000000F093FF227A0E4BA08853F822200392B4
:107B10000021FFF7CDFD039A0A490346284605B028
:107B2000BDE8304000F081BF05B030BDF8E4020090
:107B300008E5020000E5020084E50200FDE4020021
:107B4000A8E5020020E502002DE9F04385B01F46BC
:107B50000C9D002395F80C902B7306460C4690461E
:107B600029463846FFF7B2FFB8F1060F09D8DFE81B
:107B700008F00412181F283340003146284600F050
:107B800054FF002229463846FFF77EFF85F80C9007
:107B900005B0BDE8F08322683146284600F045FF75
:107BA000EFE7D4E900233146284600F03EFFE8E73E
:107BB000A36800933146D4E90023284600F035FF3E
:107BC000DFE7E3680193A36800933146D4E900231B
:107BD000284600F02AFFD4E723690293E368019363
:107BE000A36800933146D4E90023284600F01DFF26
:107BF000C7E76369039323690293E3680193A3686A
:107C000000933146D4E90023284600F00EFFB8E780
:107C100008292DE9F74F80460E4617461C463CD8EA
:107C2000002593F80C901D7319461046FFF74EFF80
:107C3000DFF888A0DFF888B0AE4231D918F8052007
:107C40005946204600F0F1FE0135082DF4D11949BE
:107C5000194DDFF870A0204600F0E7FE4FF0000B52
:107C60005E4522D918F80B207E2A05D810460192CD
:107C700006F056FA019A00B92E225146204600F02D
:107C8000D4FE0BF1010BBBF1080FE9D10122214613
:107C90003846FFF7F9FE84F80C9003B0BDE8F08F8A
:107CA0005146204600F0C1FECEE72946204600F0AE
:107CB000BCFEE6E734E5020032E5020030E50200F2
:107CC0002AE5020036E50200C30710B507D4F02309
:107CD000054A4008145C23401943115410BD0901A2
:107CE000C9B20F23F4E700BF584C002030B5094B50
:107CF0001C78094B196800239C4202DC00221046C4
:107D000030BD11F83350854201EBC302F7D0013387
:107D1000F2E700BF244C0020784C002013B5044645
:107D20000191FFF7E3FF38B143682BB10199204679
:107D300002B0BDE81040184702B010BD034B044824
:107D400019680022490800F0A2BA00BF284C0020A0
:107D5000304C002010B5C0B2FFF7C8FF04460078D1
:107D600001F0E4FD63785A1E53425341834208D127
:107D7000044BD3E90023134303D1BDE81040FFF7C0
:107D8000DDBF10BD504C002037B54308354AD35CE9
:107D9000C2074CBF1B0903F00F0304460D46042B1A
:107DA00035D8DFE803F003252C383C0079B30121F6
:107DB000FFF78AFF00230DF107008DF8073000F070
:107DC00093FB0120A4F12003C4F12001264A20FAEC
:107DD00001F100FA03F30B43A040D2E90041204334
:107DE0000B43C2E900039DF8070000F0A1FB0EE081
:107DF000002918BF02212046FFF766FF07E041B1C6
:107E00000321FFF761FF01212046FFF787FF03B041
:107E100030BD0121EFE70029F9D10421EBE709B1D9
:107E20000321E8E7FFF750FF29462046FFF776FFDA
:107E30000DF107008DF8075000F056FB0120A4F16A
:107E40002003C4F12001084A20FA01F100FA03F3EB
:107E50000B43A040D2E9004124EA000021EA0303D9
:107E6000BFE700BF584C0020504C00202DE9F041E6
:107E7000124E134F00243378A34208DC114BD3E990
:107E80000023134318D0BDE8F041FFF757BF3D680A
:107E900005EBC40815F8340001F048FD98F80130EE
:107EA0005A1E53425341181A4142414115F83400B9
:107EB000FFF76AFF0134DEE7BDE8F081244C0020C3
:107EC000784C0020504C0020092AF7B505460C4696
:107ED00016463CD901F05AFCD8B11E4B1E481D6015
:107EE0001E4B1F4F1C701F4B002120221E6006F0EE
:107EF00078F91D4B00200021C3E90001013CE4B2E8
:107F00000326FF2C0BD1194A1948002100F0B4F9BF
:107F100003E001F0F5FB0028DFD003B0F0BD9DF8D1
:107F2000063015F834008DF8046005EBC40223F028
:107F300007038DF8063001A993788DF805303A468D
:107F400001F02EFC013CE4B20028DAD0E5E707207E
:107F5000E3E700BF784C0020584C0020244C002060
:107F6000557D0200284C0020504C00206D7E020000
:107F7000C8E5020070B5084D084E00242B789C42DD
:107F800001D3002070BD3368012113F8340001F0E3
:107F900083FC0134F2E700BF244C0020784C002021
:107FA0001FB50021039001AA44F20100CDE901119F
:107FB00000F004F805B05DF804FB000010B572B6DF
:107FC000FFF74EFDFFF7B0FB0028FBD1104B114C23
:107FD0001149E41AE408240444F00100FFF7E8FC26
:107FE0000E4B1B68DB0700D500BE0D4944F00200B4
:107FF000FFF7DEFCBFF34F8F0A490B4BCA6802F450
:10800000E0621343CB60BFF34F8F00BFFDE700BFBB
:1080100044E3020074E30200CCE50200F0ED00E06E
:10802000D8E5020000ED00E00400FA0510B5846810
:10803000C2688388121B934208D3C2681340026847
:10804000D154C3680133C360002010BD0420FCE795
:108050008268C3689A420AD08268838813400268A3
:10806000D35C0B7083680133836000207047052068
:10807000704700004B1C30B5DB00044612F00300D3
:108080009BB20DD1074D2A601A44074B1A60074B6B
:108090001870074B1870074B1C80074B198030BDB8
:1080A0000720FCE7844C0020804C00207C4C002002
:1080B0008C4C0020884C00208A4C0020F8B5114CD4
:1080C000114D264622782B789A4200D1F8BD0F48F0
:1080D0000F4A2378126807880E4802EBC301006834
:1080E00052F83320898803FB070090470A49227819
:1080F0000988D3B2914286BF0133DBB200233370CB
:10810000E0E700BF8C4C00207C4C0020884C002015
:10811000844C0020804C00208A4C0020D0E90223AF
:10812000D1E90201994208BF90422CBF01200020F2
:108130007047000008B50B4800F02DFB0A4B0B49B7
:10814000D3E900231218D1E9000143F100038B4267
:1081500008BF824203D212F1807243F1000310463D
:10816000194608BD08400020984C0020104D002002
:1081700037B505460C460A4801A900F040FB60B13E
:108180000570446001A9064800F063FB18B105487A
:1081900000F006FB002003B030BD0420FBE700BF69
:1081A000FC4C00200840002038B5184B1B780446D2
:1081B00013B90025284638BD0028FAD0037F03F004
:1081C000FF05002BF5D0FFF7B5FFD4E90223994254
:1081D00008BF904214D3236903B92377D4E905304B
:1081E000984721690029E4D0237F03F0FF05002B85
:1081F000DFD0D4E90223521843F10003C4E902237B
:108200000348214600F09FFFD4E700BFA04C0020A8
:10821000F4E5020013B5114B1149186801900823C9
:108220001048582200F0D8FA044698B90E4A0F4870
:1082300001A900F0A1F9044660B90C48012100F041
:108240008DFA01230A4A0948194600F0EFF9094B53
:1082500001221A70204602B010BD00BFF0E50200F6
:10826000A44C0020FC4C0020D982020008400020D1
:10827000FFFF7F00A04C00203AB103685A614A1EFC
:10828000514251411961002070470720704738B5AD
:10829000037F04460D4683B98261FFF74BFF2369D4
:1082A000401941F10001C4E9020103B125612146F1
:1082B0000020BDE83840FFF75BBF002038BD002339
:1082C000014603770120FFF753BF0000014800F08B
:1082D00062BA00BF084000202DE9F04F85B080460B
:1082E00000F044FA40B15A4AD2E9003113F18073E8
:1082F00041F10001C2E900310021404600F045FA99
:1083000038B1544E336823B13068FFF74DFF002376
:1083100033600121404600F038FA20B1FFF70AFF30
:108320004D4BC3E900014D484A4F4D4EDFF838919F
:1083300003A900F09EFA002845D1DFF82491454EAC
:10834000DFF828A1484600F014FF3368002875D0F4
:108350007BB13368D0E90201D3E90223994208BF17
:1083600090422DD233681B7F1BB13168484600F024
:10837000EAFE484600F0F7FED0E902B30746019353
:10838000FFF7D8FE019BBBEB000463EB0105012C5A
:1083900075F1000345DBB4F5350F40D3FFF796FFC9
:1083A000304A02444FF496030021504600F05EF933
:1083B00000283ED1336813B9404600F02FF93760EA
:1083C00005B0BDE8F08F0378012B1DD0022B09D139
:1083D0004FF0000A304600F0C6FE002834D080F886
:1083E0001CA0F7E73BB941680B7F23B901230B774A
:1083F000304600F0A8FE03A9184800F065FA03A96A
:10840000164800F036FA96E741683B68994202D177
:1084100000233B60EFE7304600F0AEFEEBE7BA68C2
:10842000C0E70021504600F0A6F93846FFF7BCFE31
:1084300001E00D28F9D00023336083E7002BBFD182
:10844000404600F0EFF8BBE7012389F80030D2E79F
:10845000984C0020184D0020104D0020FC4C0020AE
:10846000F4E50200FFFFB400A04C0020084000200B
:108470000648074A03780749D35C012213B1043048
:1084800001F0C8BB0C3001F06BBB00BF10400020F6
:108490006C4D00202C4D002010B501460E48FFF712
:1084A000C5FD0446A8B90D480D4A0378D35C63B1F5
:1084B000043001F0F7FB60B90A490748FFF7C8FD2F
:1084C00038B9BDE81040FFF7D3BF0C3001F08EFB88
:1084D000F1E7204610BD00BF1C4D002010400020D9
:1084E0006C4D00202C4D002070B5EFF3108672B655
:1084F0000C4A946801239CB993600B4B0B4DD3F845
:10850000801029401160C3F88050D3F88410516066
:108510004FF0FF32C3F88420047006B962B670BD14
:108520000370FAE7304D002000E100E0FC06FFBDDB
:10853000084B9A6810B55AB150B9EFF3108172B672
:10854000054A1C6814605C685460986001B962B6A2
:1085500010BD00BF304D002000E100E0435882B064
:108560003BB10023435043580193019B012002B0CB
:1085700070471846FBE70000F8B5204B4479204DC2
:1085800043F824201F4A204B05EBC4049B1A227990
:10859000DB081B0432B143F002001C49FFF708FA64
:1085A0000820F8BD02680C88C2F8084590F90460FC
:1085B0008A7804795201002ED2B219DB14498F193E
:1085C00087F800230122760904F01F0402FA04F45C
:1085D00041F82640427905EBC201012445F83200FA
:1085E0000C7143F003000B49FFF7E2F90020D8E7D4
:1085F000094904F00F040A55ECE700BF444D002080
:108600003C4D002044E3020084E3020000E6020047
:1086100000E100E022E6020014ED00E00368012220
:108620001A607047036801225A60704773B501F100
:108630005005AD000068ADB24FF480348C40002688
:10864000C0F80843C0F84843465101F5A8714559A0
:10865000019522F07F42019D40F82120C0F844435B
:108660000BB1C0F8044302B070BD00002DE9F74F14
:108670000D4622F07F4402684FF4803705F1500622
:108680008F408046B60002EB8500C2F84873B6B250
:10869000C2F80873D2F8041599464FF0000BD0F8D1
:1086A0004035C0F8401542F806B05B1A9259009266
:1086B00023F07F43012B009A4FEA850A0CD1264B09
:1086C0004FF4806043F001039847D8F8003043F836
:1086D00006B09B590193019BD8F80010D1F80465AE
:1086E000C1F84473A31B23F07F43012B1CD11A4B09
:1086F00005F5A875013443F0010341F825404FF416
:1087000080609847D8F80030D3F804359E4209D1EC
:10871000D8F800300020C3F84473C3F8047303B0E2
:10872000BDE8F08F0D20FAE78A44C9F1FF13CAF8BB
:108730004045D1F80405221A013A22F07F4203F5A0
:108740007F439342EED3002AE2D10134CAF8404578
:10875000D1F804359842DAE740E6020003680222C5
:10876000C3F8442309B1C3F80423704700684FF4E9
:108770008271FFF7F3BE4FF4803303FA01F103680F
:10878000C3F84813C3F808137047503189000068D4
:1087900089B2FFF7E3BE0368D3F804057047000011
:1087A00090F90430002B09DB5A09012103F01F0363
:1087B00001FA03F34032024941F82230704700BF0A
:1087C00000E100E0024B034A1B681068184700BF35
:1087D000444D00203C4D002010B561B1B2FBF3F4D4
:1087E00003FB1424A4B244B9C0E90014846082815C
:1087F000C381204610BD0E20FCE70920FAE737B5FB
:1088000050E8013F9DB2C48925448489A54228BF10
:108810002D1B0489A54202BFBFF32F8F002207E062
:10882000C5EA030540E80154002CE9D14FF00102EC
:108830008DF803200193019B9DF803200B6002F04B
:10884000FF0322B10B880068184403B030BD1846FE
:10885000FBE70A884B889A4209D150E8012FC2EA07
:10886000024240E80123002BF7D10120704700208D
:10887000704737B550E8023F1FFAA3F5C488A542F8
:1088800002BFBFF32F8F00220DE0C48925448489E5
:10889000A54228BF2D1BC3EA054540E80254002C21
:1088A000E8D14FF001028DF803200193019B9DF860
:1088B00003200B6002F0FF0322B14B8800681844CC
:1088C00003B030BD1846FBE70A884B889A4209D1AD
:1088D00050E8022FC2EA224240E80223002BF7D1DF
:1088E000012070470020704710B5034653E8000F81
:1088F0000A4643E8002494F0000FF7D110BD10B5EC
:10890000034653E8002F42EA010043E8000494F0D4
:10891000000FF6D110BD10B5034653E8000F00EA72
:10892000010243E8002494F0000FF6D110BD10B509
:10893000034653E8002F02EB010043E8000494F0E3
:10894000000FF6D110BD10B5034653E8002FA2EB7F
:10895000010043E8000494F0000FF6D110BD01219E
:10896000FFF7CDBF0021FFF7D6BF10B590B1D0E91A
:10897000012301689B1ADBB20A60013BDBB2FF2BCB
:10898000026802D10020107110BD11684C1C1460E7
:108990000B70F2E70E20F7E737B5054600240DF11E
:1089A00007008DF80740FFF79FFD2A686B68116884
:1089B00099420ED9481E106011F8014CEB68298AC3
:1089C00001FB0434AB6811791B1ADBB2994238BF42
:1089D00013719DF80700FFF7ABFD204603B030BDD3
:1089E00037B5054600230DF107000C468DF807301A
:1089F000FFF77AFD2A681368591C1160E968641A48
:108A0000298AB4FBF1F41C709DF80700FFF790FD74
:108A100003B030BD826810B504462AB143690168CD
:108A2000006998470023A36010BD0EB403B50399F5
:108A300021B104AB01AA019300F06EF802B05DF819
:108A400004EB03B07047826830B40468551C85603D
:108A5000A154D0E901329A4202D330BCFFF7DABF09
:108A600030BC70472DE9F84F9846DDE90A431546BA
:108A700082460F460A464FF00109AA420FD2C1456D
:108A800038BFC14613F0010B01D16CB90024012697
:108A9000B8F1010F1BD908F1FF386E43F8E709F16F
:108AA0000109B2FBF5F2E8E79B070ED5B8F1000F1C
:108AB0000CBF30262026A145E9D2013C3146504664
:108AC000FFF7C1FF002CF6D1E0E72026F3E7B7FB64
:108AD000F6F39D42E1D9DFF83C80B7FBF6F3504650
:108AE00018F8031006FB1377FFF7ADFF3346AB42D0
:108AF000B6FBF5F6F1D2BBF1000F02D00CB1A145E7
:108B000001D3BDE8F88F20215046013CFFF79BFFC1
:108B1000F4E700BF46E602002DE9F74F0546174689
:108B20008846002900F0428118F8011B49B92B7BC7
:108B3000002B00F03B81284603B0BDE8F04FFFF763
:108B400069BF252940F0B780002698F800302D2B0A
:108B5000424608F1010823D0302B24D02B2B25D0FE
:108B600000242A2B02F1010123D13B681A1D1B6846
:108B70003A601C440A4613782E2B26D101324FF05E
:108B8000000A104610F8011BA1F1300CBCF1090FCE
:108B90001DD80A2303FB0A13A3F1300A0246F0E7AB
:108BA00046F00106D1E746F00206CEE746F004069D
:108BB000CBE711F8013CA3F130000928DBD80A22E9
:108BC00002FB0434303C0A46CBE74FF0000A12F8AF
:108BD000011B01F0FB0068289046F8D0782909D8DD
:108BE0006F290CD8632962D022D8252963D058294F
:108BF00000F0888098F80030002B95D197E7703905
:108C00000829F7D801A353F821F000BF878D02008F
:108C1000F58B0200F58B0200158D0200F58B02002A
:108C2000F38C0200F58B0200F58B0200058D02002B
:108C3000642901D06929DDD13A68D2F80090111D6C
:108C400089EAE9723960A2EBE9724FF0010B092A57
:108C500035DCD34538BFD3462CB1B9F1000F01DB69
:108C6000720700D5013CB30702D5BAF1000F03D05B
:108C7000F00701D44CBB0024B9F1000F2DDAC9F183
:108C800000092D212846FFF7DEFE06F00302022A26
:108C900004D1BAF1000F01D11CBB0024CDE900467C
:108CA00053460A2249462846FFF7DCFEA2E73B6806
:108CB0001A1D19783A602846FFF7C5FE9AE70A237D
:108CC0000BF1010BB2FBF3F2C1E7A345D4D2202193
:108CD0002846013CFFF7B7FECCE77107D5D52B211D
:108CE000D0E7A345DAD230212846013CFFF7ABFE9E
:108CF000D2E73968CDE900460A1D3A6053460A2298
:108D00000968D0E739680A1D3A60CDE90046534644
:108D10001022F5E73B681A1D3A6016F00106D3F8F9
:108D2000009028D1B9F1000F03D0484605F0D5FADC
:108D30000646B44200D904BB09F1FF3919F8011FF6
:108D400000293FF457AF2846FFF77DFEF6E7284697
:108D50000136FFF778FE19F806100029F7D1A64270
:108D6000BFF448AF002C3FF445AF20212846013C1A
:108D7000FFF769FEF3E70026EDE720212846013CD6
:108D8000FFF761FED5E73B681A1D3A60302128469F
:108D90001C68FFF758FE78212846FFF754FE002292
:108DA0000823CDE90032214610227CE703B0BDE85C
:108DB000F08F00BF2DE9F84FB0F806A04579D2F842
:108DC00000B09DF828900AFB05F5043D88460BEBA2
:108DD0000301A94203F1040488BFA5EB030BB4FB14
:108DE000FAF607460AFB1644C2F800B04EB9AAEBE1
:108DF00004055D4528BF5D46BBF1000F04D1BDE809
:108E0000F88F3F68013EF1E7043408EB06003C446C
:108E10002A46B9F1000F0DD02146ABEB050B05F04A
:108E2000B7F9DA452E443F6855464FF0000428BF95
:108E30005D46E1E701462046EFE7FFF796BDF8B54E
:108E400046790146721E0546002393422D6803D3DE
:108E50000024A64202D8F8BD0133F6E70F68284681
:108E6000FFF7BEFD01343946F3E72DE9F843068AE2
:108E7000CD1C0746FFF790FD043E35440446B5FB84
:108E8000F6F5F0B14FF48073EDB28380C680013DFA
:108E9000076081464FF00008A84512D23846FFF718
:108EA0007BFD064648B163790133637108F101081F
:108EB000C9F8000007608146EEE72046FFF7BFFFD4
:108EC00034462046BDE8F88301210430FFF72FBD6A
:108ED00010B5012104460430FFF735FD10F0FF0FF7
:108EE00004D12046BDE81040FFF7A9BF10BD1FB553
:108EF00003920022009203AAFFF75CFF05B05DF821
:108F000004FB1FB503920122009203AAFFF752FF50
:108F100005B05DF804FB41DF70470000064B10B55B
:108F200000241C70054B1C60BFF35F8F044905488B
:108F300000F0F3F8204610BD504D0020544D0020A5
:108F400060E60200484D002007B500230DF1070040
:108F50008DF80730FFF7C8FAF1EE103A23F09F03BF
:108F6000E1EE103ABFF35F8F094B4022C3F8842132
:108F70009DF80700FFF7DCFA04F080FE20B1FFF750
:108F8000CAFF03B05DF804FB20BF40BF20BFF8E775
:108F900000E100E0026813685268934291BFD01A62
:108FA00080680130801888BFC01A704703688168E4
:108FB0001A685B688B4234BF01330023D31A5842CE
:108FC00058417047F7B5002304460DF107000D46E0
:108FD0008DF80730FFF788FA2046FFF7E7FF10B15A
:108FE000237C002B3CD12268A66853685168B142AB
:108FF00034BF01310021516030B11168A068814255
:1090000034BF013100211160E2686068511E0729F8
:1090100020D8DFE801F004101F141F1F1F182A7842
:10902000C2542046FFF7B6FF23689A68824200D2F6
:109030009860002415E02A8820F81320F1E72A68B8
:1090400040F82320EDE7D5E9006700EBC300C0E955
:109050000067E6E7294602FB030005F099F8E0E720
:1090600004249DF80700FFF763FA204603B0F0BD23
:10907000036818685B68C31A58425841704773B553
:10908000002305460DF107000C4616468DF8073003
:10909000FFF72AFA2846FFF7EBFF002832D12968AC
:1090A0000B682EB90A68A868824238BF561C0E6049
:1090B000EA686968501E07281ED8DFE800F0040E31
:1090C0001D121D1D1D16CB5C237000249DF807008A
:1090D000FFF72EFA204602B070BD31F8133023801E
:1090E000F3E751F823302360EFE701EBC301D1E947
:1090F0000023C4E90023E8E703FB0211204605F042
:1091000047F8E2E70524E1E7836800225A60C3E9F3
:1091100004229A60DA601A6070470B684A684360FC
:10912000934208BF0023016008BF43607047436853
:1091300043B10268916852680B449342436004BF94
:1091400000234360704770B5446806460D462068AA
:1091500018B1B3682946984718B923682B60256071
:1091600070BD2468F3E74368186808B102681A60A4
:1091700070474368186870474368186800B97047BB
:10918000884203D102681A600120704703460068D4
:10919000F4E7000010B50D49A1F59472914201D891
:1091A00000200FE08C1AE30F03EBE4035B1002EBEB
:1091B000C30452F83330834205D802D204F10802C6
:1091C000ECE7606810BD2146E8E700BF6CEB0200E9
:1091D00008B5FFF7DFFF024B002808BF184608BD9F
:1091E0002FEA02000A4B1B685A1C05BF094B0A4AAA
:1091F0000A4A10680ABF1B781068C0F303100D2BD1
:1092000004D101288CBF0020012070470020704746
:1092100030010010E00F00F0E80F00F03401001002
:1092200008B5FFF7DFFF40B14FF080430022C3F8DD
:109230000C21C3F81021C3F83825FFF7D3FF00280D
:1092400046D04FF080524D4BD2F80414C3F820158D
:10925000D2F80814C3F82415D2F80C14C3F8281552
:10926000D2F81014C3F82C15D2F81414C3F8301522
:10927000D2F81814C3F83415D2F81C14C3F84015EA
:10928000D2F82014C3F84415D2F82414C3F84815B2
:10929000D2F82814C3F84C15D2F82C14C3F8501582
:1092A000D2F83014C3F85415D2F83414C3F860154A
:1092B000D2F83814C3F86415D2F83C14C3F8681512
:1092C000D2F84014C3F86C15D2F84424C3F87025C2
:1092D000FFF788FF48B14FF08043D3F80024D2074E
:1092E00044BF6FF00102C3F80024254AD2F8883049
:1092F00043F47003C2F88830BFF34F8FBFF36F8F12
:109300004FF01023D3F80022002A03DBD3F80432F5
:10931000002B2FDA1B4B0122C3F80425D3F80024BD
:10932000002AFBD04FF010221221C2F80012D3F80D
:109330000024002AFBD04FF010231222C3F804228D
:10934000104B1A46D3F800140029FBD00021C3F8B3
:109350000415D2F80034002BFBD0BFF34F8F08491F
:10936000094BCA6802F4E0621343CB60BFF34F8F2E
:1093700000BFFDE7054B064A1A6008BD00C000406B
:1093800000ED00E000E001400400FA052440002068
:109390000090D003074B1B5C1F2B8ABF064A4FF07F
:1093A000A04203F01F03D2F80405D840C04300F0E8
:1093B000010070476CEB020000030050074B1B5C80
:1093C0001F2B86BF064903F01F034FF0A041012267
:1093D00002FA03F3C1F80C35704700BF6CEB0200D2
:1093E00000030050074B1B5C1F2B86BF064903F090
:1093F0001F034FF0A041012202FA03F3C1F8083520
:10940000704700BF6CEB02000003005008B500205D
:10941000FFF7E8FF0120FFF7E5FF0220FFF7E2FF7B
:10942000BDE808400320FFF7DDBF08B50020FFF7C7
:10943000C5FF0120FFF7C2FF0220FFF7BFFFBDE815
:1094400008400320FFF7BABF0A4B185C1F288ABFE9
:10945000094B4FF0A04300F01F00D3F80425012171
:10946000814021EA02000A40C3F80805C3F80C2530
:10947000704700BF6CEB02000003005038B5074C8A
:10948000051E04F1080318BF1C4623682BB11A6897
:1094900022605B6828469847F7E738BD604D00209A
:1094A00020B9054B01225A70FFF7E8BF012802D10D
:1094B000014A9070F8E77047584D002020B9034BDF
:1094C00001225A70FFF7DABF704700BF584D0020E5
:1094D00038B50E4C2378B3B90D486360A36023619F
:1094E000E36000F073F8054604F0C8FB08B900F02B
:1094F00079F801232370074BD3F800340BB1012313
:10950000A370284638BD8525F5E700BF584D0020DB
:10951000A19402000000014037B50D4C00230DF16D
:1095200007008DF80730FEF7DFFFE368013BE360DB
:10953000E36833B9074BD3F8005415B900F064F869
:10954000A5709DF80700FEF7F3FF03B030BD00BF24
:10955000584D002000000140012813B50CD003280D
:1095600020D038B9124B0122C3F88020BFF34F8FAF
:10957000BFF36F8F02B010BD0E4C00230DF107003A
:109580008DF80730FEF7B0FF23780BB9FFF7A0FF87
:10959000E3689DF807000133E3600123A370FEF741
:1095A000C7FFE7E700F01EF8FFF7B6FFE2E700BFEE
:1095B00000E100E0584D002000F18040002382B01F
:1095C000036003680193019B02B07047044A13795A
:1095D00023B901211060117118467047852070472A
:1095E000704D0020074B1A68D20704D4C02283F8BC
:1095F000002301221A604FF080430122C3F818258E
:10960000704700BF00E100E04FF0804208B5022340
:10961000C2F808334FF48270FFF7CEFF034B0121ED
:109620001960D2F81834DB03FBD408BD0C000040ED
:10963000114B1B6810B563B14FF48070FFF7BCFF8E
:109640004FF080430122C3F808230C4B00201B6815
:1096500098470B4B1B6873B14FF48270FFF7ACFF58
:109660004FF080430222C3F80823044BBDE81040AA
:109670001B680120184710BD00010040704D0020FC
:109680000401004000F1804000F5C040002382B09A
:10969000036003680193019B02B0704703681F2BAE
:1096A00083BF03F01F03036001484FF0A0407047E1
:1096B0000003005007B5019001A8FFF7EFFF019BE1
:1096C00000EB8300D0F8003723F44033C0F80037B4
:1096D000D0F8003743EA0141C0F8001703B05DF845
:1096E00004FB0000054B4FF0FF32072843F8202011
:1096F00084BFC01880F85220704700BF784D00200A
:1097000038B51E4C94F86430ABBB40F2FF31FF20FB
:109710005A09012A14BF4FF0FF320A4603F01F0511
:10972000EA40D20748BFE21803F1010348BF82F8BC
:1097300030002A2BECD10021C8B2FFF7D3FF013152
:109740000C29F9D1062200210D4804F04AFD0D4BE9
:10975000C02283F8062340221A604FF4BE70FFF740
:1097600091FF094B4FF00042C3F80423012384F812
:109770006430002038BD0820FCE700BF784D002091
:10978000D64D002000E100E000600040034B93F85C
:109790006400003818BF0120704700BF784D0020DA
:1097A000F7B53B4E3318054693F93030002B6CDA91
:1097B0008B78C3F34003002B0BBF082400240C203C
:1097C0000820844202D1042003B0F0BD56F8247072
:1097D000013743D1701946F8242080F8304013B97E
:1097E000331983F852508B785A0717D4D80737D5D6
:1097F00001A80195FFF752FF019B00EB8300D0F811
:10980000003723F00203C0F800372248EA0805F0C9
:1098100007070123BB40875C3B4383548B780A785E
:1098200013F0020328D0A40004F1804404F5C044DE
:109830002D02D4F8103523F44F3323F44073C4F8C9
:1098400010351204D4F8103505F47C5502F440327A
:1098500015431D43C4F810550020B5E70134B0E7A7
:1098600001A84A780195FFF719FF019B03F5E07302
:10987000920040F82320C8E7083C344494F85A503A
:1098800045EA821284F85A20E6E708209CE700BFE8
:10989000784D0020D64D002073B5224C2618054681
:1098A00096F93020072A1ADD224492F852309B099B
:1098B000032B0FD1019001A8FFF7F0FE019BD0F818
:1098C0001015D94001F0010102312846FFF7F2FEE0
:1098D00002B070BD012B0CBF02210321F5E7D3B20A
:1098E000072BF5D8930003F1804303F5C043D3F869
:1098F000100540F00100C3F8100502F1400080009F
:1099000080B2FFF7BFFE0029E2D096F9303054F85C
:109910002330002BDCD0012303FA02F2024BC3F800
:109920000423D5E7784D00200060004007B5019082
:1099300001A8FFF7B3FE019BD0F81005D84000F056
:10994000010003B05DF804FB2DE9FF470024CDE9D9
:109950000244584D4FF48072012102F1804303F517
:10996000C04390B21B68012B06D1D5F804330B42DB
:1099700002D0FFF787FE0C430432B2F5907F4FEA26
:109980004101EAD14C4B1B68012B11D14FF4BE7041
:10999000FFF778FE4FF0A04344F00044D3F82025B1
:1099A0000292C3F82025D3F820280392C3F8202878
:1099B00014F0FF0F1AD0414F00250126344210D079
:1099C000AB0003F1804303F5C043D3F81005D3F88F
:1099D000101557F8253023B1C1F30141C0F305201C
:1099E00098470135082D4FEA4606E7D1002C59DA91
:1099F000324D334C334E4FF00008012716F9013B2E
:109A00005A1C3CD0C3F3C20104A801445FFA83F995
:109A100011F8081C03F03F0203F0070307FA03F3F1
:109A200019422CD001A80192FFF738FE019B03F5E3
:109A3000E07350F82330C3F3014ABAF1020F104625
:109A40000CBF03210221FFF735FE01A80192FFF7A9
:109A500025FE019B07FA03F3C0F82035AB1893F9F4
:109A6000303055F8233053B14FEA9911032904D00F
:109A7000BAF1020F19D1012901D11046984708F116
:109A80000108B8F1040FB9D14FF0A043D3F8202555
:109A90000292C3F82025D4F820350393C4F820356A
:109AA0001343A7D104B0BDE8F087BAF1030FE6D1A4
:109AB0000229E1E7006000407C610040784D002011
:109AC00000030050D24D0020014B1B68184700BF17
:109AD000E04D00200E4B984237B50C4602D00020D6
:109AE00003B030BD00230DF107008DF80730FEF7FD
:109AF000FBFC084B1D7915B901221C601A719DF8F9
:109B00000700FEF715FD002DE9D01120E8E700BFA2
:109B100000200040E04D0020034B984201BF034B62
:109B200000221A601A71704700200040E04D0020AA
:109B30000023435082B043580193019B02B0704709
:109B40000A4610B54FF48E71FFF7F2FF136A916861
:109B5000C95C136A01331362C0F81C1510BD000004
:109B60002DE9F047204F90F804904FF02C0808FBA7
:109B7000097405466669002E34D162610068A160EF
:109B800026624FF48E7184F82860FFF7D1FF2868B1
:109B9000012383602146FFF7D3FF6368A0468BB99A
:109BA0002868D4F814A0236A9A4511D82A68D2F8F4
:109BB0001C31002BFBD00123D3602C2303FB097342
:109BC00000225A613046BDE8F08794F828303BB94E
:109BD000D0F81C31002BF8D04146FFF7B1FFE2E787
:109BE0000F26EAE71126EDE7E84D00200379044A45
:109BF0002C2101FB03235869003818BF012070474E
:109C0000E84D00200023435082B043580193019B4C
:109C100002B0704701F06043B3F1005F2DE9F041FD
:109C2000064638D11E4B0779242505FB0735984693
:109C30006C69002C31D16A610068A9604FF49071A1
:109C4000FFF7E0FF4FF4AC713068FFF7DBFF3368DC
:109C50006A69A968C3F84415C3F8482501229A60C7
:109C60006A68AAB9D3F82021D3F858411AB9002C50
:109C7000F8D00F2407E0002CFBD10122DA60D3F8E2
:109C80005821002AFBD0242303FB078700237B6194
:109C90002046BDE8F0811024FAE71124F8E700BF60
:109CA000144E00200379044A242101FB0323586940
:109CB000003818BF01207047144E00201F2886BFAF
:109CC000054A00F01F004FF0A042012303FA00F004
:109CD000C2F80805704700BF000300501F2886BF68
:109CE000054A00F01F004FF0A042012303FA00F0E4
:109CF000C2F80C05704700BF00030050114BD3F8A9
:109D0000183107B5D3B1104B104900221A60C87F33
:109D10001B680193FF28019B03D08B7F5BB1FFF78A
:109D2000DDFF00234B770B72D1E90031084803B007
:109D30005DF804EB1847FFF7C1FFF2E703B05DF8E9
:109D400004FB00BF0030004018310040384E0020B6
:109D5000404E00202DE9F74F05796D4E01934FF0ED
:109D6000240909FB05F906EB090A93469AF81C2019
:109D700080460C46002A40F0C7800768654938468F
:109D8000FFF7A8FE0146002840F0C08046F809B061
:109D9000019BCAF80430237B2078012B00F29D80C0
:109DA000FFF79CFF23781F2B86BF03F01F035A4A3F
:109DB0004FF0A04203F5E073012042F8230094F82D
:109DC0000190B9F1FF0F00F08B804846FFF786FF46
:109DD000B9F11F0F8BBF09F01F034B464E4A4FF0DE
:109DE000A04203F5E073032042F82300A378FF2B81
:109DF00079D01F2B8BBF03F01F021A4646484FF045
:109E0000A04002F5E0724FF0040C40F822C09A46E0
:109E1000242202FB056282F82030E078D077FF2808
:109E200016D02379002B61D0FFF758FFE3781F2B62
:109E300086BF03F01F03384A4FF0A04203F5E073DA
:109E4000032042F82300242303FB056322799A7739
:109E50002378C7F80835A368C7F80C95C7F810A58C
:109E6000C7F82435637B227B003B18BF0123022AFD
:109E70003FD0032A40D0012A01D143F00203C7F8A2
:109E80005435A379C7F8C0350723C7F80035242314
:109E90006B43F358B3B1D8F80030627943F307301D
:109EA00052010028C3F30733D2B228DB1B4C27181A
:109EB00087F800230122400903F01F0302FA03F38D
:109EC00044F82030242303FB056500236B7701232E
:109ED0002B77084603B0BDE8F08FFFF7EFFE61E790
:109EE0004FF0FF3982E74FF0FF3A91E7FFF7E6FEC8
:109EF0009CE743F00403C2E743F00603BFE70848CA
:109F000003F00F03C254DDE70821E2E71121E0E787
:109F1000384E0020FD9C02000003005000E100E0EC
:109F200014ED00E070B50579254C24236B43E3580C
:109F300093B103681A0B43F30733002B0CDB02F0D9
:109F40001F015B0901228A4020331E4941F823206A
:109F5000BFF34F8FBFF36F8F24236B43E218E35897
:109F600000687BB1184BC0F80833537F53B101230D
:109F70004361D0F80431002BFBD0242303FB0543BD
:109F800000225A77242303FB054393F82030FF2B4C
:109F90000BD01F2B86BF03F01F030C4A4FF0A042CB
:109FA00003F5E073022142F823100026C0F8006593
:109FB000FFF7B2FD242303FB0544267770BD00BFE5
:109FC000384E002000E100E052010800000300507C
:109FD0002DE9F3410679424F242373431446FA18BE
:109FE0000D46517F8046002978D1FB5823B114F0EB
:109FF000140F04BF0123537795E80F004FF0240C92
:10A000000CFB067C0CF10C0E8EE80F009CF81F0078
:10A01000FF2804D09CF81E30C3B1FFF74FFE29681B
:10A0200021B101F06043B3F1005F06D1AA6882B1AB
:10A0300002F06043B3F1005F0BD0242303FB0676EC
:10A0400000237377102002B0BDE8F081FFF746FED1
:10A05000E5E7D8F800306868C3F84415C3F8480548
:10A06000E968C3F834250022C3F83815C3F818216D
:10A07000D3F818210192019A14F0010218BF0122AD
:10A08000C3F8502514F0020218BF0122C3F840257E
:10A0900022075CBF01221A6124227243BA5892B986
:10A0A000D3F81821002AFBD0242303FB0676F07F87
:10A0B000FF2803D0B47F1CB1FFF710FE0020C2E7D9
:10A0C000FFF7FCFDFAE714F004004FF0400202D065
:10A0D000C3F80823F2E7C3F80423B4E71120B2E77A
:10A0E000384E00207FB503788DF804304368029322
:10A0F00083688DF80C30C36804930369064A8DF8B1
:10A100001430064B01A853F8213052F8211098471B
:10A1100007B05DF804FB00BF5C4E00206C4E0020D1
:10A12000F0B50546174615F804CB124A42F82C70D4
:10A13000114A42F82C30114B0C460FCB85B06E46BD
:10A1400086E80F002368009323798DF80530637942
:10A150008DF80630A3680293002FA389084AADF852
:10A160000C3008BF3A46634631462846FFF7F2FDF9
:10A1700005B0F0BD6C4E00205C4E002098EB020054
:10A18000E5A0020008B5094B1B7853B10020FFF78A
:10A1900029F90120FFF726F9BDE808400320FFF761
:10A1A00021B9BDE80840FFF731B900BF7C4E00205F
:10A1B000F8B57B4C237805461BB100232370FFF7CD
:10A1C000E1FF172D00F28880DFE805F00C17174338
:10A1D00054657680888D888D959A9A9A9A9AC4C982
:10A1E000D1D9E4E4FFF7CEFF6E48FEF768F86E4B76
:10A1F000002204461A702046F8BD0020FFF7CAF876
:10A20000F8B10020FFF7EEF8022D0CBF4FF4E1612A
:10A210004FF47A61644B1D704FF400404FF47A7430
:10A220000025E0FB01454FF4FA6200232046294651
:10A2300003F0B2FE00220146BDE8F8405948FEF79F
:10A2400026B8FFF7BBF8022D0CBFC8214FF4C87128
:10A25000E0E70020FFF79EF840B10020FFF7C2F8CA
:10A260004FF44871504B03221A70D5E7FFF7A6F858
:10A27000C821F7E70020FFF78DF838B10020FFF77D
:10A28000B1F84FF47A61484B0422EDE7FFF796F8F6
:10A290004FF4C871F7E70020FFF77CF848B10020C1
:10A2A000FFF7A0F8404B05221A7040F6CD4100227E
:10A2B000C2E7FFF783F8F5E70020FFF7C5F83A4B50
:10A2C00006221A70002240F26661B5E70020FFF70F
:10A2D00075F8354B07221A7000248CE70120207096
:10A2E000FFF7B2F8EEE701202070FFF7ADF800228B
:10A2F0004FF40051A0E7FFF798F82B4B0C22EAE748
:10A300002A482B4EFDF7DBFFD5F1110504461CD082
:10A31000D8B9012D13D0C8235D434FF400474FF443
:10A320007A7000214FF4FA620023C7FB050103F0A5
:10A3300033FE224601461D48FDF7A9FF04460220D0
:10A34000FFF73CF80123337055E70220FFF74AF886
:10A350000023F8E7FFF716FF134B1222BBE7FFF7C6
:10A3600011FF0020FFF72AF80F4B1322B3E7FFF786
:10A3700009FF0120FFF722F80B4B1422ABE7FFF790
:10A3800001FF0020FFF71AF80120FFF717F8064B2E
:10A390001522A0E7FFF749F8034B1D709CE700BFAB
:10A3A000D04E0020A04E0020D14E0020804E002034
:10A3B0007C4E0020044B1B6813F0010301D0FFF713
:10A3C000F7BE1846704700BFCC4E0020032811D8B6
:10A3D000012A0AD101290FD100F10E02D2B20D4B90
:10A3E00000EB40001A54002070470129F7D00229E1
:10A3F00004D049B1072070470022F8E7054B00EB75
:10A40000400018444270EEE7024B00EB4000184455
:10A410008270E8E7C04E002008B50122022100202A
:10A42000FFF7D4FF08B1072810D10722022101202D
:10A43000FFF7CCFF08B1072808D100210A220846FF
:10A44000FFF7C4FF10B1072808BF002008BD0000B7
:10A450000388102B10B502D0112B1ED010BD1A4C42
:10A460002168B1B901220846FFF7B0FF08B10728FB
:10A4700024D1072202210120FFF7A8FF08B10728F5
:10A480001CD1042202210020FFF7A0FF08B10728F9
:10A4900014D1236801332360E0E70B4A1368013BC2
:10A4A0001360002BDAD1FFF7B7FF0028D6D0074B97
:10A4B0001B68002BD2D0BDE810401847034B1B6827
:10A4C000002BE6D09847E4E7D84E0020D44E002079
:10A4D00030B404460FCC074D0FC594E80F0085E853
:10A4E0000F0030BC044B05484FF4A072F02100F07F
:10A4F0002DBA00BFDC4E0020C8EB0200FC4E00204D
:10A50000F0B406460846346A059FA588A84211465D
:10A510001A46BDF8103010D264888C420DD92D1A1D
:10A52000AA42A4EB0104C8BFAAB2A342C8BFA3B207
:10A53000F4680497A446F0BC6047F0BC704730B4A0
:10A540000446084611461A46236A9D88854205D965
:10A550005B888B4202D9A36830BC184730BC704777
:10A560002DE9F04F85B01E46BDF93880994234BFC1
:10A5700001234FF0FF330746701A92464245B4BF9D
:10A580004FF0010B4FF0FF3B8946029303F0B9FDFA
:10A5900004B2A8EB0A0003F0B4FD0F9B05B25246CB
:10A5A00049463846FFF7CBFFAC42B7BF23460023EE
:10A5B0002C461D46B8BF012301932B1B6D005B0089
:10A5C000ADB29BB22C1B039324B2D04504D1B1454C
:10A5D00002D105B0BDE8F08F002CA3B212DB029AC5
:10A5E00009EB02010AEB0B021FFA82FA039AD41854
:10A5F0001FFA81F924B20F9B524649463846FFF7AD
:10A600009EFFE2E7EC18019B24B223B10AEB0B0298
:10A610001FFA82FAEFE7029B09EB03011FFA81F9A7
:10A62000E9E710B503680446984710B9236A012288
:10A630001A7010BD13464A880988FFF780BF2DE9BC
:10A64000F043036A0C4617460A8899888A4285B007
:10A65000064603D9A5885888854270D86088884204
:10A6600003D9E1885B88994269D8A088101A03F061
:10A6700048FDE38880466088C01A03F042FD2589C2
:10A68000B4F80090A38862888045CABFA8464FF0FE
:10A6900000080025994502D0E18891421AD1A3EB28
:10A6A0000900039203F02DFD61880544E088ABB2F8
:10A6B000401A029303F025FD404480B20090DDE98A
:10A6C0000232019749463046FFF71AFF002005B0D5
:10A6D000BDE8F083F5B9B8F1000F2BD109B20091B4
:10A6E000019749463046FFF73BFFEFE72288A388F2
:10A6F00001970B441144B4F9062000929BB2628882
:10A7000089B23046FFF72CFF01352389A9B28B426D
:10A71000ECD8DBE70025F8E7E188628801971A4466
:10A720000B441BB200932188A38892B23046FFF7F6
:10A7300017FF01352289ABB29A42EDD8C6E7072050
:10A74000C5E72DE9F0438D88CF8889B0012D1646E5
:10A750009DF8409080460C461A466BD0012F69D078
:10A76000B5EB460F4FEA460364DBBB4262DC036A8B
:10A770000988B3F804C060888C4502D25B888342A4
:10A7800058D3B9F1000F0AD0CDE900722B4602462A
:10A790004046FFF7B5FE002009B0BDE8F083ADF8F4
:10A7A00014102944ADF81600ADF81810ADF81A00D1
:10A7B00005A94046ADF81C600392BF1BFFF73FFFA1
:10A7C0002188A0886388ADF81410BFB201443B44CF
:10A7D0009BB2039AADF81810404605A9ADF81630A3
:10A7E000ADF81A30FFF72BFF63882188039AADF884
:10A7F00014109819ADF816003B44ADF818104046F7
:10A8000005A9ADF81A30FFF71AFF2388039A1D44F3
:10A810006388AD1BADB21E441F4405A94046ADF888
:10A820001450ADF81660ADF81850ADF81A70FFF777
:10A8300006FFB0E70720AFE7F7B59E46036A0E882C
:10A840009D88AE42944613D24F885C88A7420FD2AF
:10A850008A88CB88AD1BCDE900CEE41BAA42C8BFD5
:10A86000AAB2A342C8BFA3B2394604693046A04782
:10A87000002003B0F0BD000007B580B2ADF80000C5
:10A88000101A89B2ADF804000948ADF80210591A3F
:10A89000ADF80610DDE9042300686946FFF7CCFF38
:10A8A00008B1FDF77DFB002003B05DF804FB00BF9D
:10A8B0006C4F00201FB580B289B2ADF80800101AA5
:10A8C000ADF80A10ADF80C00591A0948ADF80E1091
:10A8D000012300930068BDF81830002202A9FFF799
:10A8E00030FF08B1FDF75CFB002005B05DF804FB0C
:10A8F0006C4F00201FB5ADF80A300123ADF80C30C5
:10A90000094BADF80400ADF80610ADF80820186842
:10A91000BDF8182001A9FFF792FE08B1FDF740FB32
:10A92000002005B05DF804FB6C4F002007B5064B16
:10A93000ADF80400ADF80610186801A9FFF77AFE1B
:10A9400003B05DF804FB00BF6C4F002038B51C4617
:10A950008180204B0360053909B2C2804FF0041397
:10A96000053A12B20362818481831B4B1B491C4D43
:10A97000C284C2830022C0E91013C0E90422C2626B
:10A98000428642630287C2638261C26480F85020BB
:10A99000426580F85820C26580F86020426680F8E1
:10A9A000682028602046FFF73CFE08B1FDF7F8FA62
:10A9B0000C4B0D4A1C602B680C49DA640322596564
:10A9C00083F850200A4983F8582083F86820596694
:10A9D000012038BD2DA9020000005D5C0101FFFFD0
:10A9E000684F00206C4F0020F5A80200B5A80200B7
:10A9F00079A80200704700000148FFF793BA00BF32
:10AA0000F0EB02001FB50022CDE9000105486946C0
:10AA1000CDE90222FFF7DCFA08B1FDF7C1FA05B073
:10AA20005DF804FBF0EB020038B5054D782445F0E5
:10AA300001054FF47A40A847013CFAD138BD00BF68
:10AA4000C0EB0200024B4FF40022C3F80C25704704
:10AA50000003005007B58DF80700FFF7F3FF012151
:10AA60000DF10700FFF7CEFF03B05DF804FB0028EF
:10AA700014BF21202020FFF7EDBF0000024B4FF450
:10AA80000022C3F8082570470003005007B58DF871
:10AA90000700FFF7F3FF01210DF10700FFF7B2FFF9
:10AAA00003B05DF804FB10B504463620FFF7D2FF73
:10AAB000032C0ED8DFE804F00207090B4820BDE89C
:10AAC0001040FFF7E3BF2820F9E78820F7E7E820E8
:10AAD000F5E710BDF8B507462A200D4616461C4678
:10AAE000FFF7B8FF380AFFF7D1FFF8B2FFF7CEFF44
:10AAF000300AFFF7CBFFF0B2FFF7C8FF2B20FFF7BC
:10AB0000A9FF280AFFF7C2FFE8B2FFF7BFFF200A3C
:10AB1000FFF7BCFFE0B2FFF7B9FFBDE8F8402C201B
:10AB2000FFF798BF70B5013B013A0B4402449BB25A
:10AB300092B2DDE90465FFF7CDFFFFF79FFFFA2D25
:10AB40002C4628BFFA2430462146FFF75BFF2D1B19
:10AB50002644F4D1BDE87040FFF774BF70B51546C8
:10AB60001C46013A013B0B440244049E9BB292B244
:10AB7000FFF7B0FF104BC6F3072100220132102A65
:10AB800019705E7003F10203F8D1FFF777FF05FB40
:10AB900004F3094D5C00202C05D920212846FFF73D
:10ABA00031FF103CF7E721460348FFF72BFFBDE8D4
:10ABB0007040FFF747BF00BF704F002013B5144629
:10ABC0000B46024664BAFFF785FFADF80440FFF775
:10ABD00055FF022101A8FFF715FFFFF733FF02B071
:10ABE00010BD0000874B30B50325C3F84C57864B8A
:10ABF0000FCB85B06C4684E80F00844B00934FF078
:10AC0000804302930023214681481A46FFF788FAC1
:10AC10000446002840F0F3800120FFF71BFFFFF7F8
:10AC200003FF2820FFF716FFFFF7FEFECF20FFF7F8
:10AC300011FF2046FFF72AFFC120FFF727FF302032
:10AC4000FFF724FFE820FFF705FF8520FFF71EFF31
:10AC50002046FFF71BFF7820FFF718FFCB20FFF7F8
:10AC6000F9FE3920FFF712FF2C20FFF70FFF2046D7
:10AC7000FFF70CFF3420FFF709FF0220FFF706FF64
:10AC8000F720FFF7E7FE2020FFF700FFEA20FFF79D
:10AC9000E1FE2046FFF7FAFE2046FFF7F7FEC02050
:10ACA000FFF7D8FE2320FFF7F1FEC120FFF7D2FE09
:10ACB0001020FFF7EBFEC520FFF7CCFE3E20FFF78C
:10ACC000E5FE2820FFF7E2FEC720FFF7C3FE86203F
:10ACD000FFF7DCFE3620FFF7BDFE4820FFF7D6FE6B
:10ACE0003A20FFF7B7FE5520FFF7D0FEB120FFF75F
:10ACF000B1FE2046FFF7CAFE1820FFF7C7FEB620B8
:10AD0000FFF7A8FE0820FFF7C1FE8220FFF7BEFE76
:10AD10002720FFF7BBFEF220FFF79CFE2046FFF73F
:10AD2000B5FE2620FFF796FE0120FFF7AFFEE020DC
:10AD3000FFF790FE0F20FFF7A9FE3120FFF7A6FED8
:10AD40002B20FFF7A3FE0C20FFF7A0FE0E20FFF73D
:10AD50009DFE0820FFF79AFE4E20FFF797FEF12098
:10AD6000FFF794FE3720FFF791FE0720FFF78EFED6
:10AD70001020FFF78BFE2846FFF788FE0E20FFF716
:10AD800085FE0920FFF782FE2046FFF77FFEE120C7
:10AD9000FFF760FE2046FFF779FE0E20FFF776FEF4
:10ADA0001420FFF773FE2846FFF770FE1120FFF70F
:10ADB0006DFE0720FFF76AFE3120FFF767FEC12016
:10ADC000FFF764FE4820FFF761FE0820FFF75EFEF4
:10ADD0000F20FFF75BFE0C20FFF758FE3120FFF736
:10ADE00055FE3620FFF752FE0F20FFF74FFE1120D1
:10ADF000FFF730FEFFF718FE2920FFF72BFE204655
:10AE000005B030BD00030050ACEB020037353634DE
:10AE1000ECEB0200094B01220321DA60C3F80815AC
:10AE20000421C3F810150221C3F80022C3F8041549
:10AE30000021C3F840151A60704700BF0090004021
:10AE4000094B01220321DA60C3F808150421C3F875
:10AE500010150221C3F80022C3F804150021C3F81D
:10AE600040151A60704700BF00A0004008B50C22D2
:10AE70000348002103F0B5F9024B00221A6008BD17
:10AE8000904F00209C4F002008B5FFF7C3FFFFF74D
:10AE9000D7FF4FF0A0434FF04052C3F81825C3F836
:10AEA0000C25C3F80825C3F80C25144B144AC3F825
:10AEB000242502F58072C3F8282503F5C833114A0A
:10AEC000C3F83C251049C3F838150432C3F84425AB
:10AED000A2F59D42683A0D48C3F84025C3F84C05D9
:10AEE000C3F8481501F50F410831C3F85415C3F8EC
:10AEF00050254FF4F072C3F8042508BD00600040EF
:10AF0000031C030014600040001100400890004042
:10AF1000084B09494FF4F072C3F80825074A01238A
:10AF2000CB60D3604B605360054A00231360054A31
:10AF30001360704700F001400090004000A0004006
:10AF4000A44F0020A04F00201C481D4ADFF880C0FD
:10AF5000F8B501231B4F03641364D0F840353C68F7
:10AF6000194ED2F84015C4EB53043368C91A642350
:10AF700003FB01F5B5FBF4F5CCF80050D0F8400523
:10AF800040083860D2F840253260104A9068014489
:10AF900050689160204414F5803F03FB01F350603A
:10AFA000B3FBF0F3136006D900233B603360FFF777
:10AFB000AFFFFFF769FF2846F8BD00BF00900040D3
:10AFC00000A00040A44F0020A04F0020904F002080
:10AFD0009C4F0020014B1868704700BF9C4F002019
:10AFE000A1DF7047A3DF704762DF704770B50D4B7C
:10AFF0000D4D1B682C689C420ED00C4914236343F2
:10B00000CE18C85AB27842B9B188FFF7E9FF18B92B
:10B01000013404F007042C6070BD08331944FFF7B5
:10B02000E1FFF4E74C50002048500020A84F0020DA
:10B03000F0B50C4687B014220546002101A803F0A4
:10B04000D0F822787ABBA388012B2CD1A1792B7858
:10B05000994228D194F808C0BDF81260BDF81400D8
:10B06000BDF81670122111FB0C41234694469942FB
:10B070001BD1BCF1000F01D0ADF816701AB1ADF8BC
:10B080001260ADF81400EB686BB169884FF6FF727F
:10B09000914208D06288ADF8062000228DF8042085
:10B0A00001A92846984707B0F0BDB3F80EE0BEF1FD
:10B0B000020F04D0BEF1030F05D01233D7E7DF8AA9
:10B0C0004FF0010CF9E7DE8A188B0122F5E700004A
:10B0D000F0B5164B87B002AD04460A4603F1100CDA
:10B0E0002F46186859682E4603C60833634535460F
:10B0F000F7D1C4B1BAB14FF6FF7363800023A380C8
:10B1000023811368E36021463846FFF76DFF40B99D
:10B1100023788DF8063001A80123ADF8043001F042
:10B1200065FD07B0F0BD0E20FBE700BF06EC020096
:10B1300010B5034686B00846002936D0002B34D01F
:10B140004A884FF6FF718A4202D0998891422CD1E9
:10B15000198838292BD0392911D0112925D19B885C
:10B160009A4222D1C36803B30221ADF806204FF6FC
:10B17000FF728DF80410428001A9984715E0998864
:10B18000914212D15C8981888C420ED1C46864B12D
:10B190000121ADF8062003F11002DB898DF80410BF
:10B1A00003928DF8103001A9A04706B010BD9B880E
:10B1B0009342FAD1FFF71AFFF7E7000038B510B352
:10B1C00045884FF6FF739D421FD0C188E9B1104AF0
:10B1D00010481468631C03F00703136014226243D1
:10B1E0008318002459810221D981111D014419615C
:10B1F000012185529C81197219715C719970FFF758
:10B20000F5FE204638BD0E20FCE70820FAE700BF17
:10B210004C500020A84F002048B141802AB15388EB
:10B22000C3801388838093880381002070470E2099
:10B230007047A1DF7047A3DF704762DF70470000EF
:10B2400070B50D4B0D4D1B682C689C420ED00C49FF
:10B2500014236343CE18C85AB27842B9B188FFF7B5
:10B26000E8FF18B9013404F007042C6070BD0833FE
:10B270001944FFF7E0FFF4E70451002000510020DB
:10B28000605000200E4A38B514680E4D631C03F060
:10B290000703136014226243AB1800245981022172
:10B2A000D981111D2944196101219C8119721971DB
:10B2B0005C719970A852FFF7C3FF204638BD00BFEC
:10B2C00004510020605000202DE9F04F0C4689B059
:10B2D00016220546002102A802F083FF2278002AE8
:10B2E00049D1A388012B46D1A1792B78994242D12B
:10B2F000217ABDF81C30BDF81880BDF81A60BDF881
:10B3000012C0BDF81470BDF816A000934FF0120ED5
:10B310001EFB0141234601919646914693460199B1
:10B320008B422BD1BBF1000F01D0ADF816A0B9F1C3
:10B33000000F01D0ADF81880BEF1000F03D0ADF8BA
:10B3400012C0ADF8147022B1009BADF81A60ADF8D0
:10B350001C30D5F80F3073B1B5F801104FF6FF72FD
:10B36000914208D06288ADF8092000228DF80820AB
:10B3700002A92846984709B0BDE8F08FD98902395B
:10B38000032907D8DFE801F0020D1308B3F816A06F
:10B390004FF0010B1233C2E7B3F816804FF00109EA
:10B3A000F8E7B3F816C01F8B4FF0010EF2E71A8BC7
:10B3B0000092DE8A0122EDE7F0B51A4B87B002ADAC
:10B3C00004460A4603F1100C2F46186859682E46A9
:10B3D00003C6083363453546F7D104B3FAB14FF0DD
:10B3E000FF336370A3700023E3702371E371237252
:10B3F0006372A372E37223731368C4F80F3021469B
:10B400003846FFF71AFF40B923788DF8063001A8B7
:10B410000123ADF8043001F0E9FB07B0F0BD0E20C8
:10B42000FBE700BF60EC020058B1B0F801304FF606
:10B43000FF72934207D0B0F8051021B11846FFF70C
:10B4400021BF0E2070470820704758B1B0F8013076
:10B450004FF6FF72934207D0B0F80D1021B1184695
:10B46000FFF710BF0E20704708207047B0B1A0F85A
:10B4700001108AB15388A0F805301388A0F8033072
:10B480009388A0F80730D388A0F809305389A0F832
:10B490000D301389A0F80B30002070470E20704744
:10B4A0001FB5002835D0F42A0CD91B4B1B481C496A
:10B4B000C01AC008000440F00200FCF779FA072027
:10B4C00004B010BDB0F801404FF6FF739C420BD1A1
:10B4D000114B12481349C01AC008000440F0020082
:10B4E000FCF766FA0820EBE74FF48173ADF80430FF
:10B4F000437A807A039143EA0023ADF8063001A92C
:10B5000000232046ADF80830ADF80A20FFF793FE7F
:10B51000D6E70E20D4E700BF44E302009CE302001C
:10B5200031EC020016EC0200144B2DE9F041144EF0
:10B530001F68144D0024B04633682A689B1ABB422A
:10B5400015D832682B689A4202D034682B68E41A06
:10B550007CB10D4A2B68116819440C4BA2B21868D3
:10B56000FFF79EFF40B92B6823442B60E4E73C467D
:10B57000EEE7C8F800402046BDE8F08130400020EA
:10B580005850002054500020505000205C500020A3
:10B5900030B5054687B00C4691B188B1B1F80110BD
:10B5A0004FF6FF728BB2934202D082889A4207D143
:10B5B0002A88382A49D005D8102A5BD0112A4AD0C7
:10B5C00007B030BD392A0BD03C2AF9D1334B1B6868
:10B5D000002B5AD0FFF7A8FF314B00221A70EFE77B
:10B5E000AA889A42ECD16A89B4F803309A4211D100
:10B5F000D4F80F3073B101228DF8002005F110024C
:10B60000CDF80520EA89ADF801108DF809206946CA
:10B61000204698476A89B4F80B309A42D0D1D4F8C2
:10B620000F30002BCCD005228DF80020B4F801207B
:10B63000ADF8012005F11002CDF80520EA898DF85A
:10B640000920694620469847BAE7AA889A42B7D1A6
:10B65000FFF7F6FDB4E7AA889A42B1D1D4F80F30CB
:10B66000002BADD007228DF800204FF0FF32627022
:10B67000A270E6E7D4F80F30002BA1D006228DF897
:10B680000020AA88A4F80120DBE704238DF800300D
:10B69000D4F80F306946204698479DE7585000205F
:10B6A00008510020A1DF7047A3DF704762DF7047B9
:10B6B00070B50D4B0D4D1B682C689C420ED00C498B
:10B6C00014236343CE18C85AB27842B9B188FFF741
:10B6D000E9FF18B9013404F007042C6070BD083389
:10B6E0001944FFF7E1FFF4E7C0510020BC510020EE
:10B6F0001C5100200E4A38B514680E4D631C03F02F
:10B700000703136014226243AB18002459810221FD
:10B71000D981111D2944196101219C811972197166
:10B720005C719970A852FFF7C3FF204638BD00BF77
:10B73000C05100201C5100202DE9F04F0C4689B06B
:10B7400016220546002102A802F04BFD2278002AAD
:10B7500049D1A388012B46D1A1792B78994242D1B6
:10B76000217ABDF81C30BDF816A0BDF81A60BDF8EE
:10B770001880BDF812C0BDF8147000934FF0120E7F
:10B780001EFB01412346019196469146934601993D
:10B790008B422BD1BBF1000F01D0ADF816A0B9F14F
:10B7A000000F01D0ADF81880BEF1000F03D0ADF846
:10B7B00012C0ADF8147022B1009BADF81A60ADF85C
:10B7C0001C30D5F80F3073B1B5F801104FF6FF7289
:10B7D000914208D06288ADF8092000228DF8082037
:10B7E00002A92846984709B0BDE8F08FD9890239E7
:10B7F000032907D8DFE801F00D081302B3F816A0FB
:10B800004FF0010B1233C2E7B3F816804FF0010975
:10B81000F8E7B3F816C01F8B4FF0010EF2E71A8B52
:10B820000092DE8A0122EDE7F0B51A4B87B002AD37
:10B8300004460A4603F1100C2F46186859682E4634
:10B8400003C6083363453546F7D104B3FAB14FF068
:10B85000FF336370A3700023E3702371E3712372DD
:10B860006372A372E37223731368C4F80F30214626
:10B870003846FFF71BFF40B923788DF8063001A842
:10B880000123ADF8043001F0B1F907B0F0BD0E208E
:10B89000FBE700BFC6EC020058B1B0F801304FF62C
:10B8A000FF72934207D0B0F8051021B11846FFF798
:10B8B00021BF0E2070470820704758B1B0F8013002
:10B8C0004FF6FF72934207D0B0F80D1021B1184621
:10B8D000FFF710BF0E20704708207047B0B1A0F8E6
:10B8E00001108AB11388A0F803305388A0F80530FE
:10B8F0001389A0F80B305389A0F80D309388A0F875
:10B900000730D388A0F80930002070470E20704718
:10B91000B0B584B0154600AF044678B3D31D684671
:10B92000DB08A0EBC303B4F801009D464FF6FF739C
:10B9300098420DD1124B13481349C01AC008000495
:10B9400040F00200FCF734F808201037BD46B0BDC7
:10B95000684602F01DFC4FF48173BB80E379227AC4
:10B96000B4F801007D8143EA0223FB80391D0023E6
:10B970003B81C7F80CD0FFF797FEE6E70E20E4E71F
:10B9800044E3020094E3020016EC02001FB5002815
:10B9900035D0F42A0CD91B4B1B481C49C01AC008CF
:10B9A000000440F00200FCF703F8072004B010BDCB
:10B9B000B0F801404FF6FF739C420BD1114B124877
:10B9C0001349C01AC008000440F00200FBF7F0FF62
:10B9D0000820EBE74FF48173ADF80430437A807AA6
:10B9E000039143EA0023ADF8063001A90023204665
:10B9F000ADF80830ADF80A20FFF756FED6E70E2066
:10BA0000D4E700BF44E3020094E3020031EC0200FB
:10BA100016EC0200234B2DE9F7431F68224D234B00
:10BA2000DFF89C90DFF89C80214EED1AED082D0484
:10BA300045F00305002499F800303BB1D8F8002008
:10BA40001C49336800942846FBF7C9FF3268D8F8D0
:10BA500000309A4221D8D8F8003032689B1ABB4295
:10BA600017D8D8F8002033689A4203D0D8F800409D
:10BA70003368E41A7CB1104A3368116819440F4BDB
:10BA8000A2B21868FFF782FF40B9336823443360DD
:10BA9000D1E73C46EEE7C8F80040002003B0BDE81F
:10BAA000F08300BF3440002094E3020044E302002E
:10BAB0001051002070EC02000C51002018510020A1
:10BAC000095100201451002030B5054687B00C46BE
:10BAD00091B188B1B1F801104FF6FF728BB2934269
:10BAE00002D082889A4207D12A88382A57D005D8AE
:10BAF000102A69D0112A58D007B030BD392A19D080
:10BB00003C2AF9D13A4B3B4D1B7853B13A483B4B59
:10BB10002A683B49C01AC008000440F00300FBF744
:10BB20004BFF2B68002B5AD0FFF774FF354B0022D8
:10BB30001A70E1E7AA889A42DED16A89B4F8033024
:10BB40009A4211D1D4F80F3073B101228DF8002040
:10BB500005F11002CDF80520EA89ADF801108DF845
:10BB600009206946204698476A89B4F80B309A4202
:10BB7000C2D1D4F80F30002BBED005228DF80020A2
:10BB8000B4F80120ADF8012005F11002CDF8052030
:10BB9000EA898DF80920694620469847ACE7AA88CB
:10BBA0009A42A9D1FFF784FDA6E7AA889A42A3D1B9
:10BBB000D4F80F30002B9FD007228DF800204FF0D3
:10BBC000FF326270A270E6E7D4F80F30002B93D0FA
:10BBD00006228DF80020AA88A4F80120DBE70423C0
:10BBE0008DF80030D4F80F306946204698479DE71D
:10BBF000095100201451002094E3020044E30200A4
:10BC000081EC0200C451002032DF70473FDF7047F3
:10BC10006CDF704775DF704776DF704777DF7047FE
:10BC20007FDF704788DF70478FDF704769DF7047BD
:10BC3000FCF7B6B907B5FFF7CDF9064B8DF807004D
:10BC4000188201220DF107010348FFF761FE03B0DE
:10BC50005DF804FB785200209852002038B501F0BE
:10BC6000BAFD1B4C1B491C4D641AE4086A68240485
:10BC700044F0030432B1012A23D018492046FBF7CF
:10BC800097FE0AE016492046FBF792FE1549164832
:10BC900001F036FE08B1FCF783F902232046134970
:10BCA000EB60FBF785FE104801F0F4FD08B1FCF7EE
:10BCB00077F90120FEF77EFB48B1BDE83840FCF77C
:10BCC0006FB90B492046FBF773FE0A49DFE738BD21
:10BCD00074E3020044E30200785200200AED0200FF
:10BCE000D6EC02007EF00200985400203FED0200E6
:10BCF000F2EC020070F00200182837B575D008D8B1
:10BD00000B280AD00C2839D003B0BDE83040FCF72E
:10BD100047B91928F8D103B030BD0129FBD14C4BEC
:10BD20004C484D49C01AC008000440F0030001907F
:10BD3000FBF73EFE494A0198D3687BB1022BEAD15A
:10BD40005368013303F001035360ABB94449FBF777
:10BD50002FFE03B0BDE83040FFF780BF53680133CA
:10BD600003F0010353602BB93D4903B0BDE83040F7
:10BD7000FBF71EBE3B49F8E73A49E8E70129CAD17B
:10BD8000334B344C3849E41AE408240444F00304E7
:10BD90002046FBF70DFE31498A68C868013203234B
:10BDA000B2FBF3F303EB4303D21A8A6003284FEA92
:10BDB0008202D5B252B20ED12C4B1988FFF72EFF5A
:10BDC00008B1FCF7EDF82A492A46204603B0BDE841
:10BDD0003040FBF7F1BD00210220FFF71FFF08B143
:10BDE000FCF7DEF823492A46EFE7012993D1184BE7
:10BDF00018481A4C2049C01AC008000440F003003B
:10BE00000190FBF7D5FDE268002AA2D001981B49FA
:10BE1000FBF7D2FDE3680198022B04D0032B08D076
:10BE20000023E36077E71649FBF7C2FD01F0D3FC7E
:10BE3000F6E70E4B18884FF6FF739842F0D01321A7
:10BE4000FFF7EAFE0028EBD0FCF7AAF8E8E700BF0E
:10BE500044E3020074E3020051ED02007852002036
:10BE6000D6EC0200F2EC020066ED02007040002009
:10BE700084ED0200A0ED0200BDED0200D3ED020052
:10BE8000E5ED020007B5014601900948FFF7D0F83B
:10BE90000199084B4A88132000FB0230FFF714FA7F
:10BEA0000199054803B05DF804EBFFF745BC00BFFE
:10BEB0004C54002038540020985200207FB503884D
:10BEC000212B04460FD80F2B13D9103B112B10D860
:10BED000DFE803F011550F7E0F0F0F0F0F0F0F70DC
:10BEE000980F0F850F8B3B2B00F08780562B00F0AF
:10BEF000848004B070BD818855480022FFF78CF91A
:10BF000008B1FCF74DF8A188524B1320002200FB2A
:10BF10000130FFF7ABFA08B1FCF742F8A1884E48B0
:10BF20000022FFF7DBFC08B1FCF73AF8A0880222F8
:10BF30000121FFF777FE08B1FCF732F80720FEF782
:10BF400039FA08B1FCF72CF8444BA1884448198011
:10BF500000F06EFE08B1FCF723F8FEF787FFFEF74E
:10BF600093FF404B40480322DA604FF480410022A7
:10BF7000FCF78DF90028BCD0FCF712F8B9E73B4B71
:10BF80003B48A2883B49C01AC008000440F00300A7
:10BF9000237AFBF71AFDFEF7BBFF3348FCF78FF956
:10BFA00008B1FBF7FDFF2D4B4FF6FF721A80FFF72C
:10BFB00055FE9EE7037A022B9BD12C4B2C482E4931
:10BFC000C01AC008000440F00300FBF7F1FC90E742
:10BFD00000231A4685218088FFF722FECAE700F178
:10BFE00008018088FFF716FEC4E7002303A98088B4
:10BFF000ADF80C30FFF718FEBCE7A0881321FFF75F
:10C000000BFEB7E71D4E31780A22B1FBF2F302FBBB
:10C01000131313F0FF0F17D1FEF796FF94F90820C2
:10C020000192FEF7D7FF124D019A154903460F48BA
:10C030002D1AED082D0445F00300FBF7C6FCA2887D
:10C04000084B1344227A1A7533780133337050E762
:10C050004C5400203854002098520020704000209A
:10C0600074400020785200207854002044E30200FD
:10C0700074E30200F3ED020021EE0200F45500200B
:10C080003FEE02000B8840F67722934213B50C4630
:10C0900017D1164B16481749C01AC008000440F0C3
:10C0A00003000190FBF784FCA388134A134901980D
:10C0B000033B9BB213801A4602B0BDE81040FBF769
:10C0C00084BC4DF67A2293420DD1084B08480A7978
:10C0D0000B49C01AC008000440F0030002B0BDE8DC
:10C0E0001040FBF769BC02B010BD00BF44E3020082
:10C0F00074E302005DEE02006E40002079EE020063
:10C10000A1EE02002DE9F8430B78012B06460D46FF
:10C1100023D0022B4AD0002B56D12C4B2C4C2D492E
:10C12000E41AE408240444F003042046FBF740FC2E
:10C13000698805F10E023046FFF76EF808B1FBF78B
:10C140002FFF3046FFF73AF808B1FBF729FF2046EA
:10C150002149BDE8F843FBF72BBC1D4C1B4B8E68F7
:10C160008F89DFF87C90E41AE408240444F0010489
:10C170000025BD4209D33E4416F8013C0D2B23D1C6
:10C180000A20FCF789F91128F9E7705DFCF784F9BA
:10C19000804648B11128F8D020462A464946FBF788
:10C1A0000BFC4046FBF7FCFE0135E2E7074B084875
:10C1B0000A49C01AC008000440F00300FBF7F8FB6E
:10C1C000BDE8F843FFF74ABDBDE8F88344E3020049
:10C1D00074E30200C2EE0200D6EE02002AEF020073
:10C1E00004EF020010B50B78044603BB01F10A020C
:10C1F000B1F80110FFF73AF908B1FBF7D1FE20467C
:10C20000FFF712F908B1FBF7CBFE2046FFF71DF947
:10C2100008B1FBF7C5FE0648064B0749C01AC0081F
:10C220000004BDE8104040F00300FBF7C1BB10BDA7
:10C2300074E3020044E3020038EF020010B50B780B
:10C24000044603BB01F10A02B1F80110FFF746FBF7
:10C2500008B1FBF7A5FE2046FFF71EFB08B1FBF770
:10C260009FFE2046FFF729FB08B1FBF799FE064821
:10C27000064B0749C01AC0080004BDE8104040F052
:10C280000300FBF795BB10BD74E3020044E302001A
:10C2900065EF02001FB50378052B12D0062B17D0CF
:10C2A000042B2AD1164B17481749C01AC00800049E
:10C2B00040F00300FBF77CFB04B0BDE81040FFF743
:10C2C000CDBC4068C8B104B0BDE81040FBF768BE03
:10C2D00041680B4C0B488B784A78001B8C7903948F
:10C2E0004C7902940C790194C008C978009100043B
:10C2F000064940F00300FBF77EFB04B010BD00BF11
:10C3000044E3020074E30200C0EF020092EF020077
:10C3100008B50D490D4800F059FE08B1FBF740FE85
:10C320000A48F72100F066FE08B1FBF739FE07481E
:10C33000FB224FF6FF7100F069FE18B1BDE808401E
:10C34000FBF72EBE08BD00BF85C00200645400206C
:10C3500000B54FF4804189B00020FBF795F908B192
:10C36000FBF71EFEFBF7D0F8FBF754FF08B1FBF715
:10C3700017FE804A80480121FBF77EFF08B1FBF7DA
:10C380000FFE7E4840F233320421FBF79DFD08B1D9
:10C39000FBF706FEFBF7EEFD08B1FBF701FE0822F6
:10C3A000002104A801F01DFF754D764B049304A8ED
:10C3B000059500F0FFFB08B1FBF7F2FDFCF7AEFDC1
:10C3C00008B1FBF7EDFD01F01BFC08B1FBF7E8FD40
:10C3D000002301A90120019301F0A0FC08B1FBF7A3
:10C3E000DFFD0C22002104A801F0FBFE00238DF8E4
:10C3F000113001238DF812309DF81430624C43F057
:10C40000010301AA04A940208DF81430FFF70EFCA7
:10C410005E4BE41AE408240438B1FCF7D9FE5C4909
:10C42000024644F00100FBF7C7FA01A801F048FDFD
:10C4300008B1FBF7B5FD0020FFF7E6FB08B1FBF7FD
:10C44000AFFD0020FFF7E2FB08B1FBF7A9FD514B60
:10C4500018689A8802909B79ADF80C2002A88DF894
:10C460000E30FFF7D5FB08B1FBF79AFD4A4A0A21C7
:10C470000820FBF7FFFD08B1FBF792FDFFF748FF2F
:10C48000464B0493464B474804A9CDE90535FEF7D2
:10C490001FFE08B1FBF784FD434B4448049304A9F5
:10C4A000FEF78AFF08B1FBF77BFD414B414804933F
:10C4B00004A9FFF7B9F908B1FBF772FD10220DEBE3
:10C4C0000200002101F08DFE44F003043A4B3B4989
:10C4D0000493204601238DF814308DF81C30FBF7AF
:10C4E00067FA374A374804A901F077F908B1FBF732
:10C4F00057FD354A3348032101F0BEF808B1FBF778
:10C500004FFD324801F0E9FE38B1304A2D48002194
:10C5100001F0B2F808B1FBF743FD2D4A294802218A
:10C5200001F0AAF808B1FBF73BFD264800220121E3
:10C5300001F02EF908B1FBF733FD22480022022159
:10C5400001F026F908B1FBF72BFD22492046FBF745
:10C550002FFA20462049FBF72BFA2048FDF7B8FFB9
:10C56000FBF7ACFDFBF7E0F80028F9D1FCF7ECFC99
:10C57000F6E700BF35BC02006CF002003840002036
:10C580005840002085BE020074E3020044E302002C
:10C59000D0EF02004CF00200C851002005C102009B
:10C5A00031BC02004C540020E5C102003854002088
:10C5B0003DC20200985200207EF002001CF00200F2
:10C5C00095C202009854002068F0020093F0020027
:10C5D0008DF002002AF002002FF0020078520020B5
:10C5E0000369C1688B429DBF8268D21802F1FF3295
:10C5F00003F1FF3394BF501A581A70472DE9F843DE
:10C60000D0E902940546A9EB04084068904520440F
:10C610000F46144404D901F0BBFDEC60BDE8F8837B
:10C620004246A4EB090401F0B3FD6868224607EB1B
:10C630000801F0E72DE9F843C56806468946174624
:10C640004FF000083469B3687068A54228BFE41849
:10C65000013C621B5C1BBC4228BF3C46944228BF85
:10C66000144649462844224601F092FDB368254409
:10C67000AB4208BF00253F1BA044A144F560E1D1B7
:10C680004046BDE8F883000010B5114C114AA26184
:10C690000223C4E90433104BE361A2644FF4007336
:10C6A0000E4A0F492362E26400231022E01DA362B8
:10C6B0006362E362A3656365E365226501F0C4FD1F
:10C6C0000849204601F0C0FD2023A37110BD00BF22
:10C6D000F85500209EF00200805600207056002081
:10C6E000A7F00200ABF00200F8B5184C182300FBCD
:10C6F000033503FB00402544C46A012C0F4616464F
:10C700000FD0022C1AD0F4B92846FFF769FF8642F1
:10C7100005D8324639462846FFF770FF3446204692
:10C72000F8BD2846FFF75CFF8642344628BF044622
:10C73000224639462846FFF761FFF0E72846BDE864
:10C74000F840FFF777BF0024E9E700BFF855002065
:10C75000FFF79ABF64DF704730B5C8B1F2B100246B
:10C76000651C8D4206DA1588A54212D805196D7828
:10C770009D420ED1A14211D9005D48B1013880B26D
:10C7800030B10234A3B210FA84F4A14206DB138064
:10C7900030BD055D01352C44A4B2E1E70020F7E788
:10C7A000F7B500230646ADF80630144612B900204E
:10C7B00003B0F0BD09230DF10602FFF7CDFFBDF870
:10C7C00006700546002FF2D00028F0D0204601F078
:10C7D00084FDA8420246EAD1F119204601F0A5FCE9
:10C7E000B0FA80F04009E3E7F0B587B000230646D1
:10C7F0000C461046ADF8063002AA10230DF10501D3
:10C800008DF80530FFF7A6FF16B9002007B0F0BD80
:10C810000028FAD19DF80550042D2BD0102D2BD0D7
:10C82000022DF3D10323BDF806207AB90DF10602DB
:10C8300021463046FFF790FFBDF806302BB92B4656
:10C840000DF106023046FFF787FF0446BDF806707B
:10C85000002FDAD00025AC42D7D9E8199DF8052081
:10C8600002A9304401F061FC48B19DF805301D4437
:10C87000ADB2F0E70523D6E706250723D3E701206D
:10C88000C4E7000030B50B4B19680B4B00229142F6
:10C8900001D1002009E09D788478A54206D11D8849
:10C8A0000488A54202D1054B186830BD013204331B
:10C8B000EDE700BF885800208C58002080580020E9
:10C8C0002DE9F84F90F8C6A24FF0760B04460AFB0C
:10C8D0000B0088469146FFF7D5FF074670B3D4F8A2
:10C8E000CC52052D2AD804EBC5165A46A6F8D2928A
:10C8F0000BFB0A4106F5357001F04AFCB8F1000F58
:10C9000014BF0023022386F8D0320D4BC6F84C73B7
:10C910001A6801359542C4F8CC521D460ED104F573
:10C9200034760027F36F304698472B6801379F42D3
:10C9300006F18006F6D30023C4F8CC32BDE8F88FA8
:10C940008858002030B5A1B004460D467C22002155
:10C9500001A801F046FC03238DF80430044BADF828
:10C9600006501B6802940BB101A8984721B030BD56
:10C97000805800202DE9F041074691F8C602762341
:10C980004FF00008A0B081F8C88200FB03100C46ED
:10C990001546FFF777FF064660B17C22414601A8A5
:10C9A00001F01FFC01238DF80430ADF8065002970A
:10C9B00001A8B04729462046FFF7C4FF20B0BDE8D4
:10C9C000F081000030B58BB0044620220D4602A84D
:10C9D000002101F006FC04220DEB0200002101F011
:10C9E00000FC94F8C53294F8C62213B3013B7621BB
:10C9F000DBB25143122000FB031323445B8A013353
:10CA00009BB2ADF80430762303FB024202A91389DE
:10CA1000ADF8063003238DF80830019BCDE90543BE
:10CA2000064B0493064B2A46186800F0F7FC0BB03F
:10CA300030BD762303FB0243DB88E2E775C90200C1
:10CA4000A4580020F0B5044689B020220D4668465F
:10CA5000002101F0C6FB94F8C7321E4A0133126868
:10CA6000DBB2934284F8C7324FF000022BD294F825
:10CA7000C632194F84F8C5220133DBB2762113FB8D
:10CA800001F057F8237084F8C6322618275001FBAE
:10CA9000034332711B68CDF81230104B029302220F
:10CAA0000F4B8DF800200122ADF810201868039478
:10CAB0002A46694600F0B2FC18B12A462146FFF723
:10CAC00059FF09B0F0BD84F8C82229462046FFF777
:10CAD00039FFF6E7885800208C58002075C90200FD
