:020000022000DC
:1070000000000420757302005D7302005F730200CC
:1070100061730200637302006573020000000000E8
:107020000000000000000000000000006773020084
:1070300069730200000000006B7302006D730200B0
:10704000BDCB02006F73020059D00200ADDA02001E
:107050006F7302006F730200D9CE02006F730200DB
:107060006F7302006F7302006F7302006F73020090
:107070006F7302006F7302006F7302006F73020080
:107080006F730200E98802006F7302006F730200E1
:107090006F7302006F730200FDFA02006F7302004B
:1070A0006F7302006F7302006F7302006F73020050
:1070B0006F7302006F730200000000000000000008
:1070C0006F7302006F7302006F7302006F73020030
:1070D0006F7302006F7302006F7302006F73020020
:1070E0006F7302006F7302006F73020000000000F4
:1070F000000000006F730200000000006F730200C8
:10710000000000000000000000000000000000007F
:10711000000000000000000000000000000000006F
:10712000000000000000000000000000000000005F
:10713000000000000000000000000000000000004F
:10714000000000000000000000000000000000003F
:10715000000000000000000000000000000000002F
:10716000000000000000000000000000000000001F
:10717000000000000000000000000000000000000F
:1071800000000000000000000000000000000000FF
:1071900000000000000000000000000000000000EF
:1071A00000000000000000000000000000000000DF
:1071B00000000000000000000000000000000000CF
:1071C00000000000000000000000000000000000BF
:1071D00000000000000000000000000000000000AF
:1071E000000000000000000000000000000000009F
:1071F000000000000000000000000000000000008F
:10720000354936480A1A02D0072291438D4634493F
:1072100034480A1A06D00722914381F309880222D2
:1072200082F3148830483149314A00F044F831483B
:107230003149324A00F03FF831483249324A00F0D1
:107240003AF832483249334A00F035F83248334987
:10725000334A00F030F833483349344A00F02BF811
:1072600033483449344A00F026F83448344900227F
:1072700000F02CF833483449002200F027F8334856
:107280003349091A082902DB002202604160314AB1
:1072900090471F481F49884205D00268043003B454
:1072A000904703BCF7E700208646EC46002000210B
:1072B000294A9047FEE7884207D0521A05D0037842
:1072C00001300B700131013AF9D17047884202D088
:1072D00002700130FAE770470000042000E003204C
:1072E0000000042000000420BC47030000500020E0
:1072F0005CC50020D0730200D07302007807030041
:10730000BC4703000050002000500020A4080300E8
:10731000A4080300A4080300A4080300A4080300B1
:10732000A4080300A4080300A4080300BB4703004B
:1073300018BD03005CC500205CC500205CC50020B2
:1073400064D8002064D8002064D8002064D80020CD
:1073500064F800209D730200A9E90200FEE7FEE741
:10736000FEE7FEE7FEE7FEE7FEE7FEE7FEE7FEE7F5
:1073700000F002B8FFF7FCBF0F484FF00701884349
:1073800085460E4880470E48016841F4700101604F
:10739000BFF34F8FBFF36F8FFFF732BF09480A4922
:1073A0000A4A884207D0521A05D0037801300B7080
:1073B0000131013AF9D170470000042049920200DE
:1073C00088ED00E0A40803000050002000500020D9
:1073D000F0B595B01D46164608460C4601F02EFE47
:1073E0001A9B0D93CDE9086500252B46082205A9B7
:1073F00020460A958DF82C500C9501F03CFE079B19
:107400000293069B03939DF814308DF8115003F0FE
:107410000302012A1DD1BDF81420059DC3F3C20348
:10742000C2F383168DF81030B20008230EA920464F
:1074300001F021FEC5F3952508AB0093324602AB5F
:107440000EA9284600F090FB204601F0FBFD15B088
:10745000F0BD022AF8D1BDF81650C3F3C203C5F33C
:1074600089158DF810300827082D2E4628BF0826CC
:107470003B4632460EA9204601F0FDFDAD1B08AB90
:1074800002AA31460EA8374400F0D2FB002DEBD102
:10749000DAE7000008B500F0A5FC0448042100F07C
:1074A000CDFA034B01225A7108BD00BF94080300B6
:1074B00000500020037813F0040216D003F00303F9
:1074C000012B03D0022B09D0012070470A680088E5
:1074D0000232C0F3831002440A60F5E70B68428869
:1074E000023303EB92130B60EEE710467047000087
:1074F0002DE9F04F87B000230446861C0DF10700EC
:107500000F4615468DF8073001F080F8404A516863
:107510003960936803F580735B1A924602F21C4748
:1075200002F5836902F21448B3421AD30020002DF9
:1075300069D004F00F039B0143F0050363F30F00D0
:10754000DAF80430DAB203321E444AF822009DF819
:107550000700CAF8046001F07DF8012007B0BDE81B
:10756000F08F0121384601F09CFA484601F0B1FA4B
:10757000404601F0AEFADAF808000290C0B20330DB
:107580000AEB800002A9FFF795FF029B30BBDAB23D
:107590000AEB8202D16803919A1C0133DBB20AEB39
:1075A00083030292D3F80CB001F00303012B22D025
:1075B000022B15D08346404601F08EFA10B1029B93
:1075C000CAF808305946384601F06BFADAF8083044
:1075D000DAF8042003F580739B1AA5E7D8B2CEE74A
:1075E000BDF80E30C3F3891303334FEA1B4B02EB94
:1075F00093030293DFE7BDF80C30C3F383134FEA24
:107600001B4B1344F5E7A40544F0060098E700BFC0
:107610002CC60020064B074810B500221A7001F056
:10762000C6FC044610B9044801F06EFD204610BDAA
:107630002CC60020E0070300CC08030030B50A4C3C
:1076400071B10A4A0A49121BD20800239A4201D199
:10765000002030BD31F82350854202D00133F5E7D8
:10766000034654F83300F4E7F407030094080300DA
:1076700000500020094B013903EBC000032909D851
:10768000DFE801F00A020406042070470079704721
:10769000407970470020704702207047F4070300CC
:1076A000034BD3E90130C31A58425841704700BF19
:1076B0002CC600202DE9F04186B0FFF7F1FF05460A
:1076C000002840F0E680744CC4F81804BFF34F8FD4
:1076D000A3680293DBB2033304EB830002A9FFF734
:1076E000E9FE029B18B1D4F81824002A55D0DAB26A
:1076F000991C013304EB8202DBB204EB8303D268F2
:10770000DB68049302F00303022B039202914FD132
:10771000BDF80E306148C3F38917502F3E4628BF8D
:10772000502666F38F1306F10801ADF80E3001F014
:1077300056FC0546002800F0978001F07FFC0023EE
:1077400003A90822284601F08CFC0299CB43DBB246
:107750000133C9B20331B6EB830F4FEA830804EB60
:10776000810122D908234246A6EB0806284601F0EB
:1077700078FCF6B24A4908F108033246284601F07F
:1077800070FC029B033703EB97070297D4F8183479
:10779000002B41D1D4F8106451E062689A4299D824
:1077A000A260284606B0BDE8F08108233246E5E72E
:1077B000012B59D1BDF80C303848C3F38311062989
:1077C00028BF062161F3891302318900ADF80C301E
:1077D00001F005FC0546002846D001F02FFC0023EF
:1077E000082203A9284601F03CFC0026BDF80C2025
:1077F000C2F38312B300964203F10803C6D2029982
:107800004A1CC9B20331029204EB810104222846CA
:1078100001F027FC0136E9E7284601F013FCFFF7E9
:107820003FFF80F00100C5B2BBE7F3685B7923B18D
:10783000336829461B6830469847F3681E68002E57
:10784000F3D1284601F0FEFB0DF107008DF807602B
:1078500000F0DCFED4F818340BB9029BA3609DF84D
:10786000070000F0F7FEDAE7D4F8104454B90D4BE6
:107870000D480E49C01AC008000440F0020000F094
:107880005DF8CCE7236820469B689847E3681C684E
:10789000ECE7002585E700BF2CC60020E0070300C9
:1078A00038C60020F407030024080300B5080300CD
:1078B0002DE9F34704460E46924601A901221846D7
:1078C0009946FFF715FE1B4F10B3019D4FF00008BE
:1078D000AA1CC84508EB020123D11748002101F07A
:1078E000B1F880F31000000440EA1440E4006B1C7F
:1078F00004F03804DBB2EDB244F0010407EB83037B
:10790000033544EA881444EA8624D86047F82540C1
:107910003B781BB1FFF7CEFE0028FBD102B0BDE8DB
:10792000F087C9B207EB81015AF82830CB6008F123
:107930000108CEE72CC6002048CA002000231A46C2
:10794000FFF7B6BF07B50123019201AAFFF7B0FF09
:1079500003B05DF804FB07B5CDE9002302236A46B6
:10796000FFF7A6FF03B05DF804FB7FB5CDE9002368
:10797000089B0293099B03930A9B04930B9B05931B
:107980006A460623FFF794FF07B05DF804FB00008A
:107990002DE9F7430446D01C8846164601A900226B
:1079A0008008FFF7A5FD234D80B3019FB81C01900F
:1079B000C0B2C0F58073B6EB830F00F103004FEA4D
:1079C000830905EB80002AD83246414608F02DFB9A
:1079D0001948002101F036F880F310007B1CDBB25F
:1079E000FFB2220C05EB8303033742EA0040E400B8
:1079F000D86004F0380455F8273044F0020444EA13
:107A0000865203F47C131A4345F827202B781BB1C8
:107A1000FFF750FE0028FBD103B0BDE8F0834A46D3
:107A2000414608F002FBA6EB090208EB090105F14B
:107A30000C00CBE72CC6002048CA002030B50F4907
:107A4000D1F8102403460020144634B9DC682071B4
:107A50004AB9C1F81034226030BDE4682579854206
:107A600006D02468F1E7D268116821601360F3E75B
:107A700001300A28E8D14FF0FF30EDE72CC6002096
:107A8000084A38B50123D2F8104413701D4604B9D2
:107A900038BDE3685D71236820465B689847E368FA
:107AA0001C68F4E72CC6002007B503460846197A7F
:107AB000052911D05B7A2BB1094A0A49019001F0DE
:107AC0006EF801980849019001F069F8019803B037
:107AD0005DF804EB01F058B8002AF8D0F2E700BFD7
:107AE000D80803002A410300FA08030030B5C38810
:107AF00085B004460D4633B1144A00921449154A24
:107B0000284601F04CF8217A05291DD0637A4BB143
:107B1000A088FFF7AFFD104B104953F820202846EE
:107B200001F03DF8227A0E4BA08853F822200392F0
:107B30000021FFF783FD039A0A490346284605B052
:107B4000BDE8304001F02BB805B030BDD8080300C7
:107B5000E5080300DD080300640903002A4103006F
:107B600088090300FD0803002DE9F04385B01F4696
:107B70000C9D002395F80C902B7306460C469046FE
:107B800029463846FFF7B2FFB8F1060F09D8DFE8FB
:107B900008F00412181F283340003146284600F030
:107BA000FEFF002229463846FFF77EFF85F80C903D
:107BB00005B0BDE8F08322683146284600F0EFFFAB
:107BC000EFE7D4E900233146284600F0E8FFE8E774
:107BD000A36800933146D4E90023284600F0DFFF74
:107BE000DFE7E3680193A36800933146D4E90023FB
:107BF000284600F0D4FFD4E723690293E368019399
:107C0000A36800933146D4E90023284600F0C7FF5B
:107C1000C7E76369039323690293E3680193A36849
:107C200000933146D4E90023284600F0B8FFB8E7B6
:107C300008292DE9F74F80460E4617461C463CD8CA
:107C4000002593F80C901D7319461046FFF74EFF60
:107C5000DFF888A0DFF888B0AE4231D918F80520E7
:107C60005946204600F09BFF0135082DF4D11949F3
:107C7000194DDFF870A0204600F091FF4FF0000B87
:107C80005E4522D918F80B207E2A05D810460192AD
:107C900008F0A0F9019A00B92E225146204600F0C2
:107CA0007EFF0BF1010BBBF1080FE9D10122214648
:107CB0003846FFF7F9FE84F80C9003B0BDE8F08F6A
:107CC0005146204600F06BFFCEE72946204600F0E3
:107CD00066FFE6E7110903000F0903000D09030021
:107CE0000709030013090300014B01221A707047B2
:107CF00025CB00207047000070B5124D06460FCD11
:107D000088B06C460FC495E80F00002E84E80F0081
:107D10004FF0FF334FF00602CDE90023CDE90233E7
:107D2000094A0A484FF0EB7308BF002269460693E0
:107D300004F0CAFE08B100F0C5F9054B1E7008B08A
:107D400070BD00BF9C090300E97C020008500020C0
:107D5000E4CA002007B5044B0093044A4023FFF710
:107D600037FB03B05DF804FB717D0200E5CA00201B
:107D700038B50D4B0D4D002018700D4804782D5D61
:107D8000D2B21C4665B1043005F01CFE08B100F00B
:107D900099F9084B1A7812B12378002BFBD038BD23
:107DA0000C3005F0A7FBF1E725CB0020E4D3002041
:107DB00008500020E4CA002008B50848084A0378A3
:107DC000D35C3BB1043005F079FDBDE808400020EC
:107DD000FFF792BF0C3005F031FBF6E708500020AA
:107DE000E4D300200120FFF787BF0000C30710B5D0
:107DF00007D4F023054A4008145C2340194311546A
:107E000010BD0901C9B20F23F4E700BF58CB002011
:107E100030B5094B1C78094B196800239C4202DCE1
:107E20000022104630BD11F83350854201EBC302E9
:107E3000F7D00133F2E700BF26CB002078CB00203B
:107E400013B504460191FFF7E3FF38B143682BB146
:107E50000199204602B0BDE81040184702B010BD9D
:107E6000034B044819680022490800F0A2BA00BF79
:107E700028CB002030CB002010B5C0B2FFF7C8FFE0
:107E80000446007805F01AF863785A1E53425341AD
:107E9000834208D1044BD3E90023134303D1BDE847
:107EA0001040FFF7DDBF10BD50CB002037B54308B1
:107EB000354AD35CC2074CBF1B0903F00F030446CD
:107EC0000D46042B35D8DFE803F003252C383C00A1
:107ED00079B30121FFF78AFF00230DF107008DF828
:107EE000073000F093FB0120A4F12003C4F120012E
:107EF000264A20FA01F100FA03F30B43A040D2E92D
:107F0000004120430B43C2E900039DF8070000F045
:107F1000A1FB0EE0002918BF02212046FFF766FFF3
:107F200007E041B10321FFF761FF01212046FFF780
:107F300087FF03B030BD0121EFE70029F9D104210B
:107F4000EBE709B10321E8E7FFF750FF2946204698
:107F5000FFF776FF0DF107008DF8075000F056FB94
:107F60000120A4F12003C4F12001084A20FA01F104
:107F700000FA03F30B43A040D2E9004124EA0000D9
:107F800021EA0303BFE700BF58CB002050CB0020FD
:107F90002DE9F041124E134F00243378A34208DC40
:107FA000114BD3E90023134318D0BDE8F041FFF78C
:107FB00057BF3D6805EBC40815F8340004F07EFF98
:107FC00098F801305A1E53425341181A4142414118
:107FD00015F83400FFF76AFF0134DEE7BDE8F081F1
:107FE00026CB002078CB002050CB0020092AF7B503
:107FF00005460C4616463CD904F090FED8B11E4BFF
:108000001E481D601E4B1F4F1C701F4B002120225D
:108010001E6008F033F81D4B00200021C3E9000169
:10802000013CE4B20326FF2C0BD1194A1948002168
:1080300000F0B4F903E004F02BFE0028DFD003B019
:10804000F0BD9DF8063015F834008DF8046005EB9E
:10805000C40223F007038DF8063001A993788DF848
:1080600005303A4604F064FE013CE4B20028DAD060
:10807000E5E70720E3E700BF78CB002058CB0020DE
:1080800026CB0020797E020028CB002050CB002098
:10809000917F0200D409030070B5084D084E0024FA
:1080A0002B789C4201D3002070BD3368012113F866
:1080B000340004F0B9FE0134F2E700BF26CB002003
:1080C00078CB00201FB50021039001AA44F20100E3
:1080D000CDE9011100F004F805B05DF804FB0000E3
:1080E00010B572B6FFF7CCFCFFF7E4FA0028FBD11D
:1080F000104B114C1149E41AE408240444F0010027
:10810000FFF71CFC0E4B1B68DB0700D500BE0D49BA
:1081100044F00200FFF712FCBFF34F8F0A490B4BEC
:10812000CA6802F4E0621343CB60BFF34F8F00BF15
:10813000FDE700BFF407030024080300D80903008B
:10814000F0ED00E0E409030000ED00E00400FA05B2
:1081500010B58468C2688388121B934208D3C26832
:1081600013400268D154C3680133C360002010BDBE
:108170000420FCE78268C3689A420AD08268838838
:1081800013400268D35C0B70836801338360002066
:1081900070470520704700004B1C30B5DB000446DB
:1081A00012F003009BB20DD1074D2A601A44074B11
:1081B0001A60074B1870074B1870074B1C80074B51
:1081C000198030BD0720FCE784CB002080CB002045
:1081D0007CCB00208CCB002088CB00208ACB0020D9
:1081E000F8B5114C114D264622782B789A4200D1D1
:1081F000F8BD0F480F4A2378126807880E4802EB33
:10820000C301006852F83320898803FB07009047B8
:108210000A4922780988D3B2914286BF0133DBB282
:1082200000233370E0E700BF8CCB00207CCB002024
:1082300088CB002084CB002080CB00208ACB00207C
:10824000D0E90223D1E90201994208BF90422CBF34
:10825000012000207047000008B50B4800F02DFBFE
:108260000A4B0B49D3E900231218D1E9000143F16D
:1082700000038B4208BF824203D212F1807243F1A5
:1082800000031046194608BD1C50002098CB002062
:1082900010CC002037B505460C460A4801A900F06D
:1082A00040FB60B10570446001A9064800F063FB23
:1082B00018B1054800F006FB002003B030BD0420D3
:1082C000FBE700BFFCCB00201C50002038B5184B4A
:1082D0001B78044613B90025284638BD0028FAD07B
:1082E000037F03F0FF05002BF5D0FFF7B5FFD4E9BE
:1082F0000223994208BF904214D3236903B923771C
:10830000D4E90530984721690029E4D0237F03F0A0
:10831000FF05002BDFD0D4E90223521843F10003FC
:10832000C4E902230348214600F00DFFD4E700BF53
:10833000A0CB0020000A030013B5114B11491868A7
:10834000019008231048582200F0D8FA044698B942
:108350000E4A0F4801A900F0A1F9044660B90C4883
:10836000012100F08DFA01230A4A0948194600F05C
:10837000EFF9094B01221A70204602B010BD00BF70
:10838000FC090300A4CB0020FCCB0020FD830200ED
:108390001C500020FFFF7F00A0CB00203AB10368F3
:1083A0005A614A1E5142514119610020704707200D
:1083B000704738B5037F04460D4683B98261FFF7E5
:1083C0004BFF2369401941F10001C4E9020103B1E7
:1083D000256121460020BDE83840FFF75BBF002043
:1083E00038BD0023014603770120FFF753BF00008B
:1083F000014800F062BA00BF1C5000202DE9F04F88
:1084000085B0804600F044FA40B15A4AD2E90031C2
:1084100013F1807341F10001C2E9003100214046AF
:1084200000F045FA38B1544E336823B13068FFF795
:108430004DFF002333600121404600F038FA20B19F
:10844000FFF70AFF4D4BC3E900014D484A4F4D4E1F
:10845000DFF8389103A900F09EFA002845D1DFF833
:108460002491454EDFF828A1484600F082FE33688B
:10847000002875D07BB13368D0E90201D3E902232B
:10848000994208BF90422DD233681B7F1BB13168DF
:10849000484600F058FE484600F065FED0E902B3B9
:1084A00007460193FFF7D8FE019BBBEB000463EB8B
:1084B0000105012C75F1000345DBB4F5350F40D300
:1084C000FFF796FF304A02444FF4960300215046CE
:1084D00000F05EF900283ED1336813B9404600F041
:1084E0002FF9376005B0BDE8F08F0378012B1DD060
:1084F000022B09D14FF0000A304600F034FE00286C
:1085000034D080F81CA0F7E73BB941680B7F23B952
:1085100001230B77304600F016FE03A9184800F03F
:1085200065FA03A9164800F036FA96E741683B68F9
:10853000994202D100233B60EFE7304600F01CFE79
:10854000EBE7BA68C0E70021504600F0A6F93846CC
:10855000FFF7BCFE01E00D28F9D00023336083E76C
:10856000002BBFD1404600F0EFF8BBE7012389F8AC
:108570000030D2E798CB002018CC002010CC00208F
:10858000FCCB0020000A0300FFFFB400A0CB0020BA
:108590001C5000200648074A03780749D35C012293
:1085A00013B1043005F00EBA0C3004F0A3BF00BFC5
:1085B00024500020E4D300202CCC002010B501462C
:1085C0000E48FFF7C5FD0446A8B90D480D4A0378CB
:1085D000D35C63B1043005F03DFA60B90A4907483D
:1085E000FFF7C8FD38B9BDE81040FFF7D3BF0C3026
:1085F00004F0C6FFF1E7204610BD00BF1CCC0020F0
:1086000024500020E4D300202CCC002070B5EFF3E0
:10861000108672B60C4A946801239CB993600B4B88
:108620000B4DD3F8801029401160C3F88050D3F867
:10863000841051604FF0FF32C3F88420047006B9F3
:1086400062B670BD0370FAE730CC002000E100E0B4
:10865000FC06FFBD084B9A6810B55AB150B9EFF34C
:10866000108172B6054A1C6814605C68546098609A
:1086700001B962B610BD00BF30CC002000E100E0BF
:10868000435882B03BB10023435043580193019BB0
:10869000012002B070471846FBE70000F8B5204BF8
:1086A0004479204D43F824201F4A204B05EBC40495
:1086B0009B1A2279DB081B0432B143F002001C49EB
:1086C000FFF73CF90820F8BD02680C88C2F808459D
:1086D00090F904608A7804795201002ED2B219DB35
:1086E00014498F1987F800230122760904F01F042A
:1086F00002FA04F441F82640427905EBC201012454
:1087000045F832000C7143F003000B49FFF716F9EE
:108710000020D8E7094904F00F040A55ECE700BF30
:1087200044CC00203CCC0020F407030034080300B4
:108730000C0A030000E100E02E0A030014ED00E043
:10874000036801221A607047036801225A6070476B
:1087500073B501F15005AD000068ADB24FF480343F
:108760008C400026C0F80843C0F84843465101F544
:10877000A8714559019522F07F42019D40F82120C2
:10878000C0F844430BB1C0F8044302B070BD000010
:108790002DE9F74F0D4622F07F4402684FF48037F1
:1087A00005F150068F408046B60002EB8500C2F806
:1087B0004873B6B2C2F80873D2F8041599464FF060
:1087C000000BD0F84035C0F8401542F806B05B1AEF
:1087D0009259009223F07F43012B009A4FEA850AB9
:1087E0000CD1264B4FF4806043F001039847D8F832
:1087F000003043F806B09B590193019BD8F8001054
:10880000D1F80465C1F84473A31B23F07F43012B07
:108810001CD11A4B05F5A875013443F0010341F84A
:1088200025404FF480609847D8F80030D3F80435DD
:108830009E4209D1D8F800300020C3F84473C3F831
:10884000047303B0BDE8F08F0D20FAE78A44C9F144
:10885000FF13CAF84045D1F80405221A013A22F064
:108860007F4203F57F439342EED3002AE2D10134E5
:10887000CAF84045D1F804359842DAE7400A0300C7
:1088800003680222C3F8442309B1C3F804237047E4
:1088900000684FF48271FFF7F3BE4FF4803303FAA0
:1088A00001F10368C3F84813C3F808137047503147
:1088B0008900006889B2FFF7E3BE0368D3F80405B6
:1088C0007047000090F90430002B09DB5A090121A0
:1088D00003F01F0301FA03F34032024941F822304A
:1088E000704700BF00E100E0024B034A1B681068BC
:1088F000184700BF44CC00203CCC002010B561B12B
:10890000B2FBF3F403FB1424A4B244B9C0E900148D
:1089100084608281C381204610BD0E20FCE70920BF
:10892000FAE737B550E8013F9DB2C48925448489F0
:10893000A54228BF2D1B0489A54202BFBFF32F8F7C
:10894000002207E0C5EA030540E80154002CE9D104
:108950004FF001028DF803200193019B9DF8032045
:108960000B6002F0FF0322B10B880068184403B0CB
:1089700030BD1846FBE70A884B889A4209D150E877
:10898000012FC2EA024240E80123002BF7D1012067
:1089900070470020704737B550E8023F1FFAA3F533
:1089A000C488A54202BFBFF32F8F00220DE0C48907
:1089B00025448489A54228BF2D1BC3EA054540E80C
:1089C0000254002CE8D14FF001028DF803200193EE
:1089D000019B9DF803200B6002F0FF0322B14B883E
:1089E0000068184403B030BD1846FBE70A884B887E
:1089F0009A4209D150E8022FC2EA224240E80223FB
:108A0000002BF7D1012070470020704701F01F02B2
:108A10004B090121914000EB830000F01EB801F0EA
:108A20001F0301229A404B0900EB8300D14300F061
:108A30002CB84B0901F01F0150F82300C84000F08A
:108A40000100704710B5034653E8000F0A4643E89B
:108A5000002494F0000FF7D110BD10B5034653E881
:108A6000002F42EA010043E8000494F0000FF6D121
:108A700010BD10B5034653E8000F00EA010243E8B9
:108A8000002494F0000FF6D110BD10B5034653E852
:108A9000002F02EA010043E8000494F0000FF6D131
:108AA00010BD10B5034653E8002F02EB010043E868
:108AB000000494F0000FF6D110BD10B5034653E842
:108AC000002FA2EB010043E8000494F0000FF6D160
:108AD00010BD0121FFF7C1BF0021FFF7CABF10B5CC
:108AE00090B1D0E9012301689B1ADBB20A60013B17
:108AF000DBB2FF2B026802D10020107110BD11689B
:108B00004C1C14600B70F2E70E20F7E737B50546F2
:108B100000240DF107008DF80740FFF777FD2A6864
:108B20006B68116899420ED9481E106011F8014C0B
:108B3000EB68298A01FB0434AB6811791B1ADBB29C
:108B4000994238BF13719DF80700FFF783FD204657
:108B500003B030BD37B5054600230DF107000C46C4
:108B60008DF80730FFF752FD2A681368591C116011
:108B7000E968641A298AB4FBF1F41C709DF80700B7
:108B8000FFF768FD03B030BD826810B504462AB116
:108B900043690168006998470023A36010BD0EB4C3
:108BA00003B5039921B104AB01AA019300F06EF85B
:108BB00002B05DF804EB03B07047826830B404681B
:108BC000551C8560A154D0E901329A4202D330BCD1
:108BD000FFF7DABF30BC70472DE9F84F9846DDE962
:108BE0000A43154682460F460A464FF00109AA423B
:108BF0000FD2C14538BFC14613F0010B01D16CB98A
:108C000000240126B8F1010F1BD908F1FF386E438B
:108C1000F8E709F10109B2FBF5F2E8E79B070ED589
:108C2000B8F1000F0CBF30262026A145E9D2013C47
:108C300031465046FFF7C1FF002CF6D1E0E7202671
:108C4000F3E7B7FBF6F39D42E1D9DFF83C80B7FBD1
:108C5000F6F3504618F8031006FB1377FFF7ADFF45
:108C60003346AB42B6FBF5F6F1D2BBF1000F02D0B2
:108C70000CB1A14501D3BDE8F88F20215046013C3D
:108C8000FFF79BFFF4E700BF460A03002DE9F74F0B
:108C9000054617468846002900F0428118F8011B56
:108CA00049B92B7B002B00F03B81284603B0BDE87F
:108CB000F04FFFF769BF252940F0B780002698F8EC
:108CC00000302D2B424608F1010823D0302B24D050
:108CD0002B2B25D000242A2B02F1010123D13B6844
:108CE0001A1D1B683A601C440A4613782E2B26D1A5
:108CF00001324FF0000A104610F8011BA1F1300CB0
:108D0000BCF1090F1DD80A2303FB0A13A3F1300A93
:108D10000246F0E746F00106D1E746F00206CEE74C
:108D200046F00406CBE711F8013CA3F13000092816
:108D3000DBD80A2202FB0434303C0A46CBE74FF072
:108D4000000A12F8011B01F0FB0068289046F8D0D9
:108D5000782909D86F290CD8632962D022D825290F
:108D600063D0582900F0888098F80030002B95D106
:108D700097E770390829F7D801A353F821F000BF0D
:108D8000FB8E0200698D0200698D0200898E02004F
:108D9000698D0200678E0200698D0200698D0200F4
:108DA000798E0200642901D06929DDD13A68D2F8B0
:108DB0000090111D89EAE9723960A2EBE9724FF067
:108DC000010B092A35DCD34538BFD3462CB1B9F1A4
:108DD000000F01DB720700D5013CB30702D5BAF1E1
:108DE000000F03D0F00701D44CBB0024B9F1000FF1
:108DF0002DDAC9F100092D212846FFF7DEFE06F025
:108E00000302022A04D1BAF1000F01D11CBB0024D5
:108E1000CDE9004653460A2249462846FFF7DCFEC4
:108E2000A2E73B681A1D19783A602846FFF7C5FE8D
:108E30009AE70A230BF1010BB2FBF3F2C1E7A3455A
:108E4000D4D220212846013CFFF7B7FECCE77107BA
:108E5000D5D52B21D0E7A345DAD230212846013CD5
:108E6000FFF7ABFED2E73968CDE900460A1D3A604C
:108E700053460A220968D0E739680A1D3A60CDE9ED
:108E8000004653461022F5E73B681A1D3A6016F07B
:108E90000106D3F8009028D1B9F1000F03D048465D
:108EA00007F01FF90646B44200D904BB09F1FF39A7
:108EB00019F8011F00293FF457AF2846FFF77DFE40
:108EC000F6E728460136FFF778FE19F80610002964
:108ED000F7D1A642BFF448AF002C3FF445AF2021A4
:108EE0002846013CFFF769FEF3E70026EDE7202165
:108EF0002846013CFFF761FED5E73B681A1D3A6042
:108F0000302128461C68FFF758FE78212846FFF7D5
:108F100054FE00220823CDE90032214610227CE7CE
:108F200003B0BDE8F08F00BF2DE9F84FB0F806A000
:108F30004579D2F800B09DF828900AFB05F5043D6C
:108F400088460BEB0301A94203F1040488BFA5EB9B
:108F5000030BB4FBFAF607460AFB1644C2F800B04E
:108F60004EB9AAEB04055D4528BF5D46BBF1000F75
:108F700004D1BDE8F88F3F68013EF1E7043408EB07
:108F800006003C442A46B9F1000F0DD02146ABEB58
:108F9000050B07F04AF8DA452E443F6855464FF076
:108FA000000428BF5D46E1E701462046EFE7FFF7F2
:108FB00096BDF8B546790146721E054600239342D8
:108FC0002D6803D30024A64202D8F8BD0133F6E78A
:108FD0000F682846FFF7BEFD01343946F3E72DE957
:108FE000F843068ACD1C0746FFF790FD043E354442
:108FF0000446B5FBF6F5F0B14FF48073EDB2838013
:10900000C680013D076081464FF00008A84512D296
:109010003846FFF77BFD064648B16379013363713B
:1090200008F10108C9F8000007608146EEE7204614
:10903000FFF7BFFF34462046BDE8F8830121043026
:10904000FFF72FBD10B5012104460430FFF735FDB1
:1090500010F0FF0F04D12046BDE81040FFF7A9BF74
:1090600010BD1FB503920022009203AAFFF75CFF18
:1090700005B05DF804FB1FB503920122009203AA1C
:10908000FFF752FF05B05DF804FB41DF70470000B9
:10909000064B10B500241C70054B1C60BFF35F8F9E
:1090A0000449054800F039F8204610BD50CC002096
:1090B00054CC0020600A030048CC002007B50023F0
:1090C0000DF107008DF80730FFF7A0FAF1EE103A26
:1090D00023F09F03E1EE103ABFF35F8F094B40226C
:1090E000C3F884219DF80700FFF7B4FA06F0ECFC02
:1090F00020B1FFF7CAFF03B05DF804FB20BF40BFFB
:1091000020BFF8E700E100E0836800225A60C3E96D
:1091100004229A60DA601A6070470B684A684360FC
:10912000934208BF0023016008BF43607047436853
:1091300043B10268916852680B449342436004BF94
:1091400000234360704770B5446806460D462068AA
:1091500018B1B3682946984718B923682B60256071
:1091600070BD2468F3E74368186808B102681A60A4
:1091700070474368186870474368186800B97047BB
:10918000884203D102681A600120704703460068D4
:10919000F4E7000010B50D49A1F59472914201D891
:1091A00000200FE08C1AE30F03EBE4035B1002EBEB
:1091B000C30452F83330834205D802D204F10802C6
:1091C000ECE7606810BD2146E8E700BF6C0F0300C4
:1091D00008B5FFF7DFFF024B002808BF184608BD9F
:1091E0002F0E03000A4B1B685A1C05BF094B0A4A85
:1091F0000A4A10680ABF1B781068C0F30310082BD6
:1092000004D103288CBF0020012070470020704744
:1092100030010010E00F00F0E80F00F03401001002
:10922000064B1B68082B06D1054B1B68032B02D885
:10923000044AD05C70470020704700BF3001001026
:10924000340100106C0F030008B5FFF7CBFF40B1ED
:109250004FF080430022C3F80C21C3F81021C3F85B
:109260003825FFF7BFFF002846D04FF080525E4BF5
:10927000D2F80414C3F82015D2F80814C3F8241542
:10928000D2F80C14C3F82815D2F81014C3F82C1512
:10929000D2F81414C3F83015D2F81814C3F83415E2
:1092A000D2F81C14C3F84015D2F82014C3F84415A2
:1092B000D2F82414C3F84815D2F82814C3F84C1572
:1092C000D2F82C14C3F85015D2F83014C3F8541542
:1092D000D2F83414C3F86015D2F83814C3F8641502
:1092E000D2F83C14C3F86815D2F84014C3F86C15D2
:1092F000D2F84424C3F87025FFF792FF10B13B4B1E
:109300003B4A1A60FFF78CFF18B13A4BFB22C3F8B7
:109310001825FFF785FF48B13749384B0A681B68A5
:1093200022F00F0203F00F0313430B60FFF778FFE7
:1093300018B1334B4FF400721A60FFF753FF48B176
:109340004FF08043D3F80024D20744BF6FF00102EE
:10935000C3F800242B4AD2F8883043F47003C2F8D3
:109360008830BFF34F8FBFF36F8F4FF01023D3F8C8
:109370000022002A03DBD3F80432002B2FDA224B21
:109380000122C3F80425D3F80024002AFBD04FF0B3
:1093900010221221C2F80012D3F80024002AFBD0B8
:1093A0004FF010231222C3F80422174B1A46D3F8A9
:1093B00000140029FBD00021C3F80415D2F80034B2
:1093C000002BFBD0BFF34F8F0E49104BCA6802F43D
:1093D000E0621343CB60BFF34F8F00BFFDE70C4B40
:1093E0000C4A1A6008BD00BF00C000408C56004007
:1093F0004881030000F00040E40E004058020010D5
:109400004096024000ED00E000E001400400FA0553
:10941000385000200090D0037047000030B404465C
:109420000FCC074D0FC594E80F0085E80F0030BC46
:10943000044B05484FF4A072F02100F0D1BD00BFED
:1094400070CC0020383D030090CC002070B5874DD3
:1094500043682A78864E0446D2B972689A4217D178
:10946000A268B3689A4233D1E268F3689A423AD16B
:1094700094F9142096F914309A427CD100232B7071
:109480000FCC7B4D0FC594E80F0085E80F0070BD31
:10949000784A794852F82320002101F01BFF774BCE
:1094A00075485A68042101F0F9FF754B72485A68F3
:1094B0000C2101F0F3FF734A6F48072101F0EEFF22
:1094C000704A6D480D2101F0E9FF2B78002BC7D0C1
:1094D0006D4BA268684853F82220012101F0FAFE82
:1094E0002B78002BC0D0694BE268634833F8122018
:1094F000022101F0DDFE664BE2685F4833F812207E
:10950000022101F0C3FE634BE2685B4853F822205E
:10951000022101F0DFFEE368032B40F0818004218B
:10952000554801F077FF0721534801F073FF0C21E4
:10953000514801F06FFF0D214F4801F06BFF4FF4D0
:109540006E6204214C4801F097FF4FF46E620721D0
:10955000494801F091FF4FF46E620C21464801F03A
:109560008BFF45484FF46E620D2101F085FF2B788B
:10957000002B3FF47DAF6168474B94F9142053F8FA
:109580002110511A22296CDC4448052391FBF3F386
:1095900050F82330180A5B0900F4784003F4FC63A8
:1095A000222943EA0003DEBF052091FBF0F13B488E
:1095B0003B4ED8BF50F821103A48D4BFC1F3C40184
:1095C00000210B433849336006F009FD32882A48F0
:1095D000042101F051FF32882748072101F04CFF98
:1095E000324B94F914102F4A2348002908BF1A4619
:1095F000072101F053FF228A2D492E4806F0EFFC87
:1096000032881D480C2101F037FF32881A480D219D
:1096100001F032FF274A18480D2101F03FFF2DE7E6
:109620000321154801F005FF0621134801F001FF51
:109630000421114801F0FDFE05210F4801F0F9FE5B
:1096400007210D4801F0F5FE08210B4801F0F1FE5D
:109650000C21094801F0EDFE0D21074801F0E9FE5B
:1096600085E74FF400604FF4DC6399E79C500020DD
:1096700070CC00205C50002014D1002078500020D5
:109680006C500020720F03009050002072100300F5
:109690007A10030048500020A0100300841003003B
:1096A00004CD0020B8CF00207F0F0300700F03000F
:1096B000860F0300F8CF00202DE9F04FF04CF14B5E
:1096C000F149F24FF24D87B014220590204601F087
:1096D000E7F9059B2046196801F03AFA3946204619
:1096E000052601F042FA4FF019094FF06D081221DA
:1096F000204601F057FA0423CDE901890096E54997
:109700000022204601F046FE2A460021204601F0B4
:10971000D7FEE14A0021204601F0C0FE4FF6FF725D
:109720000021204601F096FE42F29F420021204691
:1097300001F0A2FE4FF0390B4FF01B0A122200215C
:10974000204601F0CFFE0423CDE9018BCDF800A027
:10975000D2490022204601F055FD32460021204624
:1097600001F0DCFD4FF6E0720021204601F08EFD95
:109770004A460021204601F09BFD4FF0E0083A46A2
:109780000021204601F0B8FD7723CDE90068CDF82F
:109790000890C3490122204601F0FCFD2A46012120
:1097A000204601F08DFEBF4A0121204601F076FEE1
:1097B0004FF6FF720121204601F04CFE42F29F421B
:1097C0000121204601F058FE12220121204601F01D
:1097D00089FE7723CDE9018BCDF800A0B249DFF8EF
:1097E000DCB2DFF8DCA20122204601F00BFD32469C
:1097F0000121204601F092FD4FF6E0720121204642
:1098000001F044FD4A460121204601F051FD3A464F
:109810000121204601F070FD5123CDE901833D2354
:109820000093A24904230222204601F0B3FD2A46F8
:109830000221204601F044FE9D4A0221204601F00B
:109840002DFE4FF6FF720221204601F003FE42F288
:109850009F420221204601F00FFE122202212046E3
:1098600001F040FE7123CDE9018353230093914918
:1098700004230222204601F0C5FC32460221204684
:1098800001F04CFD3A460221204601F035FD6A27E1
:10989000BD23CDE90173AD23009359461023032264
:1098A000204601F077FD2A460321204601F008FEFC
:1098B000DAF800200321204601F0F0FD4FF6FF7298
:1098C0000321204601F0C6FD00220321204601F0BD
:1098D000D3FD12220321204601F004FE4FF0CD08F3
:1098E000BD2300930BF114011023CDE9017804226C
:1098F000204601F04FFD2A460421204601F0E0FDFC
:10990000DAF804200421204601F0C8FD4FF6FF726A
:109910000421204601F09EFD00220421204601F092
:10992000ABFD4FF0DD0912220421204601F0DAFDE3
:10993000102332460BF12801CDE90179CDF80080E2
:10994000204601F027FD2A463146204601F0B8FDA9
:10995000DAF80820DFF86CB1DFF86CA13146204658
:1099600001F09CFD31464FF6FF72204601F072FD7A
:1099700031460022204601F07FFD3146122220466A
:1099800001F0B0FDD626BD23CDE90163AD230093E0
:1099900059463B460622204601F0FCFC2A46062199
:1099A000204601F08DFD52460621204601F076FD4D
:1099B0004FF6FF720621204601F04CFD00220621E1
:1099C000204601F059FD12220621204601F08AFDB1
:1099D000BD2300930BF114013B46CDE9016807223A
:1099E000204601F0D7FC2A460721204601F068FDF9
:1099F00052460721204601F051FD4FF6FF72072124
:109A0000204601F027FD00220721204601F034FD09
:109A100012220721204601F065FD3B460BF128018B
:109A2000CDE90169CDF800800822204601F0B2FCA2
:109A30002A460821204601F043FD524608212046CF
:109A400001F02CFD4FF6FF720821204601F002FDC7
:109A500000220821204601F00FFD12220821204695
:109A600001F040FD1023CDE901791349CDF80080C4
:109A70000C22204601F08EFC2A460C21204625E0CF
:109A800014D100201994020008CD0020B01003006A
:109A9000C4100300ECD000208D0F030088CF0020FD
:109AA00000D10020980F0300A0CF0020D8D00020C4
:109AB000A50F030058CC002038D0002060D0002033
:109AC000845000209CD00020720F030001F0F8FCAD
:109AD0002A4A0C21204601F0E1FC4FF6FF720C21CE
:109AE000204601F0B7FC42F29F420C21204601F0D3
:109AF000C3FC12220C21204601F0F4FC3B46CDE9C8
:109B000001691F49CDF800800D22204601F042FC7A
:109B10002A460D21204601F0D3FC1A4A0D21204689
:109B200001F0BCFC4FF6FF720D21204601F092FCC3
:109B300042F29F420D21204601F09EFC12220D218F
:109B4000204601F0CFFC1E23FA22CDE90132E423A6
:109B5000009300231A460C49204601F0D5FC0B4A1D
:109B60000021204601F0FEFC0598FFF76FFC20461F
:109B700007B0BDE8F04F00F0D9BF00BFB60F03003B
:109B80004CD00020BC0F0300FCCC00203C50002037
:109B900001F0E8BAF0B406460846346A059FA58885
:109BA000A84211461A46BDF8103010D264888C4283
:109BB0000DD92D1AAA42A4EB0104C8BFAAB2A34230
:109BC000C8BFA3B2F4680497A446F0BC6047F0BCD9
:109BD000704730B40446084611461A46236A9D88E9
:109BE000854205D95B888B4202D9A36830BC1847EF
:109BF00030BC70472DE9F04F85B01E46BDF9388066
:109C0000994234BF01234FF0FF330746701A924642
:109C10004245B4BF4FF0010B4FF0FF3B8946029322
:109C200006F0CAF904B2A8EB0A0006F0C5F90F9BCA
:109C300005B2524649463846FFF7CBFFAC42B7BFA4
:109C4000234600232C461D46B8BF012301932B1B3E
:109C50006D005B00ADB29BB22C1B039324B2D045C8
:109C600004D1B14502D105B0BDE8F08F002CA3B2FC
:109C700012DB029A09EB02010AEB0B021FFA82FACD
:109C8000039AD4181FFA81F924B20F9B5246494611
:109C90003846FFF79EFFE2E7EC18019B24B223B1A0
:109CA0000AEB0B021FFA82FAEFE7029B09EB0301B2
:109CB0001FFA81F9E9E710B503680446984710B91F
:109CC000236A01221A7010BD13464A880988FFF7DB
:109CD00080BF2DE9F043036A0C4617460A8899882D
:109CE0008A4285B0064603D9A5885888854270D82F
:109CF0006088884203D9E1885B88994269D8A08846
:109D0000101A06F059F9E38880466088C01A06F0F8
:109D100053F92589B4F80090A38862888045CABFAA
:109D2000A8464FF000080025994502D0E1889142ED
:109D30001AD1A3EB0900039206F03EF961880544AD
:109D4000E088ABB2401A029306F036F9404480B284
:109D50000090DDE90232019749463046FFF71AFFCD
:109D6000002005B0BDE8F083F5B9B8F1000F2BD1A4
:109D700009B20091019749463046FFF73BFFEFE7F4
:109D80002288A38801970B441144B4F9062000925D
:109D90009BB2628889B23046FFF72CFF01352389D8
:109DA000A9B28B42ECD8DBE70025F8E7E1886288AE
:109DB00001971A440B441BB200932188A38892B2E6
:109DC0003046FFF717FF01352289ABB29A42EDD832
:109DD000C6E70720C5E72DE9F0438D88CF8889B015
:109DE000012D16469DF8409080460C461A466BD0D1
:109DF000012F69D0B5EB460F4FEA460364DBBB4247
:109E000062DC036A0988B3F804C060888C4502D21A
:109E10005B88834258D3B9F1000F0AD0CDE90072B4
:109E20002B4602464046FFF7B5FE002009B0BDE8CC
:109E3000F083ADF814102944ADF81600ADF81810F1
:109E4000ADF81A0005A94046ADF81C600392BF1B8F
:109E5000FFF73FFF2188A0886388ADF81410BFB2D8
:109E600001443B449BB2039AADF81810404605A943
:109E7000ADF81630ADF81A30FFF72BFF6388218854
:109E8000039AADF814109819ADF816003B44ADF8DC
:109E90001810404605A9ADF81A30FFF71AFF2388BD
:109EA000039A1D446388AD1BADB21E441F4405A92F
:109EB0004046ADF81450ADF81660ADF81850ADF846
:109EC0001A70FFF706FFB0E70720AFE7F7B59E4629
:109ED000036A0E889D88AE42944613D24F885C88F0
:109EE000A7420FD28A88CB88AD1BCDE900CEE41BF8
:109EF000AA42C8BFAAB2A342C8BFA3B239460469E6
:109F00003046A047002003B0F0BD000007B580B286
:109F1000ADF80000101A89B2ADF804000948ADF898
:109F20000210591AADF80610DDE9042300686946ED
:109F3000FFF7CCFF08B1FEF7C5F8002003B05DF8CD
:109F400004FB00BF54D300201FB580B289B2ADF826
:109F50000800101AADF80A10ADF80C00591A09489B
:109F6000ADF80E10012300930068BDF818300022F0
:109F700002A9FFF730FF08B1FEF7A4F8002005B0F2
:109F80005DF804FB54D300201FB5ADF80A3001235F
:109F9000ADF80C30094BADF80400ADF80610ADF883
:109FA00008201868BDF8182001A9FFF792FE08B133
:109FB000FEF788F8002005B05DF804FB54D30020BC
:109FC00007B5064BADF80400ADF80610186801A9F6
:109FD000FFF77AFE03B05DF804FB00BF54D3002006
:109FE00038B51C468180204B0360053909B2C28018
:109FF0004FF00413053A12B20362818481831B4B34
:10A000001B491C4DC284C2830022C0E91013C0E961
:10A010000422C262428642630287C2638261C264D2
:10A0200080F85020426580F85820C26580F8602092
:10A03000426680F8682028602046FFF73CFE08B1A1
:10A04000FEF740F80C4B0D4A1C602B680C49DA6493
:10A050000322596583F850200A4983F8582083F871
:10A0600068205966012038BDC19F020000005D5C78
:10A070000101FFFF48D3002054D30020899F020034
:10A08000499F02000D9F020082422DE9F3471D46C1
:10A09000B8BF034617460646BCBF1F4616468D424C
:10A0A000174ABDF828A0B8BF0B460C46BCBF2C46CB
:10A0B0001D46136893F8581011F0020F91461BD0FB
:10A0C000CDF800A0D3F854803A462B4621463046BE
:10A0D000C04788B902B0BDE8F087D9F800304046E3
:10A0E0001B6852462146984708F101080FFA88F884
:10A0F0004745F2DA013424B2A542EBDBB046F7E77C
:10A1000048D300202DE9F04FDFF804A1DAF800C0B1
:10A110009CF850E087B01EF0020FBDF84080044666
:10A120000D4616461F4647D1321B12B27B1B1BB28F
:10A1300082EAE277A7EBE277002A83EAE376B9B214
:10A14000A6EBE376CCBF01224FF0FF32002BDAF80A
:10A1500000300391B1B2049105921B683FB236B250
:10A16000424629462046CCBF4FF001094FF0FF3947
:10A170009847B7422ADADFF898B077104FF0000A14
:10A180000FFA8AF39E421EDD039B1F44BBB23FB20F
:10A19000BE4205DC049A9F1A059B1C443FB224B2C0
:10A1A000DBF800304D442DB21B684246294620465C
:10A1B00098470AF1010AE3E7CDF80080DCF84C90FB
:10A1C000C8470028B0D107B0BDE8F08FDFF840B035
:10A1D0007E104FF0000A0FFA8AF39F42F3DD049BD2
:10A1E0001E44B3B236B2B74204DC039A4D449E1A01
:10A1F00036B22DB2059B1C44DBF8003024B21B683C
:10A2000042462946204698470AF1010AE3E700BF83
:10A2100048D300202DE9F341BDF8207000971C467B
:10A22000804616460B460D46FFF76CFF2346324626
:10A23000214640460097FFF765FF234642462946E0
:10A2400040460097FFF75EFF2346324629463046D8
:10A25000089702B0BDE8F041FFF754BF2DE9F04F79
:10A2600089B0DC280093BDF84830139C01938B46DD
:10A270000646114658D04FD8C42857D048D8B028E1
:10A2800056D0B52808BFE6266089B3B283423CD3D6
:10A29000A2899A4239D3E588B4F90620002D34D03A
:10A2A00023694FEAD5086F0718BF08F101080BB101
:10A2B000351A5D5DB94FD7F800C08BB202939CF898
:10A2C00060309B0740F19D80029B2289DCF85C7026
:10A2D000013B13440BF1FF322A441BB212B2584621
:10A2E000B84723790746002B4BD16089301AB4F95F
:10A2F0000860464308FB06869B46B4F908201FFA0F
:10A300008BF39342A6EB080139DB09B0BDE8F08F6F
:10A31000D62808BF9926B7E7F6280BD0FC280BD023
:10A32000E42808BF8426AFE79A26ADE78E26ABE780
:10A33000F826A9E79426A7E78126A5E722684B1C03
:10A34000AAF10809525C02931FFA89F9BAF1000FC9
:10A350000ED0D1074CBF009801980392B8470AF17C
:10A36000FF33039A1FFA83FACA454FEA5202EDD12E
:10A370000299B142E2D10BF1010B4644BDE7AA4676
:10A38000F7E7012BC1D16089B4F906309DF800B020
:10A39000301AB4F9086046435E434FF00008B4F940
:10A3A00008201FFA88F39342AFDA9DF8049006EB79
:10A3B000050A32461DE02368511C13F802C00291C1
:10A3C0000199009BCCF5807E01F47F4003F47F432C
:10A3D0000EFB00F00EFB09F20CFB03000CFB0B2242
:10A3E0000012C2F3072200F47F401043B8470299DD
:10A3F0000A465245DFD1B4F9063008F101081E447F
:10A40000CDE79CF868C023791CF0020F55D0002BD3
:10A410007FF47BAF009ADFF88891009352BA92B232
:10A420000392019A52BA92B20192B4F90820361AF4
:10A43000564308FB06F6BDF80000B4F90870B842B0
:10A440002BDA684309EB40002F464FF0000C19E06F
:10A450002268A7F1080A12F80EE01FFA8AFA0246EB
:10A460006FB1013F1EF0010FBFB214BF039B019BF0
:10A47000138057454FEA5E0E02F10202F0D10CF153
:10A48000010C10301FFA8CF2904506EB0C0EDFD851
:10A49000009B013346440093CDE7029B05EB0B0282
:10A4A0003B447D436D001BB212B25846CDE9129574
:10A4B00009B0BDE8F04FFFF729BD002B46D1B4F934
:10A4C0000830DDF808900697361A5E4308FB0686CA
:10A4D000029AB4F90810A9EB020292B28A42A6EBE2
:10A4E0000803BFF612AF1FFA8BF7AA460FFA89F1DD
:10A4F000B34205D109F101091FFA89F94644E7E79A
:10A500005A1C04922268D35C039307F108039BB2A0
:10A510000593BAF1000F17D0069B039A1B680791A9
:10A52000D2071B684CBF009A019A38B29847039B28
:10A5300007995B0803930137059BBFB20AF1FF3A05
:10A540009F421FFA8AFAE4D1049BD1E7012B7FF4E2
:10A55000DCAEB4F908709DF800300393361A7E43E0
:10A5600002FB06F7029E029BB4F90820F31A9BB285
:10A570009342BFF6CAAEDFF824901FFA8BFA4FF071
:10A5800000081FFA88F0854207EB08030AD8B4F9DF
:10A59000063001361F44B6B2E5E700BF48D30020BD
:10A5A00048D1002022689DF8041012F803C0039BD4
:10A5B000019ACCF5807E0EFB01F10CFB0311009B90
:10A5C00002F47F4203F47F430EFB02F20CFB0322F2
:10A5D0001212D9F80030C1F3072102F47F4250442F
:10A5E0000A431B6831B200B2984708F10108C8E776
:10A5F0002DE9F04F05464068036889B023B32F6802
:10A6000017B3B5F90A20B5F90E30B0F90890991AC8
:10A61000494519DB7E1E012116F8014FBCB995F89A
:10A620001480B5F91840049418F0300692B213D093
:10A63000013319FB01F69B1A01399B1B11FB04F135
:10A640005B1A1BB2002B08DA09B0BDE8F08F0A2CA8
:10A6500004BF013189B2DFE7334618F0100F18BF8D
:10A660005B1013441EB2EB8A02932B890393B5F956
:10A670000C10029B039AB0F906A0B5F916000590DC
:10A680000B4401339B1A0693384600241FFA8AFCB8
:10A6900010F8013B0BB10A2B1AD1069B1C1B24B2EC
:10A6A000002CD1DB18F0010F28D118F0020F00D0D8
:10A6B0006410039B1C4424B21FFA8AFB17F8010B99
:10A6C0000A281DD1049B09EB0302164436B2DBE7CE
:10A6D00069684A8993421FFA83FED9D3B1F80CB056
:10A6E000F345D5D3096939B19B1ACB5C059A14445B
:10A6F00013FA84F4A4B2CBE76346F7E70024D8E763
:10A700000028A1D06B6801936B8A009332462B8A94
:10A7100007902146FFF7A2FD6B681A6942B15B8979
:10A720000798C01A135C029A14441C4424B2C5E76B
:10A730005B46F8E74368027803EB4212934201D18B
:10A74000002006E018462033017801F003010329B8
:10A75000F4D1704730B54368047803EB4414A34246
:10A7600001D1002030BD1D7805F00305022D1846EB
:10A7700005D11D7E8D4202D15D7E9542F2D02033FF
:10A78000EDE70000F0B52D4B07781B68B3F90A50D0
:10A79000B3F90C6093F808C00024A3B29F4200D81C
:10A7A000F0BDD0F804E062010EEB44111EF8022067
:10A7B0004B7802F04B020A2A29D103F04002BCF187
:10A7C000000F27D0B5F1FF3F24D01AB903F067037B
:10A7D00043F00503B1F908E0AE4503F0DF0214DCF5
:10A7E000B1F90CE0AE4510DBB1F90AE0B6450CDC7E
:10A7F000B1F90EE0B64508DB13F0400F0ABF03F0D5
:10A80000DB0342F0200243F0220242F040034B708F
:10A810000134C2E7002AFAD09A060CD59A0748BF3D
:10A8200043F0800343F008035A0648BF43F0010396
:10A8300003F0B903EBE743F01003F5E748D300203A
:10A840002DE9F84390F8008004460025ABB2984506
:10A8500001D8BDE8F88362686B0102EB4516D75C4E
:10A8600007F00303022B12D1B90696F8019003D525
:10A8700073683146204698473A0708D53B0606D507
:10A8800019F0410F03D073683146204698470135CF
:10A89000DCE700002DE9F347154D002402236C602E
:10A8A0002B70077806460DF10408AA46A146A3B20C
:10A8B0009F4202D802B0BDE8F0877168620101EBE7
:10A8C000441301938A5C02F00302022A0ED19A7E9D
:10A8D00062B1197E5B7EAB70C5F80480336B697022
:10A8E000EA7050469847019B83F81A900134DEE7DE
:10A8F0004CD300202DE9F04F87B09B46109D93B2BA
:10A9000003F1FF390FFA89F902932B8800930E4661
:10A9100090460B464A460446FFF7F4FBB3B2039356
:10A920005F1C1FFA8BF303F1FF3A3FB20FFA8AFA6A
:10A9300004936B8800932246534639462046FFF71E
:10A94000E1FBAB88009342465B4659462046FFF741
:10A95000D9FBEB8800934246534631464046FFF709
:10A96000D1FB029BA4B2A3F102080FFA88F82B894D
:10A970000093601C00B23B46424639460590FFF703
:10A98000C1FB039B05989E1C049BA3F1020B36B2EE
:10A990000FFA8BFB6B89009302465B463146FFF74B
:10A9A000B1FBAB89059800934A4653465146FFF7E1
:10A9B000A9FBEB8900934A465B4639464846FFF7B8
:10A9C000A1FB029B0234DA1E2B8A009320B233468D
:10A9D000314612B20290FFF795FB049B0298DC1EF1
:10A9E000039B24B2D91C6B8A00930246234609B20A
:10A9F000FFF788FBAB8A0298009342465B465946B4
:10AA0000FFF780FBEB8A10934246234631464046CF
:10AA100007B0BDE8F04FFFF775BB07B502238DF80F
:10AA200003308DF800300B7E8DF801304B7E8DF8B1
:10AA300002300191036B6846984703B05DF804FB50
:10AA400007B503238DF8033002238DF800300B7E09
:10AA50008DF801304B7E8DF802300191036B684612
:10AA6000984703B05DF804FB13B51468A4B1137ADA
:10AA7000102B11D1D388ADF802109188ADF80000E9
:10AA80000648ADF806304B43ADF8041000685B0093
:10AA900022466946FFF71AFA02B010BD54D30020CF
:10AAA000F0B5002839D0002937D0002A35D000244D
:10AAB0000D460327A446E6B2B24205F1200526D88A
:10AAC00041604EF67D71C16015490270096802222D
:10AAD00002728C88013C4482CC8803630323837513
:10AAE00040F202232C3103841123C16180F822300B
:10AAF0000C490D4B0022C0E90913013C0F23428190
:10AB000002828482826180F82C301046F0BD05F804
:10AB1000207C45F804CC0134CDE74FF0FF30F5E759
:10AB200048D30020FFFF1F00FFFF108450B1037ABD
:10AB300023F0400343F028030372044B1B681861A1
:10AB4000002070474FF0FF30704700BF48D300200F
:10AB500040B1037A9A0705D543F06003816103721F
:10AB6000002070474FF0FF30704710B5B8B1037A3E
:10AB70009A0714D543F060020272B1F9082090F8E8
:10AB80002C40C161511C8C4207DC23F0400302328F
:10AB900043F0200380F82C200372002001E04FF0E6
:10ABA000FF3010BD48B1037A9A0706D543F0600321
:10ABB00080F822100372002070474FF0FF3070477A
:10ABC00070B528B3037A9B0722D5B0F90E60B0F9AF
:10ABD0001050B0F91240B0F914200E804D808C80D6
:10ABE000CA80837D13F0010F07D003360335033C81
:10ABF000033A0E804D808C80CA8013F002030AD085
:10AC00004B885A1C90F82C3013444B80002070BDA8
:10AC10004FF0FF30FBE71846F9E70000F0B54A783F
:10AC2000CD690C46D1078DB0074617D5130605D55B
:10AC30002378012143F02003A176237090072B781D
:10AC4000217840F1A98043F0010341F020012B70ED
:10AC500021700423A37622F0010262702378980603
:10AC600040F19880190740F1B1805A0602D42B7840
:10AC70009B0772D503A93846FFF7A2FFBDF80C3039
:10AC8000228A618A1A442281BDF80E201144618112
:10AC9000A18A0B44E18A0A44B7F9141012B21BB21C
:10ACA0009142A381E28175DBB7F912209A4271DBF0
:10ACB00021463846FFF7B1FEAA8869886B78ADF85F
:10ACC0002620ADF82410287813F0010F14BF0326B6
:10ACD0000126C00705D5980769D5ADF82610ADF84F
:10ACE0002420DA06B6B211D4E389A28961892089C9
:10ACF000BDF826C0CDF800C09B1B921B31443044E8
:10AD00001BB212B209B200B2FFF7BEF92389334475
:10AD1000ADF81C3063893344ADF81E30A3899B1B0A
:10AD2000ADF82030E3899E1B2B7C8DF82830EB6832
:10AD300006930223ADF82A30ADF82C3005A86B69D4
:10AD40000593ADF82260FFF753FC237823F040030E
:10AD5000237021463846FFF773FE6F783B0715D402
:10AD60002E78B4F90800B4F90A10B4F90C20B4F93B
:10AD70000E30FF0706F0010620D5244D244F002E8B
:10AD800014BF2E463E460096FFF7B4FD237823F00D
:10AD9000200323700DB0F0BDD8077FF55CAF23F022
:10ADA000010341F020012B702170052352E7590760
:10ADB00097D52A89ADF82620EA8890E726B12D8913
:10ADC0000095FFF727FAE1E7ED88F9E703A9384690
:10ADD000FFF7F6FEBDF80C20A68A208ABDF80E30DB
:10ADE000618A10443244E68A1944334400B209B2FD
:10ADF00012B21BB220816181A281E3816D78ED06E0
:10AE0000C4D4BD890095FFF73FF9BFE7D83C0300E4
:10AE1000F03C030070B50B780C4699068CB00546E3
:10AE200058D51A0758D55B0650D503A9E669FFF730
:10AE3000C7FEBDF80C30228A618A1A442281BDF80F
:10AE40000E2011446181A18A0B44E18A0A44B5F9BC
:10AE5000141012B21BB29142A381E2813ADDB5F91E
:10AE600012209A4236DD21462846FFF7D6FDB389E7
:10AE70007289B4F90A10B4F90800ADF82630ADF8BB
:10AE800024200093B4F90C20B4F90E30FFF7FCF83D
:10AE9000A3680793E3680893B37B8DF82830736841
:10AEA000069396F90F30ADF82A3096F91030ADF8C8
:10AEB0002C3005A833680593FFF79AFB237823F01D
:10AEC0004003237021462846FFF7BAFD237823F07C
:10AED000200323700CB070BD03A9FFF771FEBDF80D
:10AEE0000C20A68A208ABDF80E30618AAD890095B3
:10AEF00010443244E68A1944334400B209B212B213
:10AF00001BB220816181A281E381FFF7BDF8DDE7FB
:10AF1000F0B50B789E0685B005460C4635D5CE6952
:10AF2000190734D55A062CD502A9FFF749FEBDF8FA
:10AF30000820238A678A1344BDF80A201744326820
:10AF4000B2F804C018B21CFA83F3B2F806C020812C
:10AF500039B21CFA87F7B5F914C061813FB21BB250
:10AF6000BC45A381E78110DDB5F912509D420CDD8F
:10AF70003379DB0701D5FFF777FD237823F0400312
:10AF80002370237823F02003237005B0F0BD02A9BD
:10AF9000FFF716FEBDF80830228A3668BDF80A10A1
:10AFA000B788F688AD8900951A44638A0B4410B2BD
:10AFB00019B217FA82F216FA83F312B21BB2208189
:10AFC0006181A281E381FFF75FF8DAE72DE9F041C3
:10AFD00004468AB0002859D0037A9A0756D5837D53
:10AFE000B0F90E60B0F91050B0F91270DB0705D55A
:10AFF00003360335033F36B22DB23FB2254B1B68F3
:10B000005B69A3420CBF636AA36A079394F82C3070
:10B01000BDF81E200092013B13FA85F33A462946FB
:10B020001BB23046FFF730F8A3690393E36904933A
:10B03000F31CADF8143094F82C30ADF816501FFA0C
:10B0400085F8013B4344ADF81A3094F822308DF86E
:10B05000203094F92030ADF8223003A894F9213043
:10B06000ADF82430ADF81870FFF7C2FA94F82C3020
:10B0700043441BB249F61352009230463A461946F1
:10B08000FFF740F800200AB0BDE8F0814FF0FF3034
:10B09000F9E700BF48D300207FB5017AB0F90E6010
:10B0A000B0F91050B0F91220B0F91430044621F074
:10B0B00020002072080746D5A07DC00713D548069A
:10B0C00011D42649009130462946CDE90223FFF7E5
:10B0D00011FC029A039B03360335033A033B36B255
:10B0E0002DB212B21BB2A17D89070ED52046CDE943
:10B0F0000223FFF76BFF217A4B061FD494F82C1024
:10B10000DDE9022301310D442DB2A18900913046C1
:10B110002946FEF7B9FF2578002293B29D4210D947
:10B1200060685101435C03F00306022E04D11E0740
:10B1300044BF43F0600343540132EEE721F0400185
:10B14000217204B070BD06490968B1F8461000913B
:10B1500030463146FEF798FFF3E700BF083D030095
:10B1600048D3002013B5264C226892F84830D907FE
:10B1700044BF23F0010382F84830D2E9043083420F
:10B1800023D013B3C2E90530B8B1827D920714D53C
:10B19000027A110711D5B0F90E10B3F90E209142C1
:10B1A00009D101691A69914205D1B0F91420B3F9A6
:10B1B00014309A4201D0FFF709FF23685A69137AC5
:10B1C00023F0400343F02803137223685869A8B1A1
:10B1D000037A9A0603D50190FFF75EFF0198037A80
:10B1E0001B070BD50190FFF7CDFA0198FFF728FB5D
:10B1F000019802B0BDE81040FFF74CBB02B010BD93
:10B2000048D30020F8B505460C4616461F46FFF702
:10B2100091FA002830D06B89AA896380E3804FF4CB
:10B220008073238012232374154BA2801968228116
:10B2300001B12C31134B6361134BE1604360012377
:10B240000376BDF918304382BDF91C308382BDF905
:10B250002030C3824FF0FF33C0E902330378078206
:10B2600023F00103002163F03503417081764676B7
:10B27000C46103700846F8BD4FF0FF30FBE700BF24
:10B2800048D30020700F03001DAC020010B5144617
:10B290000A460121FFF75EFA38B1C3695C80037882
:10B2A00043F060030370002010BD4FF0FF30FBE758
:10B2B00010B514460A460121FFF74CFA38B1C369AC
:10B2C0009C80037843F060030370002010BD4FF0B2
:10B2D000FF30FBE710B514460A460121FFF73AFAA2
:10B2E00038B1C3695C61037843F0600303700020E8
:10B2F00010BD4FF0FF30FBE710B514460A460121A0
:10B30000FFF728FA38B1C369DC60037843F06003C3
:10B310000370002010BD4FF0FF30FBE738B5144636
:10B320000A460121FFF716FA002830D0C3691978C0
:10B330005A7841F0020502F0E1021D7025075A70AB
:10B3400044BF42F008025A70E20642BF5A7842F007
:10B3500010025A70A5075A7810D542F002025A70AE
:10B360005A78E1074CBF42F0010202F0FE025A7027
:10B37000037843F060030370002038BD650702D5F1
:10B3800042F00402EBE721F002011970E8E74FF008
:10B39000FF30F2E72DE9F04105460C461746984686
:10B3A000FFF7C8F970B3194B1E680021216006B180
:10B3B0002C3621726B896381AB89A3811223E381CF
:10B3C000134B66602174436002230376BDF9183085
:10B3D0004382BDF91C308382BDF92030C3824FF017
:10B3E000FF33C0E902330378417023F0010343F0D7
:10B3F0004A038176A0F810804776C461037000206C
:10B40000BDE8F0814FF0FF30FAE700BF48D30020DD
:10B4100015AE020008B50A460221FFF79BF928B1D4
:10B42000037843F068030370002008BD4FF0FF303D
:10B43000FBE708B50A460221FFF78CF938B103781B
:10B4400023F0080343F020030370002008BD4FF0F1
:10B45000FF30FBE710B514460A460221FFF77AF9E0
:10B4600038B1C3695C81037843F060030370002046
:10B4700010BD4FF0FF30FBE710B514460A4602211D
:10B48000FFF768F938B1C3699C81037843F0600322
:10B490000370002010BD4FF0FF30FBE710B51446DD
:10B4A0000A460221FFF756F938B1C3691C600378D8
:10B4B00043F060030370002010BD4FF0FF30FBE746
:10B4C00010B514460A460221FFF744F938B1C369A2
:10B4D0005C60037843F060030370002010BD4FF000
:10B4E000FF30FBE710B514460A460221FFF732F998
:10B4F00038B1C3699C73037843F060030370002084
:10B5000010BD4FF0FF30FBE7F8B50D4616461F465D
:10B51000FFF710F908B301232B710024104B2C60A6
:10B52000436003230376BDF918304382BDF91C3014
:10B530008382BDF92030C3824FF0FF33C0E902336C
:10B540000378447023F0010343F04A0384760782B2
:10B550004676C56103702046F8BD4FF0FF30FBE72B
:10B5600011AF020010B514460A460321FFF7F2F8A6
:10B5700048B1C36901221C601A71037843F060036B
:10B580000370002010BD4FF0FF30FBE77047000054
:10B59000014802F09FBB00BF603D03001FB50022C1
:10B5A000CDE9000105486946CDE9022202F0E8FB39
:10B5B00008B1FCF787FD05B05DF804FB603D0300B2
:10B5C00038B5054D782445F001054FF47A40A84779
:10B5D000013CFAD138BD00BF303D0300024B4FF4AF
:10B5E0000062C3F80C2570470003005007B58DF8C2
:10B5F0000700FFF7F3FF01210DF10700FFF7CEFF72
:10B6000003B05DF804FB002814BF21202020FFF7C1
:10B61000EDBF0000024B4FF40062C3F808257047ED
:10B620000003005007B58DF80700FFF7F3FF012175
:10B630000DF10700FFF7B2FF03B05DF804FB10B592
:10B6400004463620FFF7D2FF032C0ED8DFE804F0C3
:10B650000207090B4820BDE81040FFF7E3BF282090
:10B66000F9E78820F7E7E820F5E710BDF8B50746C9
:10B670002A200D4616461C46FFF7B8FF380AFFF78A
:10B68000D1FFF8B2FFF7CEFF300AFFF7CBFFF0B2E1
:10B69000FFF7C8FF2B20FFF7A9FF280AFFF7C2FF1B
:10B6A000E8B2FFF7BFFF200AFFF7BCFFE0B2FFF7E9
:10B6B000B9FFBDE8F8402C20FFF798BF70B5013BFB
:10B6C000013A0B4402449BB292B2DDE90465FFF7F4
:10B6D000CDFFFFF79FFFFA2D2C4628BFFA243046F6
:10B6E0002146FFF75BFF2D1B2644F4D1BDE87040D7
:10B6F000FFF774BF70B515461C46013A013B0B4479
:10B700000244049E9BB292B2FFF7B0FF104BC6F307
:10B71000072100220132102A19705E7003F1020322
:10B72000F8D1FFF777FF05FB04F3094D5C00202CEF
:10B7300005D920212846FFF731FF103CF7E72146C5
:10B740000348FFF72BFFBDE87040FFF747BF00BF7E
:10B7500058D3002013B514460B46024664BAFFF7CF
:10B7600085FFADF80440FFF755FF022101A8FFF760
:10B7700015FFFFF733FF02B010BD0000874B30B557
:10B780000325C3F82C57864B0FCB85B06C4684E855
:10B790000F00844B00934FF0804302930023214617
:10B7A00081481A4602F094FB0446002840F0F380DA
:10B7B0000120FFF71BFFFFF703FF2820FFF716FF0D
:10B7C000FFF7FEFECF20FFF711FF2046FFF72AFF0D
:10B7D000C120FFF727FF3020FFF724FFE820FFF705
:10B7E00005FF8520FFF71EFF2046FFF71BFF78208F
:10B7F000FFF718FFCB20FFF7F9FE3920FFF712FF04
:10B800002C20FFF70FFF2046FFF70CFF3420FFF737
:10B8100009FF0220FFF706FFF720FFF7E7FE2020D1
:10B82000FFF700FFEA20FFF7E1FE2046FFF7FAFEF0
:10B830002046FFF7F7FEC020FFF7D8FE2320FFF7D2
:10B84000F1FEC120FFF7D2FE1020FFF7EBFEC5206E
:10B85000FFF7CCFE3E20FFF7E5FE2820FFF7E2FED3
:10B86000C720FFF7C3FE8620FFF7DCFE3620FFF778
:10B87000BDFE4820FFF7D6FE3A20FFF7B7FE552061
:10B88000FFF7D0FEB120FFF7B1FE2046FFF7CAFE5A
:10B890001820FFF7C7FEB620FFF7A8FE0820FFF725
:10B8A000C1FE8220FFF7BEFE2720FFF7BBFEF2207D
:10B8B000FFF79CFE2046FFF7B5FE2620FFF796FE19
:10B8C0000120FFF7AFFEE020FFF790FE0F20FFF70B
:10B8D000A9FE3120FFF7A6FE2B20FFF7A3FE0C20C8
:10B8E000FFF7A0FE0E20FFF79DFE0820FFF79AFE4F
:10B8F0004E20FFF797FEF120FFF794FE3720FFF769
:10B9000091FE0720FFF78EFE1020FFF78BFE2846E2
:10B91000FFF788FE0E20FFF785FE0920FFF782FE65
:10B920002046FFF77FFEE120FFF760FE2046FFF78D
:10B9300079FE0E20FFF776FE1420FFF773FE2846EF
:10B94000FFF770FE1120FFF76DFE0720FFF76AFE7C
:10B950003120FFF767FEC120FFF764FE4820FFF7A4
:10B9600061FE0820FFF75EFE0F20FFF75BFE0C2054
:10B97000FFF758FE3120FFF755FE3620FFF752FE45
:10B980000F20FFF74FFE1120FFF730FEFFF718FEE4
:10B990002920FFF72BFE204605B030BD00030050E4
:10B9A000203D03002F2D2E2C5C3D0300094B01226E
:10B9B0000321DA60C3F808150421C3F81015022129
:10B9C000C3F80022C3F804150021C3F840151A601B
:10B9D000704700BF00900040094B01220321DA604C
:10B9E000C3F808150421C3F810150221C3F800227A
:10B9F000C3F804150021C3F840151A60704700BF52
:10BA000000A0004008B50C220348002104F036FBDA
:10BA1000024B00221A6008BD78D3002084D3002096
:10BA200008B5FFF7C3FFFFF7D7FF4FF0A0434FF074
:10BA30004052C3F81825C3F80C25C3F80825C3F8ED
:10BA40000C25144B144AC3F8242502F58072C3F860
:10BA5000282503F5C833114AC3F83C251049C3F81B
:10BA600038150432C3F84425A2F59D42683A0D48C2
:10BA7000C3F84025C3F84C05C3F8481501F50E413D
:10BA8000B431C3F85415C3F850254FF4F072C3F81D
:10BA9000042508BD00600040031C03001460004042
:10BAA0005411004008900040084B09494FF4F072CF
:10BAB000C3F80825074A0123CB60D3604B6053606D
:10BAC000054A00231360054A1360704700F00140E7
:10BAD0000090004000A000408CD3002088D30020BC
:10BAE000F8B51B481B4C1C4F1C4EDFF878C00123D7
:10BAF00003642364D0F840153B683268C91AD4F84F
:10BB000040359B1A642202FB03F5B5FBF1F5CCF836
:10BB10000050D0F840053860D4F84005104C306033
:10BB2000A06803446068A360084411F5803F02FBED
:10BB300003F36060B3FBF0F3236006D900233B609E
:10BB40003360FFF7B1FFFFF76BFF2846F8BD00BF7A
:10BB50000090004000A000408CD3002088D300203B
:10BB600078D3002084D30020014B1868704700BFB1
:10BB700084D30020A8DF7047ADDF704762DF7047D5
:10BB800070B505468AB00C46002962D0002860D006
:10BB90000388502B37D0572B72D0102B59D1818866
:10BBA0006069002601AA019603F04BFC0822314689
:10BBB0000DEB020004F062FA0223218AA888CDF876
:10BBC0000CD002AA0293FFF7D7FF002841D1A36946
:10BBD000002B3ED0039803F072FC002839D0019B63
:10BBE0000BB101221A701822002104A804F046FAB1
:10BBF00002238DF81030AB88ADF81830019B059406
:10BC00000793A36923E08188606902AA03F019FC05
:10BC10001822002104A804F031FAAB882189ADF87C
:10BC20001830EB88029A05949942079218D12E8A0F
:10BC3000022E15D16AB105F1120003F040FC029BFF
:10BC400048B101221A708DF81060A3690BB104A8E5
:10BC500098470AB070BD187003238DF81030F4E7D0
:10BC6000A2899A42F5D1A369002BF2D000228DF867
:10BC7000102005F1120208922A8AADF82420E6E786
:10BC80008188606902AA03F0DCFB01460028E0D14C
:10BC9000029B1B78002BDCD0182204A804F0EEF9DC
:10BCA00001238DF81030AB88ADF818300594029B55
:10BCB000A6E70000F0B53A4B8FB002AD04460A4645
:10BCC00003F1100C2F46186859682E4603C6083336
:10BCD00063453546F7D1002C5FD0002A5DD013684C
:10BCE000A36121463846FFF749FF002853D1224679
:10BCF000012512F8023B8DF8063001A92846ADF85F
:10BD00000450FFF737FF002845D10146202206A83E
:10BD100004F0B4F922460223ADF8183012F80C3BB7
:10BD20008DF81A30BDF824301E4E6088079623F433
:10BD30004F6323F00F0343F440632B4306A9ADF890
:10BD400024308DF829508DF82A5003F0BCFB10BB2D
:10BD50000146202206A804F091F922460323ADF8FB
:10BD6000183012F8043B8DF81A30BDF82430608882
:10BD7000079623F4875323F01F0343F480532B4388
:10BD8000ADF8243006A940F201138DF82950ADF822
:10BD90002A3003F098FB0FB0F0BD0E20FBE700BF88
:10BDA000743D0300F4000100A8DF7047AADF70476C
:10BDB000AEDF704762DF70472DE9F04FAB4B97B0B5
:10BDC00006AC05460A4603F1100C27461868596868
:10BDD000264603C6083363453446F7D1002D00F0EC
:10BDE0004281002A00F03F814FF0FF3385F8233075
:10BDF00085F824301368C5F82B30002385F82530EA
:10BE000029463846FFF7D6FF0446002840F0278130
:10BE10002A46012712F8013B8DF8123004A9384652
:10BE2000ADF81070FFF7C0FF0446002840F01781FE
:10BE300001461C220FA804F021F99DF83C30109413
:10BE4000AB4623F00C0343F00C038DF83C3003AEFB
:10BE50001BF8133B8DF8163021460223032230468F
:10BE6000ADF81430CDE91244CDE9144404F006F9DC
:10BE70009DF80E2022F01F0242F0030221468DF8A9
:10BE80000E2041F2111814220AA8ADF80C800DF111
:10BE9000140A04F0F3F84FF0F409B5F801000C9718
:10BEA0005B460AAA0FA9CDE90AA6ADF83490FFF7C0
:10BEB0007DFF0446002840F0D28001461C220FA8D6
:10BEC00004F0DCF89DF83C301094AB4623F00C03F2
:10BED00043F00C038DF83C301BF81B3B8DF81630FB
:10BEE0002146052303223046ADF81430CDE9124433
:10BEF000CDE9144404F0C2F89DF80E20ADF80C8092
:10BF000022F01F0242F0030221468DF80E200AA8FB
:10BF1000142204F0B3F8B5F801000C975B460AAAA6
:10BF20000FA9CDE90AA6ADF83490FFF73FFF04460C
:10BF3000002840F094800146032202A804F09EF8F5
:10BF40009DF80A30ADF8088067F3420321461C22B1
:10BF50000FA88DF80A3004F091F89DF83C30109449
:10BF600043F010038DF83C3002ABCDE914342B467E
:10BF70004FF0030B13F8032B8DF8162021465A4679
:10BF80003046CDE90033CDE91244ADF814B004F0E9
:10BF900075F89DF80E20ADF80C8022F01F0242EAE1
:10BFA0000B0221468DF80E200AA8142204F066F830
:10BFB000009BB5F801000C970AAA0FA9CDE90AA6C3
:10BFC000ADF83490FFF7F2FE0446002847D1014651
:10BFD0005A4602A804F052F89DF80A30ADF80880DD
:10BFE00067F3420321461C220FA88DF80A3004F0A3
:10BFF00045F89DF83C30109443F010032F468DF81F
:10C000003C3002ABCDE9143417F80B3B8DF81630F9
:10C01000214604235A463046ADF81430CDE9124487
:10C0200004F02CF89DF80E20ADF80C8022F01F02D1
:10C0300042EA0B0221468DF80E200AA8142204F0D1
:10C040001DF81E230C93B5F80100ADF834903B4663
:10C050000AAA0FA9CDE90AA6FFF7A8FE04462046C2
:10C0600017B0BDE8F08F0E24F9E700BF9F3D030035
:10C0700070B51D4E86B03378ADF806200D460446E7
:10C0800003F0FF0143BB48B3B0F823204FF6FF7322
:10C090009A4225D090F8253013B3BDF80630F42B22
:10C0A00020D8102202A803F0E9FFE3782279059551
:10C0B00043EA0223ADF80830B4F823000DF106037B
:10C0C000012502A904938DF80A50FFF771FE132889
:10C0D00000D1357006B070BD1320FBE70E20F9E7E4
:10C0E0000820F7E70720F5E7A4D30020184B2DE937
:10C0F000F041184ED3F80080174D002437463268BF
:10C100002B689A4221D82B6832689B1A984519D31C
:10C110002A6833689A4202D02C683368E41A9CB1CA
:10C120000E4A3B68116819440D4BA2B21868FFF71C
:10C130009FFF58B93B680B4A23443B601368234474
:10C140001360DCE74446EAE72C600020BDE8F0819C
:10C15000A8C4002094D3002098D3002090D30020BE
:10C16000A0D300209CD300207FB505460C4641B1EA
:10C1700038B10388502B2DD005D8102B0FD0112BA0
:10C1800019D004B070BD572BFBD1434B1B68002B5B
:10C1900079D0FFF7ABFF414B00221A70F1E783889B
:10C1A000A1F8233006238DF80430D4F82B3001A9F0
:10C1B00020469847E5E707238DF80430D1F82B3067
:10C1C000204601A998474FF0FF3384F8233084F8C4
:10C1D0002430D6E7C388B1F807209A4216D1028AE4
:10C1E000022A13D100F11206304603F068F950B16B
:10C1F000012384F825308DF804302B8ACDF80960AE
:10C20000ADF80D30D1E784F82500BAE7B4F80F2077
:10C210009A4210D12A8A022A0DD105F1120630461F
:10C2200003F04DF920B1012384F826300023E2E722
:10C2300084F82600A5E7B4F813209A4210D1D4F868
:10C240002B206AB103238DF8043005F11203CDF8D9
:10C2500009302B8AADF80D3001A92046904790E7B0
:10C26000B4F81B209A428CD1D4F82B30002B88D004
:10C2700004228DF8042005F11202CDF809202A8A43
:10C28000ADF80D2093E702238DF80430D1F82B3060
:10C29000204601A998477EE798D30020A4D3002028
:10C2A000A8DF7047AADF7047AEDF704762DF7047D4
:10C2B0002DE9F04FAF4B97B006AC05460A4603F1A7
:10C2C000100C274618685968264603C6083363458C
:10C2D0003446F7D1002D00F04B81002A00F0488150
:10C2E0004FF0FF3385F8233085F824301368C5F804
:10C2F0002730002385F8253085F826302946384632
:10C30000FFF7D4FF0446002840F02E812A4601267C
:10C3100012F8013B8DF8123004A93046ADF81060D8
:10C32000FFF7BEFF0446002840F01E8101461C2294
:10C330000FA803F0A3FE9DF83C30109423F00C03EB
:10C3400043F00C038DF83C302B464FF0030813F8F4
:10C350000B2B8DF8162003AF214642463846CDE917
:10C360000033CDE91244CDE91444ADF8148003F054
:10C3700085FE9DF80E2022F01F0242EA08022146A7
:10C380008DF80E2041F2111914220AA8ADF80C9074
:10C390000DF1140A03F072FE4FF0F40B009BB5F898
:10C3A00001000C960AAA0FA9CDE90AA7ADF834B08E
:10C3B000FFF778FF0446002840F0D6800146424649
:10C3C00002A803F05BFE9DF80A30ADF8089066F312
:10C3D000420321461C220FA88DF80A3003F04EFEBE
:10C3E0009DF83C30109443F010038DF83C3002ABC4
:10C3F000CDE914342B46214613F8032B8DF8162073
:10C400000222ADF8142038464246CDE90033CDE98A
:10C41000124403F033FE9DF80E20ADF80C9022F08C
:10C420001F0242EA080221468DF80E200AA81422B3
:10C4300003F024FE009BB5F801000C960AAA0FA990
:10C44000CDE90AA7ADF834B0FFF72CFF0446002869
:10C4500040F08A8001461C220FA803F00FFE9DF8D1
:10C460003C30109423F00C0343F00C038DF83C3067
:10C470002B46214613F81B2B8DF816200522ADF80C
:10C48000142038464246CDE90033CDE91244CDE9C7
:10C49000144403F0F3FD9DF80E20ADF80C9022F04B
:10C4A0001F0242EA080221468DF80E200AA8142233
:10C4B00003F0E4FD4FF0140B009BB5F801000C965F
:10C4C0000AAA0FA9CDE90AA7ADF834B0FFF7EAFE32
:10C4D0000446002848D10146424602A803F0CEFD9A
:10C4E0009DF80A30ADF8089066F3420321461C22FD
:10C4F0000FA88DF80A3003F0C1FD9DF83C30109470
:10C5000043F010038DF83C3002ABCDE914342B46D8
:10C51000214613F8132B8DF816200422ADF81420B1
:10C5200038464246CDE90033CDE9124403F0A6FD7A
:10C530009DF80E20ADF80C9022F01F0242EA08028E
:10C5400021468DF80E200AA85A4603F097FD009B5D
:10C55000B5F801000C960AAA0FA9CDE90AA7ADF813
:10C5600034B0FFF79FFE0446204617B0BDE8F08FB9
:10C570000E24F9E7273E030070B51D4E86B03378D0
:10C58000ADF806200D46044603F0FF0143BB48B357
:10C59000B0F823204FF6FF739A4225D090F825304B
:10C5A00013B3BDF80630F42B20D8102202A803F0F4
:10C5B00065FDE3782279059543EA0223ADF808305A
:10C5C000B4F823000DF10603012502A904938DF8A8
:10C5D0000A50FFF769FE132800D1357006B070BD10
:10C5E0001320FBE70E20F9E70820F7E70720F5E71F
:10C5F000BCD3002021492248224B401A2DE9F047A4
:10C60000C008214E214D1F68214932682B68DFF890
:10C610008490DFF884A0DFF88480000440F00300F9
:10C62000FBF799F900242A6833689A4222D83368C4
:10C630002A689B1ABB421AD832682B689A4202D0E9
:10C6400034682B68E41AA4B12B68D9F80010DAF822
:10C650000000A2B21944FFF78FFF60B92B68234492
:10C660002B60D8F800302344C8F80030DBE73C46A4
:10C67000E9E734600020BDE8F08700BFF40703005D
:10C680003C080300ACC40020B0D30020ACD3002091
:10C69000AF3D0300A8D30020B8D30020B4D30020BE
:10C6A000F0B5054685B00C4641B138B10388502B32
:10C6B0003CD005D8102B10D0112B28D005B0F0BDE0
:10C6C000572BFBD1564B1B68002B00F0A080FFF7C7
:10C6D00091FF544B00221A70F0E78388A1F82330B1
:10C6E000D1F82730002BE9D04F4B50485049C01AA1
:10C6F000C008000440F00300FBF720F906238DF882
:10C700000430D4F8273001A920469847D6E70723FC
:10C710008DF80430D1F82730204601A998474FF012
:10C72000FF3384F8233084F82430C7E7C388B1F896
:10C7300007209A4220D1028A022A1DD100F1120656
:10C74000304602F0BCFEA0B1374B38483949C01A18
:10C75000C0080127000484F8257040F00300FBF7AF
:10C76000EDF88DF804702B8ACDF80960ADF80D3026
:10C77000C7E784F82500A1E7B4F817209A421CD136
:10C780002A8A022A19D105F11206304602F097FED4
:10C7900080B1012384F826302448234B2649C01A4F
:10C7A000C008000440F00300FBF7C8F800238DF830
:10C7B0000430D8E784F8260080E7B4F81B209A42BA
:10C7C00010D1D4F827206AB103238DF8043005F185
:10C7D0001203CDF809302B8AADF80D3001A920469F
:10C7E00090476BE7B4F80B209A427FF467AFD4F818
:10C7F0002730002B3FF462AF04228DF8042005F1AE
:10C800001202CDF809202A8AADF80D207BE7022319
:10C810008DF80430D1F82730204601A9984758E711
:10C82000B0D30020BCD30020F40703003C08030071
:10C83000C93D0300D43D0300EF3D0300074B1B5CE3
:10C840001F2B8ABF064A4FF0A04203F01F03D2F805
:10C850000405D840C04300F001007047373E030094
:10C8600000030050074B1B5C1F2B86BF064903F0DB
:10C870001F034FF0A041012202FA03F3C1F80C3567
:10C88000704700BF373E030000030050074B1B5C9E
:10C890001F2B86BF064903F01F034FF0A041012262
:10C8A00002FA03F3C1F80835704700BF373E0300B2
:10C8B0000003005008B50020FFF7E8FF0120FFF754
:10C8C000E5FF0220FFF7E2FFBDE808400320FFF785
:10C8D000DDBF08B50020FFF7C5FF0120FFF7C2FF4D
:10C8E0000220FFF7BFFFBDE808400320FFF7BABFF3
:10C8F0000A4B185C1F288ABF094B4FF0A04300F079
:10C900001F00D3F804250121814021EA02000A40DA
:10C91000C3F80805C3F80C25704700BF373E030075
:10C920000003005038B5074C051E04F1080318BF7A
:10C930001C4623682BB11A6822605B68284698471A
:10C94000F7E738BDC8D3002020B9054B01225A7043
:10C95000FFF7E8BF012802D1014A9070F8E770475D
:10C96000C0D3002020B9034B01225A70FFF7DABF71
:10C97000704700BFC0D3002038B50E4C2378B3B940
:10C980000D486360A3602361E36000F0E5F80546AD
:10C9900003F09AF808B900F0EBF801232370074B75
:10C9A000D3F800340BB10123A370284638BD852588
:10C9B000F5E700BFC0D3002049C9020000000140D4
:10C9C00037B50D4C00230DF107008DF80730FBF74C
:10C9D0001DFEE368013BE360E36833B9074BD3F81E
:10C9E000005415B900F0D6F8A5709DF80700FBF7C4
:10C9F00031FE03B030BD00BFC0D3002000000140B5
:10CA0000012813B50CD0032820D038B9124B0122CD
:10CA1000C3F88020BFF34F8FBFF36F8F02B010BDFC
:10CA20000E4C00230DF107008DF80730FBF7EEFDEB
:10CA300023780BB9FFF7A0FFE3689DF807000133E7
:10CA4000E3600123A370FBF705FEE7E700F090F831
:10CA5000FFF7B6FFE2E700BF00E100E0C0D300202F
:10CA60001FB503788DF800304368019383688DF813
:10CA70000830C368054A0393054B684653F82130D4
:10CA800052F82110984705B05DF804FBD4D300207C
:10CA9000DCD300201FB503788DF800304368019384
:10CAA00083688DF80830C368054A0393054B6846D0
:10CAB00053F8213052F82110984705B05DF804FB77
:10CAC000D4D30020DCD30020F0B5194B90F800C07F
:10CAD000DFF86CE043F82C20164B16460A6943F841
