:020000022000DC
:1060000000000420756302005D6302005F6302000C
:106010006163020063630200656302000000000028
:1060200000000000000000000000000067630200A4
:1060300069630200000000006B6302006D630200F0
:1060400021E602006F630200EDEC0200F1FC0200A9
:106050006F6302006F63020041EA02006F63020097
:106060006F6302006F6302006F6302006F630200E0
:106070006F6302006F6302006F6302006F630200D0
:106080006F630200F97E02006F6302006F6302001B
:10609000217F02006F6302005D2A03006F6302002C
:1060A0006F6302006F6302006F6302006F630200A0
:1060B0006F6302006F630200000000000000000038
:1060C0006F6302006F6302006F6302006F63020080
:1060D0006F6302006F6302006F6302006F63020070
:1060E0006F6302006F6302006F6302000000000034
:1060F000000000006F630200000000006F630200F8
:10610000000000000000000000000000000000008F
:10611000000000000000000000000000000000007F
:10612000000000000000000000000000000000006F
:10613000000000000000000000000000000000005F
:10614000000000000000000000000000000000004F
:10615000000000000000000000000000000000003F
:10616000000000000000000000000000000000002F
:10617000000000000000000000000000000000001F
:10618000000000000000000000000000000000000F
:1061900000000000000000000000000000000000FF
:1061A00000000000000000000000000000000000EF
:1061B00000000000000000000000000000000000DF
:1061C00000000000000000000000000000000000CF
:1061D00000000000000000000000000000000000BF
:1061E00000000000000000000000000000000000AF
:1061F000000000000000000000000000000000009F
:10620000354936480A1A02D0072291438D4634494F
:1062100034480A1A06D00722914381F309880222E2
:1062200082F3148830483149314A00F044F831484B
:106230003149324A00F03FF831483249324A00F0E1
:106240003AF832483249334A00F035F83248334997
:10625000334A00F030F833483349344A00F02BF821
:1062600033483449344A00F026F83448344900228F
:1062700000F02CF833483449002200F027F8334866
:106280003349091A082902DB002202604160314AC1
:1062900090471F481F49884205D00268043003B464
:1062A000904703BCF7E700208646EC46002000211B
:1062B000294A9047FEE7884207D0521A05D0037852
:1062C00001300B700131013AF9D17047884202D098
:1062D00002700130FAE770470000042000E003205C
:1062E00000000420000004201C880300005000204F
:1062F00040C50020D4630200D4630200A437030029
:106300001C8803000050002000500020C03803000B
:10631000C0380300C0380300C0380300C038030091
:10632000C0380300C0380300C03803001C880300D5
:106330005CFD030040C5002040C5002040C5002092
:1063400024DE002024DE002024DE002024DE0020C5
:1063500024FE00209D630200BD120300FEE7FEE75D
:10636000FEE7FEE7FEE7FEE7FEE7FEE7FEE7FEE705
:10637000704700BF1048804710484FF0070188431E
:1063800085460F4880470F48016841F4700101605D
:10639000BFF34F8FBFF36F8FFFF732BF0A480B4930
:1063A0000B4A884207D0521A05D0037801300B708F
:1063B0000131013AF9D170477163020000000420F5
:1063C000ED8E020088ED00E0C03803000050002090
:0463D0000050002059
:1063D4007047704700B583B0044B00934023044AD0
:1063E40000F034F803B05DF804FB00BFF963020069
:1063F40044C500200AB3F8B50F4614460326002509
:1064040003E00E4B01221A70B4B122467919002020
:106414000BF020F80544241A0028F2D1074B1B780E
:1064240053B14FF47A40064B43F001039847013EC1
:10643400E7D1024B00221A70F8BD704740C5002016
:10644400C038030008B50BF03DF808BDF0B595B0B1
:106454000F4615461C46084602F0E6FB0E950F94BF
:10646400002410948DF8444012941A9B13932346ED
:10647400082208A9384602F001FC0A9B0B93BDF8D8
:106484002430ADF83030BDF82630ADF832308DF818
:1064940035409DF8203003F00303012B06D0022B76
:1064A40021D0384602F0C6FB15B0F0BD089DC5F3F7
:1064B40095259DF82030C3F3C2038DF83430BDF820
:1064C4002040C4F383140823A2000DEB03013846D3
:1064D40002F0D4FB0EAB00930BAB224602A9284674
:1064E40000F0E6FEDDE7BDF82250AD099DF820304E
:1064F400C3F3C2038DF8343008262C46082D28BF78
:1065040008243346224602A9384602F0B7FB264443
:106514002D1B0EAB0BAA214602A800F02DFF002D67
:10652400EBD1BEE708B5FFF78DFF0421064800F064
:106534002BFE002803DB054B01225A7108BD0449D8
:1065440041200AF083FEF6E7B03803000050002033
:10655400D4380300037813F0040F18D003F00303B6
:10656400012B03D0022B0AD0012070470388C3F308
:1065740083130A68134402330B6001207047428876
:106584000B6803EB921302330B6001207047002069
:1065940070470000002002E001238BB90130092874
:1065A4000CDC084BD3F81034002BF5D0DB681A79D7
:1065B400824201D01B68F7E70023EEE74FF0FF307B
:1065C400704700BF54C6002030B585B02C4C04F58C
:1065D400836001F06AFF04F2144001F066FF606812
:1065E4000390A5682840023004EB8000043003A91E
:1065F400FFF7B0FF88B303982840831C204800EBC2
:1066040083000430F3E7039B591C03912B400233AE
:106614001B4901EB83035B684DF822300132012AE8
:10662400F1D99DF8003003F00303012B17D0022B9E
:106634001FD1BDF80640BDF802309B090333039A0D
:1066440002EB930303930F4801F034FF10B10C4B9A
:10665400039A5A60204605B030BD0022DFE7BDF83A
:106664000640BDF80030C3F38312039B1344039325
:10667400E9E705494FF4BF700AF0E8FD0024E2E7BA
:1066840054C6002068CA00204439030010B50B4BDF
:10669400FF229A6000221A605A60C3F81824C3F8D3
:1066A400142483F82024064802F072FA044608B140
:1066B400204610BD034802F049FBF9E754C6002008
:1066C4000C3803009C3903000248034BC01AC0086D
:1066D400704700BFB03803002038030099B110B5EB
:1066E4000446FFF7F1FF002383420AD2074A32F837
:1066F40023102268914201D00133F5E72360002082
:1067040000E0052010BD0020704700BF00500020AD
:1067140000B583B0019001A8FFF7E0FF30B9019AFA
:10672400034B53F8320003B05DF804FB0020FAE792
:1067340020380300094B03EBC0000139032909D8B1
:10674400DFE801F0020A040602207047007970476E
:1067540040797047002070470420704720380300B8
:10676400034B58681B68984214BF002001207047EF
:1067740054C600202DE9F04186B0FFF7F1FF002850
:1067840040F02581054693480023C0F81834BFF330
:106794004F8F4368059384682340023300EB8300E2
:1067A400043005E0234002338A4800EB8303181DBC
:1067B40005A9FFF7CFFE00282FD0864BD3F8183455
:1067C4006BBB844B1A68059B9A42EBD8814B5A6089
:1067D400F9E0059B591C0591234002337D4901EBE7
:1067E4008303596802AB43F822100132012AF0D91D
:1067F4009DF8083003F00303022B12D0012B7BD049
:10680400744BD3F81044002C00F0CE8023689B68AE
:1068140020469847E3681C68F5E70022E6E7002273
:10682400E4E7BDF80A309F093E46502F28BF5026A2
:1068340066F38F13ADF80A3006F10801664802F0DA
:10684400C2F9054600283DD002F0EEF900230822E3
:106854000DEB0201284602F0FBF9059A24EA020333
:1068640001339B009E423AD933B122400232594946
:1068740001EB8202111D00E058494BB1DCB24BB16F
:10688400DFF858814BB1F6B2DBB2F31ADEB205E0A1
:10689400F4B2F4E74FF00008F4E700260823224698
:1068A400284602F0D5F904F10803B8F1000F04D02A
:1068B40032464146284602F0CBF90337059B03EBE9
:1068C40097070597002D9BD0424BD3F81044D3F87B
:1068D4001834002B47D0284602F0ACF96EE002EAE7
:1068E400040302333B4901EB83010823324604319C
:1068F400284602F0ADF9E0E7BDF80820C2F383139F
:10690400062B28BF062363F38912ADF8082002334F
:106914009900314802F057F905460028D2D002F018
:1069240083F9002308220DEB0201284602F090F9B6
:1069340000260827BDF80830C3F38313B342C1D936
:10694400059B5A1C059223400233224901EB830123
:106954003B4604221144284602F07AF904370136F2
:10696400E8E7E3681C684CB1E3685B79002BF8D076
:1069740023681B68294620469847F2E7284602F018
:1069840059F900238DF807300DF1070001F0D2FC0E
:10699400104BD3F8183413B90E4B059A5A609DF86E
:1069A400070001F0FBFC09E00D4B0E48C01AC008BB
:1069B40000040D4940F0020000F018F8FFF7D0FE83
:1069C40080F00100C5B2284606B0BDE8F08100257C
:1069D400F9E700BF54C600200C38030060C600204D
:1069E4002038030050380300A83903002DE9F04390
:1069F40083B005460E46DFF80881D8F80840002326
:106A04008DF807300DF1070001F094FCD8F8007000
:106A1400D8F80820D8F80430DB1B13440133012BC9
:106A240017D8DFF8DC8008F21C490121484601F040
:106A340026FDFFF7C9FD0146484601F020FDD8F8C0
:106A44000820D8F80430D8F800105B1A1344013336
:106A5400E5E70022012363F3010242F004026FF32D
:106A64008912DFF89C80D8F80010D8F808300B4061
:106A7400023308EB83035A600231C8F800109DF812
:106A8400070001F08BFC4FEA1549002108F21C4075
:106A940001F0CAFC80F31008FFF716FE814529D2E5
:106AA4007B1C234049EA08401549023301EB830368
:106AB400586004EA0703023301EB83031A7965F390
:106AC400C5021A719A886FF389129A805A6866F31C
:106AD4009F225A60012060F301026FF382021A714F
:106AE40091F820341BB1FFF745FE0028FBD103B019
:106AF400BDE8F083034940F2A3100AF0A7FBCFE7F7
:106B040054C60020443903002DE9F04F85B0834674
:106B1400019192464E4CA56802F103094FEA990986
:106B240009F1020700238DF80F300DF10F0001F079
:106B340001FCD4F80080A2686368A3EB0803134443
:106B440001339F4213D9424C04F21C4601213046C2
:106B540001F095FCFFF738FD0146304601F08FFC4B
:106B6400A268636821685B1A13440133E9E70022D1
:106B7400022363F3010242F0040269F39F52344C8E
:106B84002168A3680B40023304EB83035A600F446B
:106B940027609DF80F0001F001FC08F10203A468CE
:106BA4002B40E41A0134A400A2453CD802332848FF
:106BB40000EB83005246019904300CF0A0F94FEA2F
:106BC4001B46234C002104F21C4001F02DFC80F3F1
:106BD400100008F101032B4046EA0046023304EB9F
:106BE40083035E6005EA0805023504EB85052B790D
:106BF4006BF3C5032B71AB886FF38F13AB80E988FC
:106C04006AF38F11E980022262F301036FF38203B6
:106C14002B7194F820341BB1FFF7ACFD0028FBD195
:106C240005B0BDE8F08F0A4E023306EB830022461E
:106C3400019F394604300CF062F9AAEB04023B468A
:106C44002344194606F10C000CF059F9B7E700BFCC
:106C540054C600202DE9F04383B005460E46019248
:106C6400DFF82481D8F8084000238DF803300DF1B3
:106C7400030001F05FFBD8F80070D8F80820D8F8BA
:106C84000430DB1B13440133022B17D8DFF8F880E0
:106C940008F21C490121484601F0F1FBFFF794FC7E
:106CA4000146484601F0EBFBD8F80820D8F8043038
:106CB400D8F800105B1A13440133E5E700220123DE
:106CC40063F3010242F0040263F389122E49086857
:106CD4008B680340023301EB83035A60033008607E
:106CE4009DF8030001F05AFBBA1C00237BB904EAA7
:106CF400020102A800EB830050F804CC881C22494E
:106D040001EB8001C1F804C001330132EEE74FEA20
:106D1400154800211D4801F087FB80F31009FFF797
:106D2400D3FC804529D27B1C234048EA09401649FC
:106D3400023301EB8303586004EA0703023301EBD7
:106D440083031A7965F3C5021A719A88012060F3E6
:106D540089129A805A6866F39F225A6060F301028E
:106D64006FF382021A7191F820341BB1FFF702FD10
:106D74000028FBD103B0BDE8F083054940F2A3101D
:106D84000AF064FACFE700BF54C6002070CA00209E
:106D9400443903002DE9F04385B005460E460292BE
:106DA4000393DFF82C81D8F8084000238DF80730CE
:106DB4000DF1070001F0BEFAD8F80070D8F80820E9
:106DC400D8F80430DB1B13440133032B17D8DFF846
:106DD400008108F21C490121484601F050FBFFF7ED
:106DE400F3FB0146484601F04AFBD8F80820D8F8DE
:106DF4000430D8F800105B1A13440133E5E700228D
:106E0400012363F3010242F00402022363F38912B3
:106E14002F4908688B680340023301EB83035A60EF
:106E2400043008609DF8070001F0B8FABA1C00238A
:106E3400012B0FD804EA020104A800EB830050F8E8
:106E440008CC881C224901EB8001C1F804C001333D
:106E54000132EDE74FEA154800211E4801F0E4FA3B
:106E640080F31009FFF730FC80452AD27B1C2340B5
:106E740048EA09401649023301EB8303586004EAE7
:106E84000703023301EB83031A7965F3C5021A7110
:106E94009A88022060F389129A805A6866F39F22C6
:106EA4005A60012060F301026FF382021A7191F8B3
:106EB40020341BB1FFF75EFC0028FBD105B0BDE810
:106EC400F083054940F2A3100AF0C0F9CEE700BFF1
:106ED40054C6002070CA0020443903002DE9F04351
:106EE40087B005460E46019202930E9B03930F9BB7
:106EF4000493109B0593DFF82C81D8F808400023F5
:106F04008DF803300DF1030001F014FAD8F8007085
:106F1400D8F80820D8F80430DB1B13440133062BBF
:106F240017D8DFF8008108F21C490121484601F016
:106F3400A6FAFFF749FB0146484601F0A0FAD8F843
:106F44000820D8F80430D8F800105B1A1344013331
:106F5400E5E70022012363F3010242F00402052362
:106F640063F389122F4908688B680340023301EBED
:106F740083035A60073008609DF8030001F00EFA9D
:106F8400BA1C0023042B0FD804EA020106A800EB64
:106F9400830050F814CC881C224901EB8001C1F80D
:106FA40004C001330132EDE74FEA154800211E48C1
:106FB40001F03AFA80F31009FFF786FB80452AD2E4
:106FC4007B1C234048EA09401649023301EB830342
:106FD400586004EA0703023301EB83031A7965F36B
:106FE400C5021A719A88052060F389129A805A683A
:106FF40066F39F225A60012060F301026FF382025C
:107004001A7191F820341BB1FFF7B4FB0028FBD1AF
:1070140007B0BDE8F083054940F2A3100AF016F961
:10702400CEE700BF54C6002070CA002044390300D4
:107034002DE9F04389B005460E4602920393109B56
:107044000493119B0593129B0693139B0793DFF8FC
:107054002C81D8F8084000238DF807300DF1070083
:1070640001F068F9D8F80070D8F80820D8F804308E
:10707400DB1B13440133072B17D8DFF8008108F218
:107084001C490121484601F0FAF9FFF79DFA01462F
:10709400484601F0F4F9D8F80820D8F80430D8F8B4
:1070A40000105B1A13440133E5E70022012363F364
:1070B400010242F00402062363F389122F4908688F
:1070C4008B680340023301EB83035A600830086085
:1070D4009DF8070001F062F9BA1C0023052B0FD8B4
:1070E40004EA020108A800EB830050F818CC881CBD
:1070F400224901EB8001C1F804C001330132EDE7FC
:107104004FEA154800211E4801F08EF980F310095A
:10711400FFF7DAFA80452AD27B1C234048EA09406B
:107124001649023301EB8303586004EA0703023370
:1071340001EB83031A7965F3C5021A719A88062054
:1071440060F389129A805A6866F39F225A6001207C
:1071540060F301026FF382021A7191F820341BB1BB
:10716400FFF708FB0028FBD109B0BDE8F08305490F
:1071740040F2A3100AF06AF8CEE700BF54C600201C
:1071840070CA00204439030010B50446FFF702FA20
:10719400B0F1FF3F0ED0E36818710A4BD3F81034F6
:1071A4004BB1DA68E36812681A60064BD3F81034FE
:1071B400DB681C6010BD034BC3F81044E368002275
:1071C4001A60F7E754C6002010B5094BD3F81044F1
:1071D400012283F820244CB1E36801225A71236808
:1071E4005B6820469847E3681C68F4E710BD00BF5D
:1071F40054C6002070B582B004460D46C388A3B9B6
:10720400217A05290FD0637ABBB9227A104B53F83F
:1072140022600021A088FFF77BFA034632460D491D
:10722400284601F023FA02B070BD0B4A00920B4AC3
:107234000B49284601F01AFAE2E7A088FFF77AFA28
:10724400084B53F820200849284601F00FFADCE7E0
:10725400343A0300283A03001C3A0300FC390300C3
:10726400043A0300C0390300243A030010B50C4665
:10727400037A052B0FD0437A3BB90A49204601F023
:10728400F5F9204601F0DEF910BD074A074920460A
:1072940001F0ECF9F1E7002AF3D00249204601F0AD
:1072A400E5F9EEE7F83903001C3A0300243A030039
:1072B4002DE9F04385B081460D4617461E460C9CC9
:1072C40094F80C800023237321463046FFF792FF85
:1072D400062F09D8DFE807F00412181F28334000EE
:1072E4004946204601F0C2F9002221463046FFF704
:1072F400BDFF84F80C8005B0BDE8F0832A684946D8
:10730400204601F0B3F9EFE76B682A684946204646
:1073140001F0ACF9E8E7AB6800936B682A6849466A
:10732400204601F0A3F9DFE7EB680193AB68009313
:107334006B682A684946204601F098F9D4E72B691E
:107344000293EB680193AB6800936B682A68494623
:10735400204601F08BF9C7E76B6903932B6902930D
:10736400EB680193AB6800936B682A684946204632
:1073740001F07CF9B8E70000082900D970472DE92D
:10738400F0471D4690460E46074693F80C9000249D
:107394001C7319461046FFF72DFF04E01C492846CC
:1073A40001F064F90134072C07D8B442F6D23A5DEF
:1073B4001849284601F05AF9F4E71749284601F01C
:1073C40055F9002409E082460BF06EFD78B152466F
:1073D4001249284601F04AF90134072C0FD8B44267
:1073E40008D2385D7E28EED94FF02E0AEFE74FF031
:1073F4002E0AECE70A49284601F038F9ECE70122A5
:1074040029464046FFF732FF85F80C90BDE8F08727
:10741400EC390300E4390300F0390300F4390300C4
:10742400BC4803002DE9F04784B0002401E0013496
:10743400E4B2394B1B78A3426BD9384B1D6805EB7A
:10744400C40A15F834000122A0F1200CC0F1200177
:1074540002FA0CF322FA01F10B4382403049D1F8CD
:1074640000C049680CEA020601EA030756EA070E5F
:10747400DDD0DFF8ACE02CEA020221EA0303CEF807
:107484000020CEF8043007F0B3FA844615F83430FF
:107494000122A3F12005C3F1200002FA05F522FA26
:1074A40000F045EA00019A401E48056840682A40F9
:1074B400029201EA000203925FFA8CF10022CDE904
:1074C4000012A3F12001C3F120024FF0000900983B
:1074D40000FA01F149EA010920FA02F249EA020933
:1074E40000FA03F8DDE902124A4508BF41459ED17E
:1074F4009AF80110012914BF00210121614514BF2C
:1075040000210121DAF80420002A90D0184690477F
:107514008DE704B0BDE8F08710CB002048CB0020F5
:1075240040CB002038CB002070B506460123A0F1E3
:107534002004C0F1200203FA04F423FA02F21443F3
:1075440003FA00F51B4800F051FD78B91A4A136894
:10755400526803EA050002EA0401014307D0164910
:1075640023EA050322EA04040B604C6070BD304634
:1075740007F03EFAA0B1114B19685A682943224317
:1075840019605A600C4A136851682B430C4313600A
:10759400546000220A4B1968064800F009FDE5E72B
:1075A400064B19685A6821EA050122EA04021960A7
:1075B4005A60E7E718CB002040CB002038CB0020EE
:1075C40014CB0020042A3CD970B582B006460D467F
:1075D400144607F0CFF828B31B4B1E601B4B1D70DD
:1075E4001B4B1C60002200231A49C1E900231A49DD
:1075F400C1E900236C1EE4B2D5B106EBC40300223A
:107604008DF8062003228DF804209B788DF8053030
:10761400124A01A916F8340007F0B6F8034668B90F
:107624002546E7E707F066F803460028D4D005E0CE
:107634000B4A00210B4800F0A5FC0346184602B093
:1076440070BD07231846704748CB002010CB00209C
:1076540014CB002038CB002040CB00202D75020035
:1076640029740200E83A030010B50C4B1B686BB197
:1076740000240B4B1B78A3420DD9084B1B68012136
:1076840013F8340007F01AF90134F2E70549BA2077
:1076940009F0DCFDECE7002010BD00BF48CB002062
:1076A40010CB0020983A030082B001238DF80730F4
:1076B4009DF80730134B186059609A6044F2010337
:1076C400984213D044F20203984207D10D4BDA607A
:1076D400DA6812889A61DA685268DA6172B69DF8DB
:1076E4000730002BFBD162B602B07047054B1A611C
:1076F4001A6992685A611A6912689A611A69526819
:10770400DA61EBE74CCB002000B583B00290009126
:10771400019244F2010071466A4600F003F803B096
:1077240000BD00002DE9F04184B004460E46154624
:1077340072B6FFF749FDFFF71DF80028FBD141F2AF
:1077440001039C422FD014D944F201039C4235D04A
:1077540044F202039C424DD12C482D4BC01AC00860
:1077640000042B886A682B4940F00100FFF712FBE4
:107774000BE0012C3ED12548254BC01AC00800045B
:10778400254940F00100FFF731F9244B1B6813F041
:10779400010F00D000BE2A4631462046FFF784FF81
:1077A40004B0BDE8F0811948194BC01AC0080004A0
:1077B4001B4940F00100FFF719F9E6E7134F144B9A
:1077C400FF1AFF083F0447F00107D5F80880404638
:1077D40001F028FB6B682A68029601920093034625
:1077E400424610493846FFF779FB0F493846FFF700
:1077F400FDF8CAE70548064BC01AC0080004324623
:107804000A4940F00100FFF725FABEE750380300AB
:1078140020380300303B0300EC3A0300F0ED00E0B5
:107824000C3B03004C3B0300743B0300883B030008
:107834000B4651B15AB1511E0A420AD103608180EC
:1078440000238360C360184670470E2070470920E8
:107854007047092070478268C3689B1A82889A42DD
:1078640001D20420704710B40368C46822409954BC
:10787400C3680133C36000205DF8044B704782681D
:10788400C3689A420DD010B4026883688488234088
:10789400D35C0B7083680133836000205DF8044B74
:1078A400704705207047000030B4044612F003000E
:1078B40012D14B1CDB009BB2084D2A601A44084BC2
:1078C4001A600023074A1370074A1370074B1C8081
:1078D400074B198030BC70470720FBE774CB0020AE
:1078E40070CB00206CCB00207CCB002078CB002018
:1078F4007ACB002038B502E00023134A1370124BF0
:107904001A78D2B2114B1B78DBB29A421AD00E4CC1
:107914002378DBB20E4A10680E4A15880E4A1268A4
:1079240002EBC30152F83320898803FB050090471A
:107934002378DBB299B2094A12889142DCD201332E
:10794400DBB2DAE738BD00BF7CCB00206CCB002073
:1079540070CB002078CB002074CB00207ACB0020A1
:10796400034BC3F80805034BC02283F81123704767
:107974000010014000E100E010B50B4B4FF48032E1
:10798400C3F84423C3F80423084A4FF40031C2F86F
:107994008011116001241C604FF43C60044B2343AC
:1079A4009847044B1C7010BD0010014000E100E03A
:1079B400A03B03008DCC002070B50E4B4FF4003279
:1079C400C3F880200C4D4FF48033C5F84833C5F814
:1079D400083301266E60094C34434FF43C60A047E1
:1079E400AE600025064B1D604FF43C60A047054B7C
:1079F4001D7070BD00E100E000100140A03B0300D9
:107A04009CCC00208DCC002010B4114B1C685CB1C0
:107A1400026823689A4218D89A1A2260C4610C4BEF
:107A240018605DF8044B70471860FAE7521A1C4658
:107A3400DB6913B119689142F8D313B11968891A33
:107A440019600260C361E061EBE72346F1E700BF20
:107A5400A0CC002070B5184B1E683446354624B1BE
:107A6400844202D02546E469F9E714B3A5420CD058
:107A74002168E369EB6113B11A680A441A600E4B7A
:107A84001868801B18BF012070BDF3690A4A13608F
:107A9400002BEDD10123094A9360094A00211160AA
:107AA400084A13704FF43C60074B43F001039847B6
:107AB400DEE70020E8E700BFA0CC00200010014072
:107AC4009CCC00208CCC0020A03B0300024B4FF444
:107AD4000032C3F80021704700E100E0024B4FF48C
:107AE4008012C3F80021704700E100E008B5436943
:107AF4008069984708BD00001B4B1868002832D0E5
:107B040070B51A4BD3F80445194B1B68E41A24F0DA
:107B14007F44002504E000230374FFF7E7FF3046A9
:107B240048B10368A34206D8E41A1D44C669037C1D
:107B3400002BF4D0EFE70F4B1A780F4B1B789A42C7
:107B440007D00D4B1A780D4B43F82250FFF7C6FFB0
:107B540070BD0133DBB2084A1370022BF1D1134616
:107B640000221A70EDE77047A0CC002000100140FD
:107B74009CCC002098CC002099CC002090CC0020F4
:107B8400104B1B78104A1278934217D00133DBB2A2
:107B94000C4A1370022B0DD00A4B1A780B4B53F876
:107BA400223003600A4A11680B4423F07F431360B8
:107BB40001207047134600221A70EDE7002303608A
:107BC4001846704798CC002099CC002090CC002017
:107BD4009CCC002070B400250E4B1B68BBB11C6804
:107BE400844212D8001B254400241C60DE69094C21
:107BF4002660DC68002CEFD06E1826F07F465E60AD
:107C04009C601468DC611360E6E7241A1C6070BC95
:107C1400704700BFA0CC0020F8B50546414B1F6853
:107C2400002659E0404A11784B1CDBB2137092785D
:107C3400934228D04A000A44D0003B4B03449C683A
:107C44001B79022B23D0032B30D0012B44D1237C6E
:107C5400002B41D1DFF8D0C04A005018C300634460
:107C6400D86860601869A0605B69E3601144CB0068
:107C74009C44DCF81830A3612C4B1B78002B30D0CB
:107C8400002363602DE0284B00221A70D2E72046BF
:107C9400FFF7E0FE034600B93346002222741E4675
:107CA4001AE000221A74DA691E4B1A601D4B1B6815
:107CB400002BF6D110E0521A22F07F42A3689342BF
:107CC4001CD99A1A226000236360A36001222274E3
:107CD400E3612046FFF798FE9DB1002DA2D02C460B
:107CE400ED696168124B1A688B1A23F07F431148BF
:107CF4008342E0D8A26813442360E4E700232360AE
:107D0400E1E7094B1A785B789A42E6D12EB9054B24
:107D14001B68BB4203D0012000E00120F8BD002015
:107D2400FCE700BFA0CC002080CB00208CCC00203E
:107D34009CCC0020FEFF7F00F8B51C4B1B688BB366
:107D44001F681B4BD3F804551A4B1C682E1B26F0D6
:107D54007F460336184B1B780BB3B7422CBFE4198C
:107D6400A41924F07F44124BC3F84045D3F80435DA
:107D74005B1B23F07F430333641B24F07F44A34243
:107D84000CD90B4BD3F80425C3F840254FF43C60C1
:107D94000A4B43F001039847FFF798FEF8BDFFF73D
:107DA400EBFDDAE7FFF708FEF8E700BFA0CC002000
:107DB400001001409CCC00208DCC0020A03B03008F
:107DC40070B582B0002301930D4B1E680D4B1D68E6
:107DD4006846FFF7D5FE044660B90198FFF71CFF1B
:107DE40000B914B12846FFF7A7FF074B00221A7009
:107DF40002B070BD01AA31460098FFF7EBFEECE734
:107E04009CCC0020A0CC00208CCC0020014B5870CE
:107E1400704700BF80CB00200B4A53780133DBB29C
:107E240092789A420CD0084A12789A420AD0037087
:107E34000548437803EB4303DA00104404307047E9
:107E44000023F0E70020704780CB0020F0B583B01A
:107E540007460E4615461C4600238DF806300DF1E4
:107E6400060000F067FA0DF10700FFF7D5FFB0B187
:107E74000122027047600C4AD2F804258260C66071
:107E8400056144619DF80700FFF7C0FF00249DF8D9
:107E9400060000F083FA24B1204603B0F0BD0424A8
:107EA400F5E7FFF71BFEF7E70010014030B583B09C
:107EB40004460D4600238DF806300DF1060000F04F
:107EC40039FA0DF10700FFF7A7FF70B105704460A0
:107ED4009DF80700FFF79AFF00249DF8060000F0C4
:107EE4005DFA24B1204603B030BD0424F5E7FFF762
:107EF400F5FDF7E708B5084B0022C3F84021C3F8A5
:107F04004421C3F84821C3F84C21C3F80021C3F825
:107F14000421FFF7F1FD08BD0010014008B5FFF78B
:107F24004FFF08BD10B5FFF747FD0F4B00241C7031
:107F34005C700B229A700D4B1C600D4B1C700D4B2A
:107F44001C700D4B4FF48012C3F88021C02183F8BC
:107F540014131A602046FFF703FD084BD3F80425D9
:107F6400074B1A60204610BD80CB0020A0CC002017
:107F740098CC002099CC002000E100E000100140E2
:107F84009CCC0020094B9B7843B14AB150B10368A3
:107F9400187C48B9187459745A617047082070479E
:107FA40007207047072070470820704780CB0020C7
:107FB4000D4B9B7883B188B1042911D943698BB1E6
:107FC40010B5437C012B05D0002413462246FFF74D
:107FD4003DFF10BD0C46F8E70820704708207047A5
:107FE400072070470820704780CB002008B5094B54
:107FF4009B7843B148B143694BB100230374022118
:10800400FFF754FF08BD0820FCE70820FAE7082022
:10801400F8E700BF80CB002000B583B00378012BC4
:1080240007D05AB2002A55D0022B39D003B05DF8DC
:1080340004FB436819783648FFF70DFC90B1012220
:108044008DF800200190334B1B6868469847304AEE
:108054009168D3685B1A92889A4210D22E4B0122FF
:108064001A70E3E72A4B9A68DB689A42EFD0002340
:108074008DF80030274B1B6868469847E7E7274B85
:108084001B78274AD35C2BB101222649264807F0E6
:108094008FFCCBE701222349244807F053F9C5E7B5
:1080A40002238DF80030C36801931C4B1B781C4AD3
:1080B400D35C4BB101221B491B4807F079FC154BDB
:1080C4001B6868469847B1E701221649174807F02C
:1080D40039F9F4E716491748FFF7D1FB38B1032300
:1080E4008DF800300B4B1B68684698479EE70B4B96
:1080F4001B780B4AD35C2BB101220D490A4807F0C7
:10810400E1FB93E701220A49084807F0B3F88DE739
:10811400A8CC0020A4CC0020B8CC0020085000201B
:108124007CD40020CCCC00200C5000201450002023
:10813400D0CC0020BCCC0020F0B589B02E4C2260FD
:10814400002957D00C461F4605468A8809682B48E3
:10815400FFF76EFB024610B1104609B0F0BDA289CC
:10816400A1682748FFF764FB02460028F4D16C4657
:10817400244E0FCE0FC496E80F0084E80F006B69FD
:1081840006932B7C003318BF01238DF814308DF82F
:108194001C706B7C2BB30E238DF81530EB680293A7
:1081A400AB6803932B6801936B680093164A694686
:1081B400164806F091F902460028CDD1144B00214F
:1081C40019702B68B3F1FF3FC6D0104B1B78114ACE
:1081D400D35C43B101221049104807F0E9FB024681
:1081E400BAE70023D8E701220B490D4807F0AAF8A3
:1081F4000246B1E70722AFE7A4CC0020A8CC0020B8
:10820400BCCC0020A83B03001D80020008500020C5
:10821400B8CC00207CD40020CCCC00200C50002012
:108224001450002038B5044648B1144B1D7821463B
:108234001348FFF724FB044635B9204638BD1149DD
:10824400C22009F003F8F0E70C4B00221A700E4B21
:108254001B780E4AD35C5BB101220D490D4807F02F
:10826400A7FB0028E9D0074ACE21FFF74DFAE4E73F
:1082740001220749084807F065F8F2E7B8CC002066
:10828400A8CC0020C83B0300085000207CD4002068
:10829400CCCC00200C5000201450002010B5014616
:1082A4001648FFF7D8FA044608B1204610BD144B0F
:1082B4001B78144AD35CB3B1134807F0F5FA0028CD
:1082C400F3D112490D48FFF7DAFA0028EDD10C4B2F
:1082D4001B780C4AD35C53B101220C490A4807F0BD
:1082E400F1FA0446E1E70A4806F0B8FFE7E701229D
:1082F4000649074806F0BEFF0446D6E7BCCC00207A
:10830400085000207CD400200C500020D0CC002049
:1083140014500020EFF30583C3F308033BB9EFF3D4
:10832400148313F0010F0CBF0120002070470120BB
:108334007047000038B50446FFF7ECFF01281CD154
:10834400EFF3108272B6114B9B68DBB90F4901231E
:108354008B600F4BD3F880000E4D28400860C3F8A3
:108364008050D3F8840048604FF0FF31C3F8841084
:108374000023237002B962B638BD0749432008F0D0
:1083840065FFDDE701232370F4E700BFD4CC0020B0
:1083940000E100E0FC06FFBD183C030010B50446F4
:1083A400FFF7B8FF012811D10B4B9B686BB164B97F
:1083B400EFF3108172B6084B1868084A10605868C9
:1083C400506000229A6001B962B610BD0449512080
:1083D40008F03CFFE8E700BFD4CC002000E100E057
:1083E400183C030008B54B0901F01F01012202FAF1
:1083F40001F100EB830000F021F808BD08B54A093B
:1084040001F01F01012303FA01F1C94300EB8200CB
:1084140000F02AF808BD4B0950F8230001F01F01B1
:10842400C84000F00100704750E8002F0B4640E8B8
:10843400003C9CF0000FF7D11046704750E8003F15
:1084440043EA010240E8002C9CF0000FF6D11046EC
:10845400704750E8002F02EA010340E8003C9CF01A
:10846400000FF6D11046704750E8003F03EA0102BE
:1084740040E8002C9CF0000FF6D11046704750E8FD
:10848400003F03EB010240E8002C9CF0000FF6D102
:108494001046704750E8003FA3EB010240E8002C6F
:1084A4009CF0000FF6D11046704708B50121FFF784
:1084B400C5FF08BD08B50021FFF7CBFF08BD0000CC
:1084C40038B50D46044620B1E368208A00FB053028
:1084D40038BD0249E82008F0B9FEF5E74C41030035
:1084E40038B50C46054630B1E868241A288AB4FB2E
:1084F400F0F0C0B238BD0249F52008F0A7FEF3E75A
:108504004C41030000283CD010B504460368BBB1BD
:108514006368D3B1A368F3B1E36813B3238A33B3B5
:10852400A2686368D21AD2B221680B60531EDBB210
:108534001AB321680A68501C086013701A46F5E7DC
:108544001149FF2008F082FEE2E70F494FF48070E2
:1085540008F07CFEDEE70C4940F2011008F076FEDC
:10856400DAE709494FF4817008F070FED6E706494E
:1085740040F2031008F06AFED2E723680020187165
:1085840010BD0E20704700BF4C41030030B583B0CE
:108594000446E8B100238DF807300DF10700FFF71A
:1085A400C9FE2268136861688B4217D9591E11608D
:1085B40013F8011C2046FFF783FF0546A3682268D1
:1085C40011685B1ADBB21179994208D2137106E083
:1085D40006494FF4927008F039FEDBE700259DF858
:1085E4000700FFF7DBFE284603B030BD4C41030013
:1085F40070B582B00E460546B0B1DEB100238DF8E9
:1086040007300DF10700FFF795FE2B681C68621C0C
:108614001A6031462846FFF763FF20709DF8070073
:10862400FFF7BCFE02B070BD054940F2471008F0E8
:108634000DFEE2E702494FF4A47008F007FEDDE7FF
:108644004C41030010B5044640B1A2682AB16369E5
:108654002168206998470023A36010BD0249312096
:1086640008F0F4FDF1E700BF9C4103000EB430B5FF
:1086740082B0059D044690B16369ABB12368C3B170
:108684006368DBB135B106AB019301AA29462046E4
:1086940000F020F902B0BDE8304003B070470A4949
:1086A400422008F0D3FDE7E70749432008F0CEFD58
:1086B400E4E70549442008F0C9FDE1E70249452003
:1086C40008F0C4FDDEE700BF9C41030010B502685A
:1086D40083685C1C8460D154826843689A4200D2E7
:1086E40010BDFFF7AFFFFBE72DE9F84F82460F46B9
:1086F40015461E46DDF828900B9A0B464FF00108EC
:1087040003E0B3FBF5F308F10108AB42F9D2B0453D
:1087140000D2B04612F0010B13D1B9F1000F10D002
:1087240012F0020F0FD086B1202405E009F1FF39C1
:1087340021465046FFF7CAFFB9F1000F01D0C145E9
:10874400F4D8012409E02024F6E73024F4E7B7FB49
:10875400F4F39D4206D805FB04F4012EF7D9013E3B
:10876400F9E71C46B7FBF4F304FB13770E4AD15C1C
:108774005046FFF7ABFFB4FBF5F3AC42F1D2BBF1CB
:10878400000F02D0B9F1000F07D1BDE8F88F09F14D
:10879400FF3920215046FFF799FFB9F1000FF4D0BB
:1087A400C145F4D8F1E700BFE04103002DE9F047EB
:1087B40082B08146884615469A460A9E0B9F81EAF6
:1087C400E173A3EBE17301249D4203DC93FBF5F316
:1087D4000134F9E7544500D2544636B1B8F1000FDC
:1087E40002DB17F0040F00D0013E17F0020F02D095
:1087F400BAF1000F03D017F0010F00D1CEB9B8F1D0
:10880400000F1BDB17F0040F1FD107F00303022B2B
:1088140020D00197009653462A4641464846FFF722
:1088240063FF02B0BDE8F087013E20214846FFF710
:108834004DFF002EE3D0A642F6D8E0E7C8F10008C9
:108844002D214846FFF742FFDFE72B214846FFF77B
:108854003DFFDAE7BAF1000FDBD12EB9D9E7013ECB
:1088640030214846FFF732FF002ED2D0A642F6D878
:10887400CFE7F8B506460D46144613F001070DD1AF
:1088840019B108460AF0B9FB0746BC4219D9C4B16C
:10889400013C20213046FFF719FFF6E7002729782D
:1088A40051B1013501373046FFF710FFF7E7013CBE
:1088B40020213046FFF70AFFBC4201D9002CF6D133
:1088C400F8BD29780029FBD001353046FFF7FEFEBC
:1088D400F7E70000F0B583B00C461646054648B1EC
:1088E4006B696BB12B688BB16B68ABB1002C40F03A
:1088F4009B80EBE078494FF4A27008F0A7FCEFE707
:1089040075494FF4A37008F0A1FCEBE7724940F2FB
:10891400471008F09BFCE7E76F494FF4A47008F098
:1089240095FCE3E70027012203E047F00107013447
:1089340082B121782D29F8D0302903D02B2905D0F4
:108944000022F5E747F002070134F1E747F0040796
:108954000134EDE72A290CD02178A1F13000C0B20E
:1089640009280CD8013402EB820250000A18303A6C
:10897400F0E73368191D31601B681A440134237809
:108984002E2B02D00023217810E00134002321781B
:10899400A1F13000C0B20928F5D8013403EB8300FB
:1089A40043000B44303BF2E714F8011F6C29FBD061
:1089B4006829F9D02539532932D8DFE801F080310C
:1089C4003131313131313131313131313131313193
:1089D4003131313131313131313131313131313183
:1089E4003131313131313131313131313131313173
:1089F4003156313131313131313131312A40313136
:108A04003131403131313131316A313161314B31C0
:108A1400315633681A1D326019782846FFF756FE1E
:108A240001342378002B4FD014F8011B00294BD0BC
:108A340025293FF477AF2846FFF748FEF1E7316870
:108A4400081D30600968019700920A222846FFF742
:108A5400ADFEE5E73168081D3060096801970092B2
:108A64000A222846FFF740FEDAE73168081D306025
:108A740009680197009210222846FFF735FECFE7D8
:108A840031680B1D33603B4609682846FFF7F1FE49
:108A9400C6E733681A1D32601F6830212846FFF785
:108AA40015FE78212846FFF711FE002301930823C1
:108AB4000093102239462846FFF716FEB0E7252119
:108AC4002846FFF703FEABE72B7B0BB903B0F0BDE1
:108AD4002846FFF7B7FDF9E7F04103002DE9F04F11
:108AE40083B0884601929B469DF830900446E8B1D5
:108AF400E38894F805A00AFB03FAAAF1040ADA450C
:108B040019D9E7880BF10403B3FBF7F607FB163317
:108B1400019A156805EB0B02524501D9AAEB0B0526
:108B2400019A156066B12468013EFBE71749B62037
:108B340008F08CFBDCE71549C42008F087FBE0E76C
:108B4400A7EB030AAA4528BFAA46B3460DE052463E
:108B5400014618460AF0D3F92468A5EB0A05D34464
:108B6400BA46AF4228BFAA4633465DB108EB0B00B4
:108B740023440433B9F1000FE9D0524619460AF0F0
:108B8400BEF9E9E703B0BDE8F08F00BF3C42030043
:108B940008B5FFF7B7FC08BDF8B501464679701E65
:108BA4000A460023834202D212680133FAE71768A7
:108BB400002405E00D683846FFF71AFD0134294604
:108BC400A642F7D8F8BD2DE9F8430746048AA4F174
:108BD400040841440331B1FBF8F8FFF7D7FC06461B
:108BE400F8B10025057101234371043CC4805FFA88
:108BF40088F808F1FF3807608146454511D23846A8
:108C0400FFF7C4FC044640B1737901337371C9F8AA
:108C14000000076001358146EFE73046FFF7BCFFEF
:108C240026463046BDE8F88308B501210430FFF735
:108C340026FC08BD10B5044601210430FFF72AFCC8
:108C4400C0B200B110BD2046FFF7A6FFFAE700004E
:108C540010B584B0144603920022009203AAFFF7D1
:108C64003DFF039BA34201D104B010BD0249F6208D
:108C740008F0ECFAF8E700BF3C42030010B584B0FA
:108C8400144603920122009203AAFFF727FF039BD5
:108C9400A34201D104B010BD02494FF4807008F022
:108CA400D5FAF7E73C42030041DF704710B50024D2
:108CB400054B1C70054B1C60BFF35F8F04490548CE
:108CC40000F052F8204610BDE8CC0020ECCC002087
:108CD4008C420300E0CC002010B582B000238DF854
:108CE40007300DF10700FFF725FBF1EE104A24F0E1
:108CF4009F03E1EE103ABFF35F8F124B4022C3F89B
:108D040084219DF80700FFF749FB14F0070F07D1F2
:108D140009F088FE48B920BF40BF20BF02B010BD93
:108D240009497D2008F092FAF2E7FFF7BDFF002819
:108D3400F4D00228F2D004494FF4B07008F086FA57
:108D4400ECE700BF00E100E09842030082680023E2
:108D5400936082681361826853618268D360826819
:108D6400536082681360704738B50C46054638B1C5
:108D74005CB12C6023686B60626893420AD038BD92
:108D84000649502008F062FAF2E70449512008F03D
:108D94005DFAEEE700236B60F1E700BFF8420300E1
:108DA40010B5044658B1236873B1636833B12268BF
:108DB40091680B446360526893420AD010BD06491F
:108DC400632008F043FAEEE70349642008F03EFA12
:108DD400EBE700236360F1E7F8420300104A02F571
:108DE40094718A4219D210B404E010D204F108023A
:108DF4008A420ED28B1ADB1003EBD3735B1002EBA7
:108E0400C30452F833308342EFD92146F0E7606857
:108E140000E000205DF8044B70470020704700BF5D
:108E24007443030008B5FFF7D9FF034608B1184699
:108E340008BD014BFBE700BF6043030001207047FE
:108E440001207047064B1B68082B01D00020704797
:108E5400044B1B680BB1002070470120704700BF12
:108E64003001001034010010064B1B68082B01D0A0
:108E740000207047044B1B680BB100207047012091
:108E8400704700BF3001001034010010064B1B680E
:108E9400082B01D000207047044B1B680BB1002045
:108EA40070470120704700BF3001001034010010EA
:108EB400064B1B68082B01D000207047044B1B682D
:108EC4000BB1002070470120704700BF3001001033
:108ED4003401001001207047014B024A1A607047A8
:108EE4001C5000200090D00308B5FFF7A7FF40B145
:108EF4004FF080430022C3F80C21C3F81021C3F8BB
:108F04003825FFF79DFF002846D04FF08052D2F855
:108F14000414604BC3F82015D2F80814C3F82415C0
:108F2400D2F80C14C3F82815D2F81014C3F82C1571
:108F3400D2F81414C3F83015D2F81814C3F8341541
:108F4400D2F81C14C3F84015D2F82014C3F8441501
:108F5400D2F82414C3F84815D2F82814C3F84C15D1
:108F6400D2F82C14C3F85015D2F83014C3F85415A1
:108F7400D2F83414C3F86015D2F83814C3F8641561
:108F8400D2F83C14C3F86815D2F84014C3F86C1531
:108F9400D2F84424C3F87025FFF754FF10B13E4BB8
:108FA4003E4A1A60FFF760FF18B13D4BFB22C3F83D
:108FB4001825FFF76BFF48B13A490B6823F00F03FC
:108FC400394A126802F00F0213430B60FFF770FF77
:108FD40018B1364B4FF400721A60FFF77BFF60B193
:108FE4004FF08043D3F8003413F0010F05D04FF055
:108FF40080436FF00102C3F800242D4AD2F8883070
:1090040043F47003C2F88830BFF34F8FBFF36F8F00
:109014004FF01023D3F80032002B08DB4FF010235D
:10902400D3F80432002B02DBFFF756FF08BD214BB7
:109034000122C3F804251F4BD3F80034002BFAD0C7
:109044004FF010231222C3F800221A4BD3F8003435
:10905400002BFAD04FF010231222C3F80422154B30
:10906400D3F80034002BFAD0124B0022C3F80425A5
:10907400104BD3F80034002BFAD0BFF34F8F0C49B8
:10908400CA6802F4E0620C4B1343CB60BFF34F8F0A
:1090940000BFFDE700C000408C560040488103003B
:1090A40000F00040E40E00405802001040960240D8
:1090B40000ED00E000E001400400FA057047000004
:1090C40038B5084C05460FCD0FC495E80F0084E869
:1090D4000F00054B4FF4A072F021044801F0BAFCD4
:1090E40038BD00BF08CD00203C78030028CD002007
:1090F400F8B50446954B1B7823B94268944B5B68DA
:109104009A421FD06268934D934B53F8222000215A
:10911400284602F0D9F9914B5A680421284602F0F6
:10912400C7FA8F4B5A680C21284602F0C1FA8D4EBB
:1091340032460721284602F0BBFA32460D21284662
:1091440002F0B6FA814B1B7823B9A268804B9B6866
:109154009A4207D0A268844B53F8222001217D480B
:1091640002F0B2F9794B1B7823B9E268784BDB68DB
:109174009A423DD0E268774D7C4B33F812200221AD
:10918400284602F08FF9E268794B33F81220022165
:10919400284602F075F9E268764B53F82220022142
:1091A400284602F091F9E368032B00F09B80694D97
:1091B4000321284602F047FA0621284602F043FA22
:1091C4000421284602F03FFA0521284602F03BFA22
:1091D4000721284602F037FA0821284602F033FA1C
:1091E4000C21284602F02FFA0D21284602F02BFA12
:1091F400564B1B7833B994F91420554B93F914301A
:109204009A4264D094F9142061685B4B53F821307E
:10921400D31A222B00F38F80584880FB0310D917F0
:10922400C1EB6001564850F82110090A01F4784155
:10923400222B00F38380514D85FB0305D817C0EB27
:1092440065004F4D55F82000400900F4FC600143CF
:10925400222B76DC494880FB0350DB17C3EB600309
:10926400474850F82330C3F3C4030B43454D2B60E8
:109274004549464809F01DFE364E2A8804213046E9
:1092840002F004FA2A880721304602F0FFF994F923
:109294001430002B57D03D4A2E4D0721284602F0AA
:1092A40007FA3B4E228A3B49304609F002FE354F0D
:1092B4003A880C21284602F0E9F93A880D2128461B
:1092C40002F0E4F932460D21284602F0F1F91F4B71
:1092D40000221A701E4D0FCC0FC594E80F0085E8CC
:1092E4000F00F8BD0421284602F09EF90721284604
:1092F40002F09AF90C21284602F096F90D2128462D
:1093040002F092F94FF46E620421284602F0BEF98D
:109314004FF46E620721284602F0B8F94FF46E62EA
:109324000C21284602F0B2F94FF46E620D21284652
:1093340002F0ACF95CE74FF4006179E74FF4DC60CC
:1093440085E7002391E7144AA6E700BF8050002078
:1093540008CD0020ACD10020405000205C500020FB
:1093640050500020C848030074500020E84803000F
:10937400F04803002C500020144903006766666619
:10938400F84803009CCD0020D848030050D00020AA
:1093940090D00020E0480300C44803002DE9F04FBA
:1093A40087B00546E64CE74B1422E749204601F016
:1093B400D7FB05952968204601F03CFCE34E314675
:1093C400204601F048FC1221204601F066FC4FF0D3
:1093D4001908CDF808806D27019705250095042309
:1093E4000022DB49204602F0DBF8DA4A002120465D
:1093F40002F070F9D84A0021204602F059F94FF6DC
:10940400FF720021204602F02FF942F29F42002110
:10941400204602F03BF912220021204602F06CF9AA
:109424004FF0390ACDF808A001974FF01B09CDF889
:10943400009004230022C949204601F0D5FF2A46A2
:109444000021204602F064F84FF6E0720021204625
:1094540002F016F842460021204602F023F8324674
:109464000021204602F042F8CDF80880E027019759
:10947400009577230122BA49204602F091F8B54AB3
:109484000121204602F026F9B64A0121204602F0C5
:109494000FF94FF6FF720121204602F0E5F842F27F
:1094A4009F420121204602F0F1F8122201212046B8
:1094B40002F022F9CDF808A00197CDF800907723A7
:1094C4000122A949204601F08FFF2A4601212046A6
:1094D40002F01EF84FF6E0720121204601F0D0FFA1
:1094E40042460121204601F0DDFF3246012120469B
:1094F40001F0FCFF5123029301973D2300930423C1
:1095040002229A49204602F04BF8924A0221204650
:1095140002F0E0F8964A0221204602F0C9F84FF61C
:10952400FF720221204602F09FF842F29F4202217C
:10953400204602F0ABF812220221204602F0DCF8A9
:109544007123029301975323009304230222894930
:10955400204601F049FF2A460221204601F0D8FFA7
:1095640032460221204601F0C1FFDFF80CB24FF071
:10957400BD09CDF808906A260196AD220092102309
:1095840003225946204602F00BF8724A0321204672
:1095940002F0A0F8DFF8E4A1DAF800200321204665
:1095A40002F086F84FF6FF720321204602F05CF8C1
:1095B40000220321204602F069F8122203212046EA
:1095C40002F09AF8CD2702970196CDF80090102367
:1095D40004220BF11401204601F0E2FF5D4A04214C
:1095E400204602F077F8DAF804200421204602F03D
:1095F4005FF84FF6FF720421204602F035F800228E
:109604000421204602F042F812220421204602F0EE
:1096140073F84FF0DD08CDF8088001960097102309
:109624002A460BF12801204601F0BAFF494A29468F
:10963400204602F04FF8DAF808202946204602F0C6
:1096440037F84FF6FF722946204602F00DF8002243
:109654002946204602F01AF812222946204602F032
:109664004BF8DFF81CA1CDF80890D6250195AD2262
:109674000092334606225146204601F091FF354AB6
:109684000621204602F026F8DFF8F8B05A460621F3
:10969400204602F00DF84FF6FF720621204601F035
:1096A400E3FF00220621204601F0F0FF12220621EA
:1096B400204602F021F802970195CDF80090334638
:1096C40007220AF11401204601F06AFF214A07210A
:1096D400204601F0FFFF5A460721204601F0E8FF2B
:1096E4004FF6FF720721204601F0BEFF002207213A
:1096F400204601F0CBFF12220721204601F0FCFF97
:10970400CDF8088001950097334608220AF1280114
:10971400204601F045FF0F4A0821204601F0DAFFF8
:109724005A460821204601F0C3FF4FF6FF72082174
:10973400204601F099FF00220821204624E000BFC2
:10974400ACD10020C1900200A0CD00209C4A0300AF
:1097540084D10020B04A03008848030020D00020B0
:1097640098D100209448030038D0002070D1002004
:10977400A4480300F0CC0020F8D00020685000205A
:1097840034D10020C848030001F080FF12220821D0
:10979400204601F0B1FFCDF8088001960097102310
:1097A4000C222F49204601F0FBFE2E4A0C212046B4
:1097B40001F090FF2C4A0C21204601F079FF4FF66E
:1097C400FF720C21204601F04FFF42F29F420C2110
:1097D400204601F05BFF12220C21204601F08CFF91
:1097E400CDF808800195009733460D221F49204685
:1097F40001F0D6FE1B4A0D21204601F06BFF1C4AE6
:109804000D21204601F054FF4FF6FF720D21204632
:1098140001F02AFF42F29F420D21204601F036FF5B
:1098240012220D21204601F067FFFA2302931E2322
:109834000193E423009300231A460E49204601F0C5
:109844006DFF0D4A0021204601F098FF0598FFF7AF
:109854004FFC204601F0DCF907B0BDE8F08F00BFF3
:10986400D0D00020B04A0300B8480300E4D0002060
:10987400C048030094CD00202050002008B501F01A
:109884005BFD08BD10B50446002824D0236A1B786C
:10989400002B25D12368002B27D06368002B29D007
:1098A400A368002B2BD0E368002B2DD06369002B19
:1098B4002FD0A369002B31D0E369002B33D0236A66
:1098C400002B35D023689847034610B9226A01213A
:1098D4001170184610BD1949DE2007F0B7FCD5E712
:1098E4001649DF2007F0B2FCD4E71449E02007F062
:1098F400ADFCD2E71149E12007F0A8FCD0E70F49FD
:10990400E22007F0A3FCCEE70C49E32007F09EFC1D
:10991400CCE70A49E42007F099FCCAE70749E520A7
:1099240007F094FCC8E70549E62007F08FFCC6E77A
:109934000249E72007F08AFCC4E700BF044A030099
:1099440010B5044610B1236A588810BD024940F28C
:10995400912007F07BFCF6E7044A030010B50446A7
:1099640010B1236A988810BD02494FF4267007F09D
:109974006DFCF6E7044A03002DE9F04383B0074683
:109984000C4616469846BDF82890FFF7E7FF0546B3
:109994003846FFF7D5FFA54213D9B04211D92B1B86
:1099A400984501DD1FFA83F8831B994501DD1FFAF1
:1099B40083F9FD680B9B00934B4642463146204693
:1099C400A84703B0BDE8F0832DE9F04383B0074610
:1099D4000C4616469846BDF82890FFF7BFFF05468B
:1099E4003846FFF7ADFFA54215D9B04213D92B1B5A
:1099F400984501DD1FFA83F8831B994501DD1FFAA1
:109A040083F93D690C9B01930B9B00934B464246A3
:109A140031462046A84703B0BDE8F083F0B585B0D1
:109A24000C4616461F46054680B12B6A1B789BB12F
:109A3400C4B102970196E3880093A38862882188C1
:109A44002846FFF7C1FF002005B0F0BD084940F2E9
:109A5400E51007F0FBFBE8E705494FF4F37007F066
:109A6400F5FBE5E7024940F2E71007F0EFFBE0E71A
:109A7400044A03002DE9F0410D4690460446B8B16E
:109A8400236A1B78D3B1FDB12E886D882046FFF779
:109A940065FF07462046FFF753FFBE4206D28542C4
:109AA40004D2A3684246294630469847BDE8F0816F
:109AB400084940F2031007F0C9FBE1E705494FF4F8
:109AC400827007F0C3FBDEE7024940F2051007F09D
:109AD400BDFBD9E7044A03002DE9F04F85B00646E3
:109AE4000D4614460393BDF938B099423BD24FF06A
:109AF400010800945F465C4538DA4FF00109039B86
:109B0400581B09F0C2F90FFA80FA009BABEB030073
:109B140009F0BBF90FFA80FB3046FFF71FFF0090F6
:109B24003046FFF70DFF009B9D4206D2844204D2CB
:109B3400B3680F9A214628469847DA4519DB5B46F5
:109B4400D3469A4600230293AAEB0B035B009BB215
:109B540000934FEA4A0A1FFA8AF30193A3EB0B0A14
:109B64000FFA8AFA19E04FF0FF38C2E74FF0FF39D5
:109B7400C5E701230293E7E7019B9A440FFA8AFAA7
:109B8400029B13B14C44A4B214E04544ADB211E0BD
:109B9400B3680F9A214628469847A74216D0BAF1CF
:109BA400000FE9DB4544ADB24C44A4B2009B9A4497
:109BB4000FFA8AFA3046FFF7D1FE83463046FFF7A4
:109BC400BFFE5D45E9D28442E2D3E6E7039B9D42B2
:109BD400E5D105B0BDE8F08F2DE9F04782B00C4621
:109BE4001746064600284CD0336A1B78002B4ED00B
:109BF400002C52D025883046FFF7B0FE854205D9A7
:109C0400A5883046FFF79CFE85424CD865883046CF
:109C1400FFF7A4FE854205D9E5883046FFF790FE9C
:109C2400854240D82088A388C01A09F02EF9054639
:109C34006088E388C01A09F028F9854235DDB4F854
:109C440008800025B4F80090A088814531D062884E
:109C5400E3889A422DD0002D46D1B8F1000F69D186
:109C640003EB08044319424409EB0501019724B2AC
:109C740000949BB292B289B23046FFF72DFF0020C8
:109C84002FE02F494FF4877007F0E0FAACE72C4936
:109C940040F20F1007F0DAFAAAE729494FF4887066
:109CA40007F0D4FAA6E707201BE025894FF0000847
:109CB400C8E7B4F802A0A0EB090009F0E6F80544EF
:109CC400ADB2E0886388C01A09F0DFF80197404418
:109CD40080B200902B46524649463046FFF74CFE70
:109CE400002002B0BDE8F08700252389AB4210D9DB
:109CF4002188A3882B4429440197B4F906200092B3
:109D04009BB2628889B23046FFF7E6FE0135ADB2F8
:109D1400EBE70020E5E76288E3882B442A440197B7
:109D24001BB20093A38892B221883046FFF7D4FE79
:109D34000135ADB22389AB42EDD80020D1E700BF95
:109D4400044A03002DE9F04F87B00C4615469946A6
:109D54009DF840A0074650B33B6A1B786BB394B39D
:109D6400A388A3EB05081FFA88F8E288561BB6B24D
:109D7400012B35D0012A33D06900994230DC91425D
:109D84002EDCB4F800B03846FFF7E8FD834520D850
:109D9400BAF1000F28D0CDF80490E3880093A3888B
:109DA400628821883846FFF7E7FD002019E035492D
:109DB4004FF4CF7007F04AFACEE7324940F29F10D1
:109DC40007F044FACBE72F494FF4D07007F03EFA7E
:109DD400C6E7B4F802B03846FFF7B2FD8345D7D9D9
:109DE400072007B0BDE8F08F2388ADF80C306288F7
:109DF400ADF80E20A1880B44ADF81030ADF8122058
:109E0400ADF814504A4603A93846FFF7E5FE228808
:109E1400ADF80C20638833449BB2ADF80E30A188B2
:109E24000A44ADF81020ADF812304A4603A938466A
:109E3400FFF7D2FE2288ADF80C2063885919ADF8DB
:109E44000E10ADF810203344ADF812304A4603A981
:109E54003846FFF7C1FE238898441FFA88F8ADF806
:109E64000C8063881D44ADF80E50ADF810801E447C
:109E7400ADF812604A4603A93846FFF7ADFE00204C
:109E8400AFE700BF044A030000B583B080B2ADF869
:109E9400000089B2ADF80210121AADF804205B1A62
:109EA400ADF80630059B049A694607480068FFF739
:109EB400B5FD18B9002003B05DF804FB034A42F273
:109EC400B601FDF721FCF5E7ECD30020C44A0300FA
:109ED40000B585B080B2ADF8080089B2ADF80A10BB
:109EE400121AADF80C205B1AADF80E300123009362
:109EF400BDF81830002202A907480068FFF722FFC6
:109F040018B9002005B05DF804FB044A42F2A80128
:109F1400FDF7FAFBF5E700BFECD30020C44A0300C9
:109F240000B585B0ADF80400ADF80610ADF8082012
:109F3400ADF80A300123ADF80C30BDF8182001A9A2
:109F4400074B1868FFF748FE18B9002005B05DF804
:109F540004FB044A42F29A01FDF7D6FBF5E700BF81
:109F6400ECD30020C44A030000B583B0ADF804006C
:109F7400ADF8061001A9034B1868FFF77BFD03B089
:109F84005DF804FBECD300202DE9F04383B00646D2
:109F9400884691461D46BDF82870824201DB814601
:109FA4001646454502DB2B4645469846114B1B6831
:109FB40093F8582012F0020F0CD05C6D00974346C2
:109FC400324629464846A04720B903B0BDE8F0838D
:109FD40001352DB2A845F8DB4C46A642F8DB054B0B
:109FE4001B681B683A46294620469847013424B228
:109FF400F3E700BFE0D300202DE9F04F87B0064619
:10A004000F4615461C46BDF8401003913C4B1B6897
:10A0140093F8502012F0020F08D0D3F84C8000912E
:10A0240023462A463946C047002866D0AA1B12B2E6
:10A03400E31B1BB282EAE27AAAEBE27A0FFA8AF80D
:10A0440083EAE37BABEBE37B0FFA8BF9002A16DDA3
:10A0540001220492002B16DD012305934FEA6905C2
:10A064004FEA6804264B1B681B68039A394630463E
:10A074009847C84524DA0024DDF814802FE04FF017
:10A08400FF320492E6E74FF0FF330593E6E74E44D0
:10A0940036B21B4B1B681B68039A394630469847F7
:10A0A40001352DB2454528DA5C44A3B21CB2A04563
:10A0B400EDDCA3EB0A0424B2059B1F443FB2E6E7A0
:10A0C4000025DDF81090EDE747443FB20C4B1B68C8
:10A0D4001B68039A394630469847013424B24C45EC
:10A0E4000BDA5544ABB21DB2A945EDDCA3EB0B056D
:10A0F4002DB2049B1E4436B2E6E707B0BDE8F08FEC
:10A10400E0D300202DE9F04182B080460F46164688
:10A114001C46BDF8205000950B46FFF76DFF0095D7
:10A124002346324621464046FFF766FF0095234604
:10A13400424639464046FFF75FFF009523463246C4
:10A1440039463046FFF758FF02B0BDE8F081000001
:10A15400024B1B68B3F90400704700BFE0D3002032
:10A16400024B1B68B3F90600704700BFE0D3002020
:10A174002DE9F04F89B00446069105920293BDF88B
:10A1840048300393DDF84C90A0F1B0034C2B37D842
:10A19400DFE803F033363636363136363636363681
:10A1A40036363636363636362F3636363636363652
:10A1B400363636363636363636362736363636364A
:10A1C4002B363636363636362D363636363636363F
:10A1D400363636363636363636363536363636361C
:10A1E400290099240CE081240AE09A2408E08424BC
:10A1F40006E08E2404E0E62402E0F82400E094243F
:10A20400A3B2B9F80A20934272D3B9F80C108B4266
:10A214006ED8BDF814300493B9F906301FFA83FBE5
:10A22400BBF1000F64D04FEADB0A1BF0070F01D02B
:10A234000AF1010AD9F8101011B1A01A11F800B0EE
:10A24400AF49096891F8600010F0020F00F09480A3
:10A25400CD6D06980BEB000292B2013AB9F80830C2
:10A2640004990B449BB2013B1BB212B20599A84757
:10A27400074699F80430002B38D1B9F80A30E41AAB
:10A28400B9F9083003FB04F303FB0AF30022049238
:10A29400CDF814B021E00398B8477608013DADB27B
:10A2A4000134A4B2072C06D82DB116F0010FF2D058
:10A2B4000298B847F1E708F101081FFA88F85B46ED
:10A2C400D04506D2D9F8002003F1010BD65C002456
:10A2D400E8E7049A013292B20492B9F90820049989
:10A2E400914205DA059D4FF00008E9E7012B02D001
:10A2F40009B0BDE8F08FB9F80A20A21AB9F90830FC
:10A3040003FB02F2B9F9063003FB02F30026029DB7
:10A31400DDF80C802AE0D9F8002003F1010AD35CAF
:10A32400EAB25FFA88F0C3F5807101FB00F003FB29
:10A334000202C2F3072205F47F4008F47F4C0CFBB1
:10A3440001F100FB0310001220F0FF0000B21043E3
:10A3540080B2B8470134A4B253465C45DBD3B9F9A3
:10A364000620A2EB0B0213440136B6B2B9F9082059
:10A374009642BDDA0024F0E791F8681011F0020F5C
:10A384005ED0029B1E0A46EA0326B6B2039B1F0A4E
:10A3940047EA0327BFB299F80430002BA8D1A41AC6
:10A3A400B9F9081001FB04F101FB0AF14FF00008B0
:10A3B4002AE003EBC00C04FB0BCCDFF848E12EF8D9
:10A3C4001C704908013A92B201339BB2072B0CD896
:10A3D4005AB111F0010FECD003EBC00C04FB0BCC11
:10A3E400DFF820E12EF81C60EBE7013080B229464B
:10A3F400504505D2D9F800304D1C595C0023E5E7DF
:10A4040008F101081FFA88F84446B9F908301846DB
:10A41400984502DA5A460020EAE7069C0BEB040250
:10A42400049911FA83F300FB0BF1490001913549BA
:10A4340000911BB212B205992046FFF725FD57E79C
:10A4440099F8041000294BD1A41AB9F9083003FB78
:10A4540004F303FB0AF300220592CDF81CB033E0A9
:10A46400274B1B681B68039ABDF9101030B298473C
:10A474007F080136B6B2013DADB20134A4B2072C57
:10A484000CD85DB117F0010FEAD01D4B1B681B6897
:10A49400029ABDF9101030B29847E9E708F10108B3
:10A4A4001FFA88F85B46D04506D2D9F8002003F19C
:10A4B400010BD75C0024E2E7049A013292B20492C1
:10A4C400059A013292B20592B9F908200599914290
:10A4D400BFF60EAFBDF81860079D4FF00008E2E725
:10A4E40001297FF405AFA41AB9F9082002FB04F48A
:10A4F40003FB04F30027029EDDF80C803BE000BF61
:10A50400E0D30020E0D10020D9F8002003F1010AB3
:10A51400D35CF1B25FFA88F2C3F5807000FB02F2FB
:10A5240003FB0121C1F3072106F47F4208F47F4CA9
:10A534000CFB00F002FB0302121222F0FF0212B223
:10A544000A43114B1B681B6892B2BDF9101028B264
:10A5540098470135ADB20134A4B253465C45D3D318
:10A56400B9F90620A2EB0B021344049A013292B209
:10A5740004920137BFB2B9F908209742BFF6B8AECA
:10A58400BDF818500024E9E7E0D300202DE9F04F8E
:10A5940089B0B0F908300493B0F90A40B0F90C302E
:10A5A4000593B0F90E1090F814A04368B3F906208F
:10A5B4000392B3F908B0B0F91690B0F918200692D6
:10A5C40007681B680BB307B30B1B5B451DDB3B46DE
:10A5D400012500E001331A7822B10A2AFAD10135A3
:10A5E400ADB2F7E71AF0300F12D00B1B9BB2013358
:10A5F4009BB21BFB05F29B1A9BB2013D069A15FB0D
:10A6040002F55B1B1BB2002B03DA09B0BDE8F08F27
:10A6140000231AF0100F00D05B10054623441BB230
:10A62400CDF81CB09B463C46002200E00134237860
:10A63400BBB10A2B15D098B269684E89B042F5D3E4
:10A64400B1F80CC06045F1D8096939B19B1BCB5CEA
:10A654004B4412FA83F292B20134E8E7BDF80C30AD
:10A66400F6E71FFA89F8BDF81040059B1B1B9BB247
:10A674000133A8EB020212FA83F212B2002AC4DBFD
:10A684001AF0010F04D11AF0020F02D0521000E0A8
:10A694000022144424B205E0BDF80C10414414FA1D
:10A6A40081F10CB23E780A2E14D00137002EACD0C2
:10A6B4006B6801936B8A00932B8A5A462146304675
:10A6C400FFF756FD6B681A69002AE5D05B89F61A14
:10A6D400915DE3E70137079B069A13441BFA83F362
:10A6E4000FFA83FB9FE710B44168002302789A4273
:10A6F40009D95A018C188A5C02F00302032A03D098
:10A704000133DBB2F2E7002420465DF8044B7047C6
:10A7140070B406464568002301E00133DBB23478A7
:10A724009C420DD95C0128192C5D04F00304022C11
:10A73400F3D1047E8C42F0D1447E9442EDD100E00A
:10A74400002070BC70470000F0B52E4B1B68B3F9B5
:10A754000A60B3F90C7093F808C00578002316E07A
:10A7640011F0400F10D011F0200F46D011F0020F5D
:10A7740001D041F0800141F0080111F0400F01D0F7
:10A7840041F0010101F0B901617001339BB2AB42A8
:10A7940036D241685A018C188A5C617802F04B0207
:10A7A4000A2AF1D1BCF1000FDAD0B6F1FF3FD7D0BD
:10A7B40011F0400F03D101F0670141F0050101F0F0
:10A7C400DF02B4F908E0B64514DCB4F90CE0B64590
:10A7D40010DBB4F90AE0BE450CDCB4F90EE0BE456A
:10A7E40008DB42F0200211F0400F03D101F0DB023C
:10A7F40042F0220242F04001C6E741F01001BCE7FA
:10A80400F0BD00BFE0D300202DE9F843074690F8DF
:10A814000080002401E00134A4B244451ED27A68C9
:10A824006301D618D55C96F8019005F00303022B5A
:10A83400F1D115F0200F03D073683146384698479C
:10A8440015F0080FE7D015F0800FE4D019F0410F90
:10A85400E1D07368314638469847DCE7BDE8F883B1
:10A8640070B582B00546134B00245C6002221A7056
:10A87400067801E00134A4B2B44219D26A686301D3
:10A88400D1180191D35C03F00303022BF2D18B7E28
:10A89400002BEFD0074801AA42600A7E42704A7E2C
:10A8A4008270C3702B6B9847019B00229A76E1E774
:10A8B40002B070BDE4D300202DE9F04F87B081468B
:10A8C4000F4614469846109D1FFA82FB0BF1FF3386
:10A8D4001BB21A462B8800930B460392FFF78CFB9E
:10A8E4001FFA87FA0AF1010319B21FFA88F6731ED8
:10A8F40018B26B880093049003464A460291484676
:10A90400FFF77AFBAB88009343462246414648460C
:10A91400FFF772FBEB880093049B224639462046DE
:10A92400FFF76AFB1FFA89F404F101090FFA89F9A8
:10A93400ABF102031FB22B89009302990B460597D2
:10A944003A464846FFF758FB0AF102073FB2A6F120
:10A9540002080FFA88F86B89009343464A46394641
:10A964004846FFF749FBAB890093DDF810C0634606
:10A97400039A61464846FFF73FFBEB890093434641
:10A98400039802460299FFF737FB023424B2ABF175
:10A9940003022B8A00933B4612B239462046FFF746
:10A9A4002BFB0AF10301033E36B26B8A0093334654
:10A9B400224609B22046FFF71FFBAB8A00934346A9
:10A9C400DDF814904A4641462046FFF715FBEB8A12
:10A9D400009333464A4639464846FFF70DFB07B015
:10A9E400BDE8F08F00B583B002238DF803308DF8F5
:10A9F40000300B7E8DF801304B7E8DF802300191D2
:10AA0400036B6846984703B05DF804FB00B583B058
:10AA140003238DF8033002238DF800300B7E8DF86C
:10AA240001304B7E8DF802300191036B68469847E4
:10AA340003B05DF804FB0000032807D8044B1B682F
:10AA4400093003EBC000416003230372704700BF69
:10AA5400E0D3002010B51C462A4B03608180C280DD
:10AA640004230384438489B2043989B2013909B2C5
:10AA7400818493B2043B9BB2013B1BB2C3848183A8
:10AA8400C383012380F8403080F841300023C3623F
:10AA940083864386C3860387C36345F65D42A0F875
:10AAA40046204FF6FF72A0F84220A0F8443003611C
:10AAB4004361836108E003F1090200EBC202002153
:10AAC400516011720133DBB2032BF4D90E4B1860C1
:10AAD4002046FEF7D7FE78B90C4B1C600C490020C9
:10AAE400FFF7AAFF0B490120FFF7A6FF0A4903203D
:10AAF400FFF7A2FF012010BD084A41F22521FCF70F
:10AB040003FEE9E76D9F0200E0D30020ECD30020B0
:10AB1400259F0200D59E02008D9E0200C44A0300B8
:10AB2400136813B1137A102B00D0704700B583B0AB
:10AB3400ADF80000ADF802109188ADF80410D38888
:10AB4400ADF8063003FB01F35B0012686946034865
:10AB54000068FEF763FF03B05DF804FBECD300204C
:10AB6400002849D0F8B50746002948D0002A49D022
:10AB74000020904208D244010D1903260E550026E8
:10AB8400EE610130C0B2F4E71E463A7079600223E8
:10AB94003B7200257D814EF67D73BB81FD813D8234
:10ABA400FFF7D6FA80B201387882FFF7D9FA80B27B
:10ABB4000138B8823E630323BB75BD61134B1B6828
:10ABC400BBB12C33FB61022387F8203087F8213096
:10ABD400112387F822304FF6FF73BB841F22FA84B7
:10ABE4003B8548F210437B850F2387F82C300020E7
:10ABF400F8BD0023FB61E6E74FF0FF3070474FF0EC
:10AC0400FF30F5E74FF0FF30F2E700BFE0D300205C
:10AC140050B1037A43F0280323F040030372044B3A
:10AC24001B681861002070474FF0FF30704700BF69
:10AC3400E0D3002048B1037A13F0020F08D08161F9
:10AC440043F060030372002070474FF0FF307047F9
:10AC54004FF0FF307047D0B10246037A13F0020F71
:10AC640018D010B443F060030372C16190F82C4013
:10AC7400B1F90810481C844205DC023182F82C101A
:10AC840023F04003137200205DF8044B70474FF02B
:10AC9400FF3070474FF0FF30704750B1037A13F024
:10ACA400020F09D080F8221043F0600303720020E1
:10ACB40070474FF0FF3070474FF0FF30704750B38C
:10ACC4000346027A12F0020F28D070B4B0F90E5085
:10ACD4000D80B0F910404C80B0F912008880B3F9AF
:10ACE4001420CA809E7D16F0010F07D003350D8015
:10ACF40003344C8003388880033ACA809A7D12F06A
:10AD0400020F05D093F82C304A88134401334B804A
:10AD1400002070BC70474FF0FF3070474FF0FF3099
:10AD240070470000F0B58DB0CD694B7813F0010F7A
:10AD340015D013F0800F40F0A48013F0020F00F040
:10AD4400A7802B7843F001032B700B7843F020038A
:10AD54000B7004238B764B7823F001034B700B7834
:10AD640013F0200F00F0F9800C46064613F0080F8C
:10AD740000F0D48013F0400F03D12B7813F0020FAE
:10AD840067D00AA93046FFF79AFF238ABDF8282026
:10AD940013442381618ABDF82A3019446181A18A50
:10ADA4000A4412B2A281E18A0B441BB2E381B6F9D0
:10ADB40014108B4200F3D180B6F912309A4200F39A
:10ADC400CC8021463046FFF70DFE6B7813F0010F5F
:10ADD4006DD00327AB88ADF81E306B88ADF81C30FE
:10ADE4002A7812F0010F08D06A7812F0020F60D0AE
:10ADF400ADF81E30AB88ADF81C306B7813F0100F33
:10AE040061D02289BBB21A44ADF8142062891A4475
:10AE1400ADF81620A289D21AADF81820E289D31A07
:10AE2400ADF81A302B7C8DF82030EB6804930223A4
:10AE3400ADF82230ADF824306B69039303A8FFF713
:10AE4400A5FB237823F04003237021463046FFF707
:10AE5400DDFD6B7813F0080F7BD113F0010F4AD09E
:10AE6400B4F90800B4F90A10B4F90C20B4F90E309E
:10AE74002D7815F0010F3CD03B4D0095FFF71CFDDC
:10AE840067E001228A760A7842F020020A7054E7C9
:10AE94002B7813F0010F3FF45EAF23F001032B7006
:10AEA4000B7843F020030B7005238B7653E70127BF
:10AEB40090E712F0040FA0D02B89ADF81E30EB8878
:10AEC400ADF81C3099E72089BBB218446189194454
:10AED400A289D21AB4F80EC0ACEB0303BDF81EC0AD
:10AEE400CDF800C01BB212B209B200B2FFF74CF8A1
:10AEF40087E71E4DC1E7B4F90800B4F90A10B4F9A4
:10AF04000C20B4F90E302E7816F0010F04D02D89E0
:10AF14000095FFF7F7F81CE0ED88F9E70AA9FFF7B9
:10AF2400CEFE208ABDF82820104400B22081618A18
:10AF3400BDF82A30194409B26181A78A3A4412B291
:10AF4400A281E78A3B441BB2E3816D7815F0100FB0
:10AF540005D0237823F0200323700DB0F0BDB5890C
:10AF64000095FFF711F8F4E74877030060770300D2
:10AF740070B58CB0CE690B7813F0200F0BD00C4653
:10AF8400054613F0080F65D013F0400F05D1237860
:10AF940023F0200323700CB070BD0AA9FFF78FFEC5
:10AFA400238ABDF8282013442381618ABDF82A30FE
:10AFB40019446181A18A0A4412B2A281E18A0B4434
:10AFC4001BB2E381B5F914108B42E4DAB5F91230FF
:10AFD4009A42E0DA21462846FFF704FDB389ADF82A
:10AFE4001E307289ADF81C200093B4F90E30B4F908
:10AFF4000C20B4F90A10B4F90800FEF7C5FFB4F93F
:10B004000830ADF81430B4F90A30ADF81630B4F99C
:10B014000C30ADF81830B4F90E30ADF81A30B37BFB
:10B024008DF820307368049396F90F30ADF8223010
:10B0340096F91030ADF824303368039303A8FFF772
:10B04400A5FA237823F04003237021462846FFF70E
:10B05400DDFC9CE70AA9FFF732FE208ABDF8282010
:10B06400104400B22081618ABDF82A30194409B223
:10B074006181A68A324412B2A281E68A33441BB2A9
:10B08400E381AD890095FEF77FFF80E7F0B585B0D9
:10B09400CE690B7813F0200F0BD00C46054613F045
:10B0A400080F3DD013F0400F05D1237823F020037F
:10B0B400237005B0F0BD02A9FFF701FE228ABDF896
:10B0C40008E002EB0E0000B22081638ABDF80AC0DA
:10B0D40003EB0C0109B261813768BF883A441EFA58
:10B0E40082F212B2A2813768FF883B441CFA83F3D0
:10B0F4001BB2E381B5F91470BB42DADAB5F9123048
:10B104009A42D6DA32681AB1337913F0010F04D1B6
:10B11400237823F040032370C7E7FFF701FDF7E727
:10B1240002A9FFF7CCFD228ABDF808E002EB0E006D
:10B1340000B22081638ABDF80AC003EB0C0109B296
:10B1440061813768BF883A441EFA82F212B2A28142
:10B154003668F68833441CFA83F31BB2E381AD8965
:10B164000095FEF711FFA0E700286CD02DE9F0410F
:10B174008AB00446027A12F0020F67D0B0F90E606A
:10B18400B0F91080B0F91270827D12F0010F07D06F
:10B19400033636B208F103080FFA88F8033F3FB2CA
:10B1A4002C4A12685269A24246D0628DADF81E2024
:10B1B400228DADF81C2094F82C301FFA88F52B440E
:10B1C4009BB2013BBDF81E2000921BB23A46414699
:10B1D4003046FEF7D9FEA3690393E3690493F31C95
:10B1E400ADF81430ADF81680ADF8187094F82C3022
:10B1F4002B449BB2013BADF81A3094F822308DF801
:10B20400203094F92030ADF8223094F92130ADF893
:10B21400243003A8FFF7BAF994F82C10294409B292
:10B2240049F6135300930B463A463046FEF7E4FEC4
:10B2340000200AB0BDE8F081E28CADF81E20A28C9B
:10B24400ADF81C20B7E74FF0FF3070474FF0FF30E8
:10B25400EFE700BFE0D300202DE9F04182B0B0F960
:10B264000E60B0F91050B0F91270B0F91480037A7E
:10B2740003F0DF03037213F0080F4BD00446827D02
:10B2840012F0010F02D013F0400F1AD0A37D13F077
:10B29400020F0BD02046FFF767FF94F82C301D44B3
:10B2A40001352DB2237A13F0400F1DD1A3890093E9
:10B2B40043463A4629463046FEF766FE2678002382
:10B2C40018E01B4B009343463A4629463046FFF7A5
:10B2D400F3FA033636B203352DB2033F3FB2A8F179
:10B2E40003080FFA88F8D1E723F0400323721CE027
:10B2F40001339BB2B34218D260685901425C02F038
:10B304000305022DF4D112F0080FF1D042F06002CF
:10B314004254EDE7074B1B68B3F8463000934346AD
:10B324003A4631463046FEF72FFE02B0BDE8F081C2
:10B3340078770300E0D3002010B52A4B1B6893F8FC
:10B34400482012F0010F03D022F0010283F84820B4
:10B354001A695869824223D012B398615A6198B12C
:10B36400837D13F0020F0FD0037A13F0080F0BD074
:10B37400B0F90E10B2F90E30994203D10169136984
:10B3840099421AD0FFF7F0FE164B1A6851690B7AEE
:10B3940023F040030B725269137A43F028031372AB
:10B3A400104B1B685C693CB1237A13F0200F0BD15E
:10B3B400237A13F0080F0BD110BDB0F91410B2F9B1
:10B3C40014309942DED1DFE72046FFF745FFEFE76F
:10B3D4002046FFF7B9F92046FFF716FA2046FFF793
:10B3E4003FFAE9E7E0D30020F8B505460C461646D7
:10B3F4001F46FFF778F9002838D003460022227050
:10B40400AA89A2806A896280AA8922816A89E280E3
:10B414000122627012222274164A12681AB32C3264
:10B42400E260154A6261154A5A6000205870012290
:10B434001A7698761F82BDF918205A82BDF91C200D
:10B444009A82BDF92020DA824FF6FF721A815A815E
:10B454009A81DA815E761A7842F0CA02DC6122F0BF
:10B4640001021A70F8BD0022E260DAE74FF0FF3003
:10B47400F8E700BFE0D30020C448030029AD020070
:10B4840010B514460A460121FFF742F938B1C269E2
:10B494005480027842F060020270002010BD4FF028
:10B4A400FF30FBE710B514460A460121FFF730F9D7
:10B4B40038B1C2699480027842F0600202700020C0
:10B4C40010BD4FF0FF30FBE710B514460A460121CA
:10B4D400FFF71EF938B1C2695461027842F0600284
:10B4E4000270002010BD4FF0FF30FBE710B514468A
:10B4F4000A460121FFF70CF938B1C269D460027819
:10B5040042F060020270002010BD4FF0FF30FBE7F4
:10B5140038B514460A460121FFF7FAF800283BD053
:10B524000546C3695A7802F0E1025A70197841F06D
:10B534000201197014F0080F02D042F008025A7088
:10B5440014F0100F03D05A7842F010025A7014F01D
:10B55400020F10D05A7842F002025A7014F0010F10
:10B5640015D05A7842F001025A702B7843F06003E8
:10B574002B70002038BD14F0040F04D05A7842F028
:10B5840004025A70EAE721F002011970E6E75A78DA
:10B5940022F001025A70E8E74FF0FF30EAE70000BA
:10B5A400F8B505460C4616461F46FFF79CF80028DA
:10B5B40033D0034600222260194A126852B32C3257
:10B5C4006260002020726A896281AA89A2811222A3
:10B5D400A273E0732074134A5A60587002221A76D8
:10B5E40098761F82BDF918205A82BDF91C209A82D0
:10B5F400BDF92020DA824FF6FF721A815A819A81AE
:10B60400DA815E761A7842F04A02DC6122F00102A5
:10B614001A70F8BD00226260D3E74FF0FF30F8E7FC
:10B62400E0D3002075AF020008B50A460221FFF7F7
:10B634006FF828B1037843F068030370002008BD55
:10B644004FF0FF30FBE708B50A460221FFF760F828
:10B6540038B1037803F0F70343F0200303700020AC
:10B6640008BD4FF0FF30FBE710B514460A4602212F
:10B67400FFF74EF838B1C2695481027842F0600293
:10B684000270002010BD4FF0FF30FBE710B51446E8
:10B694000A460221FFF73CF838B1C2699481027866
:10B6A40042F060020270002010BD4FF0FF30FBE753
:10B6B40010B514460A460221FFF72AF838B1C269C8
:10B6C4001460027842F060020270002010BD4FF056
:10B6D400FF30FBE710B514460A460221FFF718F8BD
:10B6E40038B1C2695460027842F0600202700020EE
:10B6F40010BD4FF0FF30FBE710B514460A46022197
:10B70400FFF706F838B1C2699473027842F0600218
:10B714000270002010BD4FF0FF30FBE770B50C46FF
:10B7240015461E46FEF7DFFF18B3034600202060CF
:10B7340001222271104A5A60587003221A769876B0
:10B744001E82BDF910205A82BDF914209A82BDF9D7
:10B754001820DA824FF6FF721A815A819A81DA81AF
:10B764005D761A7842F04A02DC6122F001021A7016
:10B7740070BD4FF0FF30FBE791B0020010B51446E6
:10B784000A460321FEF7C4FF48B1C26914600121CF
:10B794001171027842F060020270002010BD4FF077
:10B7A400FF30FBE77047000008B5024804F06CFC6A
:10B7B40008BD00BF6478030010B584B00E4B0322AB
:10B7C400C3F82C270D4B6C460FCB84E80F002F23B6
:10B7D4008DF800302E238DF802302D238DF80130A2
:10B7E4002C238DF8033000231A462146044804F024
:10B7F4008BFD04B010BD00BF000300509077030020
:10B804006078030000B587B0B8B121238DF8073004
:10B814000D4B4FF40062C3F80C250DF1070302939E
:10B824000123039300220492059202A9074804F01D
:10B83400A3FC20B907B05DF804FB2023E6E7044A23
:10B844008021FBF761FFF5E70003005064780300F3
:10B85400A8770300F0B587B007460D4616461C4688
:10B86400904200F2F980A54200F2FB802A238DF871
:10B8740007309A4B4FF40062C3F80C250DF107030F
:10B8840002930123039300220492059202A994488F
:10B8940004F072FC002840F0E9803B0A8DF8073080
:10B8A4008E4B4FF40062C3F808250DF10703029391
:10B8B4000123039300220492059202A9884804F00C
:10B8C4005BFC002840F0D7808DF80770834B4FF461
:10B8D4000062C3F808250DF10703029301230393C3
:10B8E40000220492059202A97D4804F045FC002838
:10B8F40040F0C680330A8DF80730784B4FF400626D
:10B90400C3F808250DF107030293012303930022D2
:10B914000492059202A9724804F02EFC002840F01B
:10B92400B4808DF807606D4B4FF40062C3F80825AE
:10B934000DF107030293012303930022049205925D
:10B9440002A9674804F018FC002840F0A3802B23C8
:10B954008DF80730614B4FF40062C3F80C250DF1EC
:10B96400070302930123039300220492059202A980
:10B974005B4804F001FC002840F091802B0A8DF80C
:10B984000730564B4FF40062C3F808250DF1070346
:10B9940002930123039300220492059202A95048C2
:10B9A40004F0EAFB00287FD18DF807504B4B4FF48D
:10B9B4000062C3F808250DF10703029301230393E2
:10B9C40000220492059202A9454804F0D5FB002800
:10B9D4006FD1230A8DF80730404B4FF40062C3F84F
:10B9E40008250DF107030293012303930022049217
:10B9F400059202A93A4804F0BFFB00285ED18DF8F5
:10BA04000740364B4FF40062C3F808250DF10703D5
:10BA140002930123039300220492059202A9304861
:10BA240004F0AAFB00284ED12C238DF807302B4BB1
:10BA34004FF40062C3F80C250DF1070302930123B0
:10BA4400039300220492059202A9254804F094FB72
:10BA540000283DD107B0F0BD2249912005F0F6FB46
:10BA640001E72049922005F0F1FBFFE61D4A802101
:10BA7400FBF74AFE11E71B4A8021FBF745FE23E74B
:10BA8400184A8021FBF740FE34E7164A8021FBF771
:10BA94003BFE46E7134A8021FBF736FE57E7114A7F
:10BAA4008021FBF731FE69E70E4A8021FBF72CFE6B
:10BAB4007AE70C4A8021FBF727FE8AE7094A8021AE
:10BAC400FBF722FE9BE7074A8021FBF71DFEABE74D
