:020000022000DC
:1060000000000420756302005D6302005F6302000C
:106010006163020063630200656302000000000028
:1060200000000000000000000000000067630200A4
:1060300069630200000000006B6302006D630200F0
:1060400061AE02006F630200B5BB0200B5DF020063
:106050006F6302006F630200CDB802006F6302003D
:106060006F6302006F6302006F6302006F630200E0
:106070006F6302006F6302006F6302006F630200D0
:106080006F630200598702006F6302006F630200B2
:10609000998702006F630200E18F03006F630200C3
:1060A0006F6302006F6302006F6302006F630200A0
:1060B0006F6302006F630200000000000000000038
:1060C0006F6302006F6302006F6302006F63020080
:1060D0006F6302006F6302006F6302006F63020070
:1060E0006F6302006F6302006F6302000000000034
:1060F000000000006F630200000000006F630200F8
:10610000000000000000000000000000000000008F
:10611000000000000000000000000000000000007F
:10612000000000000000000000000000000000006F
:10613000000000000000000000000000000000005F
:10614000000000000000000000000000000000004F
:10615000000000000000000000000000000000003F
:10616000000000000000000000000000000000002F
:10617000000000000000000000000000000000001F
:10618000000000000000000000000000000000000F
:1061900000000000000000000000000000000000FF
:1061A00000000000000000000000000000000000EF
:1061B00000000000000000000000000000000000DF
:1061C00000000000000000000000000000000000CF
:1061D00000000000000000000000000000000000BF
:1061E00000000000000000000000000000000000AF
:1061F000000000000000000000000000000000009F
:10620000354936480A1A02D0072291438D4634494F
:1062100034480A1A06D00722914381F309880222E2
:1062200082F3148830483149314A00F044F831484B
:106230003149324A00F03FF831483249324A00F0E1
:106240003AF832483249334A00F035F83248334997
:10625000334A00F030F833483349344A00F02BF821
:1062600033483449344A00F026F83448344900228F
:1062700000F02CF833483449002200F027F8334866
:106280003349091A082902DB002202604160314AC1
:1062900090471F481F49884205D00268043003B464
:1062A000904703BCF7E700208646EC46002000211B
:1062B000294A9047FEE7884207D0521A05D0037852
:1062C00001300B700131013AF9D17047884202D098
:1062D00002700130FAE770470000042000E003205C
:1062E0000000042000000420A8F203000040002069
:1062F00004B80020D4630200D463020048A0030065
:10630000A8F2030000400020004000206CA1030020
:106310006CA103006CA103006CA103006CA103003D
:106320006CA103006CA103006CA10300A8F20300A0
:10633000AC6A040004B8002004B8002004B80020AF
:10634000A4D50020A4D50020A4D50020A4D50020E9
:10635000A4F500209D63020089FD0200FEE7FEE730
:10636000FEE7FEE7FEE7FEE7FEE7FEE7FEE7FEE705
:10637000704700BF1048804710484FF0070188431E
:1063800085460F4880470F48016841F4700101605D
:10639000BFF34F8FBFF36F8FFFF732BF0A480B4930
:1063A0000B4A884207D0521A05D0037801300B708F
:1063B0000131013AF9D170477163020000000420F5
:1063C0000DA1020088ED00E06CA103000040002058
:0463D0000040002069
:1063D40000B585B00190019B002B0AD0074B43F018
:1063E40001030393019B9B010293039B029898472B
:1063F40000E000BF05B05DF804FB00BF80A103000E
:1064040000B583B00190019B002B0AD04FF47A7041
:10641400FFF7DEFF019B013B0193019B002BF5D1AC
:1064240000E000BF03B05DF804FB08B50EF0B0FD5A
:1064340000BF08BD00B589B0039002910192019B91
:10644400002B33D00023079303230693029A079B60
:106454001344019A194600200EF04CFD0590079A4A
:10646400059B13440793019A059BD31A0193059B3B
:10647400002B13D10F4B1B7883F00103DBB2002BED
:1064840013D10120FFF7BCFF069B013B0693069B3B
:10649400002B03D1074B00221A7007E0054B0122A1
:1064A4001A70019B002BD1D100E000BF00BF09B0DE
:1064B4005DF804FB04B8002000B585B00390029198
:1064C400054B00934023054A0299039800F012F803
:1064D40000BF05B05DF804FB3964020008B8002071
:1064E40082B0019000BF02B0704782B0019000BF3B
:1064F40002B0704700B5A1B00590049103920293D5
:10650400049803F090FB039B1593029B16930023BE
:10651400179300238DF8603000231993229B1A935C
:1065240000231F930FA91F9B0822049803F054FC17
:1065340008231F93119B1293BDF84030ADF84C30E3
:10654400BDF84230ADF84E3000238DF851309DF83F
:106554003C3003F00303DBB2012B26D10F9BC3F3C2
:1065640095231D939DF83C30C3F3C203DBB28DF831
:106574005030BDF83C30C3F38313DBB21C931C9B37
:106584009A0009A91F9B049803F026FC1C9B9B00FE
:106594001F9A13441F9312AA09A915AB009313461B
:1065A4001C9A1D9800F004FF2FE09DF83C3003F086
:1065B4000303DBB2022B28D1BDF83E30C3F38913A9
:1065C4009BB21E939DF83C30C3F3C203DBB28DF83B
:1065D40050301E9B082B28BF08231B9307A91F9B21
:1065E4001B9A049803F0F8FB1F9A1B9B13441F93F8
:1065F4001E9A1B9BD31A1E9315AB12AA07A81B99AC
:1066040000F078FF1E9B002BE3D1049803F01AFBE3
:1066140000BF21B05DF804FB82B00190019BDB68F0
:1066240001225A7100BF02B07047000000B583B068
:106634004FF0FF330193FFF7F8FE0421084800F000
:10664400D3FD0190019B002B03DA0649412008F099
:10665400E5F80348FFF7E0FF00BF03B05DF804FB73
:106664005CA1030098A1030000B583B001900091E0
:10667400019B1B681B6800990198984700BF03B0F1
:106684005DF804FB00B583B00190019B1B685B6857
:106694000198984700BF03B05DF804FB00B583B0D0
:1066A4000190019B1B689B680198984700BF03B049
:1066B4005DF804FB82B001900B468DF80330019B1A
:1066C400DB689DF803201A7100BF02B0704782B0E6
:1066D4000190019BDB681B79184602B0704782B0B9
:1066E4000190019BDB6801225A7100BF02B0704720
:1066F40082B00190019BDB685B79184602B0704759
:1067040000B585B001900091154BFF229A60144B9F
:1067140000221A60124B00225A60114B0022C3F867
:1067240018240F4B0022C3F814240D4B002283F8C5
:1067340020240C4803F0DCF90390039B002B01D0C8
:10674400039B08E0084803F001FC084A084BD31AED
:10675400DB0802930023184605B05DF804FB00BF74
:10676400B0B90020E8A00300F8A10300E8A00300EA
:1067740050A00300024A034BD31ADB0818467047A3
:10678400E8A0030050A0030000B587B001900B46B9
:106794008DF803309DF80330002B1FD0FFF7EAFF7C
:1067A40004900023059313E0059B9B000E4A1344B9
:1067B4000393039B1B881A46019B1B689A4204D1CE
:1067C400019B059A1A60002309E0059B0133059398
:1067D400059A049B9A42E7D3052300E00023184658
:1067E40007B05DF804FB00BF0040002000B585B091
:1067F40001900B468DF803309DF8032001AB114640
:106804001846FFF7C1FF0346002B07D1019BDB00AD
:10681400054A13440393039B1B6800E000231846B6
:1068240005B05DF804FB00BF50A0030084B00190E4
:106834000B468DF80330019BDB00174A1344029387
:106844009DF80330013B032B1CD801A252F823F01E
:10685400656802006D680200756802007F680200C6
:1068640002238DF80F3011E004238DF80F300DE072
:10687400029B1B798DF80F3008E0029B5B798DF841
:106884000F3003E000238DF80F3000BF9DF80F3068
:10689400184604B0704700BF50A0030084B00190B4
:1068A400009100238DF80F30019B1B7803F0040343
:1068B400DBB2002B24D0019B1B78C3F30103DBB2B2
:1068C400012B02D0022B0CD017E0009B1B68019A0D
:1068D4001288C2F38312D2B213449A1C009B1A602A
:1068E4000BE0009B1B68019A5288C2F3891292B292
:1068F40013449A1C009B1A6000BF01238DF80F30CB
:106904009DF80F30184604B07047000000B58BB0F6
:106914000023ADF826303E4802F0A3FB3D4802F0C8
:10692400A0FB3D4B5B6804933B4B9B680693049A26
:10693400069B134002339B00374A134404330893E5
:1069440004AB19460898FFF7A9FF0346002B09D0AA
:10695400049A069B134002339B002F4A13440433CA
:106964000893EDE700BF0023079311E0049B5A1C32
:106974000492069A1340079A920001A90A442649F0
:1069840002339B000B445B681360079B013307933E
:10699400079B012BEAD99DF80430C3F30103DBB252
:1069A400012B10D0022B1CD1BDF80A30ADF82630D3
:1069B400BDF80630C3F389139BB203339A08049BD2
:1069C4001344049313E0BDF80A30ADF82630BDF843
:1069D4000430C3F38313DBB21A46049B13440493B9
:1069E40005E00E494FF4BF7007F018FF00BF0948D7
:1069F40002F043FB0590059B002B02D0049B064A42
:106A04005360BDF8263018460BB05DF804FB00BF98
:106A1400C8BD0020C4BD0020B0B9002008A20300F6
:106A240000B585B00021074802F08CFA0390039B5F
:106A34000293029B83F310030193019B184605B054
:106A44005DF804FBCCBD002000B589B00390029131
:106A540001920093039B1B0C0793FFF7E1FF069041
:106A6400FFF788FE0246079B934204D3214940F274
:106A7400A31007F0D3FE069B1904009B5A1C0A9B23
:106A84001340079A0A431C4902339B000B445A6083
:106A9400009A0A9B134002339B00174A13440433A1
:106AA4000593039B03F00703D9B2059A137861F3A6
:106AB400C5031370019B03F00F03D9B2059A138821
:106AC40061F389131380029BC3F31501059A1368BC
:106AD40061F39F231360059A1378012161F3010385
:106AE4001370059A13786FF38203137000BF09B013
:106AF4005DF804FB08A20300B0B9002000B58DB016
:106B04000390029113468DF80730039B02330A93D6
:106B140001238DF8273000238DF81B300DF11B0362
:106B2400184602F07BF9404B1A68029B1A603E4BF0
:106B34009A683D4B59683C4B1B68CB1A134401338C
:106B44000B9314E00121394802F05BFAFFF7DEFEF3
:106B540008900899354802F054FA334B9A68324B3E
:106B64005968314B1B68CB1A134401330B930A9AAF
:106B74000B9B9A42E6D89DF82730002B48D000237F
:106B840005939DF80730002B17D09DF8143001228F
:106B940062F301038DF814309DF8143043F00403BC
:106BA4008DF81430039B03F00F03DAB2BDF81430F0
:106BB40062F38913ADF8143016E09DF81430022204
:106BC40062F301038DF814309DF8143043F004038C
:106BD4008DF81430039BC3F309039AB2BDF8163041
:106BE40062F38F13ADF816300F4B1A680E4B9B6887
:106BF400134002339B000C4A134404330793059A51
:106C0400079B1A60084B1A680A9B1344064A1360D0
:106C14009DF81B30184602F017F99DF827301846E6
:106C24000DB05DF804FB00BFB0B90020CCBD00205E
:106C340000B58BB005900491039202931F4B9B689F
:106C4400079306AB012219460298FFF757FF034644
:106C5400002B24D0069B023309930023089311E0F0
:106C6400089B9B00039A1A44099B591C0991079994
:106C74000B401268114902339B000B445A60089B75
:106C840001330893089A029B9A42E9D3069A079B18
:106C940000931346029A04990598FFF7D5FE074B13
:106CA40093F82034002B05D000BF00F097F803467A
:106CB400002BFAD100BF0BB05DF804FBB0B9002083
:106CC40000B583B00190009100230022009901983F
:106CD400FFF7AEFF00BF03B05DF804FB00B587B05B
:106CE400039002910192019B059305AA0123029945
:106CF4000398FFF79DFF00BF07B05DF804FB00B5E4
:106D040087B00390029101920093019B0493009B2E
:106D1400059304AA022302990398FFF789FF00BF91
:106D240007B05DF804FB00B589B0039002910192AD
:106D34000093019B0593009B06930A9B079305AA66
:106D4400032302990398FFF773FF00BF09B05DF8AE
:106D540004FB00B58BB00390029101920093019B58
:106D64000593009B06930C9B07930D9B08930E9B26
:106D7400099305AA052302990398FFF759FF00BF59
:106D84000BB05DF804FB00B58BB003900291019247
:106D94000093019B0493009B05930C9B06930D9B0E
:106DA40007930E9B08930F9B099304AA0623029949
:106DB4000398FFF73DFF00BF0BB05DF804FB000034
:106DC400054B5A68044B1B689A420CBF01230023ED
:106DD400DBB21846704700BFB0B9002000B599B0C7
:106DE400FFF7EEFF0346002B01D00023BCE19A4BD2
:106DF4000022C3F81824BFF34F8F974B5B680493AA
:106E0400954B9B681093049A109B134002339B008C
:106E1400914A1344043311930023179300231693C8
:106E240000230F9304AB19461198FFF737FD03466F
:106E3400002B19D0884BD3F81834002B14D1864B6F
:106E44001A68049B9A4205D8834B1B68824A536094
:106E5400002389E1049A109B134002339B007E4A6D
:106E6400134404331193DDE70023159311E0049BCD
:106E74005A1C0492109A1340159A920001A90A44CC
:106E8400754902339B000B445B681360159B013307
:106E94001593159B012BEAD99DF8043003F00303E5
:106EA400DBB2022B40F09C80BDF80630C3F389139B
:106EB4009BB20E93BDF80630C3F389139BB2502BDB
:106EC40028BF50239BB20D930D9BC3F309039AB2C1
:106ED400BDF8063062F38F13ADF806300D9B08330E
:106EE4000C939DF80430C3F3C203DBB20F930C99E7
:106EF4005A4802F008FE1790179B002B00F0D08030
:106F0400179802F090FE01A9169B0822179802F028
:106F140045FF169B08331693049BDA43109B1340DA
:106F240001339B000B930D9A0B9B9A4242D90B9B06
:106F3400002B08D0049A109B134002339B00464A4E
:106F44001344043300E0464B0A930B9B002B02D0FE
:106F54000B9BDBB201E00D9BDBB28DF827300B9B62
:106F6400002B01D03E4B00E0002308930B9B002B29
:106F740006D00D9BDAB20B9BDBB2D31ADBB200E076
:106F840000238DF81F309DF82720169B0A99179827
:106F940002F004FF9DF82730169A13441693089BB9
:106FA400002B16D09DF81F20169B0899179802F005
:106FB400F5FE0EE0049A109B134002339B00264A10
:106FC400134404330693169B0D9A0699179802F0FE
:106FD400E5FE0E9B03339A08049B134404935FE07D
:106FE4009DF8043003F00303DBB2012B58D1BDF844
:106FF4000430C3F38313DBB2062B28BF0623DAB2B3
:10700400BDF8043062F38913ADF80430BDF80430E0
:10701400C3F38313DBB2023305939DF80430C3F347
:10702400C203DBB20F93059B9B0019460B4802F089
:107034006AFD1790179B002B32D0179802F0F3FDCE
:1070440001A9169B0822179802F0A8FE169B083384
:107054001693002315931AE0B0B90020E8A00300AA
:10706400BCB90020049B5A1C0492109A13400233AA
:107074009B003F4A1344191D169B0422179802F0E3
:107084008DFE169B04331693159B01331593BDF89F
:107094000430C3F38313DBB21A46159B9342E1D346
:1070A400179B002B40D0324BD3F810341493304B41
:1070B400D3F81834002B1BD0179802F0C3FD4DE011
:1070C40000238DF84F301498FFF712FB0346002B72
:1070D40002D001238DF84F309DF84F30002B03D0A0
:1070E40017991498FFF7C0FA149BDB681B68149374
:1070F400149B002BE4D1179802F0A4FD00238DF813
:1071040003300DF10303184601F088FE184BD3F841
:107114001834002B02D1049B154A53609DF80330A8
:10712400184601F091FE19E0114BD3F81034129374
:1071340006E01298FFF7B2FA129BDB681B68129301
:10714400129B002BF5D10B4A0B4BD31ADB081B0403
:1071540043F0020309491846FFF7B2FDFFF730FE7A
:10716400034683F00103DBB2184619B05DF804FB53
:10717400B0B9002080A0030050A0030060A2030067
:1071840000B585B00023039323E0164BD3F81034E5
:10719400029301238DF807300FE00298FFF797FA66
:1071A40003461A46039B934203D100238DF807300C
:1071B40006E0029BDB681B680293029B002BECD168
:1071C4009DF80730002B01D0039B07E0039B01339C
:1071D4000393039B092BD8DD4FF0FF33184605B00A
:1071E4005DF804FBB0B9002000B585B001900B46F2
:1071F4008DF80330FFF7C4FF0390039BB3F1FF3F07
:1072040001D1039B22E0039BDBB219460198FFF7EF
:1072140051FA104BD3F81034002B08D10D4A019BBE
:10722400C2F81034019BDB6800221A600DE0094BA0
:10723400D3F81034DA68019BDB6812681A60054BD6
:10724400D3F81034DB68019A1A60039B184605B022
:107254005DF804FBB0B9002000B583B00C4BD3F843
:10726400103401930A4B012283F8202409E0019889
:10727400FFF735FA0198FFF705FA019BDB681B68F5
:107284000193019B002BF2D100BF03B05DF804FB16
:10729400B0B9002082B00190009100BF02B07047E5
:1072A40010B584B003900291039BDB88002B0AD0B5
:1072B400039BDB881A461F4B009313461E4A1F4943
:1072C400029802F017F8039B1B7A052B2ED0039B20
:1072D4005B7A002B12D0039B9B881A46039B1B7A74
:1072E40019461046FFF7A2FA03461A46144B53F800
:1072F40022301A461349029801F0FCFF039B1B68D5
:1073040019460298FFF7C6FF039B1B7A1A460E4BD9
:1073140053F82240039B9B8800211846FFF766FA26
:10732400034622460949029801F0E4FF00BF04B075
:1073340010BD00BF94A20300A4A20300DCA20300BA
:107344001C400020F4A2030008400020F8A203001F
:1073540000B585B00390029113468DF80730039B66
:107364001B7A052B0FD0039B5B7A002B06D00D4BA9
:107374001B681A460C49029801F0BCFF0B4902989D
:1073840001F0B8FF07E09DF80730002B03D0074950
:10739400029801F0AFFF029801F08AFF00BF05B028
:1073A4005DF804FB1C400020F4A2030004A30300C6
:1073B40030B58BB007900691059204930E9B1B7B0E
:1073C4008DF827300E9B00221A730E990498FFF74C
:1073D40067FF059B062B7FD801A252F823F000BF5C
:1073E400017402000B7402001B7402002F7402006B
:1073F4004D74020075740200A574020007990E987A
:1074040001F078FF69E0069B1B681A4607990E98FD
:1074140001F070FF61E0069B1A68069B04331B6849
:1074240007990E9801F066FF57E0069B1A68069BC1
:1074340004331968069B08331B6800930B460799AD
:107444000E9801F057FF48E0069B1968069B043329
:107454001868069B08331B68069A0C32126801925E
:10746400009303460A4607990E9801F043FF34E05F
:10747400069B1868069B04331C68069B08331B682C
:10748400069A0C3212680699103109680291019229
:1074940000932346024607990E9801F02BFF1CE047
:1074A400069B1C68069B04331D68069B08331B68F7
:1074B400069A0C321268069910310968069814303D
:1074C400006803900291019200932B46224607998B
:1074D4000E9801F00FFF00E000BF00220E990498FF
:1074E400FFF736FF0E9B9DF827201A7300BF0BB0E1
:1074F40030BD00BF00B587B00390029101920093A4
:10750400029B082B60D8009B1B7B8DF81330009BDB
:1075140000221A7300990198FFF7C2FE0023059315
:1075240014E0059A029B9A4209D2039A059B1344DC
:107534001B781A462649009801F0DCFE03E0254931
:10754400009801F0D7FE059B01330593059B072B9B
:10755400E7D92149009801F0CDFE0023059326E0E8
:10756400059A029B9A421BD2039A059B13441B78EB
:107574008DF812309DF812307E2B0AD89DF8123007
:10758400184612F081F80346002B02D09DF8123001
:1075940000E02E231A461149009801F0ABFE03E0E7
:1075A4000F49009801F0A6FE059B01330593059B46
:1075B400072BD5D9012200990198FFF7C9FE009B3A
:1075C4009DF813201A7300E000BF07B05DF804FBB8
:1075D40008A3030010A3030014A3030018A30300CB
:1075E4001CA303002DE9F04792B0099000238DF805
:1075F4004730ADE05C4B1A689DF84730DB0013441C
:107604001093109B1B7818464FF001034FF00004B1
:10761400A0F12002C0F1200104FA00FA03FA02F2F8
:107624004AEA020A23FA01F14AEA010A03FA00F9D2
:10763400CDE90E9A4D4BD3E90012DDE90E3401EA8F
:107644000300009002EA04030193DDE900342343BC
:1076540079D0DDE90E34DA430292E3430393434BDA
:10766400D3E90034DDE9020102461A4004920A46D5
:1076740002EA040305933D4BDDE90412C3E9001259
:10768400109B1B78184604F005F903468DF8373033
:10769400109B1B7818464FF001034FF00004A0F133
:1076A4002002C0F1200104FA00F603FA02F21643A4
:1076B40023FA01F10E4303FA00F52D4BD3E900340C
:1076C40005EA0302069206EA040307939DF83710BD
:1076D4004FF00002109B1B781C46A4F12003C4F158
:1076E400200002FA04F801FA03F348EA030821FA35
:1076F40000F048EA000801FA04F7DDE906344445DD
:1077040008BFBB421FD19DF83720109B5B78012B2B
:107714000CBF01230023DBB29A420CBF01230023D8
:10772400DBB2DBB24FF00004CDE90A34109B5B6896
:10773400002B08D0109B5C68109B1A789DF82830A9
:1077440019461046A0479DF8473001338DF847305D
:10775400084B1A789DF847309342FFF44BAF00BFB3
:1077640012B0BDE8F08700BFD4BD002008BE0020E1
:1077740000BE0020D8BD00202DE9F04790B00B904A
:107784000B468DF82B304FF001034FF000040B989B
:10779400A0F12002C0F1200104FA00F603FA02F27B
:1077A400164323FA01F10E4303FA00F5CDE90E5610
:1077B400394B184601F08AF80D900D9B002B66D1C9
:1077C400364BD3E90012DDE90E3401EA03000090E0
:1077D40002EA04030193DDE90034234343D10B9807
:1077E40004F058F80346002B10D02D4BD3E90012B7
:1077F400DDE90E3441EA0300029042EA04030393F4
:10780400274BDDE90212C3E9001213E0DDE90E346F
:107814006FEA03096FEA040A214BD3E9003409EA49
:10782400030204920AEA040305931D4BDDE90412E2
:10783400C3E90012194BD3E90012DDE90E3441EA21
:107844000300069042EA04030793144BDDE9061291
:10785400C3E900121048134B1B680022194601F0BB
:1078640003F80D9014E0DDE90E34DF436FEA0408F9
:107874000A4BD3E9003407EA0302089208EA040336
:107884000993064BDDE90812C3E9001200E000BFCA
:1078940010B0BDE8F08700BFE0BD002008BE0020A6
:1078A40000BE0020DCBD002010B58AB003900B465A
:1078B40001928DF80B30019B042B01D807235AE069
:1078C40003F0DAFE034683F00103DBB2002B09D098
:1078D40003F080FE0990099B0893089B002B01D0BC
:1078E400089B48E0254A039B1360254A9DF80B300A
:1078F4001370244A019B1360234A4FF000034FF096
:107904000004C2E90034214A4FF000034FF00004A0
:10791400C2E9003422E09DF80B30DB00039A1344E3
:10792400079305AB00210A461A800A469A7003237E
:107934008DF81430079B9B788DF81530079B1B78C6
:10794400184605AB124A194603F0A2FE0990099B9A
:107954000693069B002B01D0069B0CE09DF80B3090
:107964005A1E8DF80B20002BD5D10A4A00210A4853
:1079740000F04AFF034618460AB010BDD4BD0020EB
:10798400D8BD0020DCBD002000BE002008BE0020C1
:107994007D770200E975020020A3030000B583B0DF
:1079A400114B1B68002B03D11049BA2006F036FF97
:1079B400002301930CE00C4B1A68019BDB00134479
:1079C4001B780121184603F0DDFE019B013301936E
:1079D400074B1B781A46019B9342ECD300231846AD
:1079E40003B05DF804FB00BFD4BD002024A3030052
:1079F400D8BD002086B003900291019201238DF836
:107A040017309DF81730204A039B13601E4A029BCF
:107A140053601D4A019B9360039B44F2010293420D
:107A240013D0039B44F20202934221D1019B164AD4
:107A3400D360154BDB681B881A46134B9A61124BB3
:107A4400DB685B68104AD36112E0019B0E4A136144
:107A54000D4B1B699B680C4A53610B4B1B691B68DC
:107A6400094A9361084B1B695B68074AD36100BFED
:107A740072B600BF9DF81730DBB2002BFAD162B6A4
:107A840000BF06B0704700BF10BE002000B583B031
:107A940002900091019244F2010071466A4600F09E
:107AA40003F803B000BD00BF30B58BB0079006915A
:107AB400059272B6FFF7D0FB00BFFFF78FF90346BC
:107AC400002BFAD1079B41F2010293421FD0079B7E
:107AD40041F20102934203D8079B012B0BD061E0D2
:107AE400079B44F2010293422FD0079B44F2020207
:107AF400934218D056E0394A394BD31ADB081B0499
:107B040043F0010337491846FFF7DAF857E0334AE0
:107B1400334BD31ADB081B0443F0010332491846E4
:107B2400FFF7CEF84BE0059B09932C4A2C4BD31A54
:107B3400DB081B0443F00100099B5B681A46099BA0
:107B44001B882A49FFF7DBF839E0059B0893234A91
:107B5400234BD31ADB081B0443F00104089B9D68E4
:107B6400089B9B68184602F06BFA03461846089B6C
:107B74005B681946089B1B68069A02920193009160
:107B840003462A461A492046FFF7E3F8134A144BE2
:107B9400D31ADB081B0443F0010316491846FFF708
:107BA4008FF80CE00D4A0E4BD31ADB081B0443F08C
:107BB4000103069A10491846FFF790F800BF0F4BCF
:107BC4001B6803F00103002B00D000BE059A069940
:107BD4000798FFF70FFF00BF0BB030BD80A0030074
:107BE40050A0030074A3030094A30300B8A30300EC
:107BF400D4A30300FCA3030010A40300F0ED00E0F1
:107C040084B00190019B9B680393019BDA68039BFA
:107C1400D31A184604B0704782B001900B468DF811
:107C24000330019B1A68019BDB68019989880B402A
:107C340013449DF803201A70019BDB685A1C019BB6
:107C4400DA6000BF02B0704784B003900B46019223
:107C5400ADF80A30039B1A68039B9968BDF80A3093
:107C64000B44039989880B4013441A78019B1A70BA
:107C740000BF04B0704700B583B001900091009A32
:107C840000210198FFF7E0FF019B9B685A1C019BB0
:107C94009A6000BF03B05DF804FB84B003900291C6
:107CA4001346ADF80630029B002B01D10E231DE0D4
:107CB400BDF80630002B07D0BDF806305A1EBDF8BB
:107CC40006301340002B01D009230FE0039B029AD6
:107CD4001A60BDF80630013B9AB2039B9A80039B5D
:107CE40000229A60039B0022DA600023184604B045
:107CF400704700B583B001900B468DF803300198AE
:107D0400FFF77EFF0246019B9B889A4207D89DF8A5
:107D1400033019460198FFF77FFF002300E0042396
:107D2400184603B05DF804FB00B583B001900091E0
:107D34000198FFF765FF0346002B05D000990198D1
:107D4400FFF799FF002300E00523184603B05DF810
:107D540004FB000082B003468DF807309DF807301D
:107D640003F01F0205499DF907305B09012000FA61
:107D740002F241F8232000BF02B0704700E100E0A6
:107D840082B003468DF807309DF8073003F01F02D8
:107D940006499DF907305B09012000FA02F22033FD
:107DA40041F8232000BF02B0704700BF00E100E0AB
:107DB40082B003468DF807309DF8073003F01F02A8
:107DC40006499DF907305B09012000FA02F24033AD
:107DD40041F8232000BF02B0704700BF00E100E07B
:107DE40082B003468DF807309DF8073003F01F0278
:107DF40006499DF907305B09012000FA02F260335D
:107E040041F8232000BF02B0704700BF00E100E04A
:107E140082B0034600918DF807309DF90730002B9E
:107E24000CDA009BDAB20C499DF8073003F00F031B
:107E3400043B5201D2B20B441A7609E0009BDAB239
:107E440006499DF907305201D2B20B4483F800234E
:107E540000BF02B0704700BF00ED00E000E100E0A9
:107E640000B585B00190019B002B0AD0074B43F06D
:107E740001030393019B9B010293039B0298984780
:107E840000E000BF05B05DF804FB00BF30A40300B0
:107E940000B583B00190064A019BC2F8083506215B
:107EA4001120FFF7B5FF00BF03B05DF804FB00BF6E
:107EB4000010014008B50D4B4FF48032C3F8442341
:107EC4000A4B4FF48032C3F804231120FFF788FFD4
:107ED4001120FFF73FFF054B01221A602F20FFF707
:107EE400BFFF034B01221A7000BF08BD0010014000
:107EF4004EBF002008B51120FFF742FF0E4B4FF490
:107F04008032C3F848230C4B4FF48032C3F8082363
:107F1400094B01225A602F20FFF7A2FF064B0122D2
:107F24009A60064B00221A602F20FFF799FF044B3A
:107F340000221A7000BF08BD0010014040BF00209D
:107F44004EBF0020024BD3F804351846704700BFDB
:107F54000010014082B001900091019A009BD31A55
:107F640023F07F43184602B07047000082B00190AE
:107F7400034A019BC2F8403500BF02B0704700BFFE
:107F84000010014086B00190284B1B68002B03D1E0
:107F9400264A019B136045E0019B1A68234B1B682A
:107FA4001B689A4210D8214B1B681968019B1A68F8
:107FB4001E4B1B688A1A1A601C4B1A68019BDA61F3
:107FC4001A4A019B13602DE0019B1B680393174B16
:107FD4001B680593154B1B68049309E0049B1B68FD
:107FE400039AD31A0393049B0593049BDB690493BC
:107FF400049B002B04D0049B1B68039A9A42EDD87F
:10800400049B002B05D0049B1A68039BD21A049B83
:108014001A60019B039A1A60019B049ADA61059B1A
:10802400019ADA6100BF06B0704700BF3CBF002070
:1080340000B587B001902A4B1B680393284B1B683B
:108044000593059B049308E0049A019B9A4208D087
:10805400049B0593049BDB690493049B002BF3D1DD
:1080640000E000BF049B002B01D1002333E0059AFC
:10807400049B9A4214D11A4B1B68DB69184A13609B
:10808400174B1B68002B0BD1164B01229A60164B21
:1080940000221A60154B01221A702F20FFF7E0FE10
:1080A400049B1B680293049BDA69059BDA61059BB8
:1080B400DB690493049B002B05D0049B1A68029B84
:1080C4001A44049B1A60064B1B68039A9A4214BF15
:1080D40001230023DBB2184607B05DF804FB00BFA0
:1080E4003CBF00200010014040BF00204FBF0020D3
:1080F40008B51120FFF75CFE00BF08BD08B51420C9
:10810400FFF756FE00BF08BD00B583B00190019B88
:108114005B69019A92691046984700BF03B05DF805
:1081240004FB000000B585B02B4B1B68002B4ED020
:1081340000230193FFF706FF0246284B1B681946EC
:108144001046FFF707FF0290234B1B6803931DE0C3
:10815400039B1B68029A9A421CD3039B1B68029AD6
:10816400D31A0293039B1B68019A13440193039B44
:108174000093039BDB690393009B1B7C002B05D0BE
:10818400009B00221A740098FFF7BEFF039B002B8C
:10819400DED100E000BF124B1A78124B1B789A42D2
:1081A4000CD1104B1B780133DAB20E4B1A700D4B05
:1081B4001B78022B02D10B4B00221A70094B1B783F
:1081C4001946094A019B42F82130FFF797FF00BF87
:1081D40005B05DF804FB00BF3CBF002040BF002099
:1081E4004CBF00204DBF002044BF002082B001904E
:1081F400184B1A78184B1B789A4223D0154B1B78CE
:108204000133DAB2134B1A70124B1B78022B02D1D2
:10821400104B00221A700F4B1B781A460F4B53F861
:108224002220019B1A60019B1A680D4B1B681344A2
:108234000B4A13600A4B1B6823F07F43084A136000
:10824400012303E0019B00221A600023184602B0B8
:10825400704700BF4CBF00204DBF002044BF00202A
:1082640040BF002088B0039002910192002307933D
:1082740038E0204B1B680693069B1B68039A9A42BE
:1082840006D2069B1A68039BD21A069B1A602DE03D
:10829400069B1B68039AD31A0393069B1B68079AD1
:1082A40013440793069B00221A60124B1B68059324
:1082B400069BDB690F4A1360069BDB68002B11D019
:1082C400029A079B134423F07F42069B5A60069B45
:1082D400DA68069B9A60019B1A68069BDA61019B27
:1082E400059A1A60034B1B68002BC2D100BF08B06B
:1082F400704700BF3CBF002000B589B00190002347
:108304008DF81F30664B1B680593AAE0019B002B78
:1083140005D0019B0693069BDB69019361E0614BE9
:108324001B781A4613465B001344DB005D4A134472
:10833400043304935B4B1B780133DAB2594B1A7044
:10834400584B1A78574B9B789A4202D1554B0022CE
:108354001A70049B5B680693049B1B78022B04D061
:10836400032B1BD0012B1FD01DE0049B5B68184618
:10837400FFF75EFE0346002B02D001238DF81F3069
:10838400069B00221A746CE0454B1B680393039B05
:1083940000221A74039BDB69414A1360404B1B683B
:1083A400002BF1D15DE05CE000BF069B1B7C002B41
:1083B40000D056E0049B9A68069B5A60049BDA68D6
:1083C400069B9A60049B1A69069BDA60049B5A69AF
:1083D400069B9A61344B1B78002B02D0069B00222B
:1083E4005A60069B5A68314B1B68D31A23F07F43AB
:1083F4002F4A93420ED8069B5A682C4B1B68194689
:108404001046FFF7A7FD0246069B9B681A44069B8D
:108414001A6017E0254B1A68069B5B6819461046DC
:10842400FFF798FD0290069B9B68029A9A4206D237
:10843400069B9A68029BD21A069B1A6002E0069B6E
:1084440000221A60069B00225A60069B00229A6052
:10845400069B01221A74069B0022DA610698FFF734
:1084640091FD019B002B7FF451AF0E4B1A780D4BFD
:108474005B789A427FF44AAF9DF81F30002B04D1F9
:10848400074B1B68059A9A4201D0012300E00023A0
:1084940003F00103DBB2184609B05DF804FB00BF2A
:1084A4003CBF002030BE00204FBF002040BF002052
:1084B400FEFF7F0010B588B00190274B1B68002B8E
:1084C40044D0254B1B681B680793FFF73BFD0690C0
:1084D400224B1B68059305990698FFF73BFD03465D
:1084E400033304931E4B1B7883F00103DBB2002B90
:1084F40001D0FFF7DFFC049A079B934238BF134671
:10850400059A13440593059B23F07F43059305982F
:10851400FFF72CFDFFF716FD039006990398FFF76C
:1085240019FD0346DC1C06990598FFF713FD034665
:108534009C420DD9FFF706FD03461846FFF716FDCA
:108544002F20FFF78DFCFFF7D3FD01E0FFF7D2FCEE
:1085540000BF08B010BD00BF3CBF002040BF0020DA
:108564004EBF002000B587B00023019300238DF88F
:108574001730194B1B680493184B1B6803936B4605
:108584001846FFF733FE03468DF80B309DF80B3089
:10859400002B08D0009B01AA04991846FFF762FE3D
:1085A40001238DF81730019B1846FFF7A5FE0346FB
:1085B400002B02D001238DF817309DF81730002BC3
:1085C40002D00398FFF776FF054B00221A7000BF14
:1085D40007B05DF804FB00BF40BF00203CBF002093
:1085E4004FBF002082B003468DF80730034A9DF840
:1085F4000730537000BF02B0704700BF30BE002088
:1086040084B00190144B5B7801338DF80F30124B1A
:108614009B789DF80F209A4202D100238DF80F30E9
:108624000D4B1B789DF80F209A4201D100230FE0D7
:10863400019B9DF80F201A70074B5B781A4613466E
:108644005B001344DB00044A134404330293029B8B
:10865400184604B0704700BF30BE002000B589B092
:1086640003900291019200930023079300238DF855
:1086740016300DF11603184600F0D0FB0DF1170368
:108684001846FFF7BDFF0690069B002B02D104237A
:10869400079318E0069B01221A70069B039A5A60FE
:1086A400FFF750FC0246069B9A60069B029ADA602A
:1086B400069B019A1A61069B009A5A619DF817302D
:1086C4001846FFF78FFF9DF81630184600F0BCFBE4
:1086D400079B002B01D1FFF711FD079B184609B03A
:1086E4005DF804FB00B587B001900B468DF80330AC
:1086F4000023059300238DF80E300DF10E03184668
:1087040000F08CFB0DF10F031846FFF779FF04907E
:10871400049B002B02D1042305930BE0049B9DF8DA
:1087240003201A70049B019A5A609DF80F30184672
:10873400FFF758FF9DF80E30184600F085FB059BA7
:10874400002B01D1FFF7DAFC059B184607B05DF852
:1087540004FB000008B50E4B0022C3F840210C4B6B
:108764000022C3F844210A4B0022C3F84821084BD5
:108774000022C3F84C21064B0022C3F80021044B0D
:108784000022C3F80421FFF7CDFC00BF08BD00BFE1
:108794000010014008B5FFF7E5FE00BF08BD00006A
:1087A40008B5FFF7A7FB134B00221A70114B0022E8
:1087B4005A70104B0B229A700F4B00221A600F4B09
:1087C40000221A700E4B00221A701420FFF708FBC7
:1087D40006211420FFF71CFB1420FFF7BBFA00202E
:1087E400FFF756FBFFF7AEFB0246064B1A60002369
:1087F400184608BD30BE00203CBF00204CBF0020FE
:108804004DBF002040BF002086B003900B4601926C
:108814008DF80B30134B9B78002B01D108231EE0FD
:10882400019B002B01D1072319E0039B002B01D1ED
:10883400072314E0039B1B681B7C002B01D0082337
:108844000DE0039B1B680593059B00221A74059B8E
:108854009DF80B205A74059B019A5A61002318460F
:1088640006B0704730BE002000B587B00390029177
:108874000192039B0593144B9B78002B01D1082391
:108884001EE0039B002B01D1082319E0029B042B5B
:1088940001D8072314E0059B5B69002B01D1082351
:1088A4000EE0059B5B7C012B01D1029B00E00023C1
:1088B4000493019B049A02990598FFF7CFFE03469F
:1088C400184607B05DF804FB30BE002000B585B043
:1088D4000190019B03930D4B9B78002B01D108233E
:1088E40010E0019B002B03D0039B5B69002B01D19B
:1088F400082307E0039B00221A7402210398FFF760
:10890400F1FE0346184605B05DF804FB30BE0020B6
:1089140000B587B00390029113468DF80730002309
:108924000593039B1B781A46114B9B5C002B09D0C3
:10893400039B04339DF807200299184604F016FBA4
:1089440005900FE0039B1B781A46094B9B5C002B98
:1089540008D1039B0C339DF807200299184603F0B5
:10896400D1FC0590059B184607B05DF804FB00BFD9
:10897400BCBF002000B585B0019000238DF80F30F6
:10898400019B1B781A46114B9B5C002B08D0019B62
:108994000433184604F094FB03468DF80F300EE0C0
:1089A400019B1B781A46094B9B5C002B07D1019B4A
:1089B4000C33184603F02EFD03468DF80F309DF856
:1089C4000F30184605B05DF804FB00BFBCBF0020A3
:1089D40000B587B00390029113468DF80730002349
:1089E4000593039B1B781A46114B9B5C002B09D003
:1089F400039B04339DF807200299184604F078FB82
:108A040005900FE0039B1B781A46094B9B5C002BD7
:108A140008D1039B0C339DF807200299184603F0F4
:108A240051FD0590059B184607B05DF804FB00BF97
:108A3400BCBF002084B00190019B9B680393019B01
:108A4400DA68039BD31A184604B0704700B587B0A0
:108A540001900091019B1B78012B04D0022B38D08C
:108A6400002B47D05CE0019B5B681B7819462E48BD
:108A7400FFF73FF90590059B002B0AD001238DF8E1
:108A84000C30059B0493294B1B6803AA1046984796
:108A94000DE02548FFF7CEFF0346002B07D0002347
:108AA4008DF80C30214B1B6803AA104698471E48CA
:108AB400FFF7C0FF02461C4B9B889A4205D801224F
:108AC4001B491C48FFF784FF2AE01B4B01221A7044
:108AD40026E002238DF80C30019BDB68049301220D
:108AE40013491448FFF774FF104B1B6803AA104680
:108AF400984715E011491248FFF716F90346002B71
:108B040005D101220D490B48FFF702FF07E00323BB
:108B14008DF80C30054B1B6803AA1046984700BF1C
:108B240000BF07B05DF804FB5CBF002050BF00200D
:108B340058BF00204040002059BF002054BF0020EF
:108B44006CBF002030B591B00390029101928DF872
:108B540003303C4A019B1360029B002B01D1072385
:108B64006DE0029B1968029B5B689BB21A4636480B
:108B7400FFF793F80F900F9B0E930E9B002B01D0E1
:108B84000E9B5CE0029B9968029BDB689BB21A46D1
:108B94002E48FFF782F80F900F9B0D930D9B002B2F
:108BA40001D00D9B4BE02A4B04AC1D460FCD0FC4E6
:108BB40095E80F0084E80F00039B5B690A93039B0D
:108BC4001B7C002B14BF01230023DBB28DF824305F
:108BD4009DF803308DF82C30039B5B7C002B01D077
:108BE4000E2300E000238DF82530039BDB680693F9
:108BF400039B9B680793039B1B680593039B5B681C
:108C0400049304AB134A1946134801F041FF0F9033
:108C14000F9B0C930C9B002B01D00C9B0FE00F4B74
:108C240000221A70039B1B68B3F1FF3F06D0012298
:108C34000B490948FFF7CCFE034600E00023184621
:108C440011B030BD50BF00205CBF00206CBF0020BD
:108C540038A40300518A02004040002059BF00207C
:108C640058BF002000B587B00190019B002B03D1B1
:108C74001449C22005F0D2FD134B1B788DF8173030
:108C840001991248FFF750F804909DF81730002B13
:108C940012D00D4B00221A7001220D490D48FFF726
:108CA40097FE0390039B0293029B002B04D0054A7A
:108CB400CE210298FEF7EAFE049B184607B05DF841
:108CC40004FB00BF58A4030059BF00205CBF002070
:108CD40058BF00204040002000B585B003468DF801
:108CE40007309DF8073019461048FFF702F8039043
:108CF400039B002B15D10E48FFF73CFE034683F07F
:108D04000103DBB2002B0CD00A490848FFF70CF82A
:108D14000346002B05D1012206490548FFF7F8FD5B
:108D24000390039B184605B05DF804FB6CBF00205C
:108D34004040002054BF002082B0EFF31083009322
:108D4400009B019372B6019B184602B0704762B64D
:108D540000BF704700B585B00190FFF7EDFF0390A9
:108D6400164B9B68002B1BD1144B01229A60144BA9
:108D7400D3F88020134B1340104A1360104B114A50
:108D8400C3F880200E4BD3F884300C4A53600C4B4C
:108D94004FF0FF32C3F88420019B00221A7002E0D6
:108DA400019B01221A70039B002B01D1FFF7CFFF17
:108DB4000023184605B05DF804FB00BF7CBF00200B
:108DC40000E100E0FC06FFBD00B585B003468DF868
:108DD4000730104B9B68002B16D09DF80730002BF2
:108DE40012D1FFF7A9FF03900B4A0A4B1B681360CB
:108DF400094A084B5B685360064B00229A60039B48
:108E0400002B01D1FFF7A3FF0023184605B05DF83E
:108E140004FB00BF7CBF002000E100E000B583B08C
:108E2400019000F02BF80346012B03D005494320A1
:108E340005F0F4FC0198FFF78DFF00BF03B05DF867
:108E440004FB00BFA8A4030000B583B003468DF85B
:108E5400073000F013F80346012B03D006495120D4
:108E640005F0DCFC9DF807301846FFF7ADFF00BFA6
:108E740003B05DF804FB00BFA8A4030084B0EFF3C3
:108E840005830193019BC3F308030393039B002B06
:108E94000DD1EFF314830093009B0293029B03F024
:108EA4000103002B0CBF01230023DBB200E00123EC
:108EB400184604B0704700B585B001900091009B3E
:108EC4005B099B00019AD018009B03F01F03012249
:108ED40002FA03F3194600F04CF8039000BF05B002
:108EE4005DF804FB00B585B001900091009B5B091F
:108EF4009B00019AD018009B03F01F03012202FA81
:108F040003F3DB43194600F064F8039000BF05B097
:108F14005DF804FB82B001900091009B5B099B000B
:108F2400019A13441A68009B03F01F0322FA03F307
:108F340003F00103002B14BF01230023DBB2184606
:108F440002B0704710B487B001900091019B009A61
:108F540053E8004F104643E8000191F0000FF7D1A9
:108F6400059404900391059B184607B05DF8044BE3
:108F7400704710B487B001900091019B009A53E8A8
:108F8400004F44EA020043E8000191F0000FF6D1DB
:108F9400059404900391049B184607B05DF8044BB4
:108FA400704710B487B001900091019B009A53E878
:108FB400004F04EA020043E8000191F0000FF6D1EB
:108FC400059404900391059B184607B05DF8044B83
:108FD400704710B487B001900091019B009A53E848
:108FE400004F04EA020043E8000191F0000FF6D1BB
:108FF400059404900391049B184607B05DF8044B54
:10900400704710B487B001900091019B009A53E817
:10901400004F04EB020043E8000191F0000FF6D189
:10902400059404900391049B184607B05DF8044B23
:10903400704710B487B001900091019B009A53E8E7
:10904400004FA4EB020043E8000191F0000FF6D1B9
:10905400059404900391049B184607B05DF8044BF3
:10906400704700B583B0019001210198FFF781FF9B
:109074000346184603B05DF804FB00B583B00190C5
:1090840000210198FFF78DFF0346184603B05DF8F1
:1090940004FB000000B583B001900B468DF803304B
:1090A400019B002B03D10849E82005F0B7FB019B85
:1090B400DA689DF803300199098A01FB03F313442C
:1090C400184603B05DF804FBFCA4030000B583B0AC
:1090D40001900091019B002B03D10849F52005F074
:1090E4009DFB009B019AD2689B1A019A128AB3FBDA
:1090F400F2F3DBB2184603B05DF804FBFCA40300F2
:1091040000B585B00190019B002B01D10E234CE0EA
:10911400019B1B68002B03D12649FF2005F07EFB31
:10912400019B5B68002B04D122494FF4807005F049
:1091340075FB019B9B68002B04D11E4940F2011072
:1091440005F06CFB019BDB68002B04D119494FF43B
:10915400817005F063FB019B1B8A002B04D1154928
:1091640040F2031005F05AFB019B9A68019B5B686F
:10917400D31A8DF80F30019B1B68019A52681A604C
:1091840007E0019B1A681368591C11609DF80F20B1
:109194001A709DF80F305A1E8DF80F20002BF0D155
:1091A400019B1B6800221A710023184605B05DF864
:1091B40004FB00BFFCA4030000B585B00190019B33
:1091C400002B04D11F494FF4927005F027FB0023B4
:1091D400039300238DF80A300DF10A031846FFF7B4
:1091E4001DFE019B1B681A68019B5B689A421FD98C
:1091F400019B1B681A68013A1A601B681B781946A0
:109204000198FFF747FF0390019B9A68019B1B6835
:109214001B68D31A8DF80B30019B1B681B799DF8D2
:109224000B209A4204D9019B1B689DF80B201A71EC
:109234009DF80A301846FFF707FE039B184605B051
:109244005DF804FBFCA4030010B584B00190009108
:10925400019B002B04D1154940F2471005F0DEFABA
:10926400009B002B04D111494FF4A47005F0D6FAE9
:10927400009B039300238DF80B300DF10B0318466C
:10928400FFF7CCFD019B1B681C68621C1A600399E4
:109294000198FFF71BFF034623709DF80B30184617
:1092A400FFF7D2FD00BF04B010BD00BFFCA4030053
:1092B40000B583B00190019B002B03D10C493120F0
:1092C40005F0ACFA019B9B68002B0CD0019B5B69F9
:1092D400019A1069019A1168019A92689847019B52
:1092E40000229A6000E000BF03B05DF804FB00BFF9
:1092F4004CA503000EB400B584B00190019B002B73
:1093040003D11849422005F089FA019B5B69002BBF
:1093140003D11449432005F081FA019B1B68002BFB
:1093240003D11049442005F079FA019B5B68002BB6
:1093340003D10C49452005F071FA059B002B0AD096
:109344000023039306AB039303AB1A4605990198D4
:1093540000F0B0F900E000BF04B05DF804EB03B026
:10936400704700BF4CA5030000B583B001900B46C5
:109374008DF80330019B1A68019B9B68581C019966
:10938400886013449DF803201A70019B9A68019B1E
:109394005B689A4202D30198FFF78AFF00BF03B0CB
:1093A4005DF804FB00B587B003900291019200932D
:1093B40000230593009B03F00103002B24D00BE052
:1093C400029B01330293059B013305939DF81330EF
:1093D40019460398FFF7C8FF029B1B788DF81330DA
:1093E4009DF81330002BEBD106E0019B013B019368
:1093F40020210398FFF7B8FF019A059B9A422ED9C2
:10940400019B002BF1D12AE0029B002B0BD0029888
:1094140010F045FA059006E0019B013B01932021E1
:109424000398FFF7A1FF019A059B9A420FD9019B6C
:10943400002BF1D10BE0029B01330293059B013316
:1094440005939DF8133019460398FFF78DFF029B8F
:109454001B788DF813309DF81330002BEBD100BF2F
:1094640007B05DF804FB000000B589B003900291D9
:1094740001920093029B07930123069307E0079A46
:10948400019BB2FBF3F30793069B01330693079A00
:10949400019B9A42F3D2009A069B9A4201D9009BFF
:1094A40006930B9B03F00103002B22D10A9B002B94
:1094B4001FD00B9B03F00203002B06D0009B002B54
:1094C40003D130238DF8173002E020238DF81730B4
:1094D40008E00A9B013B0A939DF81730194603984C
:1094E400FFF742FF0A9B002B03D0069A0A9B9A427D
:1094F400EFD301230793009B012B03D9009B013B6E
:10950400009309E0029A079BB2FBF3F30493049AD5
:10951400019B9A4200D205E0079B019A02FB03F3E8
:109524000793E8E7029A079BB2FBF3F30493049BC7
:10953400079A02FB03F3029AD31A0293154A049B77
:1095440013441B7819460398FFF70EFF079A019BF3
:10955400B2FBF3F30793079B002BE3D10B9B03F0C0
:109564000103002B11D00A9B002B0ED006E00A9BAE
:10957400013B0A9320210398FFF7F6FE0A9B002B78
:1095840003D0069A0A9B9A42F1D300BF09B05DF852
:1095940004FB00BFDCA5030000B589B0059004916D
:1095A40003920293049B002BB8BF5B4206930123F2
:1095B400079307E0039B069A92FBF3F30693079B3A
:1095C40001330793039B069A9A42F3DA029A079BA4
:1095D4009A4201D9029B07930A9B002B0AD0049B51
:1095E400002B04DB0B9B03F00403002B02D00A9B2B
:1095F400013B0A930B9B03F00203002B02D0029B56
:10960400002B16D00B9B03F00103002B11D10A9BF6
:10961400002B0ED006E00A9B013B0A9320210598FB
:10962400FFF7A2FE0A9B002B03D0079A0A9B9A42DB
:10963400F1D3049B002B07DA049B5B4204932D2196
:109644000598FFF791FE08E00B9B03F00403002B41
:1096540003D02B210598FFF787FE0B9B03F0020331
:10966400002B19D00B9B03F00103002B14D1029B98
:10967400002B11D10A9B002B0ED006E00A9B013B64
:109684000A9330210598FFF76FFE0A9B002B03D045
:10969400079A0A9B9A42F1D304990B9B01930A9B64
:1096A4000093029B039A0598FFF7DEFE00BF09B002
:1096B4005DF804FB00B58FB0059004910392059BFF
:1096C400002B04D1C8494FF4A27005F0A7F8059BFC
:1096D4005B69002B04D1C4494FF4A37005F09EF8D4
:1096E400059B1B68002B04D1BF4940F2471005F0CD
:1096F40095F8059B5B68002B04D1BB494FF4A4701B
:1097040005F08CF8049B002B00F0ED81049B1B7882
:109714008DF83730049B013304939DF83730002BC8
:1097240000F0D8819DF83730252B40F0C781002305
:109734000A9301230C93049B1B788DF837309DF812
:1097440037302D2B04D0302B0AD02B2B10D017E020
:109754000A9B43F001030A93049B0133049312E030
:109764000A9B43F002030A93049B013304930AE027
:109774000A9B43F004030A93049B0133049302E01D
:1097840000230C9300BF0C9B002BD4D1002309931E
:109794009DF837302A2B0CD1039B1B68191D039AA3
:1097A40011601B68099A13440993049B01330493C1
:1097B4001AE0049B1B788DF837309DF837302F2B37
:1097C40012D99DF83730392B0ED8049B01330493FA
:1097D400099A13469B0013445B001A469DF83730E0
:1097E4001344303B0993D3E700230B93049B1B786A
:1097F4008DF837309DF837302E2B1DD1049B013363
:109804000493049B1B788DF837309DF837302F2B49
:1098140012D99DF83730392B0ED8049B01330493A9
:109824000B9A13469B0013445B001A469DF837308D
:109834001344303B0B93E4E7049B1B788DF83730DB
:109844009DF837306C2B03D09DF83730682B07D147
:10985400049B01330493049B1B788DF83730EFE7A6
:109864009DF83730253B532B00F2238101A252F897
:1098740023F000BFAD9A0200B79A0200B79A020023
:10988400B79A0200B79A0200B79A0200B79A020088
:10989400B79A0200B79A0200B79A0200B79A020078
:1098A400B79A0200B79A0200B79A0200B79A020068
:1098B400B79A0200B79A0200B79A0200B79A020058
:1098C400B79A0200B79A0200B79A0200B79A020048
:1098D400B79A0200B79A0200B79A0200B79A020038
:1098E400B79A0200B79A0200B79A0200B79A020028
:1098F400B79A0200B79A0200B79A0200B79A020018
:10990400B79A0200B79A0200B79A0200B79A020007
:10991400B79A0200B79A0200B79A0200B79A0200F7
:10992400B79A0200B79A0200B79A0200B79A0200E7
:10993400B79A0200B79A0200B79A0200B79A0200D7
:10994400399A0200B79A0200B79A0200B79A020045
:10995400B79A0200B79A0200B79A0200B79A0200B7
:10996400B79A0200B79A0200B79A0200C999020096
:10997400F1990200B79A0200B79A0200B79A02005E
:10998400B79A0200F1990200B79A0200B79A02004E
:10999400B79A0200B79A0200B79A0200B79A020077
:1099A400799A0200B79A0200B79A02005D9A0200FF
:1099B400B79A0200159A0200B79A0200B79A0200F9
:1099C400399A0200039B1B68191D039A11601B68D6
:1099D4000C930C9B8DF823309DF823301946059881
:1099E400FFF7C2FC66E000BF90A50300039B1B6861
:1099F400191D039A11601B680C930A9B0193099B20
:109A040000930B9B0A220C990598FFF7C5FD51E0C2
:109A1400039B1B68191D039A11601B680C930C9916
:109A24000A9B0193099B00930B9B0A220598FFF75D
:109A34001BFD3FE0039B1B68191D039A11601B6803
:109A44000C930C990A9B0193099B00930B9B102286
:109A54000598FFF709FD2DE0039B1B68191D039A68
:109A640011601B6807930A9B099A07990598FFF7E9
:109A740099FC1FE0039B1B68191D039A11601B6866
:109A84000C9330210598FFF76FFC78210598FFF7B8
:109A94006BFC0C99002301930823009308231022E4
:109AA4000598FFF7E1FC05E025210598FFF75CFC2C
:109AB40000E000BF049B0133049305E09DF83730B8
:109AC40019460598FFF750FC049B1B78002B7FF484
:109AD4001DAE00E000BF059B1B7B002B04D0059846
:109AE400FFF7E6FB00E000BF0FB05DF804FB00BF2A
:109AF40000B583B001900198FFF702FB03461846B6
:109B040003B05DF804FB00B58BB001900091019B9C
:109B14001B8A043B0793009A079B1344DA1C079B98
:109B2400B2FBF3F38DF81B300198FFF745FB05906A
:109B3400059B002B01D1002338E0059B00221A71FC
:109B4400059B01225A71079B9AB2059BDA80059BFB
:109B540009939DF81B30013B0493099B019A1A60F9
:109B6400002308931DE00198FFF726FB0390039B55
:109B7400002B0ED0059B5B790133DAB2059B5A7139
:109B8400099B039A1A60039B019A1A60039B099329
:109B940004E0059800F00EF8002307E0089B013369
:109BA4000893089A049B9A42DDD3059B18460BB090
:109BB4005DF804FB00B58BB00190019B0793079BF4
:109BC4005B798DF81B30019B08939DF81B30013B9A
:109BD40005930023099305E0089B1B680893099BE0
:109BE40001330993099A059B9A42F5D3089B1B6894
:109BF4000493019B0893002309930BE0089B1B68C3
:109C0400039308990498FFF71FFB039B0893099B90
:109C1400013309939DF81B30099A9A42EED300BF91
:109C24000BB05DF804FB00B585B00190019B039374
:109C3400039B043301211846FFF7E3F900BF05B085
:109C44005DF804FB00B587B00190019B0593059B6B
:109C5400043301211846FFF7ECF90346039303ABE1
:109C64000493049B1B78002B02D10198FFF7A2FFF9
:109C740000BF07B05DF804FB00B591B003900291FA
:109C840001920093039B002B03D14349B62004F0B7
:109C9400C5FD039B0993039B0F93099BDB881A461D
:109CA400099B5B7903FB02F3043B0893009A089B2E
:109CB4009A4203D33849C42004F0B0FD099BDB88E1
:109CC4000793009B1A1D079BB2FBF3F30E93009BB3
:109CD4000433079AB3FBF2F2079901FB02F29B1AD1
:109CE4000D93019B1A68009B1344089A9A4203D26D
:109CF400089A009BD31A01E0019B1B680C93019BFB
:109D04000C9A1A6005E00F9B1B680F930E9B013B96
:109D14000E930E9B002BF6D100230B93079A0D9BF9
:109D2400D31A0A930A9A0C9B934228BF13460A93A8
:109D34002AE0029A0B9B134406930F9A0D9B13443B
:109D4400043305939DF84830002B05D00A9A0599F1
:109D540006980FF0FFFC04E00A9A069905980FF0A4
:109D6400F9FC00230D930F9B1B680F930C9A0A9B1D
:109D7400D31A0C930B9A0A9B13440B93079A0C9BCC
:109D8400934228BF13460A930C9B002BD1D100BFEA
:109D940011B05DF804FB00BFECA5030000B589B069
:109DA4000590049103920293039B079307AA00234F
:109DB4000093029B04990598FFF75EFF079B039AA3
:109DC4009A4203D00349F62004F028FD00BF09B0ED
:109DD4005DF804FBECA5030000B589B0059004917F
:109DE40003920293039B079307AA01230093029B08
:109DF40004990598FFF740FF079B039A9A4204D001
:109E040004494FF4807004F009FD00BF09B05DF807
:109E140004FB00BFECA5030082B003468DF80730B5
:109E24009DF8073003F01F0206499DF907305B09CE
:109E3400012000FA02F2603341F8232000BF02B08F
:109E4400704700BF00E100E000B583B00190019BC2
:109E5400002B03D10649722004F0E0FC019B002290
:109E64001A60BFF35F8F00BF03B05DF804FB00BF4F
:109E740090A6030041DF704700BF184600B585B0C7
:109E840000238DF803300DF103031846FEF7C6FFD7
:109E9400F1EE103A0193019B0393039B23F09F037C
:109EA4000293029BE1EE103ABFF35F8F2620FFF787
:109EB400B3FF9DF803301846FEF7C6FF039B03F07B
:109EC4000703002B03D004497D2004F0A7FC00BF46
:109ED40005B05DF804FB00BFD4A6030008B5064B2B
:109EE40000221A700548FFF7AFFF0549054800F046
:109EF4004BF80023184608BD8CBF002088BF002003
:109F040028A7030090BF002000B583B0FFF7B6FF79
:109F14000FF038F80346002B0ED0FFF7ABFF01908B
:109F2400019B002B0BD0019B022B08D006494FF458
:109F3400B07004F073FC02E020BF40BF20BF00BF3C
:109F440003B05DF804FB00BFD4A6030082B0019007
:109F5400019B9B6800229A60019B9B6800221A6106
:109F6400019B9B6800225A61019B9B680022DA6076
:109F7400019B9B6800225A60019B9B6800221A6027
:109F840000BF02B07047000000B583B0019000919B
:109F9400019B002B03D11049502004F03FFC009B8F
:109FA400002B03D10C49512004F038FC019B009A8A
:109FB4001A60019B1B681A68019B5A60019B5A68CE
:109FC400019B1B685B689A4202D1019B00225A6084
:109FD40000BF03B05DF804FB34A7030000B583B0F1
:109FE4000190019B002B03D11449632004F016FC5B
:109FF400019B1B68002B03D11049642004F00EFC64
:10A00400019B5B68002B14D0019B5B681A46019B83
:10A014001B689B6813441A46019B5A60019B5A684B
:10A02400019B1B685B689A4204D1019B00225A6021
:10A0340000E000BF03B05DF804FB00BF34A70300D9
:10A0440000B585B00190019800F00EF80390039BD1
:10A05400002B01D0039B00E0024B184605B05DF8CD
:10A0640004FB00BF9CA7030086B00190164B059328
:10A07400164B04931FE0049A059BD31ADB10DA0FE6
:10A0840013445B10DB00059A13440393039B1B6882
:10A094000293029A019B9A4202D9039B04930AE019
:10A0A400029A019B9A4203D2039B0833059302E070
:10A0B400039B5B6804E0059A049B9A42DBD300236C
:10A0C400184606B0704700BF9CAB0300C4AC030045
:10A0D400BFF34F8F054BDB6803F4E0620349044B85
:10A0E4001343CB60BFF34F8F00BFFDE700ED00E0EB
:10A0F4000400FA05024B034A1A6000BF704700BF10
:10A10400544000200090D00308B500F025F9034620
:10A11400002B0ED04FF080430022C3F80C214FF0E7
:10A1240080430022C3F810214FF080430022C3F87B
:10A13400382500F035F90346002B76D04FF08053D4
:10A144007C4AD3F80434C2F820354FF08053794A5E
:10A15400D3F80834C2F824354FF08053754AD3F845
:10A164000C34C2F828354FF08053724AD3F81034B7
:10A17400C2F82C354FF080536E4AD3F81434C2F829
:10A1840030354FF080536B4AD3F81834C2F8343565
:10A194004FF08053674AD3F81C34C2F840354FF06F
:10A1A4008053644AD3F82034C2F844354FF08053C6
:10A1B400604AD3F82434C2F848354FF080535D4ADE
:10A1C400D3F82834C2F84C354FF08053594AD3F8A9
:10A1D4002C34C2F850354FF08053564AD3F83034FB
:10A1E400C2F854354FF08053524AD3F83434C2F88D
:10A1F40060354FF080534F4AD3F83834C2F8643591
:10A204004FF080534B4AD3F83C34C2F868354FF0D2
:10A214008053484AD3F84034C2F86C354FF0805329
:10A22400444AD3F84434C2F8703500F0DDF80346EC
:10A23400002B02D0404B414A1A6000F0E7F8034675
:10A24400002B03D03E4BFB22C3F8182500F0F0F896
:10A254000346002B0AD03B4B1B6823F00F023A4BFA
:10A264001B6803F00F03374913430B6000F0F2F847
:10A274000346002B03D0354B4FF400721A6000F0F4
:10A28400FBF80346002B0DD04FF08043D3F8003485
:10A2940003F00103002B05D04FF080436FF001025F
:10A2A400C3F800242A4BD3F88830294A43F47003B6
:10A2B400C2F88830BFF34F8FBFF36F8F4FF0102376
:10A2C400D3F80032002B05DB4FF01023D3F804320F
:10A2D400002B2BDA1F4B0122C3F8042500BF1D4BB2
:10A2E400D3F80034002BFAD04FF010231222C3F815
:10A2F400002200BF174BD3F80034002BFAD04FF0E4
:10A3040010231222C3F8042200BF124BD3F80034E6
:10A31400002BFAD00F4B0022C3F8042500BF0D4BCD
:10A32400D3F80034002BFAD0FFF7D2FEFFF7E2FE99
:10A3340000BF08BD00C000408C56004048810300A7
:10A3440000F00040E40E0040580200104096024025
:10A3540000ED00E000E001400F4B1B68082B17D113
:10A364000E4B1B68002B01D1012312E00B4B1B6821
:10A37400012B01D101230CE0084B1B68022B01D1F6
:10A38400012306E0054B1B68032B01D1012300E0E8
:10A3940001231846704700BF30010010340100103B
:10A3A4000F4B1B68082B17D10E4B1B68002B01D1D8
:10A3B400012312E00B4B1B68012B01D101230CE09C
:10A3C400084B1B68022B01D1012306E0054B1B68D7
:10A3D400032B01D1012300E001231846704700BF7D
:10A3E4003001001034010010064B1B68082B05D106
:10A3F400054B1B68002B01D1012300E00023184604
:10A40400704700BF3001001034010010064B1B6878
:10A41400082B05D1054B1B68002B01D1012300E05B
:10A4240000231846704700BF3001001034010010AB
:10A43400064B1B68082B05D1054B1B68002B01D16B
:10A44400012300E000231846704700BF30010010CC
:10A4540034010010064B1B68082B05D1054B1B6803
:10A46400002B01D1012300E000231846704700BFF0
:10A4740030010010340100100F4B1B68082B17D15A
:10A484000E4B1B68002B01D1012312E00B4B1B6800
:10A49400012B01D101230CE0084B1B68022B01D1D5
:10A4A400012306E0054B1B68032B01D1012300E0C7
:10A4B40001231846704700BF30010010340100101A
:10A4C40000B583B00190019B1B682F2B04D90B4965
:10A4D4004FF4F37004F0A2F9019B1B681F2B02D800
:10A4E4004FF0A04306E0019B1B6803F01F02019B91
:10A4F4001A60034B184603B05DF804FBC4AC0300B8
:10A504000003005000B585B0019001AB1846FFF779
:10A51400D7FF0390019B012202FA03F31946039823
:10A5240000F069F800BF05B05DF804FB00B585B024
:10A53400019001AB1846FFF7C3FF0390019B012272
:10A5440002FA03F31946039800F05FF800BF05B060
:10A554005DF804FB00B585B0019001AB1846FFF728
:10A56400AFFF0390039BD3F804350293029BDA43B5
:10A57400019B012101FA03F31A40039BC3F8082548
:10A58400019B01229A40029B1A40039BC3F80C25AD
:10A5940000BF05B05DF804FB00B583B001900091E5
:10A5A400009B002B03D10198FFF7C0FF02E0019844
:10A5B400FFF7A8FF00BF03B05DF804FB00B585B04A
:10A5C400019001AB1846FFF77BFF0390039800F05E
:10A5D4000AF80246019B22FA03F303F0010318462A
:10A5E40005B05DF804FB82B00190019BD3F80435FB
:10A5F400184602B0704782B001900091019B009A06
:10A60400C3F8082500BF02B0704782B001900091E2
:10A61400019B009AC3F80C2500BF02B070470000EC
:10A6240000B585B00190019B032B03D911493A2051
:10A6340004F0F4F8104A019B13441B781846FFF702
:10A64400BDFF0346002B14BF012300238DF80F30F8
:10A654009DF80F30002B14BF01230023DBB283F0DD
:10A664000103DBB203F00103DBB2184605B05DF869
:10A6740004FB00BFF4AC030034AD030000B583B0A9
:10A684000190019B032B03D90749412004F0C6F82C
:10A69400064A019B13441B7800211846FFF77CFFF0
:10A6A40000BF03B05DF804FBF4AC030034AD030059
:10A6B40000B583B00190019B032B03D907494720C0
:10A6C40004F0ACF8064A019B13441B780121184698
:10A6D400FFF762FF00BF03B05DF804FBF4AC0300B6
:10A6E40034AD030000B583B00023019305E0019865
:10A6F400FFF7DEFF019B01330193019B032BF6D986
:10A7040000BF03B05DF804FB00B583B000230193E0
:10A7140005E00198FFF7B2FF019B01330193019B10
:10A72400032BF6D900BF03B05DF804FB00B583B07A
:10A734000190019B032B03D907495F2004F06EF8B5
:10A74400064A019B13441B781846FFF703FF00BF1A
:10A7540003B05DF804FB00BFF4AC030034AD0300A8
:10A7640082B003468DF807309DF8073003F01F02CE
:10A7740006499DF907305B09012000FA02F22033F3
:10A7840041F8232000BF02B0704700BF00E100E0A1
:10A7940008B50EF0F7FB034683F00103DBB2002B90
:10A7A40003D10549792004F039F800F03FFB034B4D
:10A7B40000229A7000BF08BD40AD030098BF00207E
:10A7C40000B583B000230193144B1B78002B02D0F7
:10A7D400852301931CE0114B00229A600F4B002249
:10A7E4005A600E4B00221A610C4B0022DA600C48AE
:10A7F40000F0E2FA01900EF0C5FB034683F001037A
:10A80400DBB2002B01D000F0FDFA044B01221A70D8
:10A81400019B184603B05DF804FB00BF98BF0020FD
:10A82400FDA8020084B00190019B1B680393039B65
:10A83400002B03D0039B1A68019B1A60039B1846E4
:10A8440004B0704700B583B0164B1B78002B04D1BD
:10A8540015494FF4857003F0E1FF124BDB68002BC0
:10A8640004D1114940F20B1003F0D8FF00238DF8F6
:10A8740007300DF107031846FEF7D0FA094BDB68E1
:10A88400013B084AD360074BDB68002B01D1FFF77B
:10A894007FFF9DF807301846FEF7D6FA00BF03B0D5
:10A8A4005DF804FB98BF002040AD030000B585B0FF
:10A8B40003468DF807309DF80730002B02D10C4B6E
:10A8C400039301E00B4B03930398FFF7ABFF029054
:10A8D400029B002B06D0029B5B689DF80720104664
:10A8E4009847F1E700BF00BF05B05DF804FB00BF67
:10A8F400A0BF0020A8BF002000B583B003468DF898
:10A9040007309DF80730002B05D10A4B01225A70FD
:10A914000020FFF7CBFF9DF80730012B05D1054B35
:10A9240001229A700120FFF7C1FF00BF03B05DF858
:10A9340004FB00BF98BF002000B583B001900091D4
:10A94400019B002B05D1054B01225A700020FFF713
:10A95400ADFF00BF03B05DF804FB00BF98BF00204B
:10A9640000B585B0034600918DF807309DF8073097
:10A97400012B07D0032B24D0002B30D10020FFF76C
:10A98400EFFE2DE000238DF80F300DF10F03184674
:10A99400FEF744FA144B1B7883F00103DBB2002B5F
:10A9A40001D0FFF70DFF104BDB6801330E4AD36073
:10A9B4000D4B01229A709DF80F301846FEF744FAA9
:10A9C4000EE0094B1B78002B04D1084940F24520C6
:10A9D40003F024FF00F016FAFFF734FF00E000BF95
:10A9E40000BF05B05DF804FB98BF002040AD030034
:10A9F40000B589B001900091009B0793019B1B78DF
:10AA04008DF80C30019B5B680493019B9B68DBB25F
:10AA14008DF81430019BDB680693074A079B52F8B4
:10AA240023300649079A51F8221003AA1046984782
:10AA340000BF09B05DF804FBACBF0020B4BF002028
:10AA440000B589B001900091009B0793019B1B788E
:10AA54008DF80C30019B5B680493019B9B68DBB20F
:10AA64008DF81430019BDB680693074A079B52F864
:10AA740023300649079A51F8221003AA1046984732
:10AA840000BF09B05DF804FBACBF0020B4BF0020D8
:10AA940030B58FB0039002910192039B1B780C9305
:10AAA4002C490C9B019A41F82320029B1A692A49DC
:10AAB4000C9B41F823200C9B012B07D1029B5B7F4D
:10AAC400002B03D12549762003F0A8FE029B5B7F6F
:10AAD4001946234A0C9B13440A461A70029B04AC81
:10AAE4001D460FCD0FC495E80F0084E80F000C9BA2
:10AAF400089300230D93039B1B781A46184B9B5C09
:10AB0400002B0DD0039B181D019B002B01D0154A6F
:10AB140000E0002204AB194602F0C2F90D9014E0E3
:10AB2400039B1B781A460E4B9B5C002B0DD1039B99
:10AB340003F10C00019B002B01D00B4A00E0002222
:10AB440004AB194601F02CFB0D900D9B18460FB079
:10AB540030BD00BFACBF0020B4BF002090AD0300E7
:10AB6400BCBF0020F5A9020045AA020082B003463A
:10AB74008DF807309DF8073003F01F0205499DF951
:10AB840007305B09012000FA02F241F8232000BFDC
:10AB940002B0704700E100E082B0034600918DF8F6
:10ABA40007309DF90730002B0CDA009BDAB20C4910
:10ABB4009DF8073003F00F03043B5201D2B20B445B
:10ABC4001A7609E0009BDAB206499DF90730520172
:10ABD400D2B20B4483F8002300BF02B0704700BF19
:10ABE40000ED00E000E100E082B00190019B1B0B4E
:10ABF4005BB2184602B0704700B583B003460A46FC
:10AC04008DF8073013468DF806309DF80630012B79
:10AC140003D99DF80630032B0BD99DF80630042B7D
:10AC240003D99DF80630072B03D908496B2003F09C
:10AC3400F5FD9DF806209DF9073011461846FFF7EB
:10AC4400ABFF00BF03B05DF804FB00BFDCAD030045
:10AC540000B583B003468DF807309DF907301846D8
:10AC6400FFF784FF00BF03B05DF804FB82B0034626
:10AC74008DF807300F4A9DF90730002B00DA1F3397
:10AC84005B115BB252F823209DF90730594203F05F
:10AC94001F0301F01F0158BF4B425BB222FA03F3BA
:10ACA40003F00103002B14BF01230023DBB2184679
:10ACB40002B0704700E100E082B001904FF08042A2
:10ACC400019BC2F8083300BF02B0704782B003464C
:10ACD4008DF807309DF8073003F1804301221A6094
:10ACE40000BF02B0704784B00346ADF80630BDF82B
:10ACF400063003F1804300221A60BDF8063003F1E8
:10AD040080431B680393039B00BF04B0704782B069
:10AD14000346ADF80630BDF8063003F180431B68E6
:10AD2400002B14BF01230023DBB2184602B0704786
:10AD340082B001904FF08042019BC2F8183500BFE9
:10AD440002B070474FF08043D3F818341B0C03F063
:10AD54000103002B14BF01230023DBB21846704704
:10AD640000B583B006238DF807304FF08040FFF71D
:10AD74003BFF03461846FFF779FF034683F00103C0
:10AD8400DBB2002B13D04FF08040FFF72DFF0346BA
:10AD94001A469DF8073019461046FFF72DFF4FF06D
:10ADA4008040FFF721FF03461846FFF751FF00BF1D
:10ADB40003B05DF804FB000000B585B00190019B71
:10ADC400002B03D10D49A02003F028FD0023039399
:10ADD4000B4B1B79002B02D08523039308E0084A10
:10ADE400019B1360064B01221A71054B00225A7114
:10ADF400039B184605B05DF804FB00BF14AE0300C6
:10AE0400C0BF002008B5074B1B79002B03D10649AE
:10AE1400B92003F003FDFFF7A3FF0120FFF788FF2C
:10AE240000BF08BDC0BF002014AE030008B5094B25
:10AE34001B79002B03D10849F32003F0EFFC0C200D
:10AE4400FFF744FF00BFFFF77DFF0346002BFAD155
:10AE540000BF08BDC0BF002014AE030008B54FF406
:10AE64008070FFF754FF0346002B14D04FF480701A
:10AE7400FFF739FF0120FFF71FFF114B5B7983F0C8
:10AE84000103DBB2002B06D00D4B01225A710C4B8F
:10AE94001B68002098474FF48270FFF738FF034681
:10AEA400002B0AD04FF48270FFF71DFF0220FFF73A
:10AEB40003FF034B1B680120984700BF08BD00BF78
:10AEC400C0BF002082B003468DF807309DF80730DC
:10AED40003F01F0205499DF907305B09012000FAC0
:10AEE40002F241F8232000BF02B0704700E100E005
:10AEF40082B0034600918DF807309DF90730002B8E
:10AF04000CDA009BDAB20C499DF8073003F00F030A
:10AF1400043B5201D2B20B441A7609E0009BDAB228
:10AF240006499DF907305201D2B20B4483F800233D
:10AF340000BF02B0704700BF00ED00E000E100E098
:10AF440000B583B003460A468DF8073013468DF8E2
:10AF540006309DF80630012B03D99DF80630032BEB
:10AF64000BD99DF80630042B03D99DF80630072B26
:10AF740003D908496B2003F051FC9DF806209DF984
:10AF8400073011461846FFF7B3FF00BF03B05DF862
:10AF940004FB00BF60AE030000B583B003468DF828
:10AFA40007309DF907301846FFF78CFF00BF03B048
:10AFB4005DF804FB00B583B00346ADF80630BDF878
:10AFC4000630184600F026F803461B68012B0CBF18
:10AFD40001230023DBB2184603B05DF804FB00B57F
:10AFE40085B00346ADF80630BDF80630184600F0CB
:10AFF40011F803461A4600231360BDF806301846BC
:10B0040000F008F803461B680393039B00BF05B0D8
:10B014005DF804FB82B00346ADF80630BDF8063097
:10B0240003F1804303F5C043184602B070470000A3
:10B0340082B00190034A019BC2F8043300BF02B0FE
:10B04400704700BF0060004082B00190034BD3F80A
:10B054000423019B1340184602B07047006000406F
:10B0640082B00190084A019B03F5A27352F8233081
:10B07400054943F00102019B03F5A27341F8232023
:10B0840000BF02B0704700BF0060004084B003906E
:10B09400029113468DF80730144A039B03F5A273FB
:10B0A40052F82330114923F44F3323F44073039AA5
:10B0B40002F5A27241F822300C4A039B03F5A273F5
:10B0C40052F82320029B1B0203F47C519DF80730A5
:10B0D4001B0403F440330B4304491A43039B03F555
:10B0E400A27341F8232000BF04B070470060004001
:10B0F40082B00190054A019B03F5A27352F82330F4
:10B104001B0A03F03F03184602B07047006000407A
:10B1140082B00190064A019B03F5A27352F82330D2
:10B124001B0C03F00303DBB2184602B0704700BFE8
:10B134000060004000B583B00190019B1B682F2B79
:10B1440004D90B494FF4F37003F068FB019B1B68AF
:10B154001F2B02D84FF0A04306E0019B1B6803F0AD
:10B164001F02019B1A60034B184603B05DF804FBF1
:10B1740090AE03000003005000B585B0019008466E
:10B1840011461A4603468DF803300B468DF80230FB
:10B1940013468DF8013001AB1846FFF7CBFF03903F
:10B1A4009DF803209DF802305B001A439DF801309E
:10B1B4009B001A439DF818301B0242EA03019DF8D4
:10B1C4001C301B04019A1943039B02F5E07243F8F7
:10B1D400221000BF05B05DF804FB00B585B00390F4
:10B1E4000B468DF80B309DF80B20002301930023B0
:10B1F40000931346002200210398FFF7BDFF00BF10
:10B2040005B05DF804FB00B585B0019001AB1846AC
:10B21400FFF790FF0390019A039B02F5E07253F845
:10B22400223023F002030293019A039B02F5E07299
:10B23400029943F8221000BF05B05DF804FB00B585
:10B2440085B001900B468DF8033001AB1846FFF72B
:10B2540071FF0390019A039B02F5E07253F82230C8
:10B26400019A23F44031039B02F5E07243F8221063
:10B27400019A039B02F5E07253F822309DF80320F3
:10B2840012041146019A1943039B02F5E07243F834
:10B29400221000BF05B05DF804FB00B585B0019035
:10B2A40001AB1846FFF746FF0390039800F020F81F
:10B2B4000246019B22FA03F303F00103184605B08A
:10B2C4005DF804FB00B585B0019001AB1846FFF7AB
:10B2D40031FF0390019A039B02F5E07253F8223088
:10B2E4001B0C03F00303DBB2184605B05DF804FB46
:10B2F40082B00190019BD3F81035184602B0704714
:10B3040000B589B0039002910192174A05AB92E807
:10B31400030083E80300039A029B1344022B04D91D
:10B32400124940F2163003F079FA039B079311E0B7
:10B33400079B9B0008AA134453F80C3C1846FFF7DC
:10B34400D7FF0246019B1A60019B04330193079BBC
:10B3540001330793039A029B1344079A9A42E7D353
:10B3640000BF09B05DF804FBC0AE030090AE03005B
:10B3740084B001900091009B0393019BDB0802932E
:10B38400019B03F0070301930122019B02FA03F3DB
:10B394000399029A0A4412781340184604B070477D
:10B3A40084B001900091009B0393019BDB080293FE
:10B3B400019B03F007030193039A029B13441B7838
:10B3C4005AB20121019B01FA03F35BB2134359B250
:10B3D400039A029B1344CAB21A7000BF04B07047A8
:10B3E40082B001900C4A019B1344303393F900302E
:10B3F400002B09DB084A019B1344303393F90030D6
:10B40400072B01DC012300E0002303F00103DBB27E
:10B41400184602B0704700BFC8BF002082B0019038
:10B42400064A019B1344303393F90030072BCCBFF9
:10B4340001230023DBB2184602B07047C8BF0020C6
:10B4440082B00190064A019B1344303393F90030D3
:10B45400DB43DBB2DB09DBB2184602B0704700BF46
:10B46400C8BF002084B00390029101928DF803308C
:10B47400029B59B20E4A039B134430330A461A7096
:10B484000B49029B019A41F823209DF8033083F075
:10B494000103DBB2002B08D0029B083B039A51B294
:10B4A400034A13440A4683F8602000BF04B070477F
:10B4B400C8BF002082B00190044A019B134430337A
:10B4C400FF221A7000BF02B0704700BFC8BF00203F
:10B4D40000B583B0019004490198FFF761FF00BFF4
:10B4E40003B05DF804FB00BF2CC0002082B00190C3
:10B4F400044A019B1344303393F90030184602B0D8
:10B50400704700BFC8BF002082B00190034A019B6E
:10B5140052F82330184602B0704700BFC8BF00205D
:10B5240000B589B00390029113468DF80730FF23CC
:10B534008DF81F309DF80730002B01D0002300E068
:10B54400082305939DF80730002B01D0082300E061
:10B554000C230493059B069314E00F4A069B52F8B0
:10B564002330B3F1FF3F0AD19DF80730029A0699C0
:10B574000398FFF777FF069B8DF81F3006E0069BC4
:10B5840001330693069A049B9A42E6D39DF91F3031
:10B59400184609B05DF804FBC8BF002082B003461A
:10B5A4008DF807309DF80730094A4FF0FF3142F813
:10B5B40023109DF80730072B07D99DF80730083B67
:10B5C400034A1344FF2283F8602000BF02B070478F
:10B5D400C8BF002000B583B0254B93F86A30002B18
:10B5E40003D008230093009B3EE000238DF807302E
:10B5F40009E09DF807301846FFF75CFF9DF8073017
:10B6040001338DF807309DF807302F2BF1D9002333
:10B614008DF8073009E09DF807301846FFF7BEFFA4
:10B624009DF8073001338DF807309DF807300B2B58
:10B63400F1D9062200210F480EF0B5F806210620A4
:10B64400FFF77EFC0620FFF7A7FC4FF4BE70FFF760
:10B65400C6FC4FF00040FFF7EBFC054B012283F8DA
:10B664006A2000230093009B184603B05DF804FB96
:10B67400C8BF00202CC00020044B93F86A30002B74
:10B6840014BF01230023DBB218467047C8BF002053
:10B6940000B587B0039002910192039B2F2B04D92C
:10B6A400364940F2072003F0B9F8002305930398C4
:10B6B400FFF7C6FE0346002B02D00823059357E08C
:10B6C400029B9B78C3F34003DBB21A4601990398AB
:10B6D400FFF726FF03468DF813309DF91330B3F1BD
:10B6E400FF3F43D0029B9B78C3F38003DBB283F01C
:10B6F4000103DBB2002B13D0029B9B7803F0010300
:10B70400DBB2002B03D00398FFF77DFD05E0029B1D
:10B714005B7819460398FFF760FD0398FFF7D8FE9E
:10B72400029B9B7803F00203DBB2002B08D09DF947
:10B734001300029B1B781A460399FFF7A7FC17E036
:10B744009DF91330083B0E4A134493F96010029B91
:10B754001B789B015AB29DF91330083B0A4351B23E
:10B76400074A13440A4683F8602001E00423059342
:10B77400059B184607B05DF804FB00BFD0AE03007C
:10B78400C8BF002000B587B001900B468DF8033088
:10B79400019B2F2B04D93D4940F2372003F03EF89A
:10B7A4000198FFF74DFE0346002B04D137494FF4AF
:10B7B4000E7003F033F80198FFF730FE0346002BB8
:10B7C4002FD00198FFF792FE0346083B304A1344FA
:10B7D40093F960308DF816309DF816309B098DF87A
:10B7E40015309DF81530032B0BD10198FFF755FD4B
:10B7F4000346002B01D0032300E002238DF8173009
:10B8040008E09DF81530012B01D1022300E0032349
:10B814008DF817309DF8173019460198FFF70FFD82
:10B8240030E00198FFF7DCFD0346002B2AD0019895
:10B83400FFF75CFE03460493049B9BB240339BB228
:10B844009B00ADF80E30049B1846FFF709FCBDF8C9
:10B854000E301846FFF7C3FB9DF80330002B11D0C0
:10B864000198FFF743FE03461846FFF74DFE02908A
:10B87400029B002B06D00122049B02FA03F3184614
:10B88400FFF7D6FB00BF07B05DF804FBD0AE0300A2
:10B89400C8BF002000B583B00190019B2F2B04D9B1
:10B8A40008494FF4227002F0B9FF0198FFF7F5FC44
:10B8B4000346002B14BF01230023DBB2184603B058
:10B8C4005DF804FBD0AE030000B599B000231493D7
:10B8D40006AB00221A605A604FF48073ADF84A3008
:10B8E400012316930023139321E0BDF84A30184630
:10B8F400FFF760FB0346002B0ED01698FFF7A4FB5E
:10B904000346002B08D0BDF84A301846FFF767FB02
:10B91400149A169B13431493169B5B001693BDF85D
:10B924004A300433ADF84A30139B01331393139B0D
:10B93400072BDAD94FF4BE70FFF73CFB0346002B0C
:10B944000DD04FF4BE70FFF74AFB149B43F0004345
:10B95400149306AB1A4602210020FFF7D1FC149B76
:10B96400DBB2002B29D0012316930023139321E08B
:10B97400169A149B1340002B16D01398FFF7B8FBAC
:10B9840011901398FFF7C4FB03468DF843301398C6
:10B99400FFF7BAFD0F900F9B002B05D09DF84320B5
:10B9A4000F9B114611989847169B5B001693139BA7
:10B9B40001331393139B072BDAD9149B002B80F2CA
:10B9C400F08000238DF85F3004AB00221A605A60C7
:10B9D400002315930AE0159B9B0018AA13444FF00B
:10B9E400FF3243F8582C159B01331593159B012BFB
:10B9F400F1D900238DF85F300023139378E06B4A6C
:10BA0400139B1344603393F900308DF83B309DF859
:10BA14003B3023F0C0030D93644A139B13446033FB
:10BA240093F90030B3F1FF3F5FD002AB19460D9894
:10BA3400FFF79EFC0346002B57D09DF83B309B0933
:10BA44008DF833300D98FFF751FD03461846FFF784
:10BA54005BFD0B900B9B002B03D19DF83330032B24
:10BA640043D19DF83330032B04D104AB19460D9810
:10BA7400FFF796FC0D98FFF725FC03468DF82B3055
:10BA840006AB19460D98FFF773FC0990099B002B30
:10BA940003D09DF82B30022B06D0099B002B24D118
:10BAA4009DF82B30032B20D19DF83330032B13D179
:10BAB4009DF82B30022B01D1032300E002238DF8E3
:10BAC40023309DF8233019460D98FFF7B8FB9DF8F5
